{
	"contracts/13_Comp_Array.sol": {
		"CompArrays": {
			"abi": [
				{
					"inputs": [
						{
							"internalType": "string",
							"name": "_nombre",
							"type": "string"
						},
						{
							"internalType": "uint256",
							"name": "_edad",
							"type": "uint256"
						}
					],
					"name": "agregarAlumno",
					"outputs": [],
					"stateMutability": "nonpayable",
					"type": "function"
				},
				{
					"inputs": [
						{
							"internalType": "uint256",
							"name": "_num",
							"type": "uint256"
						}
					],
					"name": "agregarNumero",
					"outputs": [],
					"stateMutability": "nonpayable",
					"type": "function"
				},
				{
					"inputs": [],
					"name": "getTamanioArray",
					"outputs": [
						{
							"internalType": "uint256",
							"name": "",
							"type": "uint256"
						}
					],
					"stateMutability": "view",
					"type": "function"
				},
				{
					"inputs": [
						{
							"internalType": "uint256",
							"name": "i",
							"type": "uint256"
						}
					],
					"name": "mostrarAlumno",
					"outputs": [
						{
							"internalType": "string",
							"name": "nombre",
							"type": "string"
						},
						{
							"internalType": "uint256",
							"name": "edad",
							"type": "uint256"
						}
					],
					"stateMutability": "view",
					"type": "function"
				},
				{
					"inputs": [
						{
							"internalType": "uint256",
							"name": "",
							"type": "uint256"
						}
					],
					"name": "numeros",
					"outputs": [
						{
							"internalType": "uint256",
							"name": "",
							"type": "uint256"
						}
					],
					"stateMutability": "view",
					"type": "function"
				},
				{
					"inputs": [],
					"name": "obtenerNumeros",
					"outputs": [
						{
							"internalType": "uint256[]",
							"name": "",
							"type": "uint256[]"
						}
					],
					"stateMutability": "view",
					"type": "function"
				}
			],
			"devdoc": {
				"kind": "dev",
				"methods": {},
				"version": 1
			},
			"evm": {
				"assembly": "    /* \"contracts/13_Comp_Array.sol\":72:1059  contract CompArrays {... */\n  mstore(0x40, 0x80)\n  callvalue\n  dup1\n  iszero\n  tag_1\n  jumpi\n  revert(0x00, 0x00)\ntag_1:\n  pop\n  dataSize(sub_0)\n  dup1\n  dataOffset(sub_0)\n  0x00\n  codecopy\n  0x00\n  return\nstop\n\nsub_0: assembly {\n        /* \"contracts/13_Comp_Array.sol\":72:1059  contract CompArrays {... */\n      mstore(0x40, 0x80)\n      callvalue\n      dup1\n      iszero\n      tag_1\n      jumpi\n      revert(0x00, 0x00)\n    tag_1:\n      pop\n      jumpi(tag_2, lt(calldatasize, 0x04))\n      shr(0xe0, calldataload(0x00))\n      dup1\n      0x1e409e12\n      eq\n      tag_3\n      jumpi\n      dup1\n      0x57839b79\n      eq\n      tag_4\n      jumpi\n      dup1\n      0x7e1f47f0\n      eq\n      tag_5\n      jumpi\n      dup1\n      0xae77fef6\n      eq\n      tag_6\n      jumpi\n      dup1\n      0xf1dc715d\n      eq\n      tag_7\n      jumpi\n      dup1\n      0xf2f7cca4\n      eq\n      tag_8\n      jumpi\n    tag_2:\n      revert(0x00, 0x00)\n        /* \"contracts/13_Comp_Array.sol\":785:1056  function mostrarAlumno(uint256 i) public view returns(string memory nombre, uint edad) { ... */\n    tag_3:\n      tag_9\n      0x04\n      dup1\n      calldatasize\n      sub\n      dup2\n      add\n      swap1\n      tag_10\n      swap2\n      swap1\n      tag_11\n      jump\t// in\n    tag_10:\n      tag_12\n      jump\t// in\n    tag_9:\n      mload(0x40)\n      tag_13\n      swap3\n      swap2\n      swap1\n      tag_14\n      jump\t// in\n    tag_13:\n      mload(0x40)\n      dup1\n      swap2\n      sub\n      swap1\n      return\n        /* \"contracts/13_Comp_Array.sol\":443:537  function getTamanioArray() public view returns(uint) { ... */\n    tag_4:\n      tag_15\n      tag_16\n      jump\t// in\n    tag_15:\n      mload(0x40)\n      tag_17\n      swap2\n      swap1\n      tag_18\n      jump\t// in\n    tag_17:\n      mload(0x40)\n      dup1\n      swap2\n      sub\n      swap1\n      return\n        /* \"contracts/13_Comp_Array.sol\":656:777  function agregarAlumno(string memory _nombre, uint _edad) public { ... */\n    tag_5:\n      tag_19\n      0x04\n      dup1\n      calldatasize\n      sub\n      dup2\n      add\n      swap1\n      tag_20\n      swap2\n      swap1\n      tag_21\n      jump\t// in\n    tag_20:\n      tag_22\n      jump\t// in\n    tag_19:\n      stop\n        /* \"contracts/13_Comp_Array.sol\":338:435  function obtenerNumeros() public view returns(uint256[] memory){ ... */\n    tag_6:\n      tag_23\n      tag_24\n      jump\t// in\n    tag_23:\n      mload(0x40)\n      tag_25\n      swap2\n      swap1\n      tag_26\n      jump\t// in\n    tag_25:\n      mload(0x40)\n      dup1\n      swap2\n      sub\n      swap1\n      return\n        /* \"contracts/13_Comp_Array.sol\":252:330  function agregarNumero(uint _num) public{ ... */\n    tag_7:\n      tag_27\n      0x04\n      dup1\n      calldatasize\n      sub\n      dup2\n      add\n      swap1\n      tag_28\n      swap2\n      swap1\n      tag_11\n      jump\t// in\n    tag_28:\n      tag_29\n      jump\t// in\n    tag_27:\n      stop\n        /* \"contracts/13_Comp_Array.sol\":186:210  uint256[] public numeros */\n    tag_8:\n      tag_30\n      0x04\n      dup1\n      calldatasize\n      sub\n      dup2\n      add\n      swap1\n      tag_31\n      swap2\n      swap1\n      tag_11\n      jump\t// in\n    tag_31:\n      tag_32\n      jump\t// in\n    tag_30:\n      mload(0x40)\n      tag_33\n      swap2\n      swap1\n      tag_18\n      jump\t// in\n    tag_33:\n      mload(0x40)\n      dup1\n      swap2\n      sub\n      swap1\n      return\n        /* \"contracts/13_Comp_Array.sol\":785:1056  function mostrarAlumno(uint256 i) public view returns(string memory nombre, uint edad) { ... */\n    tag_12:\n        /* \"contracts/13_Comp_Array.sol\":839:859  string memory nombre */\n      0x60\n        /* \"contracts/13_Comp_Array.sol\":861:870  uint edad */\n      0x00\n        /* \"contracts/13_Comp_Array.sol\":905:920  Alumno memory a */\n      0x00\n        /* \"contracts/13_Comp_Array.sol\":923:930  alumnos */\n      0x01\n        /* \"contracts/13_Comp_Array.sol\":931:932  i */\n      dup5\n        /* \"contracts/13_Comp_Array.sol\":923:933  alumnos[i] */\n      dup2\n      sload\n      dup2\n      lt\n      tag_35\n      jumpi\n      tag_36\n      tag_37\n      jump\t// in\n    tag_36:\n    tag_35:\n      swap1\n      0x00\n      mstore\n      keccak256(0x00, 0x20)\n      swap1\n      0x02\n      mul\n      add\n        /* \"contracts/13_Comp_Array.sol\":905:933  Alumno memory a = alumnos[i] */\n      mload(0x40)\n      dup1\n      0x40\n      add\n      0x40\n      mstore\n      swap1\n      dup2\n      0x00\n      dup3\n      add\n      dup1\n      sload\n      tag_39\n      swap1\n      tag_40\n      jump\t// in\n    tag_39:\n      dup1\n      0x1f\n      add\n      0x20\n      dup1\n      swap2\n      div\n      mul\n      0x20\n      add\n      mload(0x40)\n      swap1\n      dup2\n      add\n      0x40\n      mstore\n      dup1\n      swap3\n      swap2\n      swap1\n      dup2\n      dup2\n      mstore\n      0x20\n      add\n      dup3\n      dup1\n      sload\n      tag_41\n      swap1\n      tag_40\n      jump\t// in\n    tag_41:\n      dup1\n      iszero\n      tag_42\n      jumpi\n      dup1\n      0x1f\n      lt\n      tag_43\n      jumpi\n      0x0100\n      dup1\n      dup4\n      sload\n      div\n      mul\n      dup4\n      mstore\n      swap2\n      0x20\n      add\n      swap2\n      jump(tag_42)\n    tag_43:\n      dup3\n      add\n      swap2\n      swap1\n      0x00\n      mstore\n      keccak256(0x00, 0x20)\n      swap1\n    tag_44:\n      dup2\n      sload\n      dup2\n      mstore\n      swap1\n      0x01\n      add\n      swap1\n      0x20\n      add\n      dup1\n      dup4\n      gt\n      tag_44\n      jumpi\n      dup3\n      swap1\n      sub\n      0x1f\n      and\n      dup3\n      add\n      swap2\n    tag_42:\n      pop\n      pop\n      pop\n      pop\n      pop\n      dup2\n      mstore\n      0x20\n      add\n      0x01\n      dup3\n      add\n      sload\n      dup2\n      mstore\n      pop\n      pop\n      swap1\n      pop\n        /* \"contracts/13_Comp_Array.sol\":952:953  a */\n      dup1\n        /* \"contracts/13_Comp_Array.sol\":952:960  a.nombre */\n      0x00\n      add\n      mload\n        /* \"contracts/13_Comp_Array.sol\":962:963  a */\n      dup2\n        /* \"contracts/13_Comp_Array.sol\":962:968  a.edad */\n      0x20\n      add\n      mload\n        /* \"contracts/13_Comp_Array.sol\":944:969  return (a.nombre, a.edad) */\n      swap3\n      pop\n      swap3\n      pop\n      pop\n        /* \"contracts/13_Comp_Array.sol\":785:1056  function mostrarAlumno(uint256 i) public view returns(string memory nombre, uint edad) { ... */\n      swap2\n      pop\n      swap2\n      jump\t// out\n        /* \"contracts/13_Comp_Array.sol\":443:537  function getTamanioArray() public view returns(uint) { ... */\n    tag_16:\n        /* \"contracts/13_Comp_Array.sol\":490:494  uint */\n      0x00\n        /* \"contracts/13_Comp_Array.sol\":515:522  numeros */\n      0x00\n        /* \"contracts/13_Comp_Array.sol\":515:529  numeros.length */\n      dup1\n      sload\n      swap1\n      pop\n        /* \"contracts/13_Comp_Array.sol\":508:529  return numeros.length */\n      swap1\n      pop\n        /* \"contracts/13_Comp_Array.sol\":443:537  function getTamanioArray() public view returns(uint) { ... */\n      swap1\n      jump\t// out\n        /* \"contracts/13_Comp_Array.sol\":656:777  function agregarAlumno(string memory _nombre, uint _edad) public { ... */\n    tag_22:\n        /* \"contracts/13_Comp_Array.sol\":733:740  alumnos */\n      0x01\n        /* \"contracts/13_Comp_Array.sol\":746:768  Alumno(_nombre, _edad) */\n      mload(0x40)\n      dup1\n      0x40\n      add\n      0x40\n      mstore\n      dup1\n        /* \"contracts/13_Comp_Array.sol\":753:760  _nombre */\n      dup5\n        /* \"contracts/13_Comp_Array.sol\":746:768  Alumno(_nombre, _edad) */\n      dup2\n      mstore\n      0x20\n      add\n        /* \"contracts/13_Comp_Array.sol\":762:767  _edad */\n      dup4\n        /* \"contracts/13_Comp_Array.sol\":746:768  Alumno(_nombre, _edad) */\n      dup2\n      mstore\n      pop\n        /* \"contracts/13_Comp_Array.sol\":733:769  alumnos.push(Alumno(_nombre, _edad)) */\n      swap1\n      dup1\n      0x01\n      dup2\n      sload\n      add\n      dup1\n      dup3\n      sstore\n      dup1\n      swap2\n      pop\n      pop\n      0x01\n      swap1\n      sub\n      swap1\n      0x00\n      mstore\n      keccak256(0x00, 0x20)\n      swap1\n      0x02\n      mul\n      add\n      0x00\n      swap1\n      swap2\n      swap1\n      swap2\n      swap1\n      swap2\n      pop\n      0x00\n      dup3\n      add\n      mload\n      dup2\n      0x00\n      add\n      swap1\n      dup2\n      tag_48\n      swap2\n      swap1\n      tag_49\n      jump\t// in\n    tag_48:\n      pop\n      0x20\n      dup3\n      add\n      mload\n      dup2\n      0x01\n      add\n      sstore\n      pop\n      pop\n        /* \"contracts/13_Comp_Array.sol\":656:777  function agregarAlumno(string memory _nombre, uint _edad) public { ... */\n      pop\n      pop\n      jump\t// out\n        /* \"contracts/13_Comp_Array.sol\":338:435  function obtenerNumeros() public view returns(uint256[] memory){ ... */\n    tag_24:\n        /* \"contracts/13_Comp_Array.sol\":384:400  uint256[] memory */\n      0x60\n        /* \"contracts/13_Comp_Array.sol\":420:427  numeros */\n      0x00\n        /* \"contracts/13_Comp_Array.sol\":413:427  return numeros */\n      dup1\n      sload\n      dup1\n      0x20\n      mul\n      0x20\n      add\n      mload(0x40)\n      swap1\n      dup2\n      add\n      0x40\n      mstore\n      dup1\n      swap3\n      swap2\n      swap1\n      dup2\n      dup2\n      mstore\n      0x20\n      add\n      dup3\n      dup1\n      sload\n      dup1\n      iszero\n      tag_51\n      jumpi\n      0x20\n      mul\n      dup3\n      add\n      swap2\n      swap1\n      0x00\n      mstore\n      keccak256(0x00, 0x20)\n      swap1\n    tag_52:\n      dup2\n      sload\n      dup2\n      mstore\n      0x20\n      add\n      swap1\n      0x01\n      add\n      swap1\n      dup1\n      dup4\n      gt\n      tag_52\n      jumpi\n    tag_51:\n      pop\n      pop\n      pop\n      pop\n      pop\n      swap1\n      pop\n        /* \"contracts/13_Comp_Array.sol\":338:435  function obtenerNumeros() public view returns(uint256[] memory){ ... */\n      swap1\n      jump\t// out\n        /* \"contracts/13_Comp_Array.sol\":252:330  function agregarNumero(uint _num) public{ ... */\n    tag_29:\n        /* \"contracts/13_Comp_Array.sol\":304:311  numeros */\n      0x00\n        /* \"contracts/13_Comp_Array.sol\":317:321  _num */\n      dup2\n        /* \"contracts/13_Comp_Array.sol\":304:322  numeros.push(_num) */\n      swap1\n      dup1\n      0x01\n      dup2\n      sload\n      add\n      dup1\n      dup3\n      sstore\n      dup1\n      swap2\n      pop\n      pop\n      0x01\n      swap1\n      sub\n      swap1\n      0x00\n      mstore\n      keccak256(0x00, 0x20)\n      add\n      0x00\n      swap1\n      swap2\n      swap1\n      swap2\n      swap1\n      swap2\n      pop\n      sstore\n        /* \"contracts/13_Comp_Array.sol\":252:330  function agregarNumero(uint _num) public{ ... */\n      pop\n      jump\t// out\n        /* \"contracts/13_Comp_Array.sol\":186:210  uint256[] public numeros */\n    tag_32:\n      0x00\n      dup2\n      dup2\n      sload\n      dup2\n      lt\n      tag_55\n      jumpi\n      0x00\n      dup1\n      revert\n    tag_55:\n      swap1\n      0x00\n      mstore\n      keccak256(0x00, 0x20)\n      add\n      0x00\n      swap2\n      pop\n      swap1\n      pop\n      sload\n      dup2\n      jump\t// out\n        /* \"#utility.yul\":7:82   */\n    tag_57:\n        /* \"#utility.yul\":40:46   */\n      0x00\n        /* \"#utility.yul\":73:75   */\n      0x40\n        /* \"#utility.yul\":67:76   */\n      mload\n        /* \"#utility.yul\":57:76   */\n      swap1\n      pop\n        /* \"#utility.yul\":7:82   */\n      swap1\n      jump\t// out\n        /* \"#utility.yul\":88:205   */\n    tag_58:\n        /* \"#utility.yul\":197:198   */\n      0x00\n        /* \"#utility.yul\":194:195   */\n      0x00\n        /* \"#utility.yul\":187:199   */\n      revert\n        /* \"#utility.yul\":211:328   */\n    tag_59:\n        /* \"#utility.yul\":320:321   */\n      0x00\n        /* \"#utility.yul\":317:318   */\n      0x00\n        /* \"#utility.yul\":310:322   */\n      revert\n        /* \"#utility.yul\":334:411   */\n    tag_60:\n        /* \"#utility.yul\":371:378   */\n      0x00\n        /* \"#utility.yul\":400:405   */\n      dup2\n        /* \"#utility.yul\":389:405   */\n      swap1\n      pop\n        /* \"#utility.yul\":334:411   */\n      swap2\n      swap1\n      pop\n      jump\t// out\n        /* \"#utility.yul\":417:539   */\n    tag_61:\n        /* \"#utility.yul\":490:514   */\n      tag_107\n        /* \"#utility.yul\":508:513   */\n      dup2\n        /* \"#utility.yul\":490:514   */\n      tag_60\n      jump\t// in\n    tag_107:\n        /* \"#utility.yul\":483:488   */\n      dup2\n        /* \"#utility.yul\":480:515   */\n      eq\n        /* \"#utility.yul\":470:533   */\n      tag_108\n      jumpi\n        /* \"#utility.yul\":529:530   */\n      0x00\n        /* \"#utility.yul\":526:527   */\n      0x00\n        /* \"#utility.yul\":519:531   */\n      revert\n        /* \"#utility.yul\":470:533   */\n    tag_108:\n        /* \"#utility.yul\":417:539   */\n      pop\n      jump\t// out\n        /* \"#utility.yul\":545:684   */\n    tag_62:\n        /* \"#utility.yul\":591:596   */\n      0x00\n        /* \"#utility.yul\":629:635   */\n      dup2\n        /* \"#utility.yul\":616:636   */\n      calldataload\n        /* \"#utility.yul\":607:636   */\n      swap1\n      pop\n        /* \"#utility.yul\":645:678   */\n      tag_110\n        /* \"#utility.yul\":672:677   */\n      dup2\n        /* \"#utility.yul\":645:678   */\n      tag_61\n      jump\t// in\n    tag_110:\n        /* \"#utility.yul\":545:684   */\n      swap3\n      swap2\n      pop\n      pop\n      jump\t// out\n        /* \"#utility.yul\":690:1019   */\n    tag_11:\n        /* \"#utility.yul\":749:755   */\n      0x00\n        /* \"#utility.yul\":798:800   */\n      0x20\n        /* \"#utility.yul\":786:795   */\n      dup3\n        /* \"#utility.yul\":777:784   */\n      dup5\n        /* \"#utility.yul\":773:796   */\n      sub\n        /* \"#utility.yul\":769:801   */\n      slt\n        /* \"#utility.yul\":766:885   */\n      iszero\n      tag_112\n      jumpi\n        /* \"#utility.yul\":804:883   */\n      tag_113\n      tag_58\n      jump\t// in\n    tag_113:\n        /* \"#utility.yul\":766:885   */\n    tag_112:\n        /* \"#utility.yul\":924:925   */\n      0x00\n        /* \"#utility.yul\":949:1002   */\n      tag_114\n        /* \"#utility.yul\":994:1001   */\n      dup5\n        /* \"#utility.yul\":985:991   */\n      dup3\n        /* \"#utility.yul\":974:983   */\n      dup6\n        /* \"#utility.yul\":970:992   */\n      add\n        /* \"#utility.yul\":949:1002   */\n      tag_62\n      jump\t// in\n    tag_114:\n        /* \"#utility.yul\":939:1002   */\n      swap2\n      pop\n        /* \"#utility.yul\":895:1012   */\n      pop\n        /* \"#utility.yul\":690:1019   */\n      swap3\n      swap2\n      pop\n      pop\n      jump\t// out\n        /* \"#utility.yul\":1025:1124   */\n    tag_63:\n        /* \"#utility.yul\":1077:1083   */\n      0x00\n        /* \"#utility.yul\":1111:1116   */\n      dup2\n        /* \"#utility.yul\":1105:1117   */\n      mload\n        /* \"#utility.yul\":1095:1117   */\n      swap1\n      pop\n        /* \"#utility.yul\":1025:1124   */\n      swap2\n      swap1\n      pop\n      jump\t// out\n        /* \"#utility.yul\":1130:1299   */\n    tag_64:\n        /* \"#utility.yul\":1214:1225   */\n      0x00\n        /* \"#utility.yul\":1248:1254   */\n      dup3\n        /* \"#utility.yul\":1243:1246   */\n      dup3\n        /* \"#utility.yul\":1236:1255   */\n      mstore\n        /* \"#utility.yul\":1288:1292   */\n      0x20\n        /* \"#utility.yul\":1283:1286   */\n      dup3\n        /* \"#utility.yul\":1279:1293   */\n      add\n        /* \"#utility.yul\":1264:1293   */\n      swap1\n      pop\n        /* \"#utility.yul\":1130:1299   */\n      swap3\n      swap2\n      pop\n      pop\n      jump\t// out\n        /* \"#utility.yul\":1305:1444   */\n    tag_65:\n        /* \"#utility.yul\":1394:1400   */\n      dup3\n        /* \"#utility.yul\":1389:1392   */\n      dup2\n        /* \"#utility.yul\":1384:1387   */\n      dup4\n        /* \"#utility.yul\":1378:1401   */\n      mcopy\n        /* \"#utility.yul\":1435:1436   */\n      0x00\n        /* \"#utility.yul\":1426:1432   */\n      dup4\n        /* \"#utility.yul\":1421:1424   */\n      dup4\n        /* \"#utility.yul\":1417:1433   */\n      add\n        /* \"#utility.yul\":1410:1437   */\n      mstore\n        /* \"#utility.yul\":1305:1444   */\n      pop\n      pop\n      pop\n      jump\t// out\n        /* \"#utility.yul\":1450:1552   */\n    tag_66:\n        /* \"#utility.yul\":1491:1497   */\n      0x00\n        /* \"#utility.yul\":1542:1544   */\n      0x1f\n        /* \"#utility.yul\":1538:1545   */\n      not\n        /* \"#utility.yul\":1533:1535   */\n      0x1f\n        /* \"#utility.yul\":1526:1531   */\n      dup4\n        /* \"#utility.yul\":1522:1536   */\n      add\n        /* \"#utility.yul\":1518:1546   */\n      and\n        /* \"#utility.yul\":1508:1546   */\n      swap1\n      pop\n        /* \"#utility.yul\":1450:1552   */\n      swap2\n      swap1\n      pop\n      jump\t// out\n        /* \"#utility.yul\":1558:1935   */\n    tag_67:\n        /* \"#utility.yul\":1646:1649   */\n      0x00\n        /* \"#utility.yul\":1674:1713   */\n      tag_120\n        /* \"#utility.yul\":1707:1712   */\n      dup3\n        /* \"#utility.yul\":1674:1713   */\n      tag_63\n      jump\t// in\n    tag_120:\n        /* \"#utility.yul\":1729:1800   */\n      tag_121\n        /* \"#utility.yul\":1793:1799   */\n      dup2\n        /* \"#utility.yul\":1788:1791   */\n      dup6\n        /* \"#utility.yul\":1729:1800   */\n      tag_64\n      jump\t// in\n    tag_121:\n        /* \"#utility.yul\":1722:1800   */\n      swap4\n      pop\n        /* \"#utility.yul\":1809:1874   */\n      tag_122\n        /* \"#utility.yul\":1867:1873   */\n      dup2\n        /* \"#utility.yul\":1862:1865   */\n      dup6\n        /* \"#utility.yul\":1855:1859   */\n      0x20\n        /* \"#utility.yul\":1848:1853   */\n      dup7\n        /* \"#utility.yul\":1844:1860   */\n      add\n        /* \"#utility.yul\":1809:1874   */\n      tag_65\n      jump\t// in\n    tag_122:\n        /* \"#utility.yul\":1899:1928   */\n      tag_123\n        /* \"#utility.yul\":1921:1927   */\n      dup2\n        /* \"#utility.yul\":1899:1928   */\n      tag_66\n      jump\t// in\n    tag_123:\n        /* \"#utility.yul\":1894:1897   */\n      dup5\n        /* \"#utility.yul\":1890:1929   */\n      add\n        /* \"#utility.yul\":1883:1929   */\n      swap2\n      pop\n        /* \"#utility.yul\":1650:1935   */\n      pop\n        /* \"#utility.yul\":1558:1935   */\n      swap3\n      swap2\n      pop\n      pop\n      jump\t// out\n        /* \"#utility.yul\":1941:2059   */\n    tag_68:\n        /* \"#utility.yul\":2028:2052   */\n      tag_125\n        /* \"#utility.yul\":2046:2051   */\n      dup2\n        /* \"#utility.yul\":2028:2052   */\n      tag_60\n      jump\t// in\n    tag_125:\n        /* \"#utility.yul\":2023:2026   */\n      dup3\n        /* \"#utility.yul\":2016:2053   */\n      mstore\n        /* \"#utility.yul\":1941:2059   */\n      pop\n      pop\n      jump\t// out\n        /* \"#utility.yul\":2065:2488   */\n    tag_14:\n        /* \"#utility.yul\":2206:2210   */\n      0x00\n        /* \"#utility.yul\":2244:2246   */\n      0x40\n        /* \"#utility.yul\":2233:2242   */\n      dup3\n        /* \"#utility.yul\":2229:2247   */\n      add\n        /* \"#utility.yul\":2221:2247   */\n      swap1\n      pop\n        /* \"#utility.yul\":2293:2302   */\n      dup2\n        /* \"#utility.yul\":2287:2291   */\n      dup2\n        /* \"#utility.yul\":2283:2303   */\n      sub\n        /* \"#utility.yul\":2279:2280   */\n      0x00\n        /* \"#utility.yul\":2268:2277   */\n      dup4\n        /* \"#utility.yul\":2264:2281   */\n      add\n        /* \"#utility.yul\":2257:2304   */\n      mstore\n        /* \"#utility.yul\":2321:2399   */\n      tag_127\n        /* \"#utility.yul\":2394:2398   */\n      dup2\n        /* \"#utility.yul\":2385:2391   */\n      dup6\n        /* \"#utility.yul\":2321:2399   */\n      tag_67\n      jump\t// in\n    tag_127:\n        /* \"#utility.yul\":2313:2399   */\n      swap1\n      pop\n        /* \"#utility.yul\":2409:2481   */\n      tag_128\n        /* \"#utility.yul\":2477:2479   */\n      0x20\n        /* \"#utility.yul\":2466:2475   */\n      dup4\n        /* \"#utility.yul\":2462:2480   */\n      add\n        /* \"#utility.yul\":2453:2459   */\n      dup5\n        /* \"#utility.yul\":2409:2481   */\n      tag_68\n      jump\t// in\n    tag_128:\n        /* \"#utility.yul\":2065:2488   */\n      swap4\n      swap3\n      pop\n      pop\n      pop\n      jump\t// out\n        /* \"#utility.yul\":2494:2716   */\n    tag_18:\n        /* \"#utility.yul\":2587:2591   */\n      0x00\n        /* \"#utility.yul\":2625:2627   */\n      0x20\n        /* \"#utility.yul\":2614:2623   */\n      dup3\n        /* \"#utility.yul\":2610:2628   */\n      add\n        /* \"#utility.yul\":2602:2628   */\n      swap1\n      pop\n        /* \"#utility.yul\":2638:2709   */\n      tag_130\n        /* \"#utility.yul\":2706:2707   */\n      0x00\n        /* \"#utility.yul\":2695:2704   */\n      dup4\n        /* \"#utility.yul\":2691:2708   */\n      add\n        /* \"#utility.yul\":2682:2688   */\n      dup5\n        /* \"#utility.yul\":2638:2709   */\n      tag_68\n      jump\t// in\n    tag_130:\n        /* \"#utility.yul\":2494:2716   */\n      swap3\n      swap2\n      pop\n      pop\n      jump\t// out\n        /* \"#utility.yul\":2722:2839   */\n    tag_69:\n        /* \"#utility.yul\":2831:2832   */\n      0x00\n        /* \"#utility.yul\":2828:2829   */\n      0x00\n        /* \"#utility.yul\":2821:2833   */\n      revert\n        /* \"#utility.yul\":2845:2962   */\n    tag_70:\n        /* \"#utility.yul\":2954:2955   */\n      0x00\n        /* \"#utility.yul\":2951:2952   */\n      0x00\n        /* \"#utility.yul\":2944:2956   */\n      revert\n        /* \"#utility.yul\":2968:3148   */\n    tag_71:\n        /* \"#utility.yul\":3016:3093   */\n      0x4e487b7100000000000000000000000000000000000000000000000000000000\n        /* \"#utility.yul\":3013:3014   */\n      0x00\n        /* \"#utility.yul\":3006:3094   */\n      mstore\n        /* \"#utility.yul\":3113:3117   */\n      0x41\n        /* \"#utility.yul\":3110:3111   */\n      0x04\n        /* \"#utility.yul\":3103:3118   */\n      mstore\n        /* \"#utility.yul\":3137:3141   */\n      0x24\n        /* \"#utility.yul\":3134:3135   */\n      0x00\n        /* \"#utility.yul\":3127:3142   */\n      revert\n        /* \"#utility.yul\":3154:3435   */\n    tag_72:\n        /* \"#utility.yul\":3237:3264   */\n      tag_135\n        /* \"#utility.yul\":3259:3263   */\n      dup3\n        /* \"#utility.yul\":3237:3264   */\n      tag_66\n      jump\t// in\n    tag_135:\n        /* \"#utility.yul\":3229:3235   */\n      dup2\n        /* \"#utility.yul\":3225:3265   */\n      add\n        /* \"#utility.yul\":3367:3373   */\n      dup2\n        /* \"#utility.yul\":3355:3365   */\n      dup2\n        /* \"#utility.yul\":3352:3374   */\n      lt\n        /* \"#utility.yul\":3331:3349   */\n      0xffffffffffffffff\n        /* \"#utility.yul\":3319:3329   */\n      dup3\n        /* \"#utility.yul\":3316:3350   */\n      gt\n        /* \"#utility.yul\":3313:3375   */\n      or\n        /* \"#utility.yul\":3310:3398   */\n      iszero\n      tag_136\n      jumpi\n        /* \"#utility.yul\":3378:3396   */\n      tag_137\n      tag_71\n      jump\t// in\n    tag_137:\n        /* \"#utility.yul\":3310:3398   */\n    tag_136:\n        /* \"#utility.yul\":3418:3428   */\n      dup1\n        /* \"#utility.yul\":3414:3416   */\n      0x40\n        /* \"#utility.yul\":3407:3429   */\n      mstore\n        /* \"#utility.yul\":3197:3435   */\n      pop\n        /* \"#utility.yul\":3154:3435   */\n      pop\n      pop\n      jump\t// out\n        /* \"#utility.yul\":3441:3570   */\n    tag_73:\n        /* \"#utility.yul\":3475:3481   */\n      0x00\n        /* \"#utility.yul\":3502:3522   */\n      tag_139\n      tag_57\n      jump\t// in\n    tag_139:\n        /* \"#utility.yul\":3492:3522   */\n      swap1\n      pop\n        /* \"#utility.yul\":3531:3564   */\n      tag_140\n        /* \"#utility.yul\":3559:3563   */\n      dup3\n        /* \"#utility.yul\":3551:3557   */\n      dup3\n        /* \"#utility.yul\":3531:3564   */\n      tag_72\n      jump\t// in\n    tag_140:\n        /* \"#utility.yul\":3441:3570   */\n      swap2\n      swap1\n      pop\n      jump\t// out\n        /* \"#utility.yul\":3576:3884   */\n    tag_74:\n        /* \"#utility.yul\":3638:3642   */\n      0x00\n        /* \"#utility.yul\":3728:3746   */\n      0xffffffffffffffff\n        /* \"#utility.yul\":3720:3726   */\n      dup3\n        /* \"#utility.yul\":3717:3747   */\n      gt\n        /* \"#utility.yul\":3714:3770   */\n      iszero\n      tag_142\n      jumpi\n        /* \"#utility.yul\":3750:3768   */\n      tag_143\n      tag_71\n      jump\t// in\n    tag_143:\n        /* \"#utility.yul\":3714:3770   */\n    tag_142:\n        /* \"#utility.yul\":3788:3817   */\n      tag_144\n        /* \"#utility.yul\":3810:3816   */\n      dup3\n        /* \"#utility.yul\":3788:3817   */\n      tag_66\n      jump\t// in\n    tag_144:\n        /* \"#utility.yul\":3780:3817   */\n      swap1\n      pop\n        /* \"#utility.yul\":3872:3876   */\n      0x20\n        /* \"#utility.yul\":3866:3870   */\n      dup2\n        /* \"#utility.yul\":3862:3877   */\n      add\n        /* \"#utility.yul\":3854:3877   */\n      swap1\n      pop\n        /* \"#utility.yul\":3576:3884   */\n      swap2\n      swap1\n      pop\n      jump\t// out\n        /* \"#utility.yul\":3890:4038   */\n    tag_75:\n        /* \"#utility.yul\":3988:3994   */\n      dup3\n        /* \"#utility.yul\":3983:3986   */\n      dup2\n        /* \"#utility.yul\":3978:3981   */\n      dup4\n        /* \"#utility.yul\":3965:3995   */\n      calldatacopy\n        /* \"#utility.yul\":4029:4030   */\n      0x00\n        /* \"#utility.yul\":4020:4026   */\n      dup4\n        /* \"#utility.yul\":4015:4018   */\n      dup4\n        /* \"#utility.yul\":4011:4027   */\n      add\n        /* \"#utility.yul\":4004:4031   */\n      mstore\n        /* \"#utility.yul\":3890:4038   */\n      pop\n      pop\n      pop\n      jump\t// out\n        /* \"#utility.yul\":4044:4469   */\n    tag_76:\n        /* \"#utility.yul\":4122:4127   */\n      0x00\n        /* \"#utility.yul\":4147:4213   */\n      tag_147\n        /* \"#utility.yul\":4163:4212   */\n      tag_148\n        /* \"#utility.yul\":4205:4211   */\n      dup5\n        /* \"#utility.yul\":4163:4212   */\n      tag_74\n      jump\t// in\n    tag_148:\n        /* \"#utility.yul\":4147:4213   */\n      tag_73\n      jump\t// in\n    tag_147:\n        /* \"#utility.yul\":4138:4213   */\n      swap1\n      pop\n        /* \"#utility.yul\":4236:4242   */\n      dup3\n        /* \"#utility.yul\":4229:4234   */\n      dup2\n        /* \"#utility.yul\":4222:4243   */\n      mstore\n        /* \"#utility.yul\":4274:4278   */\n      0x20\n        /* \"#utility.yul\":4267:4272   */\n      dup2\n        /* \"#utility.yul\":4263:4279   */\n      add\n        /* \"#utility.yul\":4312:4315   */\n      dup5\n        /* \"#utility.yul\":4303:4309   */\n      dup5\n        /* \"#utility.yul\":4298:4301   */\n      dup5\n        /* \"#utility.yul\":4294:4310   */\n      add\n        /* \"#utility.yul\":4291:4316   */\n      gt\n        /* \"#utility.yul\":4288:4400   */\n      iszero\n      tag_149\n      jumpi\n        /* \"#utility.yul\":4319:4398   */\n      tag_150\n      tag_70\n      jump\t// in\n    tag_150:\n        /* \"#utility.yul\":4288:4400   */\n    tag_149:\n        /* \"#utility.yul\":4409:4463   */\n      tag_151\n        /* \"#utility.yul\":4456:4462   */\n      dup5\n        /* \"#utility.yul\":4451:4454   */\n      dup3\n        /* \"#utility.yul\":4446:4449   */\n      dup6\n        /* \"#utility.yul\":4409:4463   */\n      tag_75\n      jump\t// in\n    tag_151:\n        /* \"#utility.yul\":4128:4469   */\n      pop\n        /* \"#utility.yul\":4044:4469   */\n      swap4\n      swap3\n      pop\n      pop\n      pop\n      jump\t// out\n        /* \"#utility.yul\":4489:4829   */\n    tag_77:\n        /* \"#utility.yul\":4545:4550   */\n      0x00\n        /* \"#utility.yul\":4594:4597   */\n      dup3\n        /* \"#utility.yul\":4587:4591   */\n      0x1f\n        /* \"#utility.yul\":4579:4585   */\n      dup4\n        /* \"#utility.yul\":4575:4592   */\n      add\n        /* \"#utility.yul\":4571:4598   */\n      slt\n        /* \"#utility.yul\":4561:4683   */\n      tag_153\n      jumpi\n        /* \"#utility.yul\":4602:4681   */\n      tag_154\n      tag_69\n      jump\t// in\n    tag_154:\n        /* \"#utility.yul\":4561:4683   */\n    tag_153:\n        /* \"#utility.yul\":4719:4725   */\n      dup2\n        /* \"#utility.yul\":4706:4726   */\n      calldataload\n        /* \"#utility.yul\":4744:4823   */\n      tag_155\n        /* \"#utility.yul\":4819:4822   */\n      dup5\n        /* \"#utility.yul\":4811:4817   */\n      dup3\n        /* \"#utility.yul\":4804:4808   */\n      0x20\n        /* \"#utility.yul\":4796:4802   */\n      dup7\n        /* \"#utility.yul\":4792:4809   */\n      add\n        /* \"#utility.yul\":4744:4823   */\n      tag_76\n      jump\t// in\n    tag_155:\n        /* \"#utility.yul\":4735:4823   */\n      swap2\n      pop\n        /* \"#utility.yul\":4551:4829   */\n      pop\n        /* \"#utility.yul\":4489:4829   */\n      swap3\n      swap2\n      pop\n      pop\n      jump\t// out\n        /* \"#utility.yul\":4835:5489   */\n    tag_21:\n        /* \"#utility.yul\":4913:4919   */\n      0x00\n        /* \"#utility.yul\":4921:4927   */\n      0x00\n        /* \"#utility.yul\":4970:4972   */\n      0x40\n        /* \"#utility.yul\":4958:4967   */\n      dup4\n        /* \"#utility.yul\":4949:4956   */\n      dup6\n        /* \"#utility.yul\":4945:4968   */\n      sub\n        /* \"#utility.yul\":4941:4973   */\n      slt\n        /* \"#utility.yul\":4938:5057   */\n      iszero\n      tag_157\n      jumpi\n        /* \"#utility.yul\":4976:5055   */\n      tag_158\n      tag_58\n      jump\t// in\n    tag_158:\n        /* \"#utility.yul\":4938:5057   */\n    tag_157:\n        /* \"#utility.yul\":5124:5125   */\n      0x00\n        /* \"#utility.yul\":5113:5122   */\n      dup4\n        /* \"#utility.yul\":5109:5126   */\n      add\n        /* \"#utility.yul\":5096:5127   */\n      calldataload\n        /* \"#utility.yul\":5154:5172   */\n      0xffffffffffffffff\n        /* \"#utility.yul\":5146:5152   */\n      dup2\n        /* \"#utility.yul\":5143:5173   */\n      gt\n        /* \"#utility.yul\":5140:5257   */\n      iszero\n      tag_159\n      jumpi\n        /* \"#utility.yul\":5176:5255   */\n      tag_160\n      tag_59\n      jump\t// in\n    tag_160:\n        /* \"#utility.yul\":5140:5257   */\n    tag_159:\n        /* \"#utility.yul\":5281:5344   */\n      tag_161\n        /* \"#utility.yul\":5336:5343   */\n      dup6\n        /* \"#utility.yul\":5327:5333   */\n      dup3\n        /* \"#utility.yul\":5316:5325   */\n      dup7\n        /* \"#utility.yul\":5312:5334   */\n      add\n        /* \"#utility.yul\":5281:5344   */\n      tag_77\n      jump\t// in\n    tag_161:\n        /* \"#utility.yul\":5271:5344   */\n      swap3\n      pop\n        /* \"#utility.yul\":5067:5354   */\n      pop\n        /* \"#utility.yul\":5393:5395   */\n      0x20\n        /* \"#utility.yul\":5419:5472   */\n      tag_162\n        /* \"#utility.yul\":5464:5471   */\n      dup6\n        /* \"#utility.yul\":5455:5461   */\n      dup3\n        /* \"#utility.yul\":5444:5453   */\n      dup7\n        /* \"#utility.yul\":5440:5462   */\n      add\n        /* \"#utility.yul\":5419:5472   */\n      tag_62\n      jump\t// in\n    tag_162:\n        /* \"#utility.yul\":5409:5472   */\n      swap2\n      pop\n        /* \"#utility.yul\":5364:5482   */\n      pop\n        /* \"#utility.yul\":4835:5489   */\n      swap3\n      pop\n      swap3\n      swap1\n      pop\n      jump\t// out\n        /* \"#utility.yul\":5495:5609   */\n    tag_78:\n        /* \"#utility.yul\":5562:5568   */\n      0x00\n        /* \"#utility.yul\":5596:5601   */\n      dup2\n        /* \"#utility.yul\":5590:5602   */\n      mload\n        /* \"#utility.yul\":5580:5602   */\n      swap1\n      pop\n        /* \"#utility.yul\":5495:5609   */\n      swap2\n      swap1\n      pop\n      jump\t// out\n        /* \"#utility.yul\":5615:5799   */\n    tag_79:\n        /* \"#utility.yul\":5714:5725   */\n      0x00\n        /* \"#utility.yul\":5748:5754   */\n      dup3\n        /* \"#utility.yul\":5743:5746   */\n      dup3\n        /* \"#utility.yul\":5736:5755   */\n      mstore\n        /* \"#utility.yul\":5788:5792   */\n      0x20\n        /* \"#utility.yul\":5783:5786   */\n      dup3\n        /* \"#utility.yul\":5779:5793   */\n      add\n        /* \"#utility.yul\":5764:5793   */\n      swap1\n      pop\n        /* \"#utility.yul\":5615:5799   */\n      swap3\n      swap2\n      pop\n      pop\n      jump\t// out\n        /* \"#utility.yul\":5805:5937   */\n    tag_80:\n        /* \"#utility.yul\":5872:5876   */\n      0x00\n        /* \"#utility.yul\":5895:5898   */\n      dup2\n        /* \"#utility.yul\":5887:5898   */\n      swap1\n      pop\n        /* \"#utility.yul\":5925:5929   */\n      0x20\n        /* \"#utility.yul\":5920:5923   */\n      dup3\n        /* \"#utility.yul\":5916:5930   */\n      add\n        /* \"#utility.yul\":5908:5930   */\n      swap1\n      pop\n        /* \"#utility.yul\":5805:5937   */\n      swap2\n      swap1\n      pop\n      jump\t// out\n        /* \"#utility.yul\":5943:6051   */\n    tag_81:\n        /* \"#utility.yul\":6020:6044   */\n      tag_167\n        /* \"#utility.yul\":6038:6043   */\n      dup2\n        /* \"#utility.yul\":6020:6044   */\n      tag_60\n      jump\t// in\n    tag_167:\n        /* \"#utility.yul\":6015:6018   */\n      dup3\n        /* \"#utility.yul\":6008:6045   */\n      mstore\n        /* \"#utility.yul\":5943:6051   */\n      pop\n      pop\n      jump\t// out\n        /* \"#utility.yul\":6057:6236   */\n    tag_82:\n        /* \"#utility.yul\":6126:6136   */\n      0x00\n        /* \"#utility.yul\":6147:6193   */\n      tag_169\n        /* \"#utility.yul\":6189:6192   */\n      dup4\n        /* \"#utility.yul\":6181:6187   */\n      dup4\n        /* \"#utility.yul\":6147:6193   */\n      tag_81\n      jump\t// in\n    tag_169:\n        /* \"#utility.yul\":6225:6229   */\n      0x20\n        /* \"#utility.yul\":6220:6223   */\n      dup4\n        /* \"#utility.yul\":6216:6230   */\n      add\n        /* \"#utility.yul\":6202:6230   */\n      swap1\n      pop\n        /* \"#utility.yul\":6057:6236   */\n      swap3\n      swap2\n      pop\n      pop\n      jump\t// out\n        /* \"#utility.yul\":6242:6355   */\n    tag_83:\n        /* \"#utility.yul\":6312:6316   */\n      0x00\n        /* \"#utility.yul\":6344:6348   */\n      0x20\n        /* \"#utility.yul\":6339:6342   */\n      dup3\n        /* \"#utility.yul\":6335:6349   */\n      add\n        /* \"#utility.yul\":6327:6349   */\n      swap1\n      pop\n        /* \"#utility.yul\":6242:6355   */\n      swap2\n      swap1\n      pop\n      jump\t// out\n        /* \"#utility.yul\":6391:7123   */\n    tag_84:\n        /* \"#utility.yul\":6510:6513   */\n      0x00\n        /* \"#utility.yul\":6539:6593   */\n      tag_172\n        /* \"#utility.yul\":6587:6592   */\n      dup3\n        /* \"#utility.yul\":6539:6593   */\n      tag_78\n      jump\t// in\n    tag_172:\n        /* \"#utility.yul\":6609:6695   */\n      tag_173\n        /* \"#utility.yul\":6688:6694   */\n      dup2\n        /* \"#utility.yul\":6683:6686   */\n      dup6\n        /* \"#utility.yul\":6609:6695   */\n      tag_79\n      jump\t// in\n    tag_173:\n        /* \"#utility.yul\":6602:6695   */\n      swap4\n      pop\n        /* \"#utility.yul\":6719:6775   */\n      tag_174\n        /* \"#utility.yul\":6769:6774   */\n      dup4\n        /* \"#utility.yul\":6719:6775   */\n      tag_80\n      jump\t// in\n    tag_174:\n        /* \"#utility.yul\":6798:6805   */\n      dup1\n        /* \"#utility.yul\":6829:6830   */\n      0x00\n        /* \"#utility.yul\":6814:7098   */\n    tag_175:\n        /* \"#utility.yul\":6839:6845   */\n      dup4\n        /* \"#utility.yul\":6836:6837   */\n      dup2\n        /* \"#utility.yul\":6833:6846   */\n      lt\n        /* \"#utility.yul\":6814:7098   */\n      iszero\n      tag_177\n      jumpi\n        /* \"#utility.yul\":6915:6921   */\n      dup2\n        /* \"#utility.yul\":6909:6922   */\n      mload\n        /* \"#utility.yul\":6942:7005   */\n      tag_178\n        /* \"#utility.yul\":7001:7004   */\n      dup9\n        /* \"#utility.yul\":6986:6999   */\n      dup3\n        /* \"#utility.yul\":6942:7005   */\n      tag_82\n      jump\t// in\n    tag_178:\n        /* \"#utility.yul\":6935:7005   */\n      swap8\n      pop\n        /* \"#utility.yul\":7028:7088   */\n      tag_179\n        /* \"#utility.yul\":7081:7087   */\n      dup4\n        /* \"#utility.yul\":7028:7088   */\n      tag_83\n      jump\t// in\n    tag_179:\n        /* \"#utility.yul\":7018:7088   */\n      swap3\n      pop\n        /* \"#utility.yul\":6874:7098   */\n      pop\n        /* \"#utility.yul\":6861:6862   */\n      0x01\n        /* \"#utility.yul\":6858:6859   */\n      dup2\n        /* \"#utility.yul\":6854:6863   */\n      add\n        /* \"#utility.yul\":6849:6863   */\n      swap1\n      pop\n        /* \"#utility.yul\":6814:7098   */\n      jump(tag_175)\n    tag_177:\n        /* \"#utility.yul\":6818:6832   */\n      pop\n        /* \"#utility.yul\":7114:7117   */\n      dup6\n        /* \"#utility.yul\":7107:7117   */\n      swap4\n      pop\n        /* \"#utility.yul\":6515:7123   */\n      pop\n      pop\n      pop\n        /* \"#utility.yul\":6391:7123   */\n      swap3\n      swap2\n      pop\n      pop\n      jump\t// out\n        /* \"#utility.yul\":7129:7502   */\n    tag_26:\n        /* \"#utility.yul\":7272:7276   */\n      0x00\n        /* \"#utility.yul\":7310:7312   */\n      0x20\n        /* \"#utility.yul\":7299:7308   */\n      dup3\n        /* \"#utility.yul\":7295:7313   */\n      add\n        /* \"#utility.yul\":7287:7313   */\n      swap1\n      pop\n        /* \"#utility.yul\":7359:7368   */\n      dup2\n        /* \"#utility.yul\":7353:7357   */\n      dup2\n        /* \"#utility.yul\":7349:7369   */\n      sub\n        /* \"#utility.yul\":7345:7346   */\n      0x00\n        /* \"#utility.yul\":7334:7343   */\n      dup4\n        /* \"#utility.yul\":7330:7347   */\n      add\n        /* \"#utility.yul\":7323:7370   */\n      mstore\n        /* \"#utility.yul\":7387:7495   */\n      tag_181\n        /* \"#utility.yul\":7490:7494   */\n      dup2\n        /* \"#utility.yul\":7481:7487   */\n      dup5\n        /* \"#utility.yul\":7387:7495   */\n      tag_84\n      jump\t// in\n    tag_181:\n        /* \"#utility.yul\":7379:7495   */\n      swap1\n      pop\n        /* \"#utility.yul\":7129:7502   */\n      swap3\n      swap2\n      pop\n      pop\n      jump\t// out\n        /* \"#utility.yul\":7508:7688   */\n    tag_37:\n        /* \"#utility.yul\":7556:7633   */\n      0x4e487b7100000000000000000000000000000000000000000000000000000000\n        /* \"#utility.yul\":7553:7554   */\n      0x00\n        /* \"#utility.yul\":7546:7634   */\n      mstore\n        /* \"#utility.yul\":7653:7657   */\n      0x32\n        /* \"#utility.yul\":7650:7651   */\n      0x04\n        /* \"#utility.yul\":7643:7658   */\n      mstore\n        /* \"#utility.yul\":7677:7681   */\n      0x24\n        /* \"#utility.yul\":7674:7675   */\n      0x00\n        /* \"#utility.yul\":7667:7682   */\n      revert\n        /* \"#utility.yul\":7694:7874   */\n    tag_85:\n        /* \"#utility.yul\":7742:7819   */\n      0x4e487b7100000000000000000000000000000000000000000000000000000000\n        /* \"#utility.yul\":7739:7740   */\n      0x00\n        /* \"#utility.yul\":7732:7820   */\n      mstore\n        /* \"#utility.yul\":7839:7843   */\n      0x22\n        /* \"#utility.yul\":7836:7837   */\n      0x04\n        /* \"#utility.yul\":7829:7844   */\n      mstore\n        /* \"#utility.yul\":7863:7867   */\n      0x24\n        /* \"#utility.yul\":7860:7861   */\n      0x00\n        /* \"#utility.yul\":7853:7868   */\n      revert\n        /* \"#utility.yul\":7880:8200   */\n    tag_40:\n        /* \"#utility.yul\":7924:7930   */\n      0x00\n        /* \"#utility.yul\":7961:7962   */\n      0x02\n        /* \"#utility.yul\":7955:7959   */\n      dup3\n        /* \"#utility.yul\":7951:7963   */\n      div\n        /* \"#utility.yul\":7941:7963   */\n      swap1\n      pop\n        /* \"#utility.yul\":8008:8009   */\n      0x01\n        /* \"#utility.yul\":8002:8006   */\n      dup3\n        /* \"#utility.yul\":7998:8010   */\n      and\n        /* \"#utility.yul\":8029:8047   */\n      dup1\n        /* \"#utility.yul\":8019:8100   */\n      tag_185\n      jumpi\n        /* \"#utility.yul\":8085:8089   */\n      0x7f\n        /* \"#utility.yul\":8077:8083   */\n      dup3\n        /* \"#utility.yul\":8073:8090   */\n      and\n        /* \"#utility.yul\":8063:8090   */\n      swap2\n      pop\n        /* \"#utility.yul\":8019:8100   */\n    tag_185:\n        /* \"#utility.yul\":8147:8149   */\n      0x20\n        /* \"#utility.yul\":8139:8145   */\n      dup3\n        /* \"#utility.yul\":8136:8150   */\n      lt\n        /* \"#utility.yul\":8116:8134   */\n      dup2\n        /* \"#utility.yul\":8113:8151   */\n      sub\n        /* \"#utility.yul\":8110:8194   */\n      tag_186\n      jumpi\n        /* \"#utility.yul\":8166:8184   */\n      tag_187\n      tag_85\n      jump\t// in\n    tag_187:\n        /* \"#utility.yul\":8110:8194   */\n    tag_186:\n        /* \"#utility.yul\":7931:8200   */\n      pop\n        /* \"#utility.yul\":7880:8200   */\n      swap2\n      swap1\n      pop\n      jump\t// out\n        /* \"#utility.yul\":8206:8347   */\n    tag_86:\n        /* \"#utility.yul\":8255:8259   */\n      0x00\n        /* \"#utility.yul\":8278:8281   */\n      dup2\n        /* \"#utility.yul\":8270:8281   */\n      swap1\n      pop\n        /* \"#utility.yul\":8301:8304   */\n      dup2\n        /* \"#utility.yul\":8298:8299   */\n      0x00\n        /* \"#utility.yul\":8291:8305   */\n      mstore\n        /* \"#utility.yul\":8335:8339   */\n      0x20\n        /* \"#utility.yul\":8332:8333   */\n      0x00\n        /* \"#utility.yul\":8322:8340   */\n      keccak256\n        /* \"#utility.yul\":8314:8340   */\n      swap1\n      pop\n        /* \"#utility.yul\":8206:8347   */\n      swap2\n      swap1\n      pop\n      jump\t// out\n        /* \"#utility.yul\":8353:8446   */\n    tag_87:\n        /* \"#utility.yul\":8390:8396   */\n      0x00\n        /* \"#utility.yul\":8437:8439   */\n      0x20\n        /* \"#utility.yul\":8432:8434   */\n      0x1f\n        /* \"#utility.yul\":8425:8430   */\n      dup4\n        /* \"#utility.yul\":8421:8435   */\n      add\n        /* \"#utility.yul\":8417:8440   */\n      div\n        /* \"#utility.yul\":8407:8440   */\n      swap1\n      pop\n        /* \"#utility.yul\":8353:8446   */\n      swap2\n      swap1\n      pop\n      jump\t// out\n        /* \"#utility.yul\":8452:8559   */\n    tag_88:\n        /* \"#utility.yul\":8496:8504   */\n      0x00\n        /* \"#utility.yul\":8546:8551   */\n      dup3\n        /* \"#utility.yul\":8540:8544   */\n      dup3\n        /* \"#utility.yul\":8536:8552   */\n      shl\n        /* \"#utility.yul\":8515:8552   */\n      swap1\n      pop\n        /* \"#utility.yul\":8452:8559   */\n      swap3\n      swap2\n      pop\n      pop\n      jump\t// out\n        /* \"#utility.yul\":8565:8958   */\n    tag_89:\n        /* \"#utility.yul\":8634:8640   */\n      0x00\n        /* \"#utility.yul\":8684:8685   */\n      0x08\n        /* \"#utility.yul\":8672:8682   */\n      dup4\n        /* \"#utility.yul\":8668:8686   */\n      mul\n        /* \"#utility.yul\":8707:8804   */\n      tag_192\n        /* \"#utility.yul\":8737:8803   */\n      0xffffffffffffffffffffffffffffffffffffffffffffffffffffffffffffffff\n        /* \"#utility.yul\":8726:8735   */\n      dup3\n        /* \"#utility.yul\":8707:8804   */\n      tag_88\n      jump\t// in\n    tag_192:\n        /* \"#utility.yul\":8825:8864   */\n      tag_193\n        /* \"#utility.yul\":8855:8863   */\n      dup7\n        /* \"#utility.yul\":8844:8853   */\n      dup4\n        /* \"#utility.yul\":8825:8864   */\n      tag_88\n      jump\t// in\n    tag_193:\n        /* \"#utility.yul\":8813:8864   */\n      swap6\n      pop\n        /* \"#utility.yul\":8897:8901   */\n      dup1\n        /* \"#utility.yul\":8893:8902   */\n      not\n        /* \"#utility.yul\":8886:8891   */\n      dup5\n        /* \"#utility.yul\":8882:8903   */\n      and\n        /* \"#utility.yul\":8873:8903   */\n      swap4\n      pop\n        /* \"#utility.yul\":8946:8950   */\n      dup1\n        /* \"#utility.yul\":8936:8944   */\n      dup7\n        /* \"#utility.yul\":8932:8951   */\n      and\n        /* \"#utility.yul\":8925:8930   */\n      dup5\n        /* \"#utility.yul\":8922:8952   */\n      or\n        /* \"#utility.yul\":8912:8952   */\n      swap3\n      pop\n        /* \"#utility.yul\":8641:8958   */\n      pop\n      pop\n        /* \"#utility.yul\":8565:8958   */\n      swap4\n      swap3\n      pop\n      pop\n      pop\n      jump\t// out\n        /* \"#utility.yul\":8964:9024   */\n    tag_90:\n        /* \"#utility.yul\":8992:8995   */\n      0x00\n        /* \"#utility.yul\":9013:9018   */\n      dup2\n        /* \"#utility.yul\":9006:9018   */\n      swap1\n      pop\n        /* \"#utility.yul\":8964:9024   */\n      swap2\n      swap1\n      pop\n      jump\t// out\n        /* \"#utility.yul\":9030:9172   */\n    tag_91:\n        /* \"#utility.yul\":9080:9089   */\n      0x00\n        /* \"#utility.yul\":9113:9166   */\n      tag_196\n        /* \"#utility.yul\":9131:9165   */\n      tag_197\n        /* \"#utility.yul\":9140:9164   */\n      tag_198\n        /* \"#utility.yul\":9158:9163   */\n      dup5\n        /* \"#utility.yul\":9140:9164   */\n      tag_60\n      jump\t// in\n    tag_198:\n        /* \"#utility.yul\":9131:9165   */\n      tag_90\n      jump\t// in\n    tag_197:\n        /* \"#utility.yul\":9113:9166   */\n      tag_60\n      jump\t// in\n    tag_196:\n        /* \"#utility.yul\":9100:9166   */\n      swap1\n      pop\n        /* \"#utility.yul\":9030:9172   */\n      swap2\n      swap1\n      pop\n      jump\t// out\n        /* \"#utility.yul\":9178:9253   */\n    tag_92:\n        /* \"#utility.yul\":9221:9224   */\n      0x00\n        /* \"#utility.yul\":9242:9247   */\n      dup2\n        /* \"#utility.yul\":9235:9247   */\n      swap1\n      pop\n        /* \"#utility.yul\":9178:9253   */\n      swap2\n      swap1\n      pop\n      jump\t// out\n        /* \"#utility.yul\":9259:9528   */\n    tag_93:\n        /* \"#utility.yul\":9369:9408   */\n      tag_201\n        /* \"#utility.yul\":9400:9407   */\n      dup4\n        /* \"#utility.yul\":9369:9408   */\n      tag_91\n      jump\t// in\n    tag_201:\n        /* \"#utility.yul\":9430:9521   */\n      tag_202\n        /* \"#utility.yul\":9479:9520   */\n      tag_203\n        /* \"#utility.yul\":9503:9519   */\n      dup3\n        /* \"#utility.yul\":9479:9520   */\n      tag_92\n      jump\t// in\n    tag_203:\n        /* \"#utility.yul\":9471:9477   */\n      dup5\n        /* \"#utility.yul\":9464:9468   */\n      dup5\n        /* \"#utility.yul\":9458:9469   */\n      sload\n        /* \"#utility.yul\":9430:9521   */\n      tag_89\n      jump\t// in\n    tag_202:\n        /* \"#utility.yul\":9424:9428   */\n      dup3\n        /* \"#utility.yul\":9417:9522   */\n      sstore\n        /* \"#utility.yul\":9335:9528   */\n      pop\n        /* \"#utility.yul\":9259:9528   */\n      pop\n      pop\n      pop\n      jump\t// out\n        /* \"#utility.yul\":9534:9607   */\n    tag_94:\n        /* \"#utility.yul\":9579:9582   */\n      0x00\n        /* \"#utility.yul\":9600:9601   */\n      0x00\n        /* \"#utility.yul\":9593:9601   */\n      swap1\n      pop\n        /* \"#utility.yul\":9534:9607   */\n      swap1\n      jump\t// out\n        /* \"#utility.yul\":9613:9802   */\n    tag_95:\n        /* \"#utility.yul\":9690:9722   */\n      tag_206\n      tag_94\n      jump\t// in\n    tag_206:\n        /* \"#utility.yul\":9731:9796   */\n      tag_207\n        /* \"#utility.yul\":9789:9795   */\n      dup2\n        /* \"#utility.yul\":9781:9787   */\n      dup5\n        /* \"#utility.yul\":9775:9779   */\n      dup5\n        /* \"#utility.yul\":9731:9796   */\n      tag_93\n      jump\t// in\n    tag_207:\n        /* \"#utility.yul\":9666:9802   */\n      pop\n        /* \"#utility.yul\":9613:9802   */\n      pop\n      pop\n      jump\t// out\n        /* \"#utility.yul\":9808:10022   */\n    tag_96:\n        /* \"#utility.yul\":9893:9894   */\n      0x00\n        /* \"#utility.yul\":9878:10016   */\n    tag_209:\n        /* \"#utility.yul\":9903:9912   */\n      dup3\n        /* \"#utility.yul\":9900:9901   */\n      dup2\n        /* \"#utility.yul\":9897:9913   */\n      lt\n        /* \"#utility.yul\":9878:10016   */\n      iszero\n      tag_211\n      jumpi\n        /* \"#utility.yul\":9955:10006   */\n      tag_212\n        /* \"#utility.yul\":10004:10005   */\n      0x00\n        /* \"#utility.yul\":10000:10001   */\n      dup3\n        /* \"#utility.yul\":9989:9998   */\n      dup5\n        /* \"#utility.yul\":9985:10002   */\n      add\n        /* \"#utility.yul\":9955:10006   */\n      tag_95\n      jump\t// in\n    tag_212:\n        /* \"#utility.yul\":9928:9929   */\n      0x01\n        /* \"#utility.yul\":9925:9926   */\n      dup2\n        /* \"#utility.yul\":9921:9930   */\n      add\n        /* \"#utility.yul\":9916:9930   */\n      swap1\n      pop\n        /* \"#utility.yul\":9878:10016   */\n      jump(tag_209)\n    tag_211:\n        /* \"#utility.yul\":9882:9896   */\n      pop\n        /* \"#utility.yul\":9808:10022   */\n      pop\n      pop\n      jump\t// out\n        /* \"#utility.yul\":10028:10774   */\n    tag_97:\n        /* \"#utility.yul\":10129:10131   */\n      0x1f\n        /* \"#utility.yul\":10124:10127   */\n      dup3\n        /* \"#utility.yul\":10121:10132   */\n      gt\n        /* \"#utility.yul\":10118:10767   */\n      iszero\n      tag_214\n      jumpi\n        /* \"#utility.yul\":10158:10168   */\n      dup3\n        /* \"#utility.yul\":10153:10156   */\n      dup3\n        /* \"#utility.yul\":10150:10169   */\n      gt\n        /* \"#utility.yul\":10147:10757   */\n      iszero\n      tag_215\n      jumpi\n        /* \"#utility.yul\":10204:10242   */\n      tag_216\n        /* \"#utility.yul\":10236:10241   */\n      dup2\n        /* \"#utility.yul\":10204:10242   */\n      tag_86\n      jump\t// in\n    tag_216:\n        /* \"#utility.yul\":10279:10301   */\n      tag_217\n        /* \"#utility.yul\":10297:10300   */\n      dup4\n        /* \"#utility.yul\":10279:10301   */\n      tag_87\n      jump\t// in\n    tag_217:\n        /* \"#utility.yul\":10338:10367   */\n      tag_218\n        /* \"#utility.yul\":10356:10366   */\n      dup6\n        /* \"#utility.yul\":10338:10367   */\n      tag_87\n      jump\t// in\n    tag_218:\n        /* \"#utility.yul\":10528:10530   */\n      0x20\n        /* \"#utility.yul\":10516:10526   */\n      dup7\n        /* \"#utility.yul\":10513:10531   */\n      lt\n        /* \"#utility.yul\":10510:10589   */\n      iszero\n      tag_219\n      jumpi\n        /* \"#utility.yul\":10570:10571   */\n      0x00\n        /* \"#utility.yul\":10554:10571   */\n      swap1\n      pop\n        /* \"#utility.yul\":10510:10589   */\n    tag_219:\n        /* \"#utility.yul\":10639:10651   */\n      dup1\n        /* \"#utility.yul\":10629:10637   */\n      dup4\n        /* \"#utility.yul\":10625:10652   */\n      add\n        /* \"#utility.yul\":10669:10743   */\n      tag_220\n        /* \"#utility.yul\":10729:10741   */\n      dup3\n        /* \"#utility.yul\":10715:10727   */\n      dup5\n        /* \"#utility.yul\":10711:10742   */\n      sub\n        /* \"#utility.yul\":10698:10709   */\n      dup3\n        /* \"#utility.yul\":10669:10743   */\n      tag_96\n      jump\t// in\n    tag_220:\n        /* \"#utility.yul\":10170:10757   */\n      pop\n      pop\n      pop\n      pop\n        /* \"#utility.yul\":10147:10757   */\n    tag_215:\n        /* \"#utility.yul\":10118:10767   */\n    tag_214:\n        /* \"#utility.yul\":10028:10774   */\n      pop\n      pop\n      pop\n      jump\t// out\n        /* \"#utility.yul\":10780:10897   */\n    tag_98:\n        /* \"#utility.yul\":10834:10842   */\n      0x00\n        /* \"#utility.yul\":10884:10889   */\n      dup3\n        /* \"#utility.yul\":10878:10882   */\n      dup3\n        /* \"#utility.yul\":10874:10890   */\n      shr\n        /* \"#utility.yul\":10853:10890   */\n      swap1\n      pop\n        /* \"#utility.yul\":10780:10897   */\n      swap3\n      swap2\n      pop\n      pop\n      jump\t// out\n        /* \"#utility.yul\":10903:11072   */\n    tag_99:\n        /* \"#utility.yul\":10947:10953   */\n      0x00\n        /* \"#utility.yul\":10980:11031   */\n      tag_223\n        /* \"#utility.yul\":11028:11029   */\n      0x00\n        /* \"#utility.yul\":11024:11030   */\n      not\n        /* \"#utility.yul\":11016:11021   */\n      dup5\n        /* \"#utility.yul\":11013:11014   */\n      0x08\n        /* \"#utility.yul\":11009:11022   */\n      mul\n        /* \"#utility.yul\":10980:11031   */\n      tag_98\n      jump\t// in\n    tag_223:\n        /* \"#utility.yul\":10976:11032   */\n      not\n        /* \"#utility.yul\":11061:11065   */\n      dup1\n        /* \"#utility.yul\":11055:11059   */\n      dup4\n        /* \"#utility.yul\":11051:11066   */\n      and\n        /* \"#utility.yul\":11041:11066   */\n      swap2\n      pop\n        /* \"#utility.yul\":10954:11072   */\n      pop\n        /* \"#utility.yul\":10903:11072   */\n      swap3\n      swap2\n      pop\n      pop\n      jump\t// out\n        /* \"#utility.yul\":11077:11372   */\n    tag_100:\n        /* \"#utility.yul\":11153:11157   */\n      0x00\n        /* \"#utility.yul\":11299:11328   */\n      tag_225\n        /* \"#utility.yul\":11324:11327   */\n      dup4\n        /* \"#utility.yul\":11318:11322   */\n      dup4\n        /* \"#utility.yul\":11299:11328   */\n      tag_99\n      jump\t// in\n    tag_225:\n        /* \"#utility.yul\":11291:11328   */\n      swap2\n      pop\n        /* \"#utility.yul\":11361:11364   */\n      dup3\n        /* \"#utility.yul\":11358:11359   */\n      0x02\n        /* \"#utility.yul\":11354:11365   */\n      mul\n        /* \"#utility.yul\":11348:11352   */\n      dup3\n        /* \"#utility.yul\":11345:11366   */\n      or\n        /* \"#utility.yul\":11337:11366   */\n      swap1\n      pop\n        /* \"#utility.yul\":11077:11372   */\n      swap3\n      swap2\n      pop\n      pop\n      jump\t// out\n        /* \"#utility.yul\":11377:12772   */\n    tag_49:\n        /* \"#utility.yul\":11494:11531   */\n      tag_227\n        /* \"#utility.yul\":11527:11530   */\n      dup3\n        /* \"#utility.yul\":11494:11531   */\n      tag_63\n      jump\t// in\n    tag_227:\n        /* \"#utility.yul\":11596:11614   */\n      0xffffffffffffffff\n        /* \"#utility.yul\":11588:11594   */\n      dup2\n        /* \"#utility.yul\":11585:11615   */\n      gt\n        /* \"#utility.yul\":11582:11638   */\n      iszero\n      tag_228\n      jumpi\n        /* \"#utility.yul\":11618:11636   */\n      tag_229\n      tag_71\n      jump\t// in\n    tag_229:\n        /* \"#utility.yul\":11582:11638   */\n    tag_228:\n        /* \"#utility.yul\":11662:11700   */\n      tag_230\n        /* \"#utility.yul\":11694:11698   */\n      dup3\n        /* \"#utility.yul\":11688:11699   */\n      sload\n        /* \"#utility.yul\":11662:11700   */\n      tag_40\n      jump\t// in\n    tag_230:\n        /* \"#utility.yul\":11747:11814   */\n      tag_231\n        /* \"#utility.yul\":11807:11813   */\n      dup3\n        /* \"#utility.yul\":11799:11805   */\n      dup3\n        /* \"#utility.yul\":11793:11797   */\n      dup6\n        /* \"#utility.yul\":11747:11814   */\n      tag_97\n      jump\t// in\n    tag_231:\n        /* \"#utility.yul\":11841:11842   */\n      0x00\n        /* \"#utility.yul\":11865:11869   */\n      0x20\n        /* \"#utility.yul\":11852:11869   */\n      swap1\n      pop\n        /* \"#utility.yul\":11897:11899   */\n      0x1f\n        /* \"#utility.yul\":11889:11895   */\n      dup4\n        /* \"#utility.yul\":11886:11900   */\n      gt\n        /* \"#utility.yul\":11914:11915   */\n      0x01\n        /* \"#utility.yul\":11909:12527   */\n      dup2\n      eq\n      tag_233\n      jumpi\n        /* \"#utility.yul\":12571:12572   */\n      0x00\n        /* \"#utility.yul\":12588:12594   */\n      dup5\n        /* \"#utility.yul\":12585:12662   */\n      iszero\n      tag_234\n      jumpi\n        /* \"#utility.yul\":12637:12646   */\n      dup3\n        /* \"#utility.yul\":12632:12635   */\n      dup8\n        /* \"#utility.yul\":12628:12647   */\n      add\n        /* \"#utility.yul\":12622:12648   */\n      mload\n        /* \"#utility.yul\":12613:12648   */\n      swap1\n      pop\n        /* \"#utility.yul\":12585:12662   */\n    tag_234:\n        /* \"#utility.yul\":12688:12755   */\n      tag_235\n        /* \"#utility.yul\":12748:12754   */\n      dup6\n        /* \"#utility.yul\":12741:12746   */\n      dup3\n        /* \"#utility.yul\":12688:12755   */\n      tag_100\n      jump\t// in\n    tag_235:\n        /* \"#utility.yul\":12682:12686   */\n      dup7\n        /* \"#utility.yul\":12675:12756   */\n      sstore\n        /* \"#utility.yul\":12544:12766   */\n      pop\n        /* \"#utility.yul\":11879:12766   */\n      jump(tag_232)\n        /* \"#utility.yul\":11909:12527   */\n    tag_233:\n        /* \"#utility.yul\":11961:11965   */\n      0x1f\n        /* \"#utility.yul\":11957:11966   */\n      not\n        /* \"#utility.yul\":11949:11955   */\n      dup5\n        /* \"#utility.yul\":11945:11967   */\n      and\n        /* \"#utility.yul\":11995:12032   */\n      tag_236\n        /* \"#utility.yul\":12027:12031   */\n      dup7\n        /* \"#utility.yul\":11995:12032   */\n      tag_86\n      jump\t// in\n    tag_236:\n        /* \"#utility.yul\":12054:12055   */\n      0x00\n        /* \"#utility.yul\":12068:12276   */\n    tag_237:\n        /* \"#utility.yul\":12082:12089   */\n      dup3\n        /* \"#utility.yul\":12079:12080   */\n      dup2\n        /* \"#utility.yul\":12076:12090   */\n      lt\n        /* \"#utility.yul\":12068:12276   */\n      iszero\n      tag_239\n      jumpi\n        /* \"#utility.yul\":12161:12170   */\n      dup5\n        /* \"#utility.yul\":12156:12159   */\n      dup10\n        /* \"#utility.yul\":12152:12171   */\n      add\n        /* \"#utility.yul\":12146:12172   */\n      mload\n        /* \"#utility.yul\":12138:12144   */\n      dup3\n        /* \"#utility.yul\":12131:12173   */\n      sstore\n        /* \"#utility.yul\":12212:12213   */\n      0x01\n        /* \"#utility.yul\":12204:12210   */\n      dup3\n        /* \"#utility.yul\":12200:12214   */\n      add\n        /* \"#utility.yul\":12190:12214   */\n      swap2\n      pop\n        /* \"#utility.yul\":12259:12261   */\n      0x20\n        /* \"#utility.yul\":12248:12257   */\n      dup6\n        /* \"#utility.yul\":12244:12262   */\n      add\n        /* \"#utility.yul\":12231:12262   */\n      swap5\n      pop\n        /* \"#utility.yul\":12105:12109   */\n      0x20\n        /* \"#utility.yul\":12102:12103   */\n      dup2\n        /* \"#utility.yul\":12098:12110   */\n      add\n        /* \"#utility.yul\":12093:12110   */\n      swap1\n      pop\n        /* \"#utility.yul\":12068:12276   */\n      jump(tag_237)\n    tag_239:\n        /* \"#utility.yul\":12304:12310   */\n      dup7\n        /* \"#utility.yul\":12295:12302   */\n      dup4\n        /* \"#utility.yul\":12292:12311   */\n      lt\n        /* \"#utility.yul\":12289:12468   */\n      iszero\n      tag_240\n      jumpi\n        /* \"#utility.yul\":12362:12371   */\n      dup5\n        /* \"#utility.yul\":12357:12360   */\n      dup10\n        /* \"#utility.yul\":12353:12372   */\n      add\n        /* \"#utility.yul\":12347:12373   */\n      mload\n        /* \"#utility.yul\":12405:12453   */\n      tag_241\n        /* \"#utility.yul\":12447:12451   */\n      0x1f\n        /* \"#utility.yul\":12439:12445   */\n      dup10\n        /* \"#utility.yul\":12435:12452   */\n      and\n        /* \"#utility.yul\":12424:12433   */\n      dup3\n        /* \"#utility.yul\":12405:12453   */\n      tag_99\n      jump\t// in\n    tag_241:\n        /* \"#utility.yul\":12397:12403   */\n      dup4\n        /* \"#utility.yul\":12390:12454   */\n      sstore\n        /* \"#utility.yul\":12312:12468   */\n      pop\n        /* \"#utility.yul\":12289:12468   */\n    tag_240:\n        /* \"#utility.yul\":12514:12515   */\n      0x01\n        /* \"#utility.yul\":12510:12511   */\n      0x02\n        /* \"#utility.yul\":12502:12508   */\n      dup9\n        /* \"#utility.yul\":12498:12512   */\n      mul\n        /* \"#utility.yul\":12494:12516   */\n      add\n        /* \"#utility.yul\":12488:12492   */\n      dup9\n        /* \"#utility.yul\":12481:12517   */\n      sstore\n        /* \"#utility.yul\":11916:12527   */\n      pop\n      pop\n      pop\n        /* \"#utility.yul\":11879:12766   */\n    tag_232:\n      pop\n        /* \"#utility.yul\":11469:12772   */\n      pop\n      pop\n      pop\n        /* \"#utility.yul\":11377:12772   */\n      pop\n      pop\n      jump\t// out\n\n    auxdata: 0xa264697066735822122071714c04d101e681923a37d84592ae3ea7727e63c15bb5a29d773fbdf886096a64736f6c63430008220033\n}\n",
				"bytecode": {
					"linkReferences": {},
					"object": "6080604052348015600e575f5ffd5b506109f08061001c5f395ff3fe608060405234801561000f575f5ffd5b5060043610610060575f3560e01c80631e409e121461006457806357839b79146100955780637e1f47f0146100b3578063ae77fef6146100cf578063f1dc715d146100ed578063f2f7cca414610109575b5f5ffd5b61007e60048036038101906100799190610362565b610139565b60405161008c92919061040c565b60405180910390f35b61009d610216565b6040516100aa919061043a565b60405180910390f35b6100cd60048036038101906100c8919061057f565b610221565b005b6100d7610282565b6040516100e49190610690565b60405180910390f35b61010760048036038101906101029190610362565b6102d7565b005b610123600480360381019061011e9190610362565b6102ff565b604051610130919061043a565b60405180910390f35b60605f5f60018481548110610151576101506106b0565b5b905f5260205f2090600202016040518060400160405290815f820180546101779061070a565b80601f01602080910402602001604051908101604052809291908181526020018280546101a39061070a565b80156101ee5780601f106101c5576101008083540402835291602001916101ee565b820191905f5260205f20905b8154815290600101906020018083116101d157829003601f168201915b505050505081526020016001820154815250509050805f015181602001519250925050915091565b5f5f80549050905090565b6001604051806040016040528084815260200183815250908060018154018082558091505060019003905f5260205f2090600202015f909190919091505f820151815f01908161027191906108eb565b506020820151816001015550505050565b60605f8054806020026020016040519081016040528092919081815260200182805480156102cd57602002820191905f5260205f20905b8154815260200190600101908083116102b9575b5050505050905090565b5f81908060018154018082558091505060019003905f5260205f20015f909190919091505550565b5f818154811061030d575f80fd5b905f5260205f20015f915090505481565b5f604051905090565b5f5ffd5b5f5ffd5b5f819050919050565b6103418161032f565b811461034b575f5ffd5b50565b5f8135905061035c81610338565b92915050565b5f6020828403121561037757610376610327565b5b5f6103848482850161034e565b91505092915050565b5f81519050919050565b5f82825260208201905092915050565b8281835e5f83830152505050565b5f601f19601f8301169050919050565b5f6103cf8261038d565b6103d98185610397565b93506103e98185602086016103a7565b6103f2816103b5565b840191505092915050565b6104068161032f565b82525050565b5f6040820190508181035f83015261042481856103c5565b905061043360208301846103fd565b9392505050565b5f60208201905061044d5f8301846103fd565b92915050565b5f5ffd5b5f5ffd5b7f4e487b71000000000000000000000000000000000000000000000000000000005f52604160045260245ffd5b610491826103b5565b810181811067ffffffffffffffff821117156104b0576104af61045b565b5b80604052505050565b5f6104c261031e565b90506104ce8282610488565b919050565b5f67ffffffffffffffff8211156104ed576104ec61045b565b5b6104f6826103b5565b9050602081019050919050565b828183375f83830152505050565b5f61052361051e846104d3565b6104b9565b90508281526020810184848401111561053f5761053e610457565b5b61054a848285610503565b509392505050565b5f82601f83011261056657610565610453565b5b8135610576848260208601610511565b91505092915050565b5f5f6040838503121561059557610594610327565b5b5f83013567ffffffffffffffff8111156105b2576105b161032b565b5b6105be85828601610552565b92505060206105cf8582860161034e565b9150509250929050565b5f81519050919050565b5f82825260208201905092915050565b5f819050602082019050919050565b61060b8161032f565b82525050565b5f61061c8383610602565b60208301905092915050565b5f602082019050919050565b5f61063e826105d9565b61064881856105e3565b9350610653836105f3565b805f5b8381101561068357815161066a8882610611565b975061067583610628565b925050600181019050610656565b5085935050505092915050565b5f6020820190508181035f8301526106a88184610634565b905092915050565b7f4e487b71000000000000000000000000000000000000000000000000000000005f52603260045260245ffd5b7f4e487b71000000000000000000000000000000000000000000000000000000005f52602260045260245ffd5b5f600282049050600182168061072157607f821691505b602082108103610734576107336106dd565b5b50919050565b5f819050815f5260205f209050919050565b5f6020601f8301049050919050565b5f82821b905092915050565b5f600883026107967fffffffffffffffffffffffffffffffffffffffffffffffffffffffffffffffff8261075b565b6107a0868361075b565b95508019841693508086168417925050509392505050565b5f819050919050565b5f6107db6107d66107d18461032f565b6107b8565b61032f565b9050919050565b5f819050919050565b6107f4836107c1565b610808610800826107e2565b848454610767565b825550505050565b5f5f905090565b61081f610810565b61082a8184846107eb565b505050565b5f5b82811015610850576108455f828401610817565b600181019050610831565b505050565b601f8211156108a357828211156108a25761086f8161073a565b6108788361074c565b6108818561074c565b602086101561088e575f90505b80830161089d8284038261082f565b505050505b5b505050565b5f82821c905092915050565b5f6108c35f19846008026108a8565b1980831691505092915050565b5f6108db83836108b4565b9150826002028217905092915050565b6108f48261038d565b67ffffffffffffffff81111561090d5761090c61045b565b5b610917825461070a565b610922828285610855565b5f60209050601f831160018114610953575f8415610941578287015190505b61094b85826108d0565b8655506109b2565b601f1984166109618661073a565b5f5b8281101561098857848901518255600182019150602085019450602081019050610963565b868310156109a557848901516109a1601f8916826108b4565b8355505b6001600288020188555050505b50505050505056fea264697066735822122071714c04d101e681923a37d84592ae3ea7727e63c15bb5a29d773fbdf886096a64736f6c63430008220033",
					"opcodes": "PUSH1 0x80 PUSH1 0x40 MSTORE CALLVALUE DUP1 ISZERO PUSH1 0xE JUMPI PUSH0 PUSH0 REVERT JUMPDEST POP PUSH2 0x9F0 DUP1 PUSH2 0x1C PUSH0 CODECOPY PUSH0 RETURN INVALID PUSH1 0x80 PUSH1 0x40 MSTORE CALLVALUE DUP1 ISZERO PUSH2 0xF JUMPI PUSH0 PUSH0 REVERT JUMPDEST POP PUSH1 0x4 CALLDATASIZE LT PUSH2 0x60 JUMPI PUSH0 CALLDATALOAD PUSH1 0xE0 SHR DUP1 PUSH4 0x1E409E12 EQ PUSH2 0x64 JUMPI DUP1 PUSH4 0x57839B79 EQ PUSH2 0x95 JUMPI DUP1 PUSH4 0x7E1F47F0 EQ PUSH2 0xB3 JUMPI DUP1 PUSH4 0xAE77FEF6 EQ PUSH2 0xCF JUMPI DUP1 PUSH4 0xF1DC715D EQ PUSH2 0xED JUMPI DUP1 PUSH4 0xF2F7CCA4 EQ PUSH2 0x109 JUMPI JUMPDEST PUSH0 PUSH0 REVERT JUMPDEST PUSH2 0x7E PUSH1 0x4 DUP1 CALLDATASIZE SUB DUP2 ADD SWAP1 PUSH2 0x79 SWAP2 SWAP1 PUSH2 0x362 JUMP JUMPDEST PUSH2 0x139 JUMP JUMPDEST PUSH1 0x40 MLOAD PUSH2 0x8C SWAP3 SWAP2 SWAP1 PUSH2 0x40C JUMP JUMPDEST PUSH1 0x40 MLOAD DUP1 SWAP2 SUB SWAP1 RETURN JUMPDEST PUSH2 0x9D PUSH2 0x216 JUMP JUMPDEST PUSH1 0x40 MLOAD PUSH2 0xAA SWAP2 SWAP1 PUSH2 0x43A JUMP JUMPDEST PUSH1 0x40 MLOAD DUP1 SWAP2 SUB SWAP1 RETURN JUMPDEST PUSH2 0xCD PUSH1 0x4 DUP1 CALLDATASIZE SUB DUP2 ADD SWAP1 PUSH2 0xC8 SWAP2 SWAP1 PUSH2 0x57F JUMP JUMPDEST PUSH2 0x221 JUMP JUMPDEST STOP JUMPDEST PUSH2 0xD7 PUSH2 0x282 JUMP JUMPDEST PUSH1 0x40 MLOAD PUSH2 0xE4 SWAP2 SWAP1 PUSH2 0x690 JUMP JUMPDEST PUSH1 0x40 MLOAD DUP1 SWAP2 SUB SWAP1 RETURN JUMPDEST PUSH2 0x107 PUSH1 0x4 DUP1 CALLDATASIZE SUB DUP2 ADD SWAP1 PUSH2 0x102 SWAP2 SWAP1 PUSH2 0x362 JUMP JUMPDEST PUSH2 0x2D7 JUMP JUMPDEST STOP JUMPDEST PUSH2 0x123 PUSH1 0x4 DUP1 CALLDATASIZE SUB DUP2 ADD SWAP1 PUSH2 0x11E SWAP2 SWAP1 PUSH2 0x362 JUMP JUMPDEST PUSH2 0x2FF JUMP JUMPDEST PUSH1 0x40 MLOAD PUSH2 0x130 SWAP2 SWAP1 PUSH2 0x43A JUMP JUMPDEST PUSH1 0x40 MLOAD DUP1 SWAP2 SUB SWAP1 RETURN JUMPDEST PUSH1 0x60 PUSH0 PUSH0 PUSH1 0x1 DUP5 DUP2 SLOAD DUP2 LT PUSH2 0x151 JUMPI PUSH2 0x150 PUSH2 0x6B0 JUMP JUMPDEST JUMPDEST SWAP1 PUSH0 MSTORE PUSH1 0x20 PUSH0 KECCAK256 SWAP1 PUSH1 0x2 MUL ADD PUSH1 0x40 MLOAD DUP1 PUSH1 0x40 ADD PUSH1 0x40 MSTORE SWAP1 DUP2 PUSH0 DUP3 ADD DUP1 SLOAD PUSH2 0x177 SWAP1 PUSH2 0x70A JUMP JUMPDEST DUP1 PUSH1 0x1F ADD PUSH1 0x20 DUP1 SWAP2 DIV MUL PUSH1 0x20 ADD PUSH1 0x40 MLOAD SWAP1 DUP2 ADD PUSH1 0x40 MSTORE DUP1 SWAP3 SWAP2 SWAP1 DUP2 DUP2 MSTORE PUSH1 0x20 ADD DUP3 DUP1 SLOAD PUSH2 0x1A3 SWAP1 PUSH2 0x70A JUMP JUMPDEST DUP1 ISZERO PUSH2 0x1EE JUMPI DUP1 PUSH1 0x1F LT PUSH2 0x1C5 JUMPI PUSH2 0x100 DUP1 DUP4 SLOAD DIV MUL DUP4 MSTORE SWAP2 PUSH1 0x20 ADD SWAP2 PUSH2 0x1EE JUMP JUMPDEST DUP3 ADD SWAP2 SWAP1 PUSH0 MSTORE PUSH1 0x20 PUSH0 KECCAK256 SWAP1 JUMPDEST DUP2 SLOAD DUP2 MSTORE SWAP1 PUSH1 0x1 ADD SWAP1 PUSH1 0x20 ADD DUP1 DUP4 GT PUSH2 0x1D1 JUMPI DUP3 SWAP1 SUB PUSH1 0x1F AND DUP3 ADD SWAP2 JUMPDEST POP POP POP POP POP DUP2 MSTORE PUSH1 0x20 ADD PUSH1 0x1 DUP3 ADD SLOAD DUP2 MSTORE POP POP SWAP1 POP DUP1 PUSH0 ADD MLOAD DUP2 PUSH1 0x20 ADD MLOAD SWAP3 POP SWAP3 POP POP SWAP2 POP SWAP2 JUMP JUMPDEST PUSH0 PUSH0 DUP1 SLOAD SWAP1 POP SWAP1 POP SWAP1 JUMP JUMPDEST PUSH1 0x1 PUSH1 0x40 MLOAD DUP1 PUSH1 0x40 ADD PUSH1 0x40 MSTORE DUP1 DUP5 DUP2 MSTORE PUSH1 0x20 ADD DUP4 DUP2 MSTORE POP SWAP1 DUP1 PUSH1 0x1 DUP2 SLOAD ADD DUP1 DUP3 SSTORE DUP1 SWAP2 POP POP PUSH1 0x1 SWAP1 SUB SWAP1 PUSH0 MSTORE PUSH1 0x20 PUSH0 KECCAK256 SWAP1 PUSH1 0x2 MUL ADD PUSH0 SWAP1 SWAP2 SWAP1 SWAP2 SWAP1 SWAP2 POP PUSH0 DUP3 ADD MLOAD DUP2 PUSH0 ADD SWAP1 DUP2 PUSH2 0x271 SWAP2 SWAP1 PUSH2 0x8EB JUMP JUMPDEST POP PUSH1 0x20 DUP3 ADD MLOAD DUP2 PUSH1 0x1 ADD SSTORE POP POP POP POP JUMP JUMPDEST PUSH1 0x60 PUSH0 DUP1 SLOAD DUP1 PUSH1 0x20 MUL PUSH1 0x20 ADD PUSH1 0x40 MLOAD SWAP1 DUP2 ADD PUSH1 0x40 MSTORE DUP1 SWAP3 SWAP2 SWAP1 DUP2 DUP2 MSTORE PUSH1 0x20 ADD DUP3 DUP1 SLOAD DUP1 ISZERO PUSH2 0x2CD JUMPI PUSH1 0x20 MUL DUP3 ADD SWAP2 SWAP1 PUSH0 MSTORE PUSH1 0x20 PUSH0 KECCAK256 SWAP1 JUMPDEST DUP2 SLOAD DUP2 MSTORE PUSH1 0x20 ADD SWAP1 PUSH1 0x1 ADD SWAP1 DUP1 DUP4 GT PUSH2 0x2B9 JUMPI JUMPDEST POP POP POP POP POP SWAP1 POP SWAP1 JUMP JUMPDEST PUSH0 DUP2 SWAP1 DUP1 PUSH1 0x1 DUP2 SLOAD ADD DUP1 DUP3 SSTORE DUP1 SWAP2 POP POP PUSH1 0x1 SWAP1 SUB SWAP1 PUSH0 MSTORE PUSH1 0x20 PUSH0 KECCAK256 ADD PUSH0 SWAP1 SWAP2 SWAP1 SWAP2 SWAP1 SWAP2 POP SSTORE POP JUMP JUMPDEST PUSH0 DUP2 DUP2 SLOAD DUP2 LT PUSH2 0x30D JUMPI PUSH0 DUP1 REVERT JUMPDEST SWAP1 PUSH0 MSTORE PUSH1 0x20 PUSH0 KECCAK256 ADD PUSH0 SWAP2 POP SWAP1 POP SLOAD DUP2 JUMP JUMPDEST PUSH0 PUSH1 0x40 MLOAD SWAP1 POP SWAP1 JUMP JUMPDEST PUSH0 PUSH0 REVERT JUMPDEST PUSH0 PUSH0 REVERT JUMPDEST PUSH0 DUP2 SWAP1 POP SWAP2 SWAP1 POP JUMP JUMPDEST PUSH2 0x341 DUP2 PUSH2 0x32F JUMP JUMPDEST DUP2 EQ PUSH2 0x34B JUMPI PUSH0 PUSH0 REVERT JUMPDEST POP JUMP JUMPDEST PUSH0 DUP2 CALLDATALOAD SWAP1 POP PUSH2 0x35C DUP2 PUSH2 0x338 JUMP JUMPDEST SWAP3 SWAP2 POP POP JUMP JUMPDEST PUSH0 PUSH1 0x20 DUP3 DUP5 SUB SLT ISZERO PUSH2 0x377 JUMPI PUSH2 0x376 PUSH2 0x327 JUMP JUMPDEST JUMPDEST PUSH0 PUSH2 0x384 DUP5 DUP3 DUP6 ADD PUSH2 0x34E JUMP JUMPDEST SWAP2 POP POP SWAP3 SWAP2 POP POP JUMP JUMPDEST PUSH0 DUP2 MLOAD SWAP1 POP SWAP2 SWAP1 POP JUMP JUMPDEST PUSH0 DUP3 DUP3 MSTORE PUSH1 0x20 DUP3 ADD SWAP1 POP SWAP3 SWAP2 POP POP JUMP JUMPDEST DUP3 DUP2 DUP4 MCOPY PUSH0 DUP4 DUP4 ADD MSTORE POP POP POP JUMP JUMPDEST PUSH0 PUSH1 0x1F NOT PUSH1 0x1F DUP4 ADD AND SWAP1 POP SWAP2 SWAP1 POP JUMP JUMPDEST PUSH0 PUSH2 0x3CF DUP3 PUSH2 0x38D JUMP JUMPDEST PUSH2 0x3D9 DUP2 DUP6 PUSH2 0x397 JUMP JUMPDEST SWAP4 POP PUSH2 0x3E9 DUP2 DUP6 PUSH1 0x20 DUP7 ADD PUSH2 0x3A7 JUMP JUMPDEST PUSH2 0x3F2 DUP2 PUSH2 0x3B5 JUMP JUMPDEST DUP5 ADD SWAP2 POP POP SWAP3 SWAP2 POP POP JUMP JUMPDEST PUSH2 0x406 DUP2 PUSH2 0x32F JUMP JUMPDEST DUP3 MSTORE POP POP JUMP JUMPDEST PUSH0 PUSH1 0x40 DUP3 ADD SWAP1 POP DUP2 DUP2 SUB PUSH0 DUP4 ADD MSTORE PUSH2 0x424 DUP2 DUP6 PUSH2 0x3C5 JUMP JUMPDEST SWAP1 POP PUSH2 0x433 PUSH1 0x20 DUP4 ADD DUP5 PUSH2 0x3FD JUMP JUMPDEST SWAP4 SWAP3 POP POP POP JUMP JUMPDEST PUSH0 PUSH1 0x20 DUP3 ADD SWAP1 POP PUSH2 0x44D PUSH0 DUP4 ADD DUP5 PUSH2 0x3FD JUMP JUMPDEST SWAP3 SWAP2 POP POP JUMP JUMPDEST PUSH0 PUSH0 REVERT JUMPDEST PUSH0 PUSH0 REVERT JUMPDEST PUSH32 0x4E487B7100000000000000000000000000000000000000000000000000000000 PUSH0 MSTORE PUSH1 0x41 PUSH1 0x4 MSTORE PUSH1 0x24 PUSH0 REVERT JUMPDEST PUSH2 0x491 DUP3 PUSH2 0x3B5 JUMP JUMPDEST DUP2 ADD DUP2 DUP2 LT PUSH8 0xFFFFFFFFFFFFFFFF DUP3 GT OR ISZERO PUSH2 0x4B0 JUMPI PUSH2 0x4AF PUSH2 0x45B JUMP JUMPDEST JUMPDEST DUP1 PUSH1 0x40 MSTORE POP POP POP JUMP JUMPDEST PUSH0 PUSH2 0x4C2 PUSH2 0x31E JUMP JUMPDEST SWAP1 POP PUSH2 0x4CE DUP3 DUP3 PUSH2 0x488 JUMP JUMPDEST SWAP2 SWAP1 POP JUMP JUMPDEST PUSH0 PUSH8 0xFFFFFFFFFFFFFFFF DUP3 GT ISZERO PUSH2 0x4ED JUMPI PUSH2 0x4EC PUSH2 0x45B JUMP JUMPDEST JUMPDEST PUSH2 0x4F6 DUP3 PUSH2 0x3B5 JUMP JUMPDEST SWAP1 POP PUSH1 0x20 DUP2 ADD SWAP1 POP SWAP2 SWAP1 POP JUMP JUMPDEST DUP3 DUP2 DUP4 CALLDATACOPY PUSH0 DUP4 DUP4 ADD MSTORE POP POP POP JUMP JUMPDEST PUSH0 PUSH2 0x523 PUSH2 0x51E DUP5 PUSH2 0x4D3 JUMP JUMPDEST PUSH2 0x4B9 JUMP JUMPDEST SWAP1 POP DUP3 DUP2 MSTORE PUSH1 0x20 DUP2 ADD DUP5 DUP5 DUP5 ADD GT ISZERO PUSH2 0x53F JUMPI PUSH2 0x53E PUSH2 0x457 JUMP JUMPDEST JUMPDEST PUSH2 0x54A DUP5 DUP3 DUP6 PUSH2 0x503 JUMP JUMPDEST POP SWAP4 SWAP3 POP POP POP JUMP JUMPDEST PUSH0 DUP3 PUSH1 0x1F DUP4 ADD SLT PUSH2 0x566 JUMPI PUSH2 0x565 PUSH2 0x453 JUMP JUMPDEST JUMPDEST DUP2 CALLDATALOAD PUSH2 0x576 DUP5 DUP3 PUSH1 0x20 DUP7 ADD PUSH2 0x511 JUMP JUMPDEST SWAP2 POP POP SWAP3 SWAP2 POP POP JUMP JUMPDEST PUSH0 PUSH0 PUSH1 0x40 DUP4 DUP6 SUB SLT ISZERO PUSH2 0x595 JUMPI PUSH2 0x594 PUSH2 0x327 JUMP JUMPDEST JUMPDEST PUSH0 DUP4 ADD CALLDATALOAD PUSH8 0xFFFFFFFFFFFFFFFF DUP2 GT ISZERO PUSH2 0x5B2 JUMPI PUSH2 0x5B1 PUSH2 0x32B JUMP JUMPDEST JUMPDEST PUSH2 0x5BE DUP6 DUP3 DUP7 ADD PUSH2 0x552 JUMP JUMPDEST SWAP3 POP POP PUSH1 0x20 PUSH2 0x5CF DUP6 DUP3 DUP7 ADD PUSH2 0x34E JUMP JUMPDEST SWAP2 POP POP SWAP3 POP SWAP3 SWAP1 POP JUMP JUMPDEST PUSH0 DUP2 MLOAD SWAP1 POP SWAP2 SWAP1 POP JUMP JUMPDEST PUSH0 DUP3 DUP3 MSTORE PUSH1 0x20 DUP3 ADD SWAP1 POP SWAP3 SWAP2 POP POP JUMP JUMPDEST PUSH0 DUP2 SWAP1 POP PUSH1 0x20 DUP3 ADD SWAP1 POP SWAP2 SWAP1 POP JUMP JUMPDEST PUSH2 0x60B DUP2 PUSH2 0x32F JUMP JUMPDEST DUP3 MSTORE POP POP JUMP JUMPDEST PUSH0 PUSH2 0x61C DUP4 DUP4 PUSH2 0x602 JUMP JUMPDEST PUSH1 0x20 DUP4 ADD SWAP1 POP SWAP3 SWAP2 POP POP JUMP JUMPDEST PUSH0 PUSH1 0x20 DUP3 ADD SWAP1 POP SWAP2 SWAP1 POP JUMP JUMPDEST PUSH0 PUSH2 0x63E DUP3 PUSH2 0x5D9 JUMP JUMPDEST PUSH2 0x648 DUP2 DUP6 PUSH2 0x5E3 JUMP JUMPDEST SWAP4 POP PUSH2 0x653 DUP4 PUSH2 0x5F3 JUMP JUMPDEST DUP1 PUSH0 JUMPDEST DUP4 DUP2 LT ISZERO PUSH2 0x683 JUMPI DUP2 MLOAD PUSH2 0x66A DUP9 DUP3 PUSH2 0x611 JUMP JUMPDEST SWAP8 POP PUSH2 0x675 DUP4 PUSH2 0x628 JUMP JUMPDEST SWAP3 POP POP PUSH1 0x1 DUP2 ADD SWAP1 POP PUSH2 0x656 JUMP JUMPDEST POP DUP6 SWAP4 POP POP POP POP SWAP3 SWAP2 POP POP JUMP JUMPDEST PUSH0 PUSH1 0x20 DUP3 ADD SWAP1 POP DUP2 DUP2 SUB PUSH0 DUP4 ADD MSTORE PUSH2 0x6A8 DUP2 DUP5 PUSH2 0x634 JUMP JUMPDEST SWAP1 POP SWAP3 SWAP2 POP POP JUMP JUMPDEST PUSH32 0x4E487B7100000000000000000000000000000000000000000000000000000000 PUSH0 MSTORE PUSH1 0x32 PUSH1 0x4 MSTORE PUSH1 0x24 PUSH0 REVERT JUMPDEST PUSH32 0x4E487B7100000000000000000000000000000000000000000000000000000000 PUSH0 MSTORE PUSH1 0x22 PUSH1 0x4 MSTORE PUSH1 0x24 PUSH0 REVERT JUMPDEST PUSH0 PUSH1 0x2 DUP3 DIV SWAP1 POP PUSH1 0x1 DUP3 AND DUP1 PUSH2 0x721 JUMPI PUSH1 0x7F DUP3 AND SWAP2 POP JUMPDEST PUSH1 0x20 DUP3 LT DUP2 SUB PUSH2 0x734 JUMPI PUSH2 0x733 PUSH2 0x6DD JUMP JUMPDEST JUMPDEST POP SWAP2 SWAP1 POP JUMP JUMPDEST PUSH0 DUP2 SWAP1 POP DUP2 PUSH0 MSTORE PUSH1 0x20 PUSH0 KECCAK256 SWAP1 POP SWAP2 SWAP1 POP JUMP JUMPDEST PUSH0 PUSH1 0x20 PUSH1 0x1F DUP4 ADD DIV SWAP1 POP SWAP2 SWAP1 POP JUMP JUMPDEST PUSH0 DUP3 DUP3 SHL SWAP1 POP SWAP3 SWAP2 POP POP JUMP JUMPDEST PUSH0 PUSH1 0x8 DUP4 MUL PUSH2 0x796 PUSH32 0xFFFFFFFFFFFFFFFFFFFFFFFFFFFFFFFFFFFFFFFFFFFFFFFFFFFFFFFFFFFFFFFF DUP3 PUSH2 0x75B JUMP JUMPDEST PUSH2 0x7A0 DUP7 DUP4 PUSH2 0x75B JUMP JUMPDEST SWAP6 POP DUP1 NOT DUP5 AND SWAP4 POP DUP1 DUP7 AND DUP5 OR SWAP3 POP POP POP SWAP4 SWAP3 POP POP POP JUMP JUMPDEST PUSH0 DUP2 SWAP1 POP SWAP2 SWAP1 POP JUMP JUMPDEST PUSH0 PUSH2 0x7DB PUSH2 0x7D6 PUSH2 0x7D1 DUP5 PUSH2 0x32F JUMP JUMPDEST PUSH2 0x7B8 JUMP JUMPDEST PUSH2 0x32F JUMP JUMPDEST SWAP1 POP SWAP2 SWAP1 POP JUMP JUMPDEST PUSH0 DUP2 SWAP1 POP SWAP2 SWAP1 POP JUMP JUMPDEST PUSH2 0x7F4 DUP4 PUSH2 0x7C1 JUMP JUMPDEST PUSH2 0x808 PUSH2 0x800 DUP3 PUSH2 0x7E2 JUMP JUMPDEST DUP5 DUP5 SLOAD PUSH2 0x767 JUMP JUMPDEST DUP3 SSTORE POP POP POP POP JUMP JUMPDEST PUSH0 PUSH0 SWAP1 POP SWAP1 JUMP JUMPDEST PUSH2 0x81F PUSH2 0x810 JUMP JUMPDEST PUSH2 0x82A DUP2 DUP5 DUP5 PUSH2 0x7EB JUMP JUMPDEST POP POP POP JUMP JUMPDEST PUSH0 JUMPDEST DUP3 DUP2 LT ISZERO PUSH2 0x850 JUMPI PUSH2 0x845 PUSH0 DUP3 DUP5 ADD PUSH2 0x817 JUMP JUMPDEST PUSH1 0x1 DUP2 ADD SWAP1 POP PUSH2 0x831 JUMP JUMPDEST POP POP POP JUMP JUMPDEST PUSH1 0x1F DUP3 GT ISZERO PUSH2 0x8A3 JUMPI DUP3 DUP3 GT ISZERO PUSH2 0x8A2 JUMPI PUSH2 0x86F DUP2 PUSH2 0x73A JUMP JUMPDEST PUSH2 0x878 DUP4 PUSH2 0x74C JUMP JUMPDEST PUSH2 0x881 DUP6 PUSH2 0x74C JUMP JUMPDEST PUSH1 0x20 DUP7 LT ISZERO PUSH2 0x88E JUMPI PUSH0 SWAP1 POP JUMPDEST DUP1 DUP4 ADD PUSH2 0x89D DUP3 DUP5 SUB DUP3 PUSH2 0x82F JUMP JUMPDEST POP POP POP POP JUMPDEST JUMPDEST POP POP POP JUMP JUMPDEST PUSH0 DUP3 DUP3 SHR SWAP1 POP SWAP3 SWAP2 POP POP JUMP JUMPDEST PUSH0 PUSH2 0x8C3 PUSH0 NOT DUP5 PUSH1 0x8 MUL PUSH2 0x8A8 JUMP JUMPDEST NOT DUP1 DUP4 AND SWAP2 POP POP SWAP3 SWAP2 POP POP JUMP JUMPDEST PUSH0 PUSH2 0x8DB DUP4 DUP4 PUSH2 0x8B4 JUMP JUMPDEST SWAP2 POP DUP3 PUSH1 0x2 MUL DUP3 OR SWAP1 POP SWAP3 SWAP2 POP POP JUMP JUMPDEST PUSH2 0x8F4 DUP3 PUSH2 0x38D JUMP JUMPDEST PUSH8 0xFFFFFFFFFFFFFFFF DUP2 GT ISZERO PUSH2 0x90D JUMPI PUSH2 0x90C PUSH2 0x45B JUMP JUMPDEST JUMPDEST PUSH2 0x917 DUP3 SLOAD PUSH2 0x70A JUMP JUMPDEST PUSH2 0x922 DUP3 DUP3 DUP6 PUSH2 0x855 JUMP JUMPDEST PUSH0 PUSH1 0x20 SWAP1 POP PUSH1 0x1F DUP4 GT PUSH1 0x1 DUP2 EQ PUSH2 0x953 JUMPI PUSH0 DUP5 ISZERO PUSH2 0x941 JUMPI DUP3 DUP8 ADD MLOAD SWAP1 POP JUMPDEST PUSH2 0x94B DUP6 DUP3 PUSH2 0x8D0 JUMP JUMPDEST DUP7 SSTORE POP PUSH2 0x9B2 JUMP JUMPDEST PUSH1 0x1F NOT DUP5 AND PUSH2 0x961 DUP7 PUSH2 0x73A JUMP JUMPDEST PUSH0 JUMPDEST DUP3 DUP2 LT ISZERO PUSH2 0x988 JUMPI DUP5 DUP10 ADD MLOAD DUP3 SSTORE PUSH1 0x1 DUP3 ADD SWAP2 POP PUSH1 0x20 DUP6 ADD SWAP5 POP PUSH1 0x20 DUP2 ADD SWAP1 POP PUSH2 0x963 JUMP JUMPDEST DUP7 DUP4 LT ISZERO PUSH2 0x9A5 JUMPI DUP5 DUP10 ADD MLOAD PUSH2 0x9A1 PUSH1 0x1F DUP10 AND DUP3 PUSH2 0x8B4 JUMP JUMPDEST DUP4 SSTORE POP JUMPDEST PUSH1 0x1 PUSH1 0x2 DUP9 MUL ADD DUP9 SSTORE POP POP POP JUMPDEST POP POP POP POP POP POP JUMP INVALID LOG2 PUSH5 0x6970667358 0x22 SLT KECCAK256 PUSH18 0x714C04D101E681923A37D84592AE3EA7727E PUSH4 0xC15BB5A2 SWAP14 PUSH24 0x3FBDF886096A64736F6C6343000822003300000000000000 "
				},
				"gasEstimates": {
					"creation": {
						"codeDepositCost": "508800",
						"executionCost": "541",
						"totalCost": "509341"
					},
					"external": {
						"agregarAlumno(string,uint256)": "infinite",
						"agregarNumero(uint256)": "46886",
						"getTamanioArray()": "2439",
						"mostrarAlumno(uint256)": "infinite",
						"numeros(uint256)": "infinite",
						"obtenerNumeros()": "infinite"
					}
				},
				"methodIdentifiers": {
					"agregarAlumno(string,uint256)": "7e1f47f0",
					"agregarNumero(uint256)": "f1dc715d",
					"getTamanioArray()": "57839b79",
					"mostrarAlumno(uint256)": "1e409e12",
					"numeros(uint256)": "f2f7cca4",
					"obtenerNumeros()": "ae77fef6"
				}
			},
			"storageLayout": {
				"storage": [
					{
						"astId": 9,
						"contract": "contracts/13_Comp_Array.sol:CompArrays",
						"label": "numeros",
						"offset": 0,
						"slot": "0",
						"type": "t_array(t_uint256)dyn_storage"
					},
					{
						"astId": 13,
						"contract": "contracts/13_Comp_Array.sol:CompArrays",
						"label": "alumnos",
						"offset": 0,
						"slot": "1",
						"type": "t_array(t_struct(Alumno)6_storage)dyn_storage"
					}
				],
				"types": {
					"t_array(t_struct(Alumno)6_storage)dyn_storage": {
						"base": "t_struct(Alumno)6_storage",
						"encoding": "dynamic_array",
						"label": "struct CompArrays.Alumno[]",
						"numberOfBytes": "32"
					},
					"t_array(t_uint256)dyn_storage": {
						"base": "t_uint256",
						"encoding": "dynamic_array",
						"label": "uint256[]",
						"numberOfBytes": "32"
					},
					"t_string_storage": {
						"encoding": "bytes",
						"label": "string",
						"numberOfBytes": "32"
					},
					"t_struct(Alumno)6_storage": {
						"encoding": "inplace",
						"label": "struct CompArrays.Alumno",
						"members": [
							{
								"astId": 3,
								"contract": "contracts/13_Comp_Array.sol:CompArrays",
								"label": "nombre",
								"offset": 0,
								"slot": "0",
								"type": "t_string_storage"
							},
							{
								"astId": 5,
								"contract": "contracts/13_Comp_Array.sol:CompArrays",
								"label": "edad",
								"offset": 0,
								"slot": "1",
								"type": "t_uint256"
							}
						],
						"numberOfBytes": "64"
					},
					"t_uint256": {
						"encoding": "inplace",
						"label": "uint256",
						"numberOfBytes": "32"
					}
				}
			},
			"userdoc": {
				"kind": "user",
				"methods": {},
				"version": 1
			}
		}
	}
}