{
	"contracts/15_Mensajes.sol": {
		"SistemaMensajes": {
			"abi": [
				{
					"inputs": [],
					"stateMutability": "nonpayable",
					"type": "constructor"
				},
				{
					"anonymous": false,
					"inputs": [
						{
							"indexed": true,
							"internalType": "address",
							"name": "from",
							"type": "address"
						},
						{
							"indexed": true,
							"internalType": "address",
							"name": "to",
							"type": "address"
						},
						{
							"indexed": false,
							"internalType": "string",
							"name": "contenido",
							"type": "string"
						},
						{
							"indexed": false,
							"internalType": "uint256",
							"name": "timestamp",
							"type": "uint256"
						}
					],
					"name": "MensajeEnviado",
					"type": "event"
				},
				{
					"inputs": [
						{
							"internalType": "address",
							"name": "_to",
							"type": "address"
						},
						{
							"internalType": "string",
							"name": "_contenido",
							"type": "string"
						}
					],
					"name": "enviarMensaje",
					"outputs": [],
					"stateMutability": "nonpayable",
					"type": "function"
				},
				{
					"inputs": [
						{
							"internalType": "uint256",
							"name": "",
							"type": "uint256"
						}
					],
					"name": "historialMensajes",
					"outputs": [
						{
							"internalType": "address",
							"name": "from",
							"type": "address"
						},
						{
							"internalType": "address",
							"name": "to",
							"type": "address"
						},
						{
							"internalType": "string",
							"name": "contenido",
							"type": "string"
						},
						{
							"internalType": "uint256",
							"name": "timestamp",
							"type": "uint256"
						}
					],
					"stateMutability": "view",
					"type": "function"
				},
				{
					"inputs": [],
					"name": "obtenerTotalMensajes",
					"outputs": [
						{
							"internalType": "uint256",
							"name": "",
							"type": "uint256"
						}
					],
					"stateMutability": "view",
					"type": "function"
				},
				{
					"inputs": [],
					"name": "owner",
					"outputs": [
						{
							"internalType": "address",
							"name": "",
							"type": "address"
						}
					],
					"stateMutability": "view",
					"type": "function"
				}
			],
			"devdoc": {
				"kind": "dev",
				"methods": {},
				"version": 1
			},
			"evm": {
				"assembly": "    /* \"contracts/15_Mensajes.sol\":68:1188  contract SistemaMensajes {... */\n  mstore(0x40, 0x80)\n    /* \"contracts/15_Mensajes.sol\":601:652  constructor() {... */\n  callvalue\n  dup1\n  iszero\n  tag_1\n  jumpi\n  revert(0x00, 0x00)\ntag_1:\n  pop\n    /* \"contracts/15_Mensajes.sol\":634:644  msg.sender */\n  caller\n    /* \"contracts/15_Mensajes.sol\":626:631  owner */\n  0x00\n  0x00\n    /* \"contracts/15_Mensajes.sol\":626:644  owner = msg.sender */\n  0x0100\n  exp\n  dup2\n  sload\n  dup2\n  0xffffffffffffffffffffffffffffffffffffffff\n  mul\n  not\n  and\n  swap1\n  dup4\n  0xffffffffffffffffffffffffffffffffffffffff\n  and\n  mul\n  or\n  swap1\n  sstore\n  pop\n    /* \"contracts/15_Mensajes.sol\":68:1188  contract SistemaMensajes {... */\n  dataSize(sub_0)\n  dup1\n  dataOffset(sub_0)\n  0x00\n  codecopy\n  0x00\n  return\nstop\n\nsub_0: assembly {\n        /* \"contracts/15_Mensajes.sol\":68:1188  contract SistemaMensajes {... */\n      mstore(0x40, 0x80)\n      callvalue\n      dup1\n      iszero\n      tag_1\n      jumpi\n      revert(0x00, 0x00)\n    tag_1:\n      pop\n      jumpi(tag_2, lt(calldatasize, 0x04))\n      shr(0xe0, calldataload(0x00))\n      dup1\n      0x08056827\n      eq\n      tag_3\n      jumpi\n      dup1\n      0x7aa361c8\n      eq\n      tag_4\n      jumpi\n      dup1\n      0x8da5cb5b\n      eq\n      tag_5\n      jumpi\n      dup1\n      0xb70f7866\n      eq\n      tag_6\n      jumpi\n    tag_2:\n      revert(0x00, 0x00)\n        /* \"contracts/15_Mensajes.sol\":265:299  Mensaje[] public historialMensajes */\n    tag_3:\n      tag_7\n      0x04\n      dup1\n      calldatasize\n      sub\n      dup2\n      add\n      swap1\n      tag_8\n      swap2\n      swap1\n      tag_9\n      jump\t// in\n    tag_8:\n      tag_10\n      jump\t// in\n    tag_7:\n      mload(0x40)\n      tag_11\n      swap5\n      swap4\n      swap3\n      swap2\n      swap1\n      tag_12\n      jump\t// in\n    tag_11:\n      mload(0x40)\n      dup1\n      swap2\n      sub\n      swap1\n      return\n        /* \"contracts/15_Mensajes.sol\":660:1065  function enviarMensaje(address _to, string memory _contenido) public onlyOwner {... */\n    tag_4:\n      tag_13\n      0x04\n      dup1\n      calldatasize\n      sub\n      dup2\n      add\n      swap1\n      tag_14\n      swap2\n      swap1\n      tag_15\n      jump\t// in\n    tag_14:\n      tag_16\n      jump\t// in\n    tag_13:\n      stop\n        /* \"contracts/15_Mensajes.sol\":106:126  address public owner */\n    tag_5:\n      tag_17\n      tag_18\n      jump\t// in\n    tag_17:\n      mload(0x40)\n      tag_19\n      swap2\n      swap1\n      tag_20\n      jump\t// in\n    tag_19:\n      mload(0x40)\n      dup1\n      swap2\n      sub\n      swap1\n      return\n        /* \"contracts/15_Mensajes.sol\":1073:1185  function obtenerTotalMensajes() public view returns (uint256) {... */\n    tag_6:\n      tag_21\n      tag_22\n      jump\t// in\n    tag_21:\n      mload(0x40)\n      tag_23\n      swap2\n      swap1\n      tag_24\n      jump\t// in\n    tag_23:\n      mload(0x40)\n      dup1\n      swap2\n      sub\n      swap1\n      return\n        /* \"contracts/15_Mensajes.sol\":265:299  Mensaje[] public historialMensajes */\n    tag_10:\n      0x01\n      dup2\n      dup2\n      sload\n      dup2\n      lt\n      tag_25\n      jumpi\n      0x00\n      dup1\n      revert\n    tag_25:\n      swap1\n      0x00\n      mstore\n      keccak256(0x00, 0x20)\n      swap1\n      0x04\n      mul\n      add\n      0x00\n      swap2\n      pop\n      swap1\n      pop\n      dup1\n      0x00\n      add\n      0x00\n      swap1\n      sload\n      swap1\n      0x0100\n      exp\n      swap1\n      div\n      0xffffffffffffffffffffffffffffffffffffffff\n      and\n      swap1\n      dup1\n      0x01\n      add\n      0x00\n      swap1\n      sload\n      swap1\n      0x0100\n      exp\n      swap1\n      div\n      0xffffffffffffffffffffffffffffffffffffffff\n      and\n      swap1\n      dup1\n      0x02\n      add\n      dup1\n      sload\n      tag_27\n      swap1\n      tag_28\n      jump\t// in\n    tag_27:\n      dup1\n      0x1f\n      add\n      0x20\n      dup1\n      swap2\n      div\n      mul\n      0x20\n      add\n      mload(0x40)\n      swap1\n      dup2\n      add\n      0x40\n      mstore\n      dup1\n      swap3\n      swap2\n      swap1\n      dup2\n      dup2\n      mstore\n      0x20\n      add\n      dup3\n      dup1\n      sload\n      tag_29\n      swap1\n      tag_28\n      jump\t// in\n    tag_29:\n      dup1\n      iszero\n      tag_30\n      jumpi\n      dup1\n      0x1f\n      lt\n      tag_31\n      jumpi\n      0x0100\n      dup1\n      dup4\n      sload\n      div\n      mul\n      dup4\n      mstore\n      swap2\n      0x20\n      add\n      swap2\n      jump(tag_30)\n    tag_31:\n      dup3\n      add\n      swap2\n      swap1\n      0x00\n      mstore\n      keccak256(0x00, 0x20)\n      swap1\n    tag_32:\n      dup2\n      sload\n      dup2\n      mstore\n      swap1\n      0x01\n      add\n      swap1\n      0x20\n      add\n      dup1\n      dup4\n      gt\n      tag_32\n      jumpi\n      dup3\n      swap1\n      sub\n      0x1f\n      and\n      dup3\n      add\n      swap2\n    tag_30:\n      pop\n      pop\n      pop\n      pop\n      pop\n      swap1\n      dup1\n      0x03\n      add\n      sload\n      swap1\n      pop\n      dup5\n      jump\t// out\n        /* \"contracts/15_Mensajes.sol\":660:1065  function enviarMensaje(address _to, string memory _contenido) public onlyOwner {... */\n    tag_16:\n        /* \"contracts/15_Mensajes.sol\":516:521  owner */\n      0x00\n      0x00\n      swap1\n      sload\n      swap1\n      0x0100\n      exp\n      swap1\n      div\n      0xffffffffffffffffffffffffffffffffffffffff\n      and\n        /* \"contracts/15_Mensajes.sol\":502:521  msg.sender == owner */\n      0xffffffffffffffffffffffffffffffffffffffff\n      and\n        /* \"contracts/15_Mensajes.sol\":502:512  msg.sender */\n      caller\n        /* \"contracts/15_Mensajes.sol\":502:521  msg.sender == owner */\n      0xffffffffffffffffffffffffffffffffffffffff\n      and\n      eq\n        /* \"contracts/15_Mensajes.sol\":494:573  require(msg.sender == owner, \"Solo el propietario puede ejecutar esta funcion\") */\n      tag_34\n      jumpi\n      mload(0x40)\n      0x08c379a000000000000000000000000000000000000000000000000000000000\n      dup2\n      mstore\n      0x04\n      add\n      tag_35\n      swap1\n      tag_36\n      jump\t// in\n    tag_35:\n      mload(0x40)\n      dup1\n      swap2\n      sub\n      swap1\n      revert\n    tag_34:\n        /* \"contracts/15_Mensajes.sol\":750:777  Mensaje memory nuevoMensaje */\n      0x00\n        /* \"contracts/15_Mensajes.sol\":780:930  Mensaje({... */\n      mload(0x40)\n      dup1\n      0x80\n      add\n      0x40\n      mstore\n      dup1\n        /* \"contracts/15_Mensajes.sol\":809:819  msg.sender */\n      caller\n        /* \"contracts/15_Mensajes.sol\":780:930  Mensaje({... */\n      0xffffffffffffffffffffffffffffffffffffffff\n      and\n      dup2\n      mstore\n      0x20\n      add\n        /* \"contracts/15_Mensajes.sol\":838:841  _to */\n      dup5\n        /* \"contracts/15_Mensajes.sol\":780:930  Mensaje({... */\n      0xffffffffffffffffffffffffffffffffffffffff\n      and\n      dup2\n      mstore\n      0x20\n      add\n        /* \"contracts/15_Mensajes.sol\":867:877  _contenido */\n      dup4\n        /* \"contracts/15_Mensajes.sol\":780:930  Mensaje({... */\n      dup2\n      mstore\n      0x20\n      add\n        /* \"contracts/15_Mensajes.sol\":903:918  block.timestamp */\n      timestamp\n        /* \"contracts/15_Mensajes.sol\":780:930  Mensaje({... */\n      dup2\n      mstore\n      pop\n        /* \"contracts/15_Mensajes.sol\":750:930  Mensaje memory nuevoMensaje = Mensaje({... */\n      swap1\n      pop\n        /* \"contracts/15_Mensajes.sol\":943:960  historialMensajes */\n      0x01\n        /* \"contracts/15_Mensajes.sol\":966:978  nuevoMensaje */\n      dup2\n        /* \"contracts/15_Mensajes.sol\":943:979  historialMensajes.push(nuevoMensaje) */\n      swap1\n      dup1\n      0x01\n      dup2\n      sload\n      add\n      dup1\n      dup3\n      sstore\n      dup1\n      swap2\n      pop\n      pop\n      0x01\n      swap1\n      sub\n      swap1\n      0x00\n      mstore\n      keccak256(0x00, 0x20)\n      swap1\n      0x04\n      mul\n      add\n      0x00\n      swap1\n      swap2\n      swap1\n      swap2\n      swap1\n      swap2\n      pop\n      0x00\n      dup3\n      add\n      mload\n      dup2\n      0x00\n      add\n      exp(0x0100, 0x00)\n      dup2\n      sload\n      dup2\n      0xffffffffffffffffffffffffffffffffffffffff\n      mul\n      not\n      and\n      swap1\n      dup4\n      0xffffffffffffffffffffffffffffffffffffffff\n      and\n      mul\n      or\n      swap1\n      sstore\n      pop\n      0x20\n      dup3\n      add\n      mload\n      dup2\n      0x01\n      add\n      exp(0x0100, 0x00)\n      dup2\n      sload\n      dup2\n      0xffffffffffffffffffffffffffffffffffffffff\n      mul\n      not\n      and\n      swap1\n      dup4\n      0xffffffffffffffffffffffffffffffffffffffff\n      and\n      mul\n      or\n      swap1\n      sstore\n      pop\n      0x40\n      dup3\n      add\n      mload\n      dup2\n      0x02\n      add\n      swap1\n      dup2\n      tag_39\n      swap2\n      swap1\n      tag_40\n      jump\t// in\n    tag_39:\n      pop\n      0x60\n      dup3\n      add\n      mload\n      dup2\n      0x03\n      add\n      sstore\n      pop\n      pop\n        /* \"contracts/15_Mensajes.sol\":1024:1027  _to */\n      dup3\n        /* \"contracts/15_Mensajes.sol\":997:1057  MensajeEnviado(msg.sender, _to, _contenido, block.timestamp) */\n      0xffffffffffffffffffffffffffffffffffffffff\n      and\n        /* \"contracts/15_Mensajes.sol\":1012:1022  msg.sender */\n      caller\n        /* \"contracts/15_Mensajes.sol\":997:1057  MensajeEnviado(msg.sender, _to, _contenido, block.timestamp) */\n      0xffffffffffffffffffffffffffffffffffffffff\n      and\n      0x548510cce09773bc99aa548269c8027f90df95fe99a95c47000e048a4f31e4dc\n        /* \"contracts/15_Mensajes.sol\":1029:1039  _contenido */\n      dup5\n        /* \"contracts/15_Mensajes.sol\":1041:1056  block.timestamp */\n      timestamp\n        /* \"contracts/15_Mensajes.sol\":997:1057  MensajeEnviado(msg.sender, _to, _contenido, block.timestamp) */\n      mload(0x40)\n      tag_41\n      swap3\n      swap2\n      swap1\n      tag_42\n      jump\t// in\n    tag_41:\n      mload(0x40)\n      dup1\n      swap2\n      sub\n      swap1\n      log3\n        /* \"contracts/15_Mensajes.sol\":739:1065  {... */\n      pop\n        /* \"contracts/15_Mensajes.sol\":660:1065  function enviarMensaje(address _to, string memory _contenido) public onlyOwner {... */\n      pop\n      pop\n      jump\t// out\n        /* \"contracts/15_Mensajes.sol\":106:126  address public owner */\n    tag_18:\n      0x00\n      0x00\n      swap1\n      sload\n      swap1\n      0x0100\n      exp\n      swap1\n      div\n      0xffffffffffffffffffffffffffffffffffffffff\n      and\n      dup2\n      jump\t// out\n        /* \"contracts/15_Mensajes.sol\":1073:1185  function obtenerTotalMensajes() public view returns (uint256) {... */\n    tag_22:\n        /* \"contracts/15_Mensajes.sol\":1126:1133  uint256 */\n      0x00\n        /* \"contracts/15_Mensajes.sol\":1153:1170  historialMensajes */\n      0x01\n        /* \"contracts/15_Mensajes.sol\":1153:1177  historialMensajes.length */\n      dup1\n      sload\n      swap1\n      pop\n        /* \"contracts/15_Mensajes.sol\":1146:1177  return historialMensajes.length */\n      swap1\n      pop\n        /* \"contracts/15_Mensajes.sol\":1073:1185  function obtenerTotalMensajes() public view returns (uint256) {... */\n      swap1\n      jump\t// out\n        /* \"#utility.yul\":7:82   */\n    tag_44:\n        /* \"#utility.yul\":40:46   */\n      0x00\n        /* \"#utility.yul\":73:75   */\n      0x40\n        /* \"#utility.yul\":67:76   */\n      mload\n        /* \"#utility.yul\":57:76   */\n      swap1\n      pop\n        /* \"#utility.yul\":7:82   */\n      swap1\n      jump\t// out\n        /* \"#utility.yul\":88:205   */\n    tag_45:\n        /* \"#utility.yul\":197:198   */\n      0x00\n        /* \"#utility.yul\":194:195   */\n      0x00\n        /* \"#utility.yul\":187:199   */\n      revert\n        /* \"#utility.yul\":211:328   */\n    tag_46:\n        /* \"#utility.yul\":320:321   */\n      0x00\n        /* \"#utility.yul\":317:318   */\n      0x00\n        /* \"#utility.yul\":310:322   */\n      revert\n        /* \"#utility.yul\":334:411   */\n    tag_47:\n        /* \"#utility.yul\":371:378   */\n      0x00\n        /* \"#utility.yul\":400:405   */\n      dup2\n        /* \"#utility.yul\":389:405   */\n      swap1\n      pop\n        /* \"#utility.yul\":334:411   */\n      swap2\n      swap1\n      pop\n      jump\t// out\n        /* \"#utility.yul\":417:539   */\n    tag_48:\n        /* \"#utility.yul\":490:514   */\n      tag_94\n        /* \"#utility.yul\":508:513   */\n      dup2\n        /* \"#utility.yul\":490:514   */\n      tag_47\n      jump\t// in\n    tag_94:\n        /* \"#utility.yul\":483:488   */\n      dup2\n        /* \"#utility.yul\":480:515   */\n      eq\n        /* \"#utility.yul\":470:533   */\n      tag_95\n      jumpi\n        /* \"#utility.yul\":529:530   */\n      0x00\n        /* \"#utility.yul\":526:527   */\n      0x00\n        /* \"#utility.yul\":519:531   */\n      revert\n        /* \"#utility.yul\":470:533   */\n    tag_95:\n        /* \"#utility.yul\":417:539   */\n      pop\n      jump\t// out\n        /* \"#utility.yul\":545:684   */\n    tag_49:\n        /* \"#utility.yul\":591:596   */\n      0x00\n        /* \"#utility.yul\":629:635   */\n      dup2\n        /* \"#utility.yul\":616:636   */\n      calldataload\n        /* \"#utility.yul\":607:636   */\n      swap1\n      pop\n        /* \"#utility.yul\":645:678   */\n      tag_97\n        /* \"#utility.yul\":672:677   */\n      dup2\n        /* \"#utility.yul\":645:678   */\n      tag_48\n      jump\t// in\n    tag_97:\n        /* \"#utility.yul\":545:684   */\n      swap3\n      swap2\n      pop\n      pop\n      jump\t// out\n        /* \"#utility.yul\":690:1019   */\n    tag_9:\n        /* \"#utility.yul\":749:755   */\n      0x00\n        /* \"#utility.yul\":798:800   */\n      0x20\n        /* \"#utility.yul\":786:795   */\n      dup3\n        /* \"#utility.yul\":777:784   */\n      dup5\n        /* \"#utility.yul\":773:796   */\n      sub\n        /* \"#utility.yul\":769:801   */\n      slt\n        /* \"#utility.yul\":766:885   */\n      iszero\n      tag_99\n      jumpi\n        /* \"#utility.yul\":804:883   */\n      tag_100\n      tag_45\n      jump\t// in\n    tag_100:\n        /* \"#utility.yul\":766:885   */\n    tag_99:\n        /* \"#utility.yul\":924:925   */\n      0x00\n        /* \"#utility.yul\":949:1002   */\n      tag_101\n        /* \"#utility.yul\":994:1001   */\n      dup5\n        /* \"#utility.yul\":985:991   */\n      dup3\n        /* \"#utility.yul\":974:983   */\n      dup6\n        /* \"#utility.yul\":970:992   */\n      add\n        /* \"#utility.yul\":949:1002   */\n      tag_49\n      jump\t// in\n    tag_101:\n        /* \"#utility.yul\":939:1002   */\n      swap2\n      pop\n        /* \"#utility.yul\":895:1012   */\n      pop\n        /* \"#utility.yul\":690:1019   */\n      swap3\n      swap2\n      pop\n      pop\n      jump\t// out\n        /* \"#utility.yul\":1025:1151   */\n    tag_50:\n        /* \"#utility.yul\":1062:1069   */\n      0x00\n        /* \"#utility.yul\":1102:1144   */\n      0xffffffffffffffffffffffffffffffffffffffff\n        /* \"#utility.yul\":1095:1100   */\n      dup3\n        /* \"#utility.yul\":1091:1145   */\n      and\n        /* \"#utility.yul\":1080:1145   */\n      swap1\n      pop\n        /* \"#utility.yul\":1025:1151   */\n      swap2\n      swap1\n      pop\n      jump\t// out\n        /* \"#utility.yul\":1157:1253   */\n    tag_51:\n        /* \"#utility.yul\":1194:1201   */\n      0x00\n        /* \"#utility.yul\":1223:1247   */\n      tag_104\n        /* \"#utility.yul\":1241:1246   */\n      dup3\n        /* \"#utility.yul\":1223:1247   */\n      tag_50\n      jump\t// in\n    tag_104:\n        /* \"#utility.yul\":1212:1247   */\n      swap1\n      pop\n        /* \"#utility.yul\":1157:1253   */\n      swap2\n      swap1\n      pop\n      jump\t// out\n        /* \"#utility.yul\":1259:1377   */\n    tag_52:\n        /* \"#utility.yul\":1346:1370   */\n      tag_106\n        /* \"#utility.yul\":1364:1369   */\n      dup2\n        /* \"#utility.yul\":1346:1370   */\n      tag_51\n      jump\t// in\n    tag_106:\n        /* \"#utility.yul\":1341:1344   */\n      dup3\n        /* \"#utility.yul\":1334:1371   */\n      mstore\n        /* \"#utility.yul\":1259:1377   */\n      pop\n      pop\n      jump\t// out\n        /* \"#utility.yul\":1383:1482   */\n    tag_53:\n        /* \"#utility.yul\":1435:1441   */\n      0x00\n        /* \"#utility.yul\":1469:1474   */\n      dup2\n        /* \"#utility.yul\":1463:1475   */\n      mload\n        /* \"#utility.yul\":1453:1475   */\n      swap1\n      pop\n        /* \"#utility.yul\":1383:1482   */\n      swap2\n      swap1\n      pop\n      jump\t// out\n        /* \"#utility.yul\":1488:1657   */\n    tag_54:\n        /* \"#utility.yul\":1572:1583   */\n      0x00\n        /* \"#utility.yul\":1606:1612   */\n      dup3\n        /* \"#utility.yul\":1601:1604   */\n      dup3\n        /* \"#utility.yul\":1594:1613   */\n      mstore\n        /* \"#utility.yul\":1646:1650   */\n      0x20\n        /* \"#utility.yul\":1641:1644   */\n      dup3\n        /* \"#utility.yul\":1637:1651   */\n      add\n        /* \"#utility.yul\":1622:1651   */\n      swap1\n      pop\n        /* \"#utility.yul\":1488:1657   */\n      swap3\n      swap2\n      pop\n      pop\n      jump\t// out\n        /* \"#utility.yul\":1663:1802   */\n    tag_55:\n        /* \"#utility.yul\":1752:1758   */\n      dup3\n        /* \"#utility.yul\":1747:1750   */\n      dup2\n        /* \"#utility.yul\":1742:1745   */\n      dup4\n        /* \"#utility.yul\":1736:1759   */\n      mcopy\n        /* \"#utility.yul\":1793:1794   */\n      0x00\n        /* \"#utility.yul\":1784:1790   */\n      dup4\n        /* \"#utility.yul\":1779:1782   */\n      dup4\n        /* \"#utility.yul\":1775:1791   */\n      add\n        /* \"#utility.yul\":1768:1795   */\n      mstore\n        /* \"#utility.yul\":1663:1802   */\n      pop\n      pop\n      pop\n      jump\t// out\n        /* \"#utility.yul\":1808:1910   */\n    tag_56:\n        /* \"#utility.yul\":1849:1855   */\n      0x00\n        /* \"#utility.yul\":1900:1902   */\n      0x1f\n        /* \"#utility.yul\":1896:1903   */\n      not\n        /* \"#utility.yul\":1891:1893   */\n      0x1f\n        /* \"#utility.yul\":1884:1889   */\n      dup4\n        /* \"#utility.yul\":1880:1894   */\n      add\n        /* \"#utility.yul\":1876:1904   */\n      and\n        /* \"#utility.yul\":1866:1904   */\n      swap1\n      pop\n        /* \"#utility.yul\":1808:1910   */\n      swap2\n      swap1\n      pop\n      jump\t// out\n        /* \"#utility.yul\":1916:2293   */\n    tag_57:\n        /* \"#utility.yul\":2004:2007   */\n      0x00\n        /* \"#utility.yul\":2032:2071   */\n      tag_112\n        /* \"#utility.yul\":2065:2070   */\n      dup3\n        /* \"#utility.yul\":2032:2071   */\n      tag_53\n      jump\t// in\n    tag_112:\n        /* \"#utility.yul\":2087:2158   */\n      tag_113\n        /* \"#utility.yul\":2151:2157   */\n      dup2\n        /* \"#utility.yul\":2146:2149   */\n      dup6\n        /* \"#utility.yul\":2087:2158   */\n      tag_54\n      jump\t// in\n    tag_113:\n        /* \"#utility.yul\":2080:2158   */\n      swap4\n      pop\n        /* \"#utility.yul\":2167:2232   */\n      tag_114\n        /* \"#utility.yul\":2225:2231   */\n      dup2\n        /* \"#utility.yul\":2220:2223   */\n      dup6\n        /* \"#utility.yul\":2213:2217   */\n      0x20\n        /* \"#utility.yul\":2206:2211   */\n      dup7\n        /* \"#utility.yul\":2202:2218   */\n      add\n        /* \"#utility.yul\":2167:2232   */\n      tag_55\n      jump\t// in\n    tag_114:\n        /* \"#utility.yul\":2257:2286   */\n      tag_115\n        /* \"#utility.yul\":2279:2285   */\n      dup2\n        /* \"#utility.yul\":2257:2286   */\n      tag_56\n      jump\t// in\n    tag_115:\n        /* \"#utility.yul\":2252:2255   */\n      dup5\n        /* \"#utility.yul\":2248:2287   */\n      add\n        /* \"#utility.yul\":2241:2287   */\n      swap2\n      pop\n        /* \"#utility.yul\":2008:2293   */\n      pop\n        /* \"#utility.yul\":1916:2293   */\n      swap3\n      swap2\n      pop\n      pop\n      jump\t// out\n        /* \"#utility.yul\":2299:2417   */\n    tag_58:\n        /* \"#utility.yul\":2386:2410   */\n      tag_117\n        /* \"#utility.yul\":2404:2409   */\n      dup2\n        /* \"#utility.yul\":2386:2410   */\n      tag_47\n      jump\t// in\n    tag_117:\n        /* \"#utility.yul\":2381:2384   */\n      dup3\n        /* \"#utility.yul\":2374:2411   */\n      mstore\n        /* \"#utility.yul\":2299:2417   */\n      pop\n      pop\n      jump\t// out\n        /* \"#utility.yul\":2423:3067   */\n    tag_12:\n        /* \"#utility.yul\":2620:2624   */\n      0x00\n        /* \"#utility.yul\":2658:2661   */\n      0x80\n        /* \"#utility.yul\":2647:2656   */\n      dup3\n        /* \"#utility.yul\":2643:2662   */\n      add\n        /* \"#utility.yul\":2635:2662   */\n      swap1\n      pop\n        /* \"#utility.yul\":2672:2743   */\n      tag_119\n        /* \"#utility.yul\":2740:2741   */\n      0x00\n        /* \"#utility.yul\":2729:2738   */\n      dup4\n        /* \"#utility.yul\":2725:2742   */\n      add\n        /* \"#utility.yul\":2716:2722   */\n      dup8\n        /* \"#utility.yul\":2672:2743   */\n      tag_52\n      jump\t// in\n    tag_119:\n        /* \"#utility.yul\":2753:2825   */\n      tag_120\n        /* \"#utility.yul\":2821:2823   */\n      0x20\n        /* \"#utility.yul\":2810:2819   */\n      dup4\n        /* \"#utility.yul\":2806:2824   */\n      add\n        /* \"#utility.yul\":2797:2803   */\n      dup7\n        /* \"#utility.yul\":2753:2825   */\n      tag_52\n      jump\t// in\n    tag_120:\n        /* \"#utility.yul\":2872:2881   */\n      dup2\n        /* \"#utility.yul\":2866:2870   */\n      dup2\n        /* \"#utility.yul\":2862:2882   */\n      sub\n        /* \"#utility.yul\":2857:2859   */\n      0x40\n        /* \"#utility.yul\":2846:2855   */\n      dup4\n        /* \"#utility.yul\":2842:2860   */\n      add\n        /* \"#utility.yul\":2835:2883   */\n      mstore\n        /* \"#utility.yul\":2900:2978   */\n      tag_121\n        /* \"#utility.yul\":2973:2977   */\n      dup2\n        /* \"#utility.yul\":2964:2970   */\n      dup6\n        /* \"#utility.yul\":2900:2978   */\n      tag_57\n      jump\t// in\n    tag_121:\n        /* \"#utility.yul\":2892:2978   */\n      swap1\n      pop\n        /* \"#utility.yul\":2988:3060   */\n      tag_122\n        /* \"#utility.yul\":3056:3058   */\n      0x60\n        /* \"#utility.yul\":3045:3054   */\n      dup4\n        /* \"#utility.yul\":3041:3059   */\n      add\n        /* \"#utility.yul\":3032:3038   */\n      dup5\n        /* \"#utility.yul\":2988:3060   */\n      tag_58\n      jump\t// in\n    tag_122:\n        /* \"#utility.yul\":2423:3067   */\n      swap6\n      swap5\n      pop\n      pop\n      pop\n      pop\n      pop\n      jump\t// out\n        /* \"#utility.yul\":3073:3195   */\n    tag_59:\n        /* \"#utility.yul\":3146:3170   */\n      tag_124\n        /* \"#utility.yul\":3164:3169   */\n      dup2\n        /* \"#utility.yul\":3146:3170   */\n      tag_51\n      jump\t// in\n    tag_124:\n        /* \"#utility.yul\":3139:3144   */\n      dup2\n        /* \"#utility.yul\":3136:3171   */\n      eq\n        /* \"#utility.yul\":3126:3189   */\n      tag_125\n      jumpi\n        /* \"#utility.yul\":3185:3186   */\n      0x00\n        /* \"#utility.yul\":3182:3183   */\n      0x00\n        /* \"#utility.yul\":3175:3187   */\n      revert\n        /* \"#utility.yul\":3126:3189   */\n    tag_125:\n        /* \"#utility.yul\":3073:3195   */\n      pop\n      jump\t// out\n        /* \"#utility.yul\":3201:3340   */\n    tag_60:\n        /* \"#utility.yul\":3247:3252   */\n      0x00\n        /* \"#utility.yul\":3285:3291   */\n      dup2\n        /* \"#utility.yul\":3272:3292   */\n      calldataload\n        /* \"#utility.yul\":3263:3292   */\n      swap1\n      pop\n        /* \"#utility.yul\":3301:3334   */\n      tag_127\n        /* \"#utility.yul\":3328:3333   */\n      dup2\n        /* \"#utility.yul\":3301:3334   */\n      tag_59\n      jump\t// in\n    tag_127:\n        /* \"#utility.yul\":3201:3340   */\n      swap3\n      swap2\n      pop\n      pop\n      jump\t// out\n        /* \"#utility.yul\":3346:3463   */\n    tag_61:\n        /* \"#utility.yul\":3455:3456   */\n      0x00\n        /* \"#utility.yul\":3452:3453   */\n      0x00\n        /* \"#utility.yul\":3445:3457   */\n      revert\n        /* \"#utility.yul\":3469:3586   */\n    tag_62:\n        /* \"#utility.yul\":3578:3579   */\n      0x00\n        /* \"#utility.yul\":3575:3576   */\n      0x00\n        /* \"#utility.yul\":3568:3580   */\n      revert\n        /* \"#utility.yul\":3592:3772   */\n    tag_63:\n        /* \"#utility.yul\":3640:3717   */\n      0x4e487b7100000000000000000000000000000000000000000000000000000000\n        /* \"#utility.yul\":3637:3638   */\n      0x00\n        /* \"#utility.yul\":3630:3718   */\n      mstore\n        /* \"#utility.yul\":3737:3741   */\n      0x41\n        /* \"#utility.yul\":3734:3735   */\n      0x04\n        /* \"#utility.yul\":3727:3742   */\n      mstore\n        /* \"#utility.yul\":3761:3765   */\n      0x24\n        /* \"#utility.yul\":3758:3759   */\n      0x00\n        /* \"#utility.yul\":3751:3766   */\n      revert\n        /* \"#utility.yul\":3778:4059   */\n    tag_64:\n        /* \"#utility.yul\":3861:3888   */\n      tag_132\n        /* \"#utility.yul\":3883:3887   */\n      dup3\n        /* \"#utility.yul\":3861:3888   */\n      tag_56\n      jump\t// in\n    tag_132:\n        /* \"#utility.yul\":3853:3859   */\n      dup2\n        /* \"#utility.yul\":3849:3889   */\n      add\n        /* \"#utility.yul\":3991:3997   */\n      dup2\n        /* \"#utility.yul\":3979:3989   */\n      dup2\n        /* \"#utility.yul\":3976:3998   */\n      lt\n        /* \"#utility.yul\":3955:3973   */\n      0xffffffffffffffff\n        /* \"#utility.yul\":3943:3953   */\n      dup3\n        /* \"#utility.yul\":3940:3974   */\n      gt\n        /* \"#utility.yul\":3937:3999   */\n      or\n        /* \"#utility.yul\":3934:4022   */\n      iszero\n      tag_133\n      jumpi\n        /* \"#utility.yul\":4002:4020   */\n      tag_134\n      tag_63\n      jump\t// in\n    tag_134:\n        /* \"#utility.yul\":3934:4022   */\n    tag_133:\n        /* \"#utility.yul\":4042:4052   */\n      dup1\n        /* \"#utility.yul\":4038:4040   */\n      0x40\n        /* \"#utility.yul\":4031:4053   */\n      mstore\n        /* \"#utility.yul\":3821:4059   */\n      pop\n        /* \"#utility.yul\":3778:4059   */\n      pop\n      pop\n      jump\t// out\n        /* \"#utility.yul\":4065:4194   */\n    tag_65:\n        /* \"#utility.yul\":4099:4105   */\n      0x00\n        /* \"#utility.yul\":4126:4146   */\n      tag_136\n      tag_44\n      jump\t// in\n    tag_136:\n        /* \"#utility.yul\":4116:4146   */\n      swap1\n      pop\n        /* \"#utility.yul\":4155:4188   */\n      tag_137\n        /* \"#utility.yul\":4183:4187   */\n      dup3\n        /* \"#utility.yul\":4175:4181   */\n      dup3\n        /* \"#utility.yul\":4155:4188   */\n      tag_64\n      jump\t// in\n    tag_137:\n        /* \"#utility.yul\":4065:4194   */\n      swap2\n      swap1\n      pop\n      jump\t// out\n        /* \"#utility.yul\":4200:4508   */\n    tag_66:\n        /* \"#utility.yul\":4262:4266   */\n      0x00\n        /* \"#utility.yul\":4352:4370   */\n      0xffffffffffffffff\n        /* \"#utility.yul\":4344:4350   */\n      dup3\n        /* \"#utility.yul\":4341:4371   */\n      gt\n        /* \"#utility.yul\":4338:4394   */\n      iszero\n      tag_139\n      jumpi\n        /* \"#utility.yul\":4374:4392   */\n      tag_140\n      tag_63\n      jump\t// in\n    tag_140:\n        /* \"#utility.yul\":4338:4394   */\n    tag_139:\n        /* \"#utility.yul\":4412:4441   */\n      tag_141\n        /* \"#utility.yul\":4434:4440   */\n      dup3\n        /* \"#utility.yul\":4412:4441   */\n      tag_56\n      jump\t// in\n    tag_141:\n        /* \"#utility.yul\":4404:4441   */\n      swap1\n      pop\n        /* \"#utility.yul\":4496:4500   */\n      0x20\n        /* \"#utility.yul\":4490:4494   */\n      dup2\n        /* \"#utility.yul\":4486:4501   */\n      add\n        /* \"#utility.yul\":4478:4501   */\n      swap1\n      pop\n        /* \"#utility.yul\":4200:4508   */\n      swap2\n      swap1\n      pop\n      jump\t// out\n        /* \"#utility.yul\":4514:4662   */\n    tag_67:\n        /* \"#utility.yul\":4612:4618   */\n      dup3\n        /* \"#utility.yul\":4607:4610   */\n      dup2\n        /* \"#utility.yul\":4602:4605   */\n      dup4\n        /* \"#utility.yul\":4589:4619   */\n      calldatacopy\n        /* \"#utility.yul\":4653:4654   */\n      0x00\n        /* \"#utility.yul\":4644:4650   */\n      dup4\n        /* \"#utility.yul\":4639:4642   */\n      dup4\n        /* \"#utility.yul\":4635:4651   */\n      add\n        /* \"#utility.yul\":4628:4655   */\n      mstore\n        /* \"#utility.yul\":4514:4662   */\n      pop\n      pop\n      pop\n      jump\t// out\n        /* \"#utility.yul\":4668:5093   */\n    tag_68:\n        /* \"#utility.yul\":4746:4751   */\n      0x00\n        /* \"#utility.yul\":4771:4837   */\n      tag_144\n        /* \"#utility.yul\":4787:4836   */\n      tag_145\n        /* \"#utility.yul\":4829:4835   */\n      dup5\n        /* \"#utility.yul\":4787:4836   */\n      tag_66\n      jump\t// in\n    tag_145:\n        /* \"#utility.yul\":4771:4837   */\n      tag_65\n      jump\t// in\n    tag_144:\n        /* \"#utility.yul\":4762:4837   */\n      swap1\n      pop\n        /* \"#utility.yul\":4860:4866   */\n      dup3\n        /* \"#utility.yul\":4853:4858   */\n      dup2\n        /* \"#utility.yul\":4846:4867   */\n      mstore\n        /* \"#utility.yul\":4898:4902   */\n      0x20\n        /* \"#utility.yul\":4891:4896   */\n      dup2\n        /* \"#utility.yul\":4887:4903   */\n      add\n        /* \"#utility.yul\":4936:4939   */\n      dup5\n        /* \"#utility.yul\":4927:4933   */\n      dup5\n        /* \"#utility.yul\":4922:4925   */\n      dup5\n        /* \"#utility.yul\":4918:4934   */\n      add\n        /* \"#utility.yul\":4915:4940   */\n      gt\n        /* \"#utility.yul\":4912:5024   */\n      iszero\n      tag_146\n      jumpi\n        /* \"#utility.yul\":4943:5022   */\n      tag_147\n      tag_62\n      jump\t// in\n    tag_147:\n        /* \"#utility.yul\":4912:5024   */\n    tag_146:\n        /* \"#utility.yul\":5033:5087   */\n      tag_148\n        /* \"#utility.yul\":5080:5086   */\n      dup5\n        /* \"#utility.yul\":5075:5078   */\n      dup3\n        /* \"#utility.yul\":5070:5073   */\n      dup6\n        /* \"#utility.yul\":5033:5087   */\n      tag_67\n      jump\t// in\n    tag_148:\n        /* \"#utility.yul\":4752:5093   */\n      pop\n        /* \"#utility.yul\":4668:5093   */\n      swap4\n      swap3\n      pop\n      pop\n      pop\n      jump\t// out\n        /* \"#utility.yul\":5113:5453   */\n    tag_69:\n        /* \"#utility.yul\":5169:5174   */\n      0x00\n        /* \"#utility.yul\":5218:5221   */\n      dup3\n        /* \"#utility.yul\":5211:5215   */\n      0x1f\n        /* \"#utility.yul\":5203:5209   */\n      dup4\n        /* \"#utility.yul\":5199:5216   */\n      add\n        /* \"#utility.yul\":5195:5222   */\n      slt\n        /* \"#utility.yul\":5185:5307   */\n      tag_150\n      jumpi\n        /* \"#utility.yul\":5226:5305   */\n      tag_151\n      tag_61\n      jump\t// in\n    tag_151:\n        /* \"#utility.yul\":5185:5307   */\n    tag_150:\n        /* \"#utility.yul\":5343:5349   */\n      dup2\n        /* \"#utility.yul\":5330:5350   */\n      calldataload\n        /* \"#utility.yul\":5368:5447   */\n      tag_152\n        /* \"#utility.yul\":5443:5446   */\n      dup5\n        /* \"#utility.yul\":5435:5441   */\n      dup3\n        /* \"#utility.yul\":5428:5432   */\n      0x20\n        /* \"#utility.yul\":5420:5426   */\n      dup7\n        /* \"#utility.yul\":5416:5433   */\n      add\n        /* \"#utility.yul\":5368:5447   */\n      tag_68\n      jump\t// in\n    tag_152:\n        /* \"#utility.yul\":5359:5447   */\n      swap2\n      pop\n        /* \"#utility.yul\":5175:5453   */\n      pop\n        /* \"#utility.yul\":5113:5453   */\n      swap3\n      swap2\n      pop\n      pop\n      jump\t// out\n        /* \"#utility.yul\":5459:6113   */\n    tag_15:\n        /* \"#utility.yul\":5537:5543   */\n      0x00\n        /* \"#utility.yul\":5545:5551   */\n      0x00\n        /* \"#utility.yul\":5594:5596   */\n      0x40\n        /* \"#utility.yul\":5582:5591   */\n      dup4\n        /* \"#utility.yul\":5573:5580   */\n      dup6\n        /* \"#utility.yul\":5569:5592   */\n      sub\n        /* \"#utility.yul\":5565:5597   */\n      slt\n        /* \"#utility.yul\":5562:5681   */\n      iszero\n      tag_154\n      jumpi\n        /* \"#utility.yul\":5600:5679   */\n      tag_155\n      tag_45\n      jump\t// in\n    tag_155:\n        /* \"#utility.yul\":5562:5681   */\n    tag_154:\n        /* \"#utility.yul\":5720:5721   */\n      0x00\n        /* \"#utility.yul\":5745:5798   */\n      tag_156\n        /* \"#utility.yul\":5790:5797   */\n      dup6\n        /* \"#utility.yul\":5781:5787   */\n      dup3\n        /* \"#utility.yul\":5770:5779   */\n      dup7\n        /* \"#utility.yul\":5766:5788   */\n      add\n        /* \"#utility.yul\":5745:5798   */\n      tag_60\n      jump\t// in\n    tag_156:\n        /* \"#utility.yul\":5735:5798   */\n      swap3\n      pop\n        /* \"#utility.yul\":5691:5808   */\n      pop\n        /* \"#utility.yul\":5875:5877   */\n      0x20\n        /* \"#utility.yul\":5864:5873   */\n      dup4\n        /* \"#utility.yul\":5860:5878   */\n      add\n        /* \"#utility.yul\":5847:5879   */\n      calldataload\n        /* \"#utility.yul\":5906:5924   */\n      0xffffffffffffffff\n        /* \"#utility.yul\":5898:5904   */\n      dup2\n        /* \"#utility.yul\":5895:5925   */\n      gt\n        /* \"#utility.yul\":5892:6009   */\n      iszero\n      tag_157\n      jumpi\n        /* \"#utility.yul\":5928:6007   */\n      tag_158\n      tag_46\n      jump\t// in\n    tag_158:\n        /* \"#utility.yul\":5892:6009   */\n    tag_157:\n        /* \"#utility.yul\":6033:6096   */\n      tag_159\n        /* \"#utility.yul\":6088:6095   */\n      dup6\n        /* \"#utility.yul\":6079:6085   */\n      dup3\n        /* \"#utility.yul\":6068:6077   */\n      dup7\n        /* \"#utility.yul\":6064:6086   */\n      add\n        /* \"#utility.yul\":6033:6096   */\n      tag_69\n      jump\t// in\n    tag_159:\n        /* \"#utility.yul\":6023:6096   */\n      swap2\n      pop\n        /* \"#utility.yul\":5818:6106   */\n      pop\n        /* \"#utility.yul\":5459:6113   */\n      swap3\n      pop\n      swap3\n      swap1\n      pop\n      jump\t// out\n        /* \"#utility.yul\":6119:6341   */\n    tag_20:\n        /* \"#utility.yul\":6212:6216   */\n      0x00\n        /* \"#utility.yul\":6250:6252   */\n      0x20\n        /* \"#utility.yul\":6239:6248   */\n      dup3\n        /* \"#utility.yul\":6235:6253   */\n      add\n        /* \"#utility.yul\":6227:6253   */\n      swap1\n      pop\n        /* \"#utility.yul\":6263:6334   */\n      tag_161\n        /* \"#utility.yul\":6331:6332   */\n      0x00\n        /* \"#utility.yul\":6320:6329   */\n      dup4\n        /* \"#utility.yul\":6316:6333   */\n      add\n        /* \"#utility.yul\":6307:6313   */\n      dup5\n        /* \"#utility.yul\":6263:6334   */\n      tag_52\n      jump\t// in\n    tag_161:\n        /* \"#utility.yul\":6119:6341   */\n      swap3\n      swap2\n      pop\n      pop\n      jump\t// out\n        /* \"#utility.yul\":6347:6569   */\n    tag_24:\n        /* \"#utility.yul\":6440:6444   */\n      0x00\n        /* \"#utility.yul\":6478:6480   */\n      0x20\n        /* \"#utility.yul\":6467:6476   */\n      dup3\n        /* \"#utility.yul\":6463:6481   */\n      add\n        /* \"#utility.yul\":6455:6481   */\n      swap1\n      pop\n        /* \"#utility.yul\":6491:6562   */\n      tag_163\n        /* \"#utility.yul\":6559:6560   */\n      0x00\n        /* \"#utility.yul\":6548:6557   */\n      dup4\n        /* \"#utility.yul\":6544:6561   */\n      add\n        /* \"#utility.yul\":6535:6541   */\n      dup5\n        /* \"#utility.yul\":6491:6562   */\n      tag_58\n      jump\t// in\n    tag_163:\n        /* \"#utility.yul\":6347:6569   */\n      swap3\n      swap2\n      pop\n      pop\n      jump\t// out\n        /* \"#utility.yul\":6575:6755   */\n    tag_70:\n        /* \"#utility.yul\":6623:6700   */\n      0x4e487b7100000000000000000000000000000000000000000000000000000000\n        /* \"#utility.yul\":6620:6621   */\n      0x00\n        /* \"#utility.yul\":6613:6701   */\n      mstore\n        /* \"#utility.yul\":6720:6724   */\n      0x22\n        /* \"#utility.yul\":6717:6718   */\n      0x04\n        /* \"#utility.yul\":6710:6725   */\n      mstore\n        /* \"#utility.yul\":6744:6748   */\n      0x24\n        /* \"#utility.yul\":6741:6742   */\n      0x00\n        /* \"#utility.yul\":6734:6749   */\n      revert\n        /* \"#utility.yul\":6761:7081   */\n    tag_28:\n        /* \"#utility.yul\":6805:6811   */\n      0x00\n        /* \"#utility.yul\":6842:6843   */\n      0x02\n        /* \"#utility.yul\":6836:6840   */\n      dup3\n        /* \"#utility.yul\":6832:6844   */\n      div\n        /* \"#utility.yul\":6822:6844   */\n      swap1\n      pop\n        /* \"#utility.yul\":6889:6890   */\n      0x01\n        /* \"#utility.yul\":6883:6887   */\n      dup3\n        /* \"#utility.yul\":6879:6891   */\n      and\n        /* \"#utility.yul\":6910:6928   */\n      dup1\n        /* \"#utility.yul\":6900:6981   */\n      tag_166\n      jumpi\n        /* \"#utility.yul\":6966:6970   */\n      0x7f\n        /* \"#utility.yul\":6958:6964   */\n      dup3\n        /* \"#utility.yul\":6954:6971   */\n      and\n        /* \"#utility.yul\":6944:6971   */\n      swap2\n      pop\n        /* \"#utility.yul\":6900:6981   */\n    tag_166:\n        /* \"#utility.yul\":7028:7030   */\n      0x20\n        /* \"#utility.yul\":7020:7026   */\n      dup3\n        /* \"#utility.yul\":7017:7031   */\n      lt\n        /* \"#utility.yul\":6997:7015   */\n      dup2\n        /* \"#utility.yul\":6994:7032   */\n      sub\n        /* \"#utility.yul\":6991:7075   */\n      tag_167\n      jumpi\n        /* \"#utility.yul\":7047:7065   */\n      tag_168\n      tag_70\n      jump\t// in\n    tag_168:\n        /* \"#utility.yul\":6991:7075   */\n    tag_167:\n        /* \"#utility.yul\":6812:7081   */\n      pop\n        /* \"#utility.yul\":6761:7081   */\n      swap2\n      swap1\n      pop\n      jump\t// out\n        /* \"#utility.yul\":7087:7321   */\n    tag_71:\n        /* \"#utility.yul\":7227:7261   */\n      0x536f6c6f20656c2070726f706965746172696f20707565646520656a65637574\n        /* \"#utility.yul\":7223:7224   */\n      0x00\n        /* \"#utility.yul\":7215:7221   */\n      dup3\n        /* \"#utility.yul\":7211:7225   */\n      add\n        /* \"#utility.yul\":7204:7262   */\n      mstore\n        /* \"#utility.yul\":7296:7313   */\n      0x617220657374612066756e63696f6e0000000000000000000000000000000000\n        /* \"#utility.yul\":7291:7293   */\n      0x20\n        /* \"#utility.yul\":7283:7289   */\n      dup3\n        /* \"#utility.yul\":7279:7294   */\n      add\n        /* \"#utility.yul\":7272:7314   */\n      mstore\n        /* \"#utility.yul\":7087:7321   */\n      pop\n      jump\t// out\n        /* \"#utility.yul\":7327:7693   */\n    tag_72:\n        /* \"#utility.yul\":7469:7472   */\n      0x00\n        /* \"#utility.yul\":7490:7557   */\n      tag_171\n        /* \"#utility.yul\":7554:7556   */\n      0x2f\n        /* \"#utility.yul\":7549:7552   */\n      dup4\n        /* \"#utility.yul\":7490:7557   */\n      tag_54\n      jump\t// in\n    tag_171:\n        /* \"#utility.yul\":7483:7557   */\n      swap2\n      pop\n        /* \"#utility.yul\":7566:7659   */\n      tag_172\n        /* \"#utility.yul\":7655:7658   */\n      dup3\n        /* \"#utility.yul\":7566:7659   */\n      tag_71\n      jump\t// in\n    tag_172:\n        /* \"#utility.yul\":7684:7686   */\n      0x40\n        /* \"#utility.yul\":7679:7682   */\n      dup3\n        /* \"#utility.yul\":7675:7687   */\n      add\n        /* \"#utility.yul\":7668:7687   */\n      swap1\n      pop\n        /* \"#utility.yul\":7327:7693   */\n      swap2\n      swap1\n      pop\n      jump\t// out\n        /* \"#utility.yul\":7699:8118   */\n    tag_36:\n        /* \"#utility.yul\":7865:7869   */\n      0x00\n        /* \"#utility.yul\":7903:7905   */\n      0x20\n        /* \"#utility.yul\":7892:7901   */\n      dup3\n        /* \"#utility.yul\":7888:7906   */\n      add\n        /* \"#utility.yul\":7880:7906   */\n      swap1\n      pop\n        /* \"#utility.yul\":7952:7961   */\n      dup2\n        /* \"#utility.yul\":7946:7950   */\n      dup2\n        /* \"#utility.yul\":7942:7962   */\n      sub\n        /* \"#utility.yul\":7938:7939   */\n      0x00\n        /* \"#utility.yul\":7927:7936   */\n      dup4\n        /* \"#utility.yul\":7923:7940   */\n      add\n        /* \"#utility.yul\":7916:7963   */\n      mstore\n        /* \"#utility.yul\":7980:8111   */\n      tag_174\n        /* \"#utility.yul\":8106:8110   */\n      dup2\n        /* \"#utility.yul\":7980:8111   */\n      tag_72\n      jump\t// in\n    tag_174:\n        /* \"#utility.yul\":7972:8111   */\n      swap1\n      pop\n        /* \"#utility.yul\":7699:8118   */\n      swap2\n      swap1\n      pop\n      jump\t// out\n        /* \"#utility.yul\":8124:8265   */\n    tag_73:\n        /* \"#utility.yul\":8173:8177   */\n      0x00\n        /* \"#utility.yul\":8196:8199   */\n      dup2\n        /* \"#utility.yul\":8188:8199   */\n      swap1\n      pop\n        /* \"#utility.yul\":8219:8222   */\n      dup2\n        /* \"#utility.yul\":8216:8217   */\n      0x00\n        /* \"#utility.yul\":8209:8223   */\n      mstore\n        /* \"#utility.yul\":8253:8257   */\n      0x20\n        /* \"#utility.yul\":8250:8251   */\n      0x00\n        /* \"#utility.yul\":8240:8258   */\n      keccak256\n        /* \"#utility.yul\":8232:8258   */\n      swap1\n      pop\n        /* \"#utility.yul\":8124:8265   */\n      swap2\n      swap1\n      pop\n      jump\t// out\n        /* \"#utility.yul\":8271:8364   */\n    tag_74:\n        /* \"#utility.yul\":8308:8314   */\n      0x00\n        /* \"#utility.yul\":8355:8357   */\n      0x20\n        /* \"#utility.yul\":8350:8352   */\n      0x1f\n        /* \"#utility.yul\":8343:8348   */\n      dup4\n        /* \"#utility.yul\":8339:8353   */\n      add\n        /* \"#utility.yul\":8335:8358   */\n      div\n        /* \"#utility.yul\":8325:8358   */\n      swap1\n      pop\n        /* \"#utility.yul\":8271:8364   */\n      swap2\n      swap1\n      pop\n      jump\t// out\n        /* \"#utility.yul\":8370:8477   */\n    tag_75:\n        /* \"#utility.yul\":8414:8422   */\n      0x00\n        /* \"#utility.yul\":8464:8469   */\n      dup3\n        /* \"#utility.yul\":8458:8462   */\n      dup3\n        /* \"#utility.yul\":8454:8470   */\n      shl\n        /* \"#utility.yul\":8433:8470   */\n      swap1\n      pop\n        /* \"#utility.yul\":8370:8477   */\n      swap3\n      swap2\n      pop\n      pop\n      jump\t// out\n        /* \"#utility.yul\":8483:8876   */\n    tag_76:\n        /* \"#utility.yul\":8552:8558   */\n      0x00\n        /* \"#utility.yul\":8602:8603   */\n      0x08\n        /* \"#utility.yul\":8590:8600   */\n      dup4\n        /* \"#utility.yul\":8586:8604   */\n      mul\n        /* \"#utility.yul\":8625:8722   */\n      tag_179\n        /* \"#utility.yul\":8655:8721   */\n      0xffffffffffffffffffffffffffffffffffffffffffffffffffffffffffffffff\n        /* \"#utility.yul\":8644:8653   */\n      dup3\n        /* \"#utility.yul\":8625:8722   */\n      tag_75\n      jump\t// in\n    tag_179:\n        /* \"#utility.yul\":8743:8782   */\n      tag_180\n        /* \"#utility.yul\":8773:8781   */\n      dup7\n        /* \"#utility.yul\":8762:8771   */\n      dup4\n        /* \"#utility.yul\":8743:8782   */\n      tag_75\n      jump\t// in\n    tag_180:\n        /* \"#utility.yul\":8731:8782   */\n      swap6\n      pop\n        /* \"#utility.yul\":8815:8819   */\n      dup1\n        /* \"#utility.yul\":8811:8820   */\n      not\n        /* \"#utility.yul\":8804:8809   */\n      dup5\n        /* \"#utility.yul\":8800:8821   */\n      and\n        /* \"#utility.yul\":8791:8821   */\n      swap4\n      pop\n        /* \"#utility.yul\":8864:8868   */\n      dup1\n        /* \"#utility.yul\":8854:8862   */\n      dup7\n        /* \"#utility.yul\":8850:8869   */\n      and\n        /* \"#utility.yul\":8843:8848   */\n      dup5\n        /* \"#utility.yul\":8840:8870   */\n      or\n        /* \"#utility.yul\":8830:8870   */\n      swap3\n      pop\n        /* \"#utility.yul\":8559:8876   */\n      pop\n      pop\n        /* \"#utility.yul\":8483:8876   */\n      swap4\n      swap3\n      pop\n      pop\n      pop\n      jump\t// out\n        /* \"#utility.yul\":8882:8942   */\n    tag_77:\n        /* \"#utility.yul\":8910:8913   */\n      0x00\n        /* \"#utility.yul\":8931:8936   */\n      dup2\n        /* \"#utility.yul\":8924:8936   */\n      swap1\n      pop\n        /* \"#utility.yul\":8882:8942   */\n      swap2\n      swap1\n      pop\n      jump\t// out\n        /* \"#utility.yul\":8948:9090   */\n    tag_78:\n        /* \"#utility.yul\":8998:9007   */\n      0x00\n        /* \"#utility.yul\":9031:9084   */\n      tag_183\n        /* \"#utility.yul\":9049:9083   */\n      tag_184\n        /* \"#utility.yul\":9058:9082   */\n      tag_185\n        /* \"#utility.yul\":9076:9081   */\n      dup5\n        /* \"#utility.yul\":9058:9082   */\n      tag_47\n      jump\t// in\n    tag_185:\n        /* \"#utility.yul\":9049:9083   */\n      tag_77\n      jump\t// in\n    tag_184:\n        /* \"#utility.yul\":9031:9084   */\n      tag_47\n      jump\t// in\n    tag_183:\n        /* \"#utility.yul\":9018:9084   */\n      swap1\n      pop\n        /* \"#utility.yul\":8948:9090   */\n      swap2\n      swap1\n      pop\n      jump\t// out\n        /* \"#utility.yul\":9096:9171   */\n    tag_79:\n        /* \"#utility.yul\":9139:9142   */\n      0x00\n        /* \"#utility.yul\":9160:9165   */\n      dup2\n        /* \"#utility.yul\":9153:9165   */\n      swap1\n      pop\n        /* \"#utility.yul\":9096:9171   */\n      swap2\n      swap1\n      pop\n      jump\t// out\n        /* \"#utility.yul\":9177:9446   */\n    tag_80:\n        /* \"#utility.yul\":9287:9326   */\n      tag_188\n        /* \"#utility.yul\":9318:9325   */\n      dup4\n        /* \"#utility.yul\":9287:9326   */\n      tag_78\n      jump\t// in\n    tag_188:\n        /* \"#utility.yul\":9348:9439   */\n      tag_189\n        /* \"#utility.yul\":9397:9438   */\n      tag_190\n        /* \"#utility.yul\":9421:9437   */\n      dup3\n        /* \"#utility.yul\":9397:9438   */\n      tag_79\n      jump\t// in\n    tag_190:\n        /* \"#utility.yul\":9389:9395   */\n      dup5\n        /* \"#utility.yul\":9382:9386   */\n      dup5\n        /* \"#utility.yul\":9376:9387   */\n      sload\n        /* \"#utility.yul\":9348:9439   */\n      tag_76\n      jump\t// in\n    tag_189:\n        /* \"#utility.yul\":9342:9346   */\n      dup3\n        /* \"#utility.yul\":9335:9440   */\n      sstore\n        /* \"#utility.yul\":9253:9446   */\n      pop\n        /* \"#utility.yul\":9177:9446   */\n      pop\n      pop\n      pop\n      jump\t// out\n        /* \"#utility.yul\":9452:9525   */\n    tag_81:\n        /* \"#utility.yul\":9497:9500   */\n      0x00\n        /* \"#utility.yul\":9518:9519   */\n      0x00\n        /* \"#utility.yul\":9511:9519   */\n      swap1\n      pop\n        /* \"#utility.yul\":9452:9525   */\n      swap1\n      jump\t// out\n        /* \"#utility.yul\":9531:9720   */\n    tag_82:\n        /* \"#utility.yul\":9608:9640   */\n      tag_193\n      tag_81\n      jump\t// in\n    tag_193:\n        /* \"#utility.yul\":9649:9714   */\n      tag_194\n        /* \"#utility.yul\":9707:9713   */\n      dup2\n        /* \"#utility.yul\":9699:9705   */\n      dup5\n        /* \"#utility.yul\":9693:9697   */\n      dup5\n        /* \"#utility.yul\":9649:9714   */\n      tag_80\n      jump\t// in\n    tag_194:\n        /* \"#utility.yul\":9584:9720   */\n      pop\n        /* \"#utility.yul\":9531:9720   */\n      pop\n      pop\n      jump\t// out\n        /* \"#utility.yul\":9726:9940   */\n    tag_83:\n        /* \"#utility.yul\":9811:9812   */\n      0x00\n        /* \"#utility.yul\":9796:9934   */\n    tag_196:\n        /* \"#utility.yul\":9821:9830   */\n      dup3\n        /* \"#utility.yul\":9818:9819   */\n      dup2\n        /* \"#utility.yul\":9815:9831   */\n      lt\n        /* \"#utility.yul\":9796:9934   */\n      iszero\n      tag_198\n      jumpi\n        /* \"#utility.yul\":9873:9924   */\n      tag_199\n        /* \"#utility.yul\":9922:9923   */\n      0x00\n        /* \"#utility.yul\":9918:9919   */\n      dup3\n        /* \"#utility.yul\":9907:9916   */\n      dup5\n        /* \"#utility.yul\":9903:9920   */\n      add\n        /* \"#utility.yul\":9873:9924   */\n      tag_82\n      jump\t// in\n    tag_199:\n        /* \"#utility.yul\":9846:9847   */\n      0x01\n        /* \"#utility.yul\":9843:9844   */\n      dup2\n        /* \"#utility.yul\":9839:9848   */\n      add\n        /* \"#utility.yul\":9834:9848   */\n      swap1\n      pop\n        /* \"#utility.yul\":9796:9934   */\n      jump(tag_196)\n    tag_198:\n        /* \"#utility.yul\":9800:9814   */\n      pop\n        /* \"#utility.yul\":9726:9940   */\n      pop\n      pop\n      jump\t// out\n        /* \"#utility.yul\":9946:10692   */\n    tag_84:\n        /* \"#utility.yul\":10047:10049   */\n      0x1f\n        /* \"#utility.yul\":10042:10045   */\n      dup3\n        /* \"#utility.yul\":10039:10050   */\n      gt\n        /* \"#utility.yul\":10036:10685   */\n      iszero\n      tag_201\n      jumpi\n        /* \"#utility.yul\":10076:10086   */\n      dup3\n        /* \"#utility.yul\":10071:10074   */\n      dup3\n        /* \"#utility.yul\":10068:10087   */\n      gt\n        /* \"#utility.yul\":10065:10675   */\n      iszero\n      tag_202\n      jumpi\n        /* \"#utility.yul\":10122:10160   */\n      tag_203\n        /* \"#utility.yul\":10154:10159   */\n      dup2\n        /* \"#utility.yul\":10122:10160   */\n      tag_73\n      jump\t// in\n    tag_203:\n        /* \"#utility.yul\":10197:10219   */\n      tag_204\n        /* \"#utility.yul\":10215:10218   */\n      dup4\n        /* \"#utility.yul\":10197:10219   */\n      tag_74\n      jump\t// in\n    tag_204:\n        /* \"#utility.yul\":10256:10285   */\n      tag_205\n        /* \"#utility.yul\":10274:10284   */\n      dup6\n        /* \"#utility.yul\":10256:10285   */\n      tag_74\n      jump\t// in\n    tag_205:\n        /* \"#utility.yul\":10446:10448   */\n      0x20\n        /* \"#utility.yul\":10434:10444   */\n      dup7\n        /* \"#utility.yul\":10431:10449   */\n      lt\n        /* \"#utility.yul\":10428:10507   */\n      iszero\n      tag_206\n      jumpi\n        /* \"#utility.yul\":10488:10489   */\n      0x00\n        /* \"#utility.yul\":10472:10489   */\n      swap1\n      pop\n        /* \"#utility.yul\":10428:10507   */\n    tag_206:\n        /* \"#utility.yul\":10557:10569   */\n      dup1\n        /* \"#utility.yul\":10547:10555   */\n      dup4\n        /* \"#utility.yul\":10543:10570   */\n      add\n        /* \"#utility.yul\":10587:10661   */\n      tag_207\n        /* \"#utility.yul\":10647:10659   */\n      dup3\n        /* \"#utility.yul\":10633:10645   */\n      dup5\n        /* \"#utility.yul\":10629:10660   */\n      sub\n        /* \"#utility.yul\":10616:10627   */\n      dup3\n        /* \"#utility.yul\":10587:10661   */\n      tag_83\n      jump\t// in\n    tag_207:\n        /* \"#utility.yul\":10088:10675   */\n      pop\n      pop\n      pop\n      pop\n        /* \"#utility.yul\":10065:10675   */\n    tag_202:\n        /* \"#utility.yul\":10036:10685   */\n    tag_201:\n        /* \"#utility.yul\":9946:10692   */\n      pop\n      pop\n      pop\n      jump\t// out\n        /* \"#utility.yul\":10698:10815   */\n    tag_85:\n        /* \"#utility.yul\":10752:10760   */\n      0x00\n        /* \"#utility.yul\":10802:10807   */\n      dup3\n        /* \"#utility.yul\":10796:10800   */\n      dup3\n        /* \"#utility.yul\":10792:10808   */\n      shr\n        /* \"#utility.yul\":10771:10808   */\n      swap1\n      pop\n        /* \"#utility.yul\":10698:10815   */\n      swap3\n      swap2\n      pop\n      pop\n      jump\t// out\n        /* \"#utility.yul\":10821:10990   */\n    tag_86:\n        /* \"#utility.yul\":10865:10871   */\n      0x00\n        /* \"#utility.yul\":10898:10949   */\n      tag_210\n        /* \"#utility.yul\":10946:10947   */\n      0x00\n        /* \"#utility.yul\":10942:10948   */\n      not\n        /* \"#utility.yul\":10934:10939   */\n      dup5\n        /* \"#utility.yul\":10931:10932   */\n      0x08\n        /* \"#utility.yul\":10927:10940   */\n      mul\n        /* \"#utility.yul\":10898:10949   */\n      tag_85\n      jump\t// in\n    tag_210:\n        /* \"#utility.yul\":10894:10950   */\n      not\n        /* \"#utility.yul\":10979:10983   */\n      dup1\n        /* \"#utility.yul\":10973:10977   */\n      dup4\n        /* \"#utility.yul\":10969:10984   */\n      and\n        /* \"#utility.yul\":10959:10984   */\n      swap2\n      pop\n        /* \"#utility.yul\":10872:10990   */\n      pop\n        /* \"#utility.yul\":10821:10990   */\n      swap3\n      swap2\n      pop\n      pop\n      jump\t// out\n        /* \"#utility.yul\":10995:11290   */\n    tag_87:\n        /* \"#utility.yul\":11071:11075   */\n      0x00\n        /* \"#utility.yul\":11217:11246   */\n      tag_212\n        /* \"#utility.yul\":11242:11245   */\n      dup4\n        /* \"#utility.yul\":11236:11240   */\n      dup4\n        /* \"#utility.yul\":11217:11246   */\n      tag_86\n      jump\t// in\n    tag_212:\n        /* \"#utility.yul\":11209:11246   */\n      swap2\n      pop\n        /* \"#utility.yul\":11279:11282   */\n      dup3\n        /* \"#utility.yul\":11276:11277   */\n      0x02\n        /* \"#utility.yul\":11272:11283   */\n      mul\n        /* \"#utility.yul\":11266:11270   */\n      dup3\n        /* \"#utility.yul\":11263:11284   */\n      or\n        /* \"#utility.yul\":11255:11284   */\n      swap1\n      pop\n        /* \"#utility.yul\":10995:11290   */\n      swap3\n      swap2\n      pop\n      pop\n      jump\t// out\n        /* \"#utility.yul\":11295:12690   */\n    tag_40:\n        /* \"#utility.yul\":11412:11449   */\n      tag_214\n        /* \"#utility.yul\":11445:11448   */\n      dup3\n        /* \"#utility.yul\":11412:11449   */\n      tag_53\n      jump\t// in\n    tag_214:\n        /* \"#utility.yul\":11514:11532   */\n      0xffffffffffffffff\n        /* \"#utility.yul\":11506:11512   */\n      dup2\n        /* \"#utility.yul\":11503:11533   */\n      gt\n        /* \"#utility.yul\":11500:11556   */\n      iszero\n      tag_215\n      jumpi\n        /* \"#utility.yul\":11536:11554   */\n      tag_216\n      tag_63\n      jump\t// in\n    tag_216:\n        /* \"#utility.yul\":11500:11556   */\n    tag_215:\n        /* \"#utility.yul\":11580:11618   */\n      tag_217\n        /* \"#utility.yul\":11612:11616   */\n      dup3\n        /* \"#utility.yul\":11606:11617   */\n      sload\n        /* \"#utility.yul\":11580:11618   */\n      tag_28\n      jump\t// in\n    tag_217:\n        /* \"#utility.yul\":11665:11732   */\n      tag_218\n        /* \"#utility.yul\":11725:11731   */\n      dup3\n        /* \"#utility.yul\":11717:11723   */\n      dup3\n        /* \"#utility.yul\":11711:11715   */\n      dup6\n        /* \"#utility.yul\":11665:11732   */\n      tag_84\n      jump\t// in\n    tag_218:\n        /* \"#utility.yul\":11759:11760   */\n      0x00\n        /* \"#utility.yul\":11783:11787   */\n      0x20\n        /* \"#utility.yul\":11770:11787   */\n      swap1\n      pop\n        /* \"#utility.yul\":11815:11817   */\n      0x1f\n        /* \"#utility.yul\":11807:11813   */\n      dup4\n        /* \"#utility.yul\":11804:11818   */\n      gt\n        /* \"#utility.yul\":11832:11833   */\n      0x01\n        /* \"#utility.yul\":11827:12445   */\n      dup2\n      eq\n      tag_220\n      jumpi\n        /* \"#utility.yul\":12489:12490   */\n      0x00\n        /* \"#utility.yul\":12506:12512   */\n      dup5\n        /* \"#utility.yul\":12503:12580   */\n      iszero\n      tag_221\n      jumpi\n        /* \"#utility.yul\":12555:12564   */\n      dup3\n        /* \"#utility.yul\":12550:12553   */\n      dup8\n        /* \"#utility.yul\":12546:12565   */\n      add\n        /* \"#utility.yul\":12540:12566   */\n      mload\n        /* \"#utility.yul\":12531:12566   */\n      swap1\n      pop\n        /* \"#utility.yul\":12503:12580   */\n    tag_221:\n        /* \"#utility.yul\":12606:12673   */\n      tag_222\n        /* \"#utility.yul\":12666:12672   */\n      dup6\n        /* \"#utility.yul\":12659:12664   */\n      dup3\n        /* \"#utility.yul\":12606:12673   */\n      tag_87\n      jump\t// in\n    tag_222:\n        /* \"#utility.yul\":12600:12604   */\n      dup7\n        /* \"#utility.yul\":12593:12674   */\n      sstore\n        /* \"#utility.yul\":12462:12684   */\n      pop\n        /* \"#utility.yul\":11797:12684   */\n      jump(tag_219)\n        /* \"#utility.yul\":11827:12445   */\n    tag_220:\n        /* \"#utility.yul\":11879:11883   */\n      0x1f\n        /* \"#utility.yul\":11875:11884   */\n      not\n        /* \"#utility.yul\":11867:11873   */\n      dup5\n        /* \"#utility.yul\":11863:11885   */\n      and\n        /* \"#utility.yul\":11913:11950   */\n      tag_223\n        /* \"#utility.yul\":11945:11949   */\n      dup7\n        /* \"#utility.yul\":11913:11950   */\n      tag_73\n      jump\t// in\n    tag_223:\n        /* \"#utility.yul\":11972:11973   */\n      0x00\n        /* \"#utility.yul\":11986:12194   */\n    tag_224:\n        /* \"#utility.yul\":12000:12007   */\n      dup3\n        /* \"#utility.yul\":11997:11998   */\n      dup2\n        /* \"#utility.yul\":11994:12008   */\n      lt\n        /* \"#utility.yul\":11986:12194   */\n      iszero\n      tag_226\n      jumpi\n        /* \"#utility.yul\":12079:12088   */\n      dup5\n        /* \"#utility.yul\":12074:12077   */\n      dup10\n        /* \"#utility.yul\":12070:12089   */\n      add\n        /* \"#utility.yul\":12064:12090   */\n      mload\n        /* \"#utility.yul\":12056:12062   */\n      dup3\n        /* \"#utility.yul\":12049:12091   */\n      sstore\n        /* \"#utility.yul\":12130:12131   */\n      0x01\n        /* \"#utility.yul\":12122:12128   */\n      dup3\n        /* \"#utility.yul\":12118:12132   */\n      add\n        /* \"#utility.yul\":12108:12132   */\n      swap2\n      pop\n        /* \"#utility.yul\":12177:12179   */\n      0x20\n        /* \"#utility.yul\":12166:12175   */\n      dup6\n        /* \"#utility.yul\":12162:12180   */\n      add\n        /* \"#utility.yul\":12149:12180   */\n      swap5\n      pop\n        /* \"#utility.yul\":12023:12027   */\n      0x20\n        /* \"#utility.yul\":12020:12021   */\n      dup2\n        /* \"#utility.yul\":12016:12028   */\n      add\n        /* \"#utility.yul\":12011:12028   */\n      swap1\n      pop\n        /* \"#utility.yul\":11986:12194   */\n      jump(tag_224)\n    tag_226:\n        /* \"#utility.yul\":12222:12228   */\n      dup7\n        /* \"#utility.yul\":12213:12220   */\n      dup4\n        /* \"#utility.yul\":12210:12229   */\n      lt\n        /* \"#utility.yul\":12207:12386   */\n      iszero\n      tag_227\n      jumpi\n        /* \"#utility.yul\":12280:12289   */\n      dup5\n        /* \"#utility.yul\":12275:12278   */\n      dup10\n        /* \"#utility.yul\":12271:12290   */\n      add\n        /* \"#utility.yul\":12265:12291   */\n      mload\n        /* \"#utility.yul\":12323:12371   */\n      tag_228\n        /* \"#utility.yul\":12365:12369   */\n      0x1f\n        /* \"#utility.yul\":12357:12363   */\n      dup10\n        /* \"#utility.yul\":12353:12370   */\n      and\n        /* \"#utility.yul\":12342:12351   */\n      dup3\n        /* \"#utility.yul\":12323:12371   */\n      tag_86\n      jump\t// in\n    tag_228:\n        /* \"#utility.yul\":12315:12321   */\n      dup4\n        /* \"#utility.yul\":12308:12372   */\n      sstore\n        /* \"#utility.yul\":12230:12386   */\n      pop\n        /* \"#utility.yul\":12207:12386   */\n    tag_227:\n        /* \"#utility.yul\":12432:12433   */\n      0x01\n        /* \"#utility.yul\":12428:12429   */\n      0x02\n        /* \"#utility.yul\":12420:12426   */\n      dup9\n        /* \"#utility.yul\":12416:12430   */\n      mul\n        /* \"#utility.yul\":12412:12434   */\n      add\n        /* \"#utility.yul\":12406:12410   */\n      dup9\n        /* \"#utility.yul\":12399:12435   */\n      sstore\n        /* \"#utility.yul\":11834:12445   */\n      pop\n      pop\n      pop\n        /* \"#utility.yul\":11797:12684   */\n    tag_219:\n      pop\n        /* \"#utility.yul\":11387:12690   */\n      pop\n      pop\n      pop\n        /* \"#utility.yul\":11295:12690   */\n      pop\n      pop\n      jump\t// out\n        /* \"#utility.yul\":12696:13119   */\n    tag_42:\n        /* \"#utility.yul\":12837:12841   */\n      0x00\n        /* \"#utility.yul\":12875:12877   */\n      0x40\n        /* \"#utility.yul\":12864:12873   */\n      dup3\n        /* \"#utility.yul\":12860:12878   */\n      add\n        /* \"#utility.yul\":12852:12878   */\n      swap1\n      pop\n        /* \"#utility.yul\":12924:12933   */\n      dup2\n        /* \"#utility.yul\":12918:12922   */\n      dup2\n        /* \"#utility.yul\":12914:12934   */\n      sub\n        /* \"#utility.yul\":12910:12911   */\n      0x00\n        /* \"#utility.yul\":12899:12908   */\n      dup4\n        /* \"#utility.yul\":12895:12912   */\n      add\n        /* \"#utility.yul\":12888:12935   */\n      mstore\n        /* \"#utility.yul\":12952:13030   */\n      tag_230\n        /* \"#utility.yul\":13025:13029   */\n      dup2\n        /* \"#utility.yul\":13016:13022   */\n      dup6\n        /* \"#utility.yul\":12952:13030   */\n      tag_57\n      jump\t// in\n    tag_230:\n        /* \"#utility.yul\":12944:13030   */\n      swap1\n      pop\n        /* \"#utility.yul\":13040:13112   */\n      tag_231\n        /* \"#utility.yul\":13108:13110   */\n      0x20\n        /* \"#utility.yul\":13097:13106   */\n      dup4\n        /* \"#utility.yul\":13093:13111   */\n      add\n        /* \"#utility.yul\":13084:13090   */\n      dup5\n        /* \"#utility.yul\":13040:13112   */\n      tag_58\n      jump\t// in\n    tag_231:\n        /* \"#utility.yul\":12696:13119   */\n      swap4\n      swap3\n      pop\n      pop\n      pop\n      jump\t// out\n\n    auxdata: 0xa264697066735822122058010e7d172bd665e2d6c912ed46f3b28f53ada5de8e15472a62240e638baac664736f6c63430008220033\n}\n",
				"bytecode": {
					"linkReferences": {},
					"object": "6080604052348015600e575f5ffd5b50335f5f6101000a81548173ffffffffffffffffffffffffffffffffffffffff021916908373ffffffffffffffffffffffffffffffffffffffff160217905550610b4f8061005b5f395ff3fe608060405234801561000f575f5ffd5b506004361061004a575f3560e01c8063080568271461004e5780637aa361c8146100815780638da5cb5b1461009d578063b70f7866146100bb575b5f5ffd5b6100686004803603810190610063919061046b565b6100d9565b6040516100789493929190610554565b60405180910390f35b61009b600480360381019061009691906106f4565b6101d8565b005b6100a56103f7565b6040516100b2919061074e565b60405180910390f35b6100c361041b565b6040516100d09190610767565b60405180910390f35b600181815481106100e8575f80fd5b905f5260205f2090600402015f91509050805f015f9054906101000a900473ffffffffffffffffffffffffffffffffffffffff1690806001015f9054906101000a900473ffffffffffffffffffffffffffffffffffffffff1690806002018054610151906107ad565b80601f016020809104026020016040519081016040528092919081815260200182805461017d906107ad565b80156101c85780601f1061019f576101008083540402835291602001916101c8565b820191905f5260205f20905b8154815290600101906020018083116101ab57829003601f168201915b5050505050908060030154905084565b5f5f9054906101000a900473ffffffffffffffffffffffffffffffffffffffff1673ffffffffffffffffffffffffffffffffffffffff163373ffffffffffffffffffffffffffffffffffffffff1614610266576040517f08c379a000000000000000000000000000000000000000000000000000000000815260040161025d9061084d565b60405180910390fd5b5f60405180608001604052803373ffffffffffffffffffffffffffffffffffffffff1681526020018473ffffffffffffffffffffffffffffffffffffffff168152602001838152602001428152509050600181908060018154018082558091505060019003905f5260205f2090600402015f909190919091505f820151815f015f6101000a81548173ffffffffffffffffffffffffffffffffffffffff021916908373ffffffffffffffffffffffffffffffffffffffff1602179055506020820151816001015f6101000a81548173ffffffffffffffffffffffffffffffffffffffff021916908373ffffffffffffffffffffffffffffffffffffffff160217905550604082015181600201908161037e9190610a1c565b506060820151816003015550508273ffffffffffffffffffffffffffffffffffffffff163373ffffffffffffffffffffffffffffffffffffffff167f548510cce09773bc99aa548269c8027f90df95fe99a95c47000e048a4f31e4dc84426040516103ea929190610aeb565b60405180910390a3505050565b5f5f9054906101000a900473ffffffffffffffffffffffffffffffffffffffff1681565b5f600180549050905090565b5f604051905090565b5f5ffd5b5f5ffd5b5f819050919050565b61044a81610438565b8114610454575f5ffd5b50565b5f8135905061046581610441565b92915050565b5f602082840312156104805761047f610430565b5b5f61048d84828501610457565b91505092915050565b5f73ffffffffffffffffffffffffffffffffffffffff82169050919050565b5f6104bf82610496565b9050919050565b6104cf816104b5565b82525050565b5f81519050919050565b5f82825260208201905092915050565b8281835e5f83830152505050565b5f601f19601f8301169050919050565b5f610517826104d5565b61052181856104df565b93506105318185602086016104ef565b61053a816104fd565b840191505092915050565b61054e81610438565b82525050565b5f6080820190506105675f8301876104c6565b61057460208301866104c6565b8181036040830152610586818561050d565b90506105956060830184610545565b95945050505050565b6105a7816104b5565b81146105b1575f5ffd5b50565b5f813590506105c28161059e565b92915050565b5f5ffd5b5f5ffd5b7f4e487b71000000000000000000000000000000000000000000000000000000005f52604160045260245ffd5b610606826104fd565b810181811067ffffffffffffffff82111715610625576106246105d0565b5b80604052505050565b5f610637610427565b905061064382826105fd565b919050565b5f67ffffffffffffffff821115610662576106616105d0565b5b61066b826104fd565b9050602081019050919050565b828183375f83830152505050565b5f61069861069384610648565b61062e565b9050828152602081018484840111156106b4576106b36105cc565b5b6106bf848285610678565b509392505050565b5f82601f8301126106db576106da6105c8565b5b81356106eb848260208601610686565b91505092915050565b5f5f6040838503121561070a57610709610430565b5b5f610717858286016105b4565b925050602083013567ffffffffffffffff81111561073857610737610434565b5b610744858286016106c7565b9150509250929050565b5f6020820190506107615f8301846104c6565b92915050565b5f60208201905061077a5f830184610545565b92915050565b7f4e487b71000000000000000000000000000000000000000000000000000000005f52602260045260245ffd5b5f60028204905060018216806107c457607f821691505b6020821081036107d7576107d6610780565b5b50919050565b7f536f6c6f20656c2070726f706965746172696f20707565646520656a656375745f8201527f617220657374612066756e63696f6e0000000000000000000000000000000000602082015250565b5f610837602f836104df565b9150610842826107dd565b604082019050919050565b5f6020820190508181035f8301526108648161082b565b9050919050565b5f819050815f5260205f209050919050565b5f6020601f8301049050919050565b5f82821b905092915050565b5f600883026108c77fffffffffffffffffffffffffffffffffffffffffffffffffffffffffffffffff8261088c565b6108d1868361088c565b95508019841693508086168417925050509392505050565b5f819050919050565b5f61090c61090761090284610438565b6108e9565b610438565b9050919050565b5f819050919050565b610925836108f2565b61093961093182610913565b848454610898565b825550505050565b5f5f905090565b610950610941565b61095b81848461091c565b505050565b5f5b82811015610981576109765f828401610948565b600181019050610962565b505050565b601f8211156109d457828211156109d3576109a08161086b565b6109a98361087d565b6109b28561087d565b60208610156109bf575f90505b8083016109ce82840382610960565b505050505b5b505050565b5f82821c905092915050565b5f6109f45f19846008026109d9565b1980831691505092915050565b5f610a0c83836109e5565b9150826002028217905092915050565b610a25826104d5565b67ffffffffffffffff811115610a3e57610a3d6105d0565b5b610a4882546107ad565b610a53828285610986565b5f60209050601f831160018114610a84575f8415610a72578287015190505b610a7c8582610a01565b865550610ae3565b601f198416610a928661086b565b5f5b82811015610ab957848901518255600182019150602085019450602081019050610a94565b86831015610ad65784890151610ad2601f8916826109e5565b8355505b6001600288020188555050505b505050505050565b5f6040820190508181035f830152610b03818561050d565b9050610b126020830184610545565b939250505056fea264697066735822122058010e7d172bd665e2d6c912ed46f3b28f53ada5de8e15472a62240e638baac664736f6c63430008220033",
					"opcodes": "PUSH1 0x80 PUSH1 0x40 MSTORE CALLVALUE DUP1 ISZERO PUSH1 0xE JUMPI PUSH0 PUSH0 REVERT JUMPDEST POP CALLER PUSH0 PUSH0 PUSH2 0x100 EXP DUP2 SLOAD DUP2 PUSH20 0xFFFFFFFFFFFFFFFFFFFFFFFFFFFFFFFFFFFFFFFF MUL NOT AND SWAP1 DUP4 PUSH20 0xFFFFFFFFFFFFFFFFFFFFFFFFFFFFFFFFFFFFFFFF AND MUL OR SWAP1 SSTORE POP PUSH2 0xB4F DUP1 PUSH2 0x5B PUSH0 CODECOPY PUSH0 RETURN INVALID PUSH1 0x80 PUSH1 0x40 MSTORE CALLVALUE DUP1 ISZERO PUSH2 0xF JUMPI PUSH0 PUSH0 REVERT JUMPDEST POP PUSH1 0x4 CALLDATASIZE LT PUSH2 0x4A JUMPI PUSH0 CALLDATALOAD PUSH1 0xE0 SHR DUP1 PUSH4 0x8056827 EQ PUSH2 0x4E JUMPI DUP1 PUSH4 0x7AA361C8 EQ PUSH2 0x81 JUMPI DUP1 PUSH4 0x8DA5CB5B EQ PUSH2 0x9D JUMPI DUP1 PUSH4 0xB70F7866 EQ PUSH2 0xBB JUMPI JUMPDEST PUSH0 PUSH0 REVERT JUMPDEST PUSH2 0x68 PUSH1 0x4 DUP1 CALLDATASIZE SUB DUP2 ADD SWAP1 PUSH2 0x63 SWAP2 SWAP1 PUSH2 0x46B JUMP JUMPDEST PUSH2 0xD9 JUMP JUMPDEST PUSH1 0x40 MLOAD PUSH2 0x78 SWAP5 SWAP4 SWAP3 SWAP2 SWAP1 PUSH2 0x554 JUMP JUMPDEST PUSH1 0x40 MLOAD DUP1 SWAP2 SUB SWAP1 RETURN JUMPDEST PUSH2 0x9B PUSH1 0x4 DUP1 CALLDATASIZE SUB DUP2 ADD SWAP1 PUSH2 0x96 SWAP2 SWAP1 PUSH2 0x6F4 JUMP JUMPDEST PUSH2 0x1D8 JUMP JUMPDEST STOP JUMPDEST PUSH2 0xA5 PUSH2 0x3F7 JUMP JUMPDEST PUSH1 0x40 MLOAD PUSH2 0xB2 SWAP2 SWAP1 PUSH2 0x74E JUMP JUMPDEST PUSH1 0x40 MLOAD DUP1 SWAP2 SUB SWAP1 RETURN JUMPDEST PUSH2 0xC3 PUSH2 0x41B JUMP JUMPDEST PUSH1 0x40 MLOAD PUSH2 0xD0 SWAP2 SWAP1 PUSH2 0x767 JUMP JUMPDEST PUSH1 0x40 MLOAD DUP1 SWAP2 SUB SWAP1 RETURN JUMPDEST PUSH1 0x1 DUP2 DUP2 SLOAD DUP2 LT PUSH2 0xE8 JUMPI PUSH0 DUP1 REVERT JUMPDEST SWAP1 PUSH0 MSTORE PUSH1 0x20 PUSH0 KECCAK256 SWAP1 PUSH1 0x4 MUL ADD PUSH0 SWAP2 POP SWAP1 POP DUP1 PUSH0 ADD PUSH0 SWAP1 SLOAD SWAP1 PUSH2 0x100 EXP SWAP1 DIV PUSH20 0xFFFFFFFFFFFFFFFFFFFFFFFFFFFFFFFFFFFFFFFF AND SWAP1 DUP1 PUSH1 0x1 ADD PUSH0 SWAP1 SLOAD SWAP1 PUSH2 0x100 EXP SWAP1 DIV PUSH20 0xFFFFFFFFFFFFFFFFFFFFFFFFFFFFFFFFFFFFFFFF AND SWAP1 DUP1 PUSH1 0x2 ADD DUP1 SLOAD PUSH2 0x151 SWAP1 PUSH2 0x7AD JUMP JUMPDEST DUP1 PUSH1 0x1F ADD PUSH1 0x20 DUP1 SWAP2 DIV MUL PUSH1 0x20 ADD PUSH1 0x40 MLOAD SWAP1 DUP2 ADD PUSH1 0x40 MSTORE DUP1 SWAP3 SWAP2 SWAP1 DUP2 DUP2 MSTORE PUSH1 0x20 ADD DUP3 DUP1 SLOAD PUSH2 0x17D SWAP1 PUSH2 0x7AD JUMP JUMPDEST DUP1 ISZERO PUSH2 0x1C8 JUMPI DUP1 PUSH1 0x1F LT PUSH2 0x19F JUMPI PUSH2 0x100 DUP1 DUP4 SLOAD DIV MUL DUP4 MSTORE SWAP2 PUSH1 0x20 ADD SWAP2 PUSH2 0x1C8 JUMP JUMPDEST DUP3 ADD SWAP2 SWAP1 PUSH0 MSTORE PUSH1 0x20 PUSH0 KECCAK256 SWAP1 JUMPDEST DUP2 SLOAD DUP2 MSTORE SWAP1 PUSH1 0x1 ADD SWAP1 PUSH1 0x20 ADD DUP1 DUP4 GT PUSH2 0x1AB JUMPI DUP3 SWAP1 SUB PUSH1 0x1F AND DUP3 ADD SWAP2 JUMPDEST POP POP POP POP POP SWAP1 DUP1 PUSH1 0x3 ADD SLOAD SWAP1 POP DUP5 JUMP JUMPDEST PUSH0 PUSH0 SWAP1 SLOAD SWAP1 PUSH2 0x100 EXP SWAP1 DIV PUSH20 0xFFFFFFFFFFFFFFFFFFFFFFFFFFFFFFFFFFFFFFFF AND PUSH20 0xFFFFFFFFFFFFFFFFFFFFFFFFFFFFFFFFFFFFFFFF AND CALLER PUSH20 0xFFFFFFFFFFFFFFFFFFFFFFFFFFFFFFFFFFFFFFFF AND EQ PUSH2 0x266 JUMPI PUSH1 0x40 MLOAD PUSH32 0x8C379A000000000000000000000000000000000000000000000000000000000 DUP2 MSTORE PUSH1 0x4 ADD PUSH2 0x25D SWAP1 PUSH2 0x84D JUMP JUMPDEST PUSH1 0x40 MLOAD DUP1 SWAP2 SUB SWAP1 REVERT JUMPDEST PUSH0 PUSH1 0x40 MLOAD DUP1 PUSH1 0x80 ADD PUSH1 0x40 MSTORE DUP1 CALLER PUSH20 0xFFFFFFFFFFFFFFFFFFFFFFFFFFFFFFFFFFFFFFFF AND DUP2 MSTORE PUSH1 0x20 ADD DUP5 PUSH20 0xFFFFFFFFFFFFFFFFFFFFFFFFFFFFFFFFFFFFFFFF AND DUP2 MSTORE PUSH1 0x20 ADD DUP4 DUP2 MSTORE PUSH1 0x20 ADD TIMESTAMP DUP2 MSTORE POP SWAP1 POP PUSH1 0x1 DUP2 SWAP1 DUP1 PUSH1 0x1 DUP2 SLOAD ADD DUP1 DUP3 SSTORE DUP1 SWAP2 POP POP PUSH1 0x1 SWAP1 SUB SWAP1 PUSH0 MSTORE PUSH1 0x20 PUSH0 KECCAK256 SWAP1 PUSH1 0x4 MUL ADD PUSH0 SWAP1 SWAP2 SWAP1 SWAP2 SWAP1 SWAP2 POP PUSH0 DUP3 ADD MLOAD DUP2 PUSH0 ADD PUSH0 PUSH2 0x100 EXP DUP2 SLOAD DUP2 PUSH20 0xFFFFFFFFFFFFFFFFFFFFFFFFFFFFFFFFFFFFFFFF MUL NOT AND SWAP1 DUP4 PUSH20 0xFFFFFFFFFFFFFFFFFFFFFFFFFFFFFFFFFFFFFFFF AND MUL OR SWAP1 SSTORE POP PUSH1 0x20 DUP3 ADD MLOAD DUP2 PUSH1 0x1 ADD PUSH0 PUSH2 0x100 EXP DUP2 SLOAD DUP2 PUSH20 0xFFFFFFFFFFFFFFFFFFFFFFFFFFFFFFFFFFFFFFFF MUL NOT AND SWAP1 DUP4 PUSH20 0xFFFFFFFFFFFFFFFFFFFFFFFFFFFFFFFFFFFFFFFF AND MUL OR SWAP1 SSTORE POP PUSH1 0x40 DUP3 ADD MLOAD DUP2 PUSH1 0x2 ADD SWAP1 DUP2 PUSH2 0x37E SWAP2 SWAP1 PUSH2 0xA1C JUMP JUMPDEST POP PUSH1 0x60 DUP3 ADD MLOAD DUP2 PUSH1 0x3 ADD SSTORE POP POP DUP3 PUSH20 0xFFFFFFFFFFFFFFFFFFFFFFFFFFFFFFFFFFFFFFFF AND CALLER PUSH20 0xFFFFFFFFFFFFFFFFFFFFFFFFFFFFFFFFFFFFFFFF AND PUSH32 0x548510CCE09773BC99AA548269C8027F90DF95FE99A95C47000E048A4F31E4DC DUP5 TIMESTAMP PUSH1 0x40 MLOAD PUSH2 0x3EA SWAP3 SWAP2 SWAP1 PUSH2 0xAEB JUMP JUMPDEST PUSH1 0x40 MLOAD DUP1 SWAP2 SUB SWAP1 LOG3 POP POP POP JUMP JUMPDEST PUSH0 PUSH0 SWAP1 SLOAD SWAP1 PUSH2 0x100 EXP SWAP1 DIV PUSH20 0xFFFFFFFFFFFFFFFFFFFFFFFFFFFFFFFFFFFFFFFF AND DUP2 JUMP JUMPDEST PUSH0 PUSH1 0x1 DUP1 SLOAD SWAP1 POP SWAP1 POP SWAP1 JUMP JUMPDEST PUSH0 PUSH1 0x40 MLOAD SWAP1 POP SWAP1 JUMP JUMPDEST PUSH0 PUSH0 REVERT JUMPDEST PUSH0 PUSH0 REVERT JUMPDEST PUSH0 DUP2 SWAP1 POP SWAP2 SWAP1 POP JUMP JUMPDEST PUSH2 0x44A DUP2 PUSH2 0x438 JUMP JUMPDEST DUP2 EQ PUSH2 0x454 JUMPI PUSH0 PUSH0 REVERT JUMPDEST POP JUMP JUMPDEST PUSH0 DUP2 CALLDATALOAD SWAP1 POP PUSH2 0x465 DUP2 PUSH2 0x441 JUMP JUMPDEST SWAP3 SWAP2 POP POP JUMP JUMPDEST PUSH0 PUSH1 0x20 DUP3 DUP5 SUB SLT ISZERO PUSH2 0x480 JUMPI PUSH2 0x47F PUSH2 0x430 JUMP JUMPDEST JUMPDEST PUSH0 PUSH2 0x48D DUP5 DUP3 DUP6 ADD PUSH2 0x457 JUMP JUMPDEST SWAP2 POP POP SWAP3 SWAP2 POP POP JUMP JUMPDEST PUSH0 PUSH20 0xFFFFFFFFFFFFFFFFFFFFFFFFFFFFFFFFFFFFFFFF DUP3 AND SWAP1 POP SWAP2 SWAP1 POP JUMP JUMPDEST PUSH0 PUSH2 0x4BF DUP3 PUSH2 0x496 JUMP JUMPDEST SWAP1 POP SWAP2 SWAP1 POP JUMP JUMPDEST PUSH2 0x4CF DUP2 PUSH2 0x4B5 JUMP JUMPDEST DUP3 MSTORE POP POP JUMP JUMPDEST PUSH0 DUP2 MLOAD SWAP1 POP SWAP2 SWAP1 POP JUMP JUMPDEST PUSH0 DUP3 DUP3 MSTORE PUSH1 0x20 DUP3 ADD SWAP1 POP SWAP3 SWAP2 POP POP JUMP JUMPDEST DUP3 DUP2 DUP4 MCOPY PUSH0 DUP4 DUP4 ADD MSTORE POP POP POP JUMP JUMPDEST PUSH0 PUSH1 0x1F NOT PUSH1 0x1F DUP4 ADD AND SWAP1 POP SWAP2 SWAP1 POP JUMP JUMPDEST PUSH0 PUSH2 0x517 DUP3 PUSH2 0x4D5 JUMP JUMPDEST PUSH2 0x521 DUP2 DUP6 PUSH2 0x4DF JUMP JUMPDEST SWAP4 POP PUSH2 0x531 DUP2 DUP6 PUSH1 0x20 DUP7 ADD PUSH2 0x4EF JUMP JUMPDEST PUSH2 0x53A DUP2 PUSH2 0x4FD JUMP JUMPDEST DUP5 ADD SWAP2 POP POP SWAP3 SWAP2 POP POP JUMP JUMPDEST PUSH2 0x54E DUP2 PUSH2 0x438 JUMP JUMPDEST DUP3 MSTORE POP POP JUMP JUMPDEST PUSH0 PUSH1 0x80 DUP3 ADD SWAP1 POP PUSH2 0x567 PUSH0 DUP4 ADD DUP8 PUSH2 0x4C6 JUMP JUMPDEST PUSH2 0x574 PUSH1 0x20 DUP4 ADD DUP7 PUSH2 0x4C6 JUMP JUMPDEST DUP2 DUP2 SUB PUSH1 0x40 DUP4 ADD MSTORE PUSH2 0x586 DUP2 DUP6 PUSH2 0x50D JUMP JUMPDEST SWAP1 POP PUSH2 0x595 PUSH1 0x60 DUP4 ADD DUP5 PUSH2 0x545 JUMP JUMPDEST SWAP6 SWAP5 POP POP POP POP POP JUMP JUMPDEST PUSH2 0x5A7 DUP2 PUSH2 0x4B5 JUMP JUMPDEST DUP2 EQ PUSH2 0x5B1 JUMPI PUSH0 PUSH0 REVERT JUMPDEST POP JUMP JUMPDEST PUSH0 DUP2 CALLDATALOAD SWAP1 POP PUSH2 0x5C2 DUP2 PUSH2 0x59E JUMP JUMPDEST SWAP3 SWAP2 POP POP JUMP JUMPDEST PUSH0 PUSH0 REVERT JUMPDEST PUSH0 PUSH0 REVERT JUMPDEST PUSH32 0x4E487B7100000000000000000000000000000000000000000000000000000000 PUSH0 MSTORE PUSH1 0x41 PUSH1 0x4 MSTORE PUSH1 0x24 PUSH0 REVERT JUMPDEST PUSH2 0x606 DUP3 PUSH2 0x4FD JUMP JUMPDEST DUP2 ADD DUP2 DUP2 LT PUSH8 0xFFFFFFFFFFFFFFFF DUP3 GT OR ISZERO PUSH2 0x625 JUMPI PUSH2 0x624 PUSH2 0x5D0 JUMP JUMPDEST JUMPDEST DUP1 PUSH1 0x40 MSTORE POP POP POP JUMP JUMPDEST PUSH0 PUSH2 0x637 PUSH2 0x427 JUMP JUMPDEST SWAP1 POP PUSH2 0x643 DUP3 DUP3 PUSH2 0x5FD JUMP JUMPDEST SWAP2 SWAP1 POP JUMP JUMPDEST PUSH0 PUSH8 0xFFFFFFFFFFFFFFFF DUP3 GT ISZERO PUSH2 0x662 JUMPI PUSH2 0x661 PUSH2 0x5D0 JUMP JUMPDEST JUMPDEST PUSH2 0x66B DUP3 PUSH2 0x4FD JUMP JUMPDEST SWAP1 POP PUSH1 0x20 DUP2 ADD SWAP1 POP SWAP2 SWAP1 POP JUMP JUMPDEST DUP3 DUP2 DUP4 CALLDATACOPY PUSH0 DUP4 DUP4 ADD MSTORE POP POP POP JUMP JUMPDEST PUSH0 PUSH2 0x698 PUSH2 0x693 DUP5 PUSH2 0x648 JUMP JUMPDEST PUSH2 0x62E JUMP JUMPDEST SWAP1 POP DUP3 DUP2 MSTORE PUSH1 0x20 DUP2 ADD DUP5 DUP5 DUP5 ADD GT ISZERO PUSH2 0x6B4 JUMPI PUSH2 0x6B3 PUSH2 0x5CC JUMP JUMPDEST JUMPDEST PUSH2 0x6BF DUP5 DUP3 DUP6 PUSH2 0x678 JUMP JUMPDEST POP SWAP4 SWAP3 POP POP POP JUMP JUMPDEST PUSH0 DUP3 PUSH1 0x1F DUP4 ADD SLT PUSH2 0x6DB JUMPI PUSH2 0x6DA PUSH2 0x5C8 JUMP JUMPDEST JUMPDEST DUP2 CALLDATALOAD PUSH2 0x6EB DUP5 DUP3 PUSH1 0x20 DUP7 ADD PUSH2 0x686 JUMP JUMPDEST SWAP2 POP POP SWAP3 SWAP2 POP POP JUMP JUMPDEST PUSH0 PUSH0 PUSH1 0x40 DUP4 DUP6 SUB SLT ISZERO PUSH2 0x70A JUMPI PUSH2 0x709 PUSH2 0x430 JUMP JUMPDEST JUMPDEST PUSH0 PUSH2 0x717 DUP6 DUP3 DUP7 ADD PUSH2 0x5B4 JUMP JUMPDEST SWAP3 POP POP PUSH1 0x20 DUP4 ADD CALLDATALOAD PUSH8 0xFFFFFFFFFFFFFFFF DUP2 GT ISZERO PUSH2 0x738 JUMPI PUSH2 0x737 PUSH2 0x434 JUMP JUMPDEST JUMPDEST PUSH2 0x744 DUP6 DUP3 DUP7 ADD PUSH2 0x6C7 JUMP JUMPDEST SWAP2 POP POP SWAP3 POP SWAP3 SWAP1 POP JUMP JUMPDEST PUSH0 PUSH1 0x20 DUP3 ADD SWAP1 POP PUSH2 0x761 PUSH0 DUP4 ADD DUP5 PUSH2 0x4C6 JUMP JUMPDEST SWAP3 SWAP2 POP POP JUMP JUMPDEST PUSH0 PUSH1 0x20 DUP3 ADD SWAP1 POP PUSH2 0x77A PUSH0 DUP4 ADD DUP5 PUSH2 0x545 JUMP JUMPDEST SWAP3 SWAP2 POP POP JUMP JUMPDEST PUSH32 0x4E487B7100000000000000000000000000000000000000000000000000000000 PUSH0 MSTORE PUSH1 0x22 PUSH1 0x4 MSTORE PUSH1 0x24 PUSH0 REVERT JUMPDEST PUSH0 PUSH1 0x2 DUP3 DIV SWAP1 POP PUSH1 0x1 DUP3 AND DUP1 PUSH2 0x7C4 JUMPI PUSH1 0x7F DUP3 AND SWAP2 POP JUMPDEST PUSH1 0x20 DUP3 LT DUP2 SUB PUSH2 0x7D7 JUMPI PUSH2 0x7D6 PUSH2 0x780 JUMP JUMPDEST JUMPDEST POP SWAP2 SWAP1 POP JUMP JUMPDEST PUSH32 0x536F6C6F20656C2070726F706965746172696F20707565646520656A65637574 PUSH0 DUP3 ADD MSTORE PUSH32 0x617220657374612066756E63696F6E0000000000000000000000000000000000 PUSH1 0x20 DUP3 ADD MSTORE POP JUMP JUMPDEST PUSH0 PUSH2 0x837 PUSH1 0x2F DUP4 PUSH2 0x4DF JUMP JUMPDEST SWAP2 POP PUSH2 0x842 DUP3 PUSH2 0x7DD JUMP JUMPDEST PUSH1 0x40 DUP3 ADD SWAP1 POP SWAP2 SWAP1 POP JUMP JUMPDEST PUSH0 PUSH1 0x20 DUP3 ADD SWAP1 POP DUP2 DUP2 SUB PUSH0 DUP4 ADD MSTORE PUSH2 0x864 DUP2 PUSH2 0x82B JUMP JUMPDEST SWAP1 POP SWAP2 SWAP1 POP JUMP JUMPDEST PUSH0 DUP2 SWAP1 POP DUP2 PUSH0 MSTORE PUSH1 0x20 PUSH0 KECCAK256 SWAP1 POP SWAP2 SWAP1 POP JUMP JUMPDEST PUSH0 PUSH1 0x20 PUSH1 0x1F DUP4 ADD DIV SWAP1 POP SWAP2 SWAP1 POP JUMP JUMPDEST PUSH0 DUP3 DUP3 SHL SWAP1 POP SWAP3 SWAP2 POP POP JUMP JUMPDEST PUSH0 PUSH1 0x8 DUP4 MUL PUSH2 0x8C7 PUSH32 0xFFFFFFFFFFFFFFFFFFFFFFFFFFFFFFFFFFFFFFFFFFFFFFFFFFFFFFFFFFFFFFFF DUP3 PUSH2 0x88C JUMP JUMPDEST PUSH2 0x8D1 DUP7 DUP4 PUSH2 0x88C JUMP JUMPDEST SWAP6 POP DUP1 NOT DUP5 AND SWAP4 POP DUP1 DUP7 AND DUP5 OR SWAP3 POP POP POP SWAP4 SWAP3 POP POP POP JUMP JUMPDEST PUSH0 DUP2 SWAP1 POP SWAP2 SWAP1 POP JUMP JUMPDEST PUSH0 PUSH2 0x90C PUSH2 0x907 PUSH2 0x902 DUP5 PUSH2 0x438 JUMP JUMPDEST PUSH2 0x8E9 JUMP JUMPDEST PUSH2 0x438 JUMP JUMPDEST SWAP1 POP SWAP2 SWAP1 POP JUMP JUMPDEST PUSH0 DUP2 SWAP1 POP SWAP2 SWAP1 POP JUMP JUMPDEST PUSH2 0x925 DUP4 PUSH2 0x8F2 JUMP JUMPDEST PUSH2 0x939 PUSH2 0x931 DUP3 PUSH2 0x913 JUMP JUMPDEST DUP5 DUP5 SLOAD PUSH2 0x898 JUMP JUMPDEST DUP3 SSTORE POP POP POP POP JUMP JUMPDEST PUSH0 PUSH0 SWAP1 POP SWAP1 JUMP JUMPDEST PUSH2 0x950 PUSH2 0x941 JUMP JUMPDEST PUSH2 0x95B DUP2 DUP5 DUP5 PUSH2 0x91C JUMP JUMPDEST POP POP POP JUMP JUMPDEST PUSH0 JUMPDEST DUP3 DUP2 LT ISZERO PUSH2 0x981 JUMPI PUSH2 0x976 PUSH0 DUP3 DUP5 ADD PUSH2 0x948 JUMP JUMPDEST PUSH1 0x1 DUP2 ADD SWAP1 POP PUSH2 0x962 JUMP JUMPDEST POP POP POP JUMP JUMPDEST PUSH1 0x1F DUP3 GT ISZERO PUSH2 0x9D4 JUMPI DUP3 DUP3 GT ISZERO PUSH2 0x9D3 JUMPI PUSH2 0x9A0 DUP2 PUSH2 0x86B JUMP JUMPDEST PUSH2 0x9A9 DUP4 PUSH2 0x87D JUMP JUMPDEST PUSH2 0x9B2 DUP6 PUSH2 0x87D JUMP JUMPDEST PUSH1 0x20 DUP7 LT ISZERO PUSH2 0x9BF JUMPI PUSH0 SWAP1 POP JUMPDEST DUP1 DUP4 ADD PUSH2 0x9CE DUP3 DUP5 SUB DUP3 PUSH2 0x960 JUMP JUMPDEST POP POP POP POP JUMPDEST JUMPDEST POP POP POP JUMP JUMPDEST PUSH0 DUP3 DUP3 SHR SWAP1 POP SWAP3 SWAP2 POP POP JUMP JUMPDEST PUSH0 PUSH2 0x9F4 PUSH0 NOT DUP5 PUSH1 0x8 MUL PUSH2 0x9D9 JUMP JUMPDEST NOT DUP1 DUP4 AND SWAP2 POP POP SWAP3 SWAP2 POP POP JUMP JUMPDEST PUSH0 PUSH2 0xA0C DUP4 DUP4 PUSH2 0x9E5 JUMP JUMPDEST SWAP2 POP DUP3 PUSH1 0x2 MUL DUP3 OR SWAP1 POP SWAP3 SWAP2 POP POP JUMP JUMPDEST PUSH2 0xA25 DUP3 PUSH2 0x4D5 JUMP JUMPDEST PUSH8 0xFFFFFFFFFFFFFFFF DUP2 GT ISZERO PUSH2 0xA3E JUMPI PUSH2 0xA3D PUSH2 0x5D0 JUMP JUMPDEST JUMPDEST PUSH2 0xA48 DUP3 SLOAD PUSH2 0x7AD JUMP JUMPDEST PUSH2 0xA53 DUP3 DUP3 DUP6 PUSH2 0x986 JUMP JUMPDEST PUSH0 PUSH1 0x20 SWAP1 POP PUSH1 0x1F DUP4 GT PUSH1 0x1 DUP2 EQ PUSH2 0xA84 JUMPI PUSH0 DUP5 ISZERO PUSH2 0xA72 JUMPI DUP3 DUP8 ADD MLOAD SWAP1 POP JUMPDEST PUSH2 0xA7C DUP6 DUP3 PUSH2 0xA01 JUMP JUMPDEST DUP7 SSTORE POP PUSH2 0xAE3 JUMP JUMPDEST PUSH1 0x1F NOT DUP5 AND PUSH2 0xA92 DUP7 PUSH2 0x86B JUMP JUMPDEST PUSH0 JUMPDEST DUP3 DUP2 LT ISZERO PUSH2 0xAB9 JUMPI DUP5 DUP10 ADD MLOAD DUP3 SSTORE PUSH1 0x1 DUP3 ADD SWAP2 POP PUSH1 0x20 DUP6 ADD SWAP5 POP PUSH1 0x20 DUP2 ADD SWAP1 POP PUSH2 0xA94 JUMP JUMPDEST DUP7 DUP4 LT ISZERO PUSH2 0xAD6 JUMPI DUP5 DUP10 ADD MLOAD PUSH2 0xAD2 PUSH1 0x1F DUP10 AND DUP3 PUSH2 0x9E5 JUMP JUMPDEST DUP4 SSTORE POP JUMPDEST PUSH1 0x1 PUSH1 0x2 DUP9 MUL ADD DUP9 SSTORE POP POP POP JUMPDEST POP POP POP POP POP POP JUMP JUMPDEST PUSH0 PUSH1 0x40 DUP3 ADD SWAP1 POP DUP2 DUP2 SUB PUSH0 DUP4 ADD MSTORE PUSH2 0xB03 DUP2 DUP6 PUSH2 0x50D JUMP JUMPDEST SWAP1 POP PUSH2 0xB12 PUSH1 0x20 DUP4 ADD DUP5 PUSH2 0x545 JUMP JUMPDEST SWAP4 SWAP3 POP POP POP JUMP INVALID LOG2 PUSH5 0x6970667358 0x22 SLT KECCAK256 PC ADD 0xE PUSH30 0x172BD665E2D6C912ED46F3B28F53ADA5DE8E15472A62240E638BAAC66473 PUSH16 0x6C634300082200330000000000000000 "
				},
				"gasEstimates": {
					"creation": {
						"codeDepositCost": "579000",
						"executionCost": "24875",
						"totalCost": "603875"
					},
					"external": {
						"enviarMensaje(address,string)": "infinite",
						"historialMensajes(uint256)": "infinite",
						"obtenerTotalMensajes()": "2484",
						"owner()": "2529"
					}
				},
				"methodIdentifiers": {
					"enviarMensaje(address,string)": "7aa361c8",
					"historialMensajes(uint256)": "08056827",
					"obtenerTotalMensajes()": "b70f7866",
					"owner()": "8da5cb5b"
				}
			},
			"storageLayout": {
				"storage": [
					{
						"astId": 3,
						"contract": "contracts/15_Mensajes.sol:SistemaMensajes",
						"label": "owner",
						"offset": 0,
						"slot": "0",
						"type": "t_address"
					},
					{
						"astId": 16,
						"contract": "contracts/15_Mensajes.sol:SistemaMensajes",
						"label": "historialMensajes",
						"offset": 0,
						"slot": "1",
						"type": "t_array(t_struct(Mensaje)12_storage)dyn_storage"
					}
				],
				"types": {
					"t_address": {
						"encoding": "inplace",
						"label": "address",
						"numberOfBytes": "20"
					},
					"t_array(t_struct(Mensaje)12_storage)dyn_storage": {
						"base": "t_struct(Mensaje)12_storage",
						"encoding": "dynamic_array",
						"label": "struct SistemaMensajes.Mensaje[]",
						"numberOfBytes": "32"
					},
					"t_string_storage": {
						"encoding": "bytes",
						"label": "string",
						"numberOfBytes": "32"
					},
					"t_struct(Mensaje)12_storage": {
						"encoding": "inplace",
						"label": "struct SistemaMensajes.Mensaje",
						"members": [
							{
								"astId": 5,
								"contract": "contracts/15_Mensajes.sol:SistemaMensajes",
								"label": "from",
								"offset": 0,
								"slot": "0",
								"type": "t_address"
							},
							{
								"astId": 7,
								"contract": "contracts/15_Mensajes.sol:SistemaMensajes",
								"label": "to",
								"offset": 0,
								"slot": "1",
								"type": "t_address"
							},
							{
								"astId": 9,
								"contract": "contracts/15_Mensajes.sol:SistemaMensajes",
								"label": "contenido",
								"offset": 0,
								"slot": "2",
								"type": "t_string_storage"
							},
							{
								"astId": 11,
								"contract": "contracts/15_Mensajes.sol:SistemaMensajes",
								"label": "timestamp",
								"offset": 0,
								"slot": "3",
								"type": "t_uint256"
							}
						],
						"numberOfBytes": "128"
					},
					"t_uint256": {
						"encoding": "inplace",
						"label": "uint256",
						"numberOfBytes": "32"
					}
				}
			},
			"userdoc": {
				"kind": "user",
				"methods": {},
				"version": 1
			}
		}
	}
}