{
	"contracts/12_Comp_Bytes.sol": {
		"CompBytes": {
			"abi": [
				{
					"inputs": [
						{
							"internalType": "bytes",
							"name": "_datos",
							"type": "bytes"
						}
					],
					"name": "agregarDatos",
					"outputs": [],
					"stateMutability": "nonpayable",
					"type": "function"
				},
				{
					"inputs": [
						{
							"internalType": "bytes",
							"name": "_datos",
							"type": "bytes"
						}
					],
					"name": "guardarDatos",
					"outputs": [],
					"stateMutability": "nonpayable",
					"type": "function"
				},
				{
					"inputs": [
						{
							"internalType": "string",
							"name": "_texto",
							"type": "string"
						}
					],
					"name": "guardarDatosDesdeTexto",
					"outputs": [],
					"stateMutability": "nonpayable",
					"type": "function"
				},
				{
					"inputs": [],
					"name": "obtenerDatos",
					"outputs": [
						{
							"internalType": "bytes",
							"name": "",
							"type": "bytes"
						}
					],
					"stateMutability": "view",
					"type": "function"
				},
				{
					"inputs": [],
					"name": "obtenerDatosComoString",
					"outputs": [
						{
							"internalType": "string",
							"name": "",
							"type": "string"
						}
					],
					"stateMutability": "view",
					"type": "function"
				}
			],
			"devdoc": {
				"kind": "dev",
				"methods": {},
				"version": 1
			},
			"evm": {
				"assembly": "    /* \"contracts/12_Comp_Bytes.sol\":72:658  contract CompBytes {... */\n  mstore(0x40, 0x80)\n  callvalue\n  dup1\n  iszero\n  tag_1\n  jumpi\n  revert(0x00, 0x00)\ntag_1:\n  pop\n  dataSize(sub_0)\n  dup1\n  dataOffset(sub_0)\n  0x00\n  codecopy\n  0x00\n  return\nstop\n\nsub_0: assembly {\n        /* \"contracts/12_Comp_Bytes.sol\":72:658  contract CompBytes {... */\n      mstore(0x40, 0x80)\n      callvalue\n      dup1\n      iszero\n      tag_1\n      jumpi\n      revert(0x00, 0x00)\n    tag_1:\n      pop\n      jumpi(tag_2, lt(calldatasize, 0x04))\n      shr(0xe0, calldataload(0x00))\n      dup1\n      0x27687e16\n      eq\n      tag_3\n      jumpi\n      dup1\n      0x3982a723\n      eq\n      tag_4\n      jumpi\n      dup1\n      0x5cbc89f4\n      eq\n      tag_5\n      jumpi\n      dup1\n      0x7bf4fdd0\n      eq\n      tag_6\n      jumpi\n      dup1\n      0xe2025590\n      eq\n      tag_7\n      jumpi\n    tag_2:\n      revert(0x00, 0x00)\n        /* \"contracts/12_Comp_Bytes.sol\":540:647  function obtenerDatosComoString() public view returns(string memory){... */\n    tag_3:\n      tag_8\n      tag_9\n      jump\t// in\n    tag_8:\n      mload(0x40)\n      tag_10\n      swap2\n      swap1\n      tag_11\n      jump\t// in\n    tag_10:\n      mload(0x40)\n      dup1\n      swap2\n      sub\n      swap1\n      return\n        /* \"contracts/12_Comp_Bytes.sol\":223:324  function guardarDatosDesdeTexto(string memory _texto) public {... */\n    tag_4:\n      tag_12\n      0x04\n      dup1\n      calldatasize\n      sub\n      dup2\n      add\n      swap1\n      tag_13\n      swap2\n      swap1\n      tag_14\n      jump\t// in\n    tag_13:\n      tag_15\n      jump\t// in\n    tag_12:\n      stop\n        /* \"contracts/12_Comp_Bytes.sol\":332:436  function agregarDatos(bytes memory _datos) public {... */\n    tag_5:\n      tag_16\n      0x04\n      dup1\n      calldatasize\n      sub\n      dup2\n      add\n      swap1\n      tag_17\n      swap2\n      swap1\n      tag_18\n      jump\t// in\n    tag_17:\n      tag_19\n      jump\t// in\n    tag_16:\n      stop\n        /* \"contracts/12_Comp_Bytes.sol\":444:532  function obtenerDatos() view public returns(bytes memory){... */\n    tag_6:\n      tag_20\n      tag_21\n      jump\t// in\n    tag_20:\n      mload(0x40)\n      tag_22\n      swap2\n      swap1\n      tag_23\n      jump\t// in\n    tag_22:\n      mload(0x40)\n      dup1\n      swap2\n      sub\n      swap1\n      return\n        /* \"contracts/12_Comp_Bytes.sol\":128:211  function guardarDatos(bytes memory _datos) public {... */\n    tag_7:\n      tag_24\n      0x04\n      dup1\n      calldatasize\n      sub\n      dup2\n      add\n      swap1\n      tag_25\n      swap2\n      swap1\n      tag_18\n      jump\t// in\n    tag_25:\n      tag_26\n      jump\t// in\n    tag_24:\n      stop\n        /* \"contracts/12_Comp_Bytes.sol\":540:647  function obtenerDatosComoString() public view returns(string memory){... */\n    tag_9:\n        /* \"contracts/12_Comp_Bytes.sol\":594:607  string memory */\n      0x60\n        /* \"contracts/12_Comp_Bytes.sol\":633:638  datos */\n      0x00\n        /* \"contracts/12_Comp_Bytes.sol\":619:639  return string(datos) */\n      dup1\n      sload\n      tag_28\n      swap1\n      tag_29\n      jump\t// in\n    tag_28:\n      dup1\n      0x1f\n      add\n      0x20\n      dup1\n      swap2\n      div\n      mul\n      0x20\n      add\n      mload(0x40)\n      swap1\n      dup2\n      add\n      0x40\n      mstore\n      dup1\n      swap3\n      swap2\n      swap1\n      dup2\n      dup2\n      mstore\n      0x20\n      add\n      dup3\n      dup1\n      sload\n      tag_30\n      swap1\n      tag_29\n      jump\t// in\n    tag_30:\n      dup1\n      iszero\n      tag_31\n      jumpi\n      dup1\n      0x1f\n      lt\n      tag_32\n      jumpi\n      0x0100\n      dup1\n      dup4\n      sload\n      div\n      mul\n      dup4\n      mstore\n      swap2\n      0x20\n      add\n      swap2\n      jump(tag_31)\n    tag_32:\n      dup3\n      add\n      swap2\n      swap1\n      0x00\n      mstore\n      keccak256(0x00, 0x20)\n      swap1\n    tag_33:\n      dup2\n      sload\n      dup2\n      mstore\n      swap1\n      0x01\n      add\n      swap1\n      0x20\n      add\n      dup1\n      dup4\n      gt\n      tag_33\n      jumpi\n      dup3\n      swap1\n      sub\n      0x1f\n      and\n      dup3\n      add\n      swap2\n    tag_31:\n      pop\n      pop\n      pop\n      pop\n      pop\n      swap1\n      pop\n        /* \"contracts/12_Comp_Bytes.sol\":540:647  function obtenerDatosComoString() public view returns(string memory){... */\n      swap1\n      jump\t// out\n        /* \"contracts/12_Comp_Bytes.sol\":223:324  function guardarDatosDesdeTexto(string memory _texto) public {... */\n    tag_15:\n        /* \"contracts/12_Comp_Bytes.sol\":309:315  _texto */\n      dup1\n        /* \"contracts/12_Comp_Bytes.sol\":295:300  datos */\n      0x00\n        /* \"contracts/12_Comp_Bytes.sol\":295:316  datos = bytes(_texto) */\n      swap1\n      dup2\n      tag_35\n      swap2\n      swap1\n      tag_36\n      jump\t// in\n    tag_35:\n      pop\n        /* \"contracts/12_Comp_Bytes.sol\":223:324  function guardarDatosDesdeTexto(string memory _texto) public {... */\n      pop\n      jump\t// out\n        /* \"contracts/12_Comp_Bytes.sol\":332:436  function agregarDatos(bytes memory _datos) public {... */\n    tag_19:\n        /* \"contracts/12_Comp_Bytes.sol\":414:419  datos */\n      0x00\n        /* \"contracts/12_Comp_Bytes.sol\":421:427  _datos */\n      dup2\n        /* \"contracts/12_Comp_Bytes.sol\":401:428  bytes.concat(datos, _datos) */\n      add(0x20, mload(0x40))\n      tag_38\n      swap3\n      swap2\n      swap1\n      tag_39\n      jump\t// in\n    tag_38:\n      mload(0x40)\n      0x20\n      dup2\n      dup4\n      sub\n      sub\n      dup2\n      mstore\n      swap1\n      0x40\n      mstore\n        /* \"contracts/12_Comp_Bytes.sol\":393:398  datos */\n      0x00\n        /* \"contracts/12_Comp_Bytes.sol\":393:428  datos = bytes.concat(datos, _datos) */\n      swap1\n      dup2\n      tag_40\n      swap2\n      swap1\n      tag_36\n      jump\t// in\n    tag_40:\n      pop\n        /* \"contracts/12_Comp_Bytes.sol\":332:436  function agregarDatos(bytes memory _datos) public {... */\n      pop\n      jump\t// out\n        /* \"contracts/12_Comp_Bytes.sol\":444:532  function obtenerDatos() view public returns(bytes memory){... */\n    tag_21:\n        /* \"contracts/12_Comp_Bytes.sol\":488:500  bytes memory */\n      0x60\n        /* \"contracts/12_Comp_Bytes.sol\":519:524  datos */\n      0x00\n        /* \"contracts/12_Comp_Bytes.sol\":512:524  return datos */\n      dup1\n      sload\n      tag_42\n      swap1\n      tag_29\n      jump\t// in\n    tag_42:\n      dup1\n      0x1f\n      add\n      0x20\n      dup1\n      swap2\n      div\n      mul\n      0x20\n      add\n      mload(0x40)\n      swap1\n      dup2\n      add\n      0x40\n      mstore\n      dup1\n      swap3\n      swap2\n      swap1\n      dup2\n      dup2\n      mstore\n      0x20\n      add\n      dup3\n      dup1\n      sload\n      tag_43\n      swap1\n      tag_29\n      jump\t// in\n    tag_43:\n      dup1\n      iszero\n      tag_44\n      jumpi\n      dup1\n      0x1f\n      lt\n      tag_45\n      jumpi\n      0x0100\n      dup1\n      dup4\n      sload\n      div\n      mul\n      dup4\n      mstore\n      swap2\n      0x20\n      add\n      swap2\n      jump(tag_44)\n    tag_45:\n      dup3\n      add\n      swap2\n      swap1\n      0x00\n      mstore\n      keccak256(0x00, 0x20)\n      swap1\n    tag_46:\n      dup2\n      sload\n      dup2\n      mstore\n      swap1\n      0x01\n      add\n      swap1\n      0x20\n      add\n      dup1\n      dup4\n      gt\n      tag_46\n      jumpi\n      dup3\n      swap1\n      sub\n      0x1f\n      and\n      dup3\n      add\n      swap2\n    tag_44:\n      pop\n      pop\n      pop\n      pop\n      pop\n      swap1\n      pop\n        /* \"contracts/12_Comp_Bytes.sol\":444:532  function obtenerDatos() view public returns(bytes memory){... */\n      swap1\n      jump\t// out\n        /* \"contracts/12_Comp_Bytes.sol\":128:211  function guardarDatos(bytes memory _datos) public {... */\n    tag_26:\n        /* \"contracts/12_Comp_Bytes.sol\":197:203  _datos */\n      dup1\n        /* \"contracts/12_Comp_Bytes.sol\":189:194  datos */\n      0x00\n        /* \"contracts/12_Comp_Bytes.sol\":189:203  datos = _datos */\n      swap1\n      dup2\n      tag_48\n      swap2\n      swap1\n      tag_36\n      jump\t// in\n    tag_48:\n      pop\n        /* \"contracts/12_Comp_Bytes.sol\":128:211  function guardarDatos(bytes memory _datos) public {... */\n      pop\n      jump\t// out\n        /* \"#utility.yul\":7:106   */\n    tag_49:\n        /* \"#utility.yul\":59:65   */\n      0x00\n        /* \"#utility.yul\":93:98   */\n      dup2\n        /* \"#utility.yul\":87:99   */\n      mload\n        /* \"#utility.yul\":77:99   */\n      swap1\n      pop\n        /* \"#utility.yul\":7:106   */\n      swap2\n      swap1\n      pop\n      jump\t// out\n        /* \"#utility.yul\":112:281   */\n    tag_50:\n        /* \"#utility.yul\":196:207   */\n      0x00\n        /* \"#utility.yul\":230:236   */\n      dup3\n        /* \"#utility.yul\":225:228   */\n      dup3\n        /* \"#utility.yul\":218:237   */\n      mstore\n        /* \"#utility.yul\":270:274   */\n      0x20\n        /* \"#utility.yul\":265:268   */\n      dup3\n        /* \"#utility.yul\":261:275   */\n      add\n        /* \"#utility.yul\":246:275   */\n      swap1\n      pop\n        /* \"#utility.yul\":112:281   */\n      swap3\n      swap2\n      pop\n      pop\n      jump\t// out\n        /* \"#utility.yul\":287:426   */\n    tag_51:\n        /* \"#utility.yul\":376:382   */\n      dup3\n        /* \"#utility.yul\":371:374   */\n      dup2\n        /* \"#utility.yul\":366:369   */\n      dup4\n        /* \"#utility.yul\":360:383   */\n      mcopy\n        /* \"#utility.yul\":417:418   */\n      0x00\n        /* \"#utility.yul\":408:414   */\n      dup4\n        /* \"#utility.yul\":403:406   */\n      dup4\n        /* \"#utility.yul\":399:415   */\n      add\n        /* \"#utility.yul\":392:419   */\n      mstore\n        /* \"#utility.yul\":287:426   */\n      pop\n      pop\n      pop\n      jump\t// out\n        /* \"#utility.yul\":432:534   */\n    tag_52:\n        /* \"#utility.yul\":473:479   */\n      0x00\n        /* \"#utility.yul\":524:526   */\n      0x1f\n        /* \"#utility.yul\":520:527   */\n      not\n        /* \"#utility.yul\":515:517   */\n      0x1f\n        /* \"#utility.yul\":508:513   */\n      dup4\n        /* \"#utility.yul\":504:518   */\n      add\n        /* \"#utility.yul\":500:528   */\n      and\n        /* \"#utility.yul\":490:528   */\n      swap1\n      pop\n        /* \"#utility.yul\":432:534   */\n      swap2\n      swap1\n      pop\n      jump\t// out\n        /* \"#utility.yul\":540:917   */\n    tag_53:\n        /* \"#utility.yul\":628:631   */\n      0x00\n        /* \"#utility.yul\":656:695   */\n      tag_98\n        /* \"#utility.yul\":689:694   */\n      dup3\n        /* \"#utility.yul\":656:695   */\n      tag_49\n      jump\t// in\n    tag_98:\n        /* \"#utility.yul\":711:782   */\n      tag_99\n        /* \"#utility.yul\":775:781   */\n      dup2\n        /* \"#utility.yul\":770:773   */\n      dup6\n        /* \"#utility.yul\":711:782   */\n      tag_50\n      jump\t// in\n    tag_99:\n        /* \"#utility.yul\":704:782   */\n      swap4\n      pop\n        /* \"#utility.yul\":791:856   */\n      tag_100\n        /* \"#utility.yul\":849:855   */\n      dup2\n        /* \"#utility.yul\":844:847   */\n      dup6\n        /* \"#utility.yul\":837:841   */\n      0x20\n        /* \"#utility.yul\":830:835   */\n      dup7\n        /* \"#utility.yul\":826:842   */\n      add\n        /* \"#utility.yul\":791:856   */\n      tag_51\n      jump\t// in\n    tag_100:\n        /* \"#utility.yul\":881:910   */\n      tag_101\n        /* \"#utility.yul\":903:909   */\n      dup2\n        /* \"#utility.yul\":881:910   */\n      tag_52\n      jump\t// in\n    tag_101:\n        /* \"#utility.yul\":876:879   */\n      dup5\n        /* \"#utility.yul\":872:911   */\n      add\n        /* \"#utility.yul\":865:911   */\n      swap2\n      pop\n        /* \"#utility.yul\":632:917   */\n      pop\n        /* \"#utility.yul\":540:917   */\n      swap3\n      swap2\n      pop\n      pop\n      jump\t// out\n        /* \"#utility.yul\":923:1236   */\n    tag_11:\n        /* \"#utility.yul\":1036:1040   */\n      0x00\n        /* \"#utility.yul\":1074:1076   */\n      0x20\n        /* \"#utility.yul\":1063:1072   */\n      dup3\n        /* \"#utility.yul\":1059:1077   */\n      add\n        /* \"#utility.yul\":1051:1077   */\n      swap1\n      pop\n        /* \"#utility.yul\":1123:1132   */\n      dup2\n        /* \"#utility.yul\":1117:1121   */\n      dup2\n        /* \"#utility.yul\":1113:1133   */\n      sub\n        /* \"#utility.yul\":1109:1110   */\n      0x00\n        /* \"#utility.yul\":1098:1107   */\n      dup4\n        /* \"#utility.yul\":1094:1111   */\n      add\n        /* \"#utility.yul\":1087:1134   */\n      mstore\n        /* \"#utility.yul\":1151:1229   */\n      tag_103\n        /* \"#utility.yul\":1224:1228   */\n      dup2\n        /* \"#utility.yul\":1215:1221   */\n      dup5\n        /* \"#utility.yul\":1151:1229   */\n      tag_53\n      jump\t// in\n    tag_103:\n        /* \"#utility.yul\":1143:1229   */\n      swap1\n      pop\n        /* \"#utility.yul\":923:1236   */\n      swap3\n      swap2\n      pop\n      pop\n      jump\t// out\n        /* \"#utility.yul\":1242:1317   */\n    tag_54:\n        /* \"#utility.yul\":1275:1281   */\n      0x00\n        /* \"#utility.yul\":1308:1310   */\n      0x40\n        /* \"#utility.yul\":1302:1311   */\n      mload\n        /* \"#utility.yul\":1292:1311   */\n      swap1\n      pop\n        /* \"#utility.yul\":1242:1317   */\n      swap1\n      jump\t// out\n        /* \"#utility.yul\":1323:1440   */\n    tag_55:\n        /* \"#utility.yul\":1432:1433   */\n      0x00\n        /* \"#utility.yul\":1429:1430   */\n      0x00\n        /* \"#utility.yul\":1422:1434   */\n      revert\n        /* \"#utility.yul\":1446:1563   */\n    tag_56:\n        /* \"#utility.yul\":1555:1556   */\n      0x00\n        /* \"#utility.yul\":1552:1553   */\n      0x00\n        /* \"#utility.yul\":1545:1557   */\n      revert\n        /* \"#utility.yul\":1569:1686   */\n    tag_57:\n        /* \"#utility.yul\":1678:1679   */\n      0x00\n        /* \"#utility.yul\":1675:1676   */\n      0x00\n        /* \"#utility.yul\":1668:1680   */\n      revert\n        /* \"#utility.yul\":1692:1809   */\n    tag_58:\n        /* \"#utility.yul\":1801:1802   */\n      0x00\n        /* \"#utility.yul\":1798:1799   */\n      0x00\n        /* \"#utility.yul\":1791:1803   */\n      revert\n        /* \"#utility.yul\":1815:1995   */\n    tag_59:\n        /* \"#utility.yul\":1863:1940   */\n      0x4e487b7100000000000000000000000000000000000000000000000000000000\n        /* \"#utility.yul\":1860:1861   */\n      0x00\n        /* \"#utility.yul\":1853:1941   */\n      mstore\n        /* \"#utility.yul\":1960:1964   */\n      0x41\n        /* \"#utility.yul\":1957:1958   */\n      0x04\n        /* \"#utility.yul\":1950:1965   */\n      mstore\n        /* \"#utility.yul\":1984:1988   */\n      0x24\n        /* \"#utility.yul\":1981:1982   */\n      0x00\n        /* \"#utility.yul\":1974:1989   */\n      revert\n        /* \"#utility.yul\":2001:2282   */\n    tag_60:\n        /* \"#utility.yul\":2084:2111   */\n      tag_111\n        /* \"#utility.yul\":2106:2110   */\n      dup3\n        /* \"#utility.yul\":2084:2111   */\n      tag_52\n      jump\t// in\n    tag_111:\n        /* \"#utility.yul\":2076:2082   */\n      dup2\n        /* \"#utility.yul\":2072:2112   */\n      add\n        /* \"#utility.yul\":2214:2220   */\n      dup2\n        /* \"#utility.yul\":2202:2212   */\n      dup2\n        /* \"#utility.yul\":2199:2221   */\n      lt\n        /* \"#utility.yul\":2178:2196   */\n      0xffffffffffffffff\n        /* \"#utility.yul\":2166:2176   */\n      dup3\n        /* \"#utility.yul\":2163:2197   */\n      gt\n        /* \"#utility.yul\":2160:2222   */\n      or\n        /* \"#utility.yul\":2157:2245   */\n      iszero\n      tag_112\n      jumpi\n        /* \"#utility.yul\":2225:2243   */\n      tag_113\n      tag_59\n      jump\t// in\n    tag_113:\n        /* \"#utility.yul\":2157:2245   */\n    tag_112:\n        /* \"#utility.yul\":2265:2275   */\n      dup1\n        /* \"#utility.yul\":2261:2263   */\n      0x40\n        /* \"#utility.yul\":2254:2276   */\n      mstore\n        /* \"#utility.yul\":2044:2282   */\n      pop\n        /* \"#utility.yul\":2001:2282   */\n      pop\n      pop\n      jump\t// out\n        /* \"#utility.yul\":2288:2417   */\n    tag_61:\n        /* \"#utility.yul\":2322:2328   */\n      0x00\n        /* \"#utility.yul\":2349:2369   */\n      tag_115\n      tag_54\n      jump\t// in\n    tag_115:\n        /* \"#utility.yul\":2339:2369   */\n      swap1\n      pop\n        /* \"#utility.yul\":2378:2411   */\n      tag_116\n        /* \"#utility.yul\":2406:2410   */\n      dup3\n        /* \"#utility.yul\":2398:2404   */\n      dup3\n        /* \"#utility.yul\":2378:2411   */\n      tag_60\n      jump\t// in\n    tag_116:\n        /* \"#utility.yul\":2288:2417   */\n      swap2\n      swap1\n      pop\n      jump\t// out\n        /* \"#utility.yul\":2423:2731   */\n    tag_62:\n        /* \"#utility.yul\":2485:2489   */\n      0x00\n        /* \"#utility.yul\":2575:2593   */\n      0xffffffffffffffff\n        /* \"#utility.yul\":2567:2573   */\n      dup3\n        /* \"#utility.yul\":2564:2594   */\n      gt\n        /* \"#utility.yul\":2561:2617   */\n      iszero\n      tag_118\n      jumpi\n        /* \"#utility.yul\":2597:2615   */\n      tag_119\n      tag_59\n      jump\t// in\n    tag_119:\n        /* \"#utility.yul\":2561:2617   */\n    tag_118:\n        /* \"#utility.yul\":2635:2664   */\n      tag_120\n        /* \"#utility.yul\":2657:2663   */\n      dup3\n        /* \"#utility.yul\":2635:2664   */\n      tag_52\n      jump\t// in\n    tag_120:\n        /* \"#utility.yul\":2627:2664   */\n      swap1\n      pop\n        /* \"#utility.yul\":2719:2723   */\n      0x20\n        /* \"#utility.yul\":2713:2717   */\n      dup2\n        /* \"#utility.yul\":2709:2724   */\n      add\n        /* \"#utility.yul\":2701:2724   */\n      swap1\n      pop\n        /* \"#utility.yul\":2423:2731   */\n      swap2\n      swap1\n      pop\n      jump\t// out\n        /* \"#utility.yul\":2737:2885   */\n    tag_63:\n        /* \"#utility.yul\":2835:2841   */\n      dup3\n        /* \"#utility.yul\":2830:2833   */\n      dup2\n        /* \"#utility.yul\":2825:2828   */\n      dup4\n        /* \"#utility.yul\":2812:2842   */\n      calldatacopy\n        /* \"#utility.yul\":2876:2877   */\n      0x00\n        /* \"#utility.yul\":2867:2873   */\n      dup4\n        /* \"#utility.yul\":2862:2865   */\n      dup4\n        /* \"#utility.yul\":2858:2874   */\n      add\n        /* \"#utility.yul\":2851:2878   */\n      mstore\n        /* \"#utility.yul\":2737:2885   */\n      pop\n      pop\n      pop\n      jump\t// out\n        /* \"#utility.yul\":2891:3316   */\n    tag_64:\n        /* \"#utility.yul\":2969:2974   */\n      0x00\n        /* \"#utility.yul\":2994:3060   */\n      tag_123\n        /* \"#utility.yul\":3010:3059   */\n      tag_124\n        /* \"#utility.yul\":3052:3058   */\n      dup5\n        /* \"#utility.yul\":3010:3059   */\n      tag_62\n      jump\t// in\n    tag_124:\n        /* \"#utility.yul\":2994:3060   */\n      tag_61\n      jump\t// in\n    tag_123:\n        /* \"#utility.yul\":2985:3060   */\n      swap1\n      pop\n        /* \"#utility.yul\":3083:3089   */\n      dup3\n        /* \"#utility.yul\":3076:3081   */\n      dup2\n        /* \"#utility.yul\":3069:3090   */\n      mstore\n        /* \"#utility.yul\":3121:3125   */\n      0x20\n        /* \"#utility.yul\":3114:3119   */\n      dup2\n        /* \"#utility.yul\":3110:3126   */\n      add\n        /* \"#utility.yul\":3159:3162   */\n      dup5\n        /* \"#utility.yul\":3150:3156   */\n      dup5\n        /* \"#utility.yul\":3145:3148   */\n      dup5\n        /* \"#utility.yul\":3141:3157   */\n      add\n        /* \"#utility.yul\":3138:3163   */\n      gt\n        /* \"#utility.yul\":3135:3247   */\n      iszero\n      tag_125\n      jumpi\n        /* \"#utility.yul\":3166:3245   */\n      tag_126\n      tag_58\n      jump\t// in\n    tag_126:\n        /* \"#utility.yul\":3135:3247   */\n    tag_125:\n        /* \"#utility.yul\":3256:3310   */\n      tag_127\n        /* \"#utility.yul\":3303:3309   */\n      dup5\n        /* \"#utility.yul\":3298:3301   */\n      dup3\n        /* \"#utility.yul\":3293:3296   */\n      dup6\n        /* \"#utility.yul\":3256:3310   */\n      tag_63\n      jump\t// in\n    tag_127:\n        /* \"#utility.yul\":2975:3316   */\n      pop\n        /* \"#utility.yul\":2891:3316   */\n      swap4\n      swap3\n      pop\n      pop\n      pop\n      jump\t// out\n        /* \"#utility.yul\":3336:3676   */\n    tag_65:\n        /* \"#utility.yul\":3392:3397   */\n      0x00\n        /* \"#utility.yul\":3441:3444   */\n      dup3\n        /* \"#utility.yul\":3434:3438   */\n      0x1f\n        /* \"#utility.yul\":3426:3432   */\n      dup4\n        /* \"#utility.yul\":3422:3439   */\n      add\n        /* \"#utility.yul\":3418:3445   */\n      slt\n        /* \"#utility.yul\":3408:3530   */\n      tag_129\n      jumpi\n        /* \"#utility.yul\":3449:3528   */\n      tag_130\n      tag_57\n      jump\t// in\n    tag_130:\n        /* \"#utility.yul\":3408:3530   */\n    tag_129:\n        /* \"#utility.yul\":3566:3572   */\n      dup2\n        /* \"#utility.yul\":3553:3573   */\n      calldataload\n        /* \"#utility.yul\":3591:3670   */\n      tag_131\n        /* \"#utility.yul\":3666:3669   */\n      dup5\n        /* \"#utility.yul\":3658:3664   */\n      dup3\n        /* \"#utility.yul\":3651:3655   */\n      0x20\n        /* \"#utility.yul\":3643:3649   */\n      dup7\n        /* \"#utility.yul\":3639:3656   */\n      add\n        /* \"#utility.yul\":3591:3670   */\n      tag_64\n      jump\t// in\n    tag_131:\n        /* \"#utility.yul\":3582:3670   */\n      swap2\n      pop\n        /* \"#utility.yul\":3398:3676   */\n      pop\n        /* \"#utility.yul\":3336:3676   */\n      swap3\n      swap2\n      pop\n      pop\n      jump\t// out\n        /* \"#utility.yul\":3682:4191   */\n    tag_14:\n        /* \"#utility.yul\":3751:3757   */\n      0x00\n        /* \"#utility.yul\":3800:3802   */\n      0x20\n        /* \"#utility.yul\":3788:3797   */\n      dup3\n        /* \"#utility.yul\":3779:3786   */\n      dup5\n        /* \"#utility.yul\":3775:3798   */\n      sub\n        /* \"#utility.yul\":3771:3803   */\n      slt\n        /* \"#utility.yul\":3768:3887   */\n      iszero\n      tag_133\n      jumpi\n        /* \"#utility.yul\":3806:3885   */\n      tag_134\n      tag_55\n      jump\t// in\n    tag_134:\n        /* \"#utility.yul\":3768:3887   */\n    tag_133:\n        /* \"#utility.yul\":3954:3955   */\n      0x00\n        /* \"#utility.yul\":3943:3952   */\n      dup3\n        /* \"#utility.yul\":3939:3956   */\n      add\n        /* \"#utility.yul\":3926:3957   */\n      calldataload\n        /* \"#utility.yul\":3984:4002   */\n      0xffffffffffffffff\n        /* \"#utility.yul\":3976:3982   */\n      dup2\n        /* \"#utility.yul\":3973:4003   */\n      gt\n        /* \"#utility.yul\":3970:4087   */\n      iszero\n      tag_135\n      jumpi\n        /* \"#utility.yul\":4006:4085   */\n      tag_136\n      tag_56\n      jump\t// in\n    tag_136:\n        /* \"#utility.yul\":3970:4087   */\n    tag_135:\n        /* \"#utility.yul\":4111:4174   */\n      tag_137\n        /* \"#utility.yul\":4166:4173   */\n      dup5\n        /* \"#utility.yul\":4157:4163   */\n      dup3\n        /* \"#utility.yul\":4146:4155   */\n      dup6\n        /* \"#utility.yul\":4142:4164   */\n      add\n        /* \"#utility.yul\":4111:4174   */\n      tag_65\n      jump\t// in\n    tag_137:\n        /* \"#utility.yul\":4101:4174   */\n      swap2\n      pop\n        /* \"#utility.yul\":3897:4184   */\n      pop\n        /* \"#utility.yul\":3682:4191   */\n      swap3\n      swap2\n      pop\n      pop\n      jump\t// out\n        /* \"#utility.yul\":4197:4504   */\n    tag_66:\n        /* \"#utility.yul\":4258:4262   */\n      0x00\n        /* \"#utility.yul\":4348:4366   */\n      0xffffffffffffffff\n        /* \"#utility.yul\":4340:4346   */\n      dup3\n        /* \"#utility.yul\":4337:4367   */\n      gt\n        /* \"#utility.yul\":4334:4390   */\n      iszero\n      tag_139\n      jumpi\n        /* \"#utility.yul\":4370:4388   */\n      tag_140\n      tag_59\n      jump\t// in\n    tag_140:\n        /* \"#utility.yul\":4334:4390   */\n    tag_139:\n        /* \"#utility.yul\":4408:4437   */\n      tag_141\n        /* \"#utility.yul\":4430:4436   */\n      dup3\n        /* \"#utility.yul\":4408:4437   */\n      tag_52\n      jump\t// in\n    tag_141:\n        /* \"#utility.yul\":4400:4437   */\n      swap1\n      pop\n        /* \"#utility.yul\":4492:4496   */\n      0x20\n        /* \"#utility.yul\":4486:4490   */\n      dup2\n        /* \"#utility.yul\":4482:4497   */\n      add\n        /* \"#utility.yul\":4474:4497   */\n      swap1\n      pop\n        /* \"#utility.yul\":4197:4504   */\n      swap2\n      swap1\n      pop\n      jump\t// out\n        /* \"#utility.yul\":4510:4933   */\n    tag_67:\n        /* \"#utility.yul\":4587:4592   */\n      0x00\n        /* \"#utility.yul\":4612:4677   */\n      tag_143\n        /* \"#utility.yul\":4628:4676   */\n      tag_144\n        /* \"#utility.yul\":4669:4675   */\n      dup5\n        /* \"#utility.yul\":4628:4676   */\n      tag_66\n      jump\t// in\n    tag_144:\n        /* \"#utility.yul\":4612:4677   */\n      tag_61\n      jump\t// in\n    tag_143:\n        /* \"#utility.yul\":4603:4677   */\n      swap1\n      pop\n        /* \"#utility.yul\":4700:4706   */\n      dup3\n        /* \"#utility.yul\":4693:4698   */\n      dup2\n        /* \"#utility.yul\":4686:4707   */\n      mstore\n        /* \"#utility.yul\":4738:4742   */\n      0x20\n        /* \"#utility.yul\":4731:4736   */\n      dup2\n        /* \"#utility.yul\":4727:4743   */\n      add\n        /* \"#utility.yul\":4776:4779   */\n      dup5\n        /* \"#utility.yul\":4767:4773   */\n      dup5\n        /* \"#utility.yul\":4762:4765   */\n      dup5\n        /* \"#utility.yul\":4758:4774   */\n      add\n        /* \"#utility.yul\":4755:4780   */\n      gt\n        /* \"#utility.yul\":4752:4864   */\n      iszero\n      tag_145\n      jumpi\n        /* \"#utility.yul\":4783:4862   */\n      tag_146\n      tag_58\n      jump\t// in\n    tag_146:\n        /* \"#utility.yul\":4752:4864   */\n    tag_145:\n        /* \"#utility.yul\":4873:4927   */\n      tag_147\n        /* \"#utility.yul\":4920:4926   */\n      dup5\n        /* \"#utility.yul\":4915:4918   */\n      dup3\n        /* \"#utility.yul\":4910:4913   */\n      dup6\n        /* \"#utility.yul\":4873:4927   */\n      tag_63\n      jump\t// in\n    tag_147:\n        /* \"#utility.yul\":4593:4933   */\n      pop\n        /* \"#utility.yul\":4510:4933   */\n      swap4\n      swap3\n      pop\n      pop\n      pop\n      jump\t// out\n        /* \"#utility.yul\":4952:5290   */\n    tag_68:\n        /* \"#utility.yul\":5007:5012   */\n      0x00\n        /* \"#utility.yul\":5056:5059   */\n      dup3\n        /* \"#utility.yul\":5049:5053   */\n      0x1f\n        /* \"#utility.yul\":5041:5047   */\n      dup4\n        /* \"#utility.yul\":5037:5054   */\n      add\n        /* \"#utility.yul\":5033:5060   */\n      slt\n        /* \"#utility.yul\":5023:5145   */\n      tag_149\n      jumpi\n        /* \"#utility.yul\":5064:5143   */\n      tag_150\n      tag_57\n      jump\t// in\n    tag_150:\n        /* \"#utility.yul\":5023:5145   */\n    tag_149:\n        /* \"#utility.yul\":5181:5187   */\n      dup2\n        /* \"#utility.yul\":5168:5188   */\n      calldataload\n        /* \"#utility.yul\":5206:5284   */\n      tag_151\n        /* \"#utility.yul\":5280:5283   */\n      dup5\n        /* \"#utility.yul\":5272:5278   */\n      dup3\n        /* \"#utility.yul\":5265:5269   */\n      0x20\n        /* \"#utility.yul\":5257:5263   */\n      dup7\n        /* \"#utility.yul\":5253:5270   */\n      add\n        /* \"#utility.yul\":5206:5284   */\n      tag_67\n      jump\t// in\n    tag_151:\n        /* \"#utility.yul\":5197:5284   */\n      swap2\n      pop\n        /* \"#utility.yul\":5013:5290   */\n      pop\n        /* \"#utility.yul\":4952:5290   */\n      swap3\n      swap2\n      pop\n      pop\n      jump\t// out\n        /* \"#utility.yul\":5296:5803   */\n    tag_18:\n        /* \"#utility.yul\":5364:5370   */\n      0x00\n        /* \"#utility.yul\":5413:5415   */\n      0x20\n        /* \"#utility.yul\":5401:5410   */\n      dup3\n        /* \"#utility.yul\":5392:5399   */\n      dup5\n        /* \"#utility.yul\":5388:5411   */\n      sub\n        /* \"#utility.yul\":5384:5416   */\n      slt\n        /* \"#utility.yul\":5381:5500   */\n      iszero\n      tag_153\n      jumpi\n        /* \"#utility.yul\":5419:5498   */\n      tag_154\n      tag_55\n      jump\t// in\n    tag_154:\n        /* \"#utility.yul\":5381:5500   */\n    tag_153:\n        /* \"#utility.yul\":5567:5568   */\n      0x00\n        /* \"#utility.yul\":5556:5565   */\n      dup3\n        /* \"#utility.yul\":5552:5569   */\n      add\n        /* \"#utility.yul\":5539:5570   */\n      calldataload\n        /* \"#utility.yul\":5597:5615   */\n      0xffffffffffffffff\n        /* \"#utility.yul\":5589:5595   */\n      dup2\n        /* \"#utility.yul\":5586:5616   */\n      gt\n        /* \"#utility.yul\":5583:5700   */\n      iszero\n      tag_155\n      jumpi\n        /* \"#utility.yul\":5619:5698   */\n      tag_156\n      tag_56\n      jump\t// in\n    tag_156:\n        /* \"#utility.yul\":5583:5700   */\n    tag_155:\n        /* \"#utility.yul\":5724:5786   */\n      tag_157\n        /* \"#utility.yul\":5778:5785   */\n      dup5\n        /* \"#utility.yul\":5769:5775   */\n      dup3\n        /* \"#utility.yul\":5758:5767   */\n      dup6\n        /* \"#utility.yul\":5754:5776   */\n      add\n        /* \"#utility.yul\":5724:5786   */\n      tag_68\n      jump\t// in\n    tag_157:\n        /* \"#utility.yul\":5714:5786   */\n      swap2\n      pop\n        /* \"#utility.yul\":5510:5796   */\n      pop\n        /* \"#utility.yul\":5296:5803   */\n      swap3\n      swap2\n      pop\n      pop\n      jump\t// out\n        /* \"#utility.yul\":5809:5907   */\n    tag_69:\n        /* \"#utility.yul\":5860:5866   */\n      0x00\n        /* \"#utility.yul\":5894:5899   */\n      dup2\n        /* \"#utility.yul\":5888:5900   */\n      mload\n        /* \"#utility.yul\":5878:5900   */\n      swap1\n      pop\n        /* \"#utility.yul\":5809:5907   */\n      swap2\n      swap1\n      pop\n      jump\t// out\n        /* \"#utility.yul\":5913:6081   */\n    tag_70:\n        /* \"#utility.yul\":5996:6007   */\n      0x00\n        /* \"#utility.yul\":6030:6036   */\n      dup3\n        /* \"#utility.yul\":6025:6028   */\n      dup3\n        /* \"#utility.yul\":6018:6037   */\n      mstore\n        /* \"#utility.yul\":6070:6074   */\n      0x20\n        /* \"#utility.yul\":6065:6068   */\n      dup3\n        /* \"#utility.yul\":6061:6075   */\n      add\n        /* \"#utility.yul\":6046:6075   */\n      swap1\n      pop\n        /* \"#utility.yul\":5913:6081   */\n      swap3\n      swap2\n      pop\n      pop\n      jump\t// out\n        /* \"#utility.yul\":6087:6460   */\n    tag_71:\n        /* \"#utility.yul\":6173:6176   */\n      0x00\n        /* \"#utility.yul\":6201:6239   */\n      tag_161\n        /* \"#utility.yul\":6233:6238   */\n      dup3\n        /* \"#utility.yul\":6201:6239   */\n      tag_69\n      jump\t// in\n    tag_161:\n        /* \"#utility.yul\":6255:6325   */\n      tag_162\n        /* \"#utility.yul\":6318:6324   */\n      dup2\n        /* \"#utility.yul\":6313:6316   */\n      dup6\n        /* \"#utility.yul\":6255:6325   */\n      tag_70\n      jump\t// in\n    tag_162:\n        /* \"#utility.yul\":6248:6325   */\n      swap4\n      pop\n        /* \"#utility.yul\":6334:6399   */\n      tag_163\n        /* \"#utility.yul\":6392:6398   */\n      dup2\n        /* \"#utility.yul\":6387:6390   */\n      dup6\n        /* \"#utility.yul\":6380:6384   */\n      0x20\n        /* \"#utility.yul\":6373:6378   */\n      dup7\n        /* \"#utility.yul\":6369:6385   */\n      add\n        /* \"#utility.yul\":6334:6399   */\n      tag_51\n      jump\t// in\n    tag_163:\n        /* \"#utility.yul\":6424:6453   */\n      tag_164\n        /* \"#utility.yul\":6446:6452   */\n      dup2\n        /* \"#utility.yul\":6424:6453   */\n      tag_52\n      jump\t// in\n    tag_164:\n        /* \"#utility.yul\":6419:6422   */\n      dup5\n        /* \"#utility.yul\":6415:6454   */\n      add\n        /* \"#utility.yul\":6408:6454   */\n      swap2\n      pop\n        /* \"#utility.yul\":6177:6460   */\n      pop\n        /* \"#utility.yul\":6087:6460   */\n      swap3\n      swap2\n      pop\n      pop\n      jump\t// out\n        /* \"#utility.yul\":6466:6775   */\n    tag_23:\n        /* \"#utility.yul\":6577:6581   */\n      0x00\n        /* \"#utility.yul\":6615:6617   */\n      0x20\n        /* \"#utility.yul\":6604:6613   */\n      dup3\n        /* \"#utility.yul\":6600:6618   */\n      add\n        /* \"#utility.yul\":6592:6618   */\n      swap1\n      pop\n        /* \"#utility.yul\":6664:6673   */\n      dup2\n        /* \"#utility.yul\":6658:6662   */\n      dup2\n        /* \"#utility.yul\":6654:6674   */\n      sub\n        /* \"#utility.yul\":6650:6651   */\n      0x00\n        /* \"#utility.yul\":6639:6648   */\n      dup4\n        /* \"#utility.yul\":6635:6652   */\n      add\n        /* \"#utility.yul\":6628:6675   */\n      mstore\n        /* \"#utility.yul\":6692:6768   */\n      tag_166\n        /* \"#utility.yul\":6763:6767   */\n      dup2\n        /* \"#utility.yul\":6754:6760   */\n      dup5\n        /* \"#utility.yul\":6692:6768   */\n      tag_71\n      jump\t// in\n    tag_166:\n        /* \"#utility.yul\":6684:6768   */\n      swap1\n      pop\n        /* \"#utility.yul\":6466:6775   */\n      swap3\n      swap2\n      pop\n      pop\n      jump\t// out\n        /* \"#utility.yul\":6781:6961   */\n    tag_72:\n        /* \"#utility.yul\":6829:6906   */\n      0x4e487b7100000000000000000000000000000000000000000000000000000000\n        /* \"#utility.yul\":6826:6827   */\n      0x00\n        /* \"#utility.yul\":6819:6907   */\n      mstore\n        /* \"#utility.yul\":6926:6930   */\n      0x22\n        /* \"#utility.yul\":6923:6924   */\n      0x04\n        /* \"#utility.yul\":6916:6931   */\n      mstore\n        /* \"#utility.yul\":6950:6954   */\n      0x24\n        /* \"#utility.yul\":6947:6948   */\n      0x00\n        /* \"#utility.yul\":6940:6955   */\n      revert\n        /* \"#utility.yul\":6967:7287   */\n    tag_29:\n        /* \"#utility.yul\":7011:7017   */\n      0x00\n        /* \"#utility.yul\":7048:7049   */\n      0x02\n        /* \"#utility.yul\":7042:7046   */\n      dup3\n        /* \"#utility.yul\":7038:7050   */\n      div\n        /* \"#utility.yul\":7028:7050   */\n      swap1\n      pop\n        /* \"#utility.yul\":7095:7096   */\n      0x01\n        /* \"#utility.yul\":7089:7093   */\n      dup3\n        /* \"#utility.yul\":7085:7097   */\n      and\n        /* \"#utility.yul\":7116:7134   */\n      dup1\n        /* \"#utility.yul\":7106:7187   */\n      tag_169\n      jumpi\n        /* \"#utility.yul\":7172:7176   */\n      0x7f\n        /* \"#utility.yul\":7164:7170   */\n      dup3\n        /* \"#utility.yul\":7160:7177   */\n      and\n        /* \"#utility.yul\":7150:7177   */\n      swap2\n      pop\n        /* \"#utility.yul\":7106:7187   */\n    tag_169:\n        /* \"#utility.yul\":7234:7236   */\n      0x20\n        /* \"#utility.yul\":7226:7232   */\n      dup3\n        /* \"#utility.yul\":7223:7237   */\n      lt\n        /* \"#utility.yul\":7203:7221   */\n      dup2\n        /* \"#utility.yul\":7200:7238   */\n      sub\n        /* \"#utility.yul\":7197:7281   */\n      tag_170\n      jumpi\n        /* \"#utility.yul\":7253:7271   */\n      tag_171\n      tag_72\n      jump\t// in\n    tag_171:\n        /* \"#utility.yul\":7197:7281   */\n    tag_170:\n        /* \"#utility.yul\":7018:7287   */\n      pop\n        /* \"#utility.yul\":6967:7287   */\n      swap2\n      swap1\n      pop\n      jump\t// out\n        /* \"#utility.yul\":7293:7433   */\n    tag_73:\n        /* \"#utility.yul\":7341:7345   */\n      0x00\n        /* \"#utility.yul\":7364:7367   */\n      dup2\n        /* \"#utility.yul\":7356:7367   */\n      swap1\n      pop\n        /* \"#utility.yul\":7387:7390   */\n      dup2\n        /* \"#utility.yul\":7384:7385   */\n      0x00\n        /* \"#utility.yul\":7377:7391   */\n      mstore\n        /* \"#utility.yul\":7421:7425   */\n      0x20\n        /* \"#utility.yul\":7418:7419   */\n      0x00\n        /* \"#utility.yul\":7408:7426   */\n      keccak256\n        /* \"#utility.yul\":7400:7426   */\n      swap1\n      pop\n        /* \"#utility.yul\":7293:7433   */\n      swap2\n      swap1\n      pop\n      jump\t// out\n        /* \"#utility.yul\":7439:7532   */\n    tag_74:\n        /* \"#utility.yul\":7476:7482   */\n      0x00\n        /* \"#utility.yul\":7523:7525   */\n      0x20\n        /* \"#utility.yul\":7518:7520   */\n      0x1f\n        /* \"#utility.yul\":7511:7516   */\n      dup4\n        /* \"#utility.yul\":7507:7521   */\n      add\n        /* \"#utility.yul\":7503:7526   */\n      div\n        /* \"#utility.yul\":7493:7526   */\n      swap1\n      pop\n        /* \"#utility.yul\":7439:7532   */\n      swap2\n      swap1\n      pop\n      jump\t// out\n        /* \"#utility.yul\":7538:7645   */\n    tag_75:\n        /* \"#utility.yul\":7582:7590   */\n      0x00\n        /* \"#utility.yul\":7632:7637   */\n      dup3\n        /* \"#utility.yul\":7626:7630   */\n      dup3\n        /* \"#utility.yul\":7622:7638   */\n      shl\n        /* \"#utility.yul\":7601:7638   */\n      swap1\n      pop\n        /* \"#utility.yul\":7538:7645   */\n      swap3\n      swap2\n      pop\n      pop\n      jump\t// out\n        /* \"#utility.yul\":7651:8044   */\n    tag_76:\n        /* \"#utility.yul\":7720:7726   */\n      0x00\n        /* \"#utility.yul\":7770:7771   */\n      0x08\n        /* \"#utility.yul\":7758:7768   */\n      dup4\n        /* \"#utility.yul\":7754:7772   */\n      mul\n        /* \"#utility.yul\":7793:7890   */\n      tag_176\n        /* \"#utility.yul\":7823:7889   */\n      0xffffffffffffffffffffffffffffffffffffffffffffffffffffffffffffffff\n        /* \"#utility.yul\":7812:7821   */\n      dup3\n        /* \"#utility.yul\":7793:7890   */\n      tag_75\n      jump\t// in\n    tag_176:\n        /* \"#utility.yul\":7911:7950   */\n      tag_177\n        /* \"#utility.yul\":7941:7949   */\n      dup7\n        /* \"#utility.yul\":7930:7939   */\n      dup4\n        /* \"#utility.yul\":7911:7950   */\n      tag_75\n      jump\t// in\n    tag_177:\n        /* \"#utility.yul\":7899:7950   */\n      swap6\n      pop\n        /* \"#utility.yul\":7983:7987   */\n      dup1\n        /* \"#utility.yul\":7979:7988   */\n      not\n        /* \"#utility.yul\":7972:7977   */\n      dup5\n        /* \"#utility.yul\":7968:7989   */\n      and\n        /* \"#utility.yul\":7959:7989   */\n      swap4\n      pop\n        /* \"#utility.yul\":8032:8036   */\n      dup1\n        /* \"#utility.yul\":8022:8030   */\n      dup7\n        /* \"#utility.yul\":8018:8037   */\n      and\n        /* \"#utility.yul\":8011:8016   */\n      dup5\n        /* \"#utility.yul\":8008:8038   */\n      or\n        /* \"#utility.yul\":7998:8038   */\n      swap3\n      pop\n        /* \"#utility.yul\":7727:8044   */\n      pop\n      pop\n        /* \"#utility.yul\":7651:8044   */\n      swap4\n      swap3\n      pop\n      pop\n      pop\n      jump\t// out\n        /* \"#utility.yul\":8050:8127   */\n    tag_77:\n        /* \"#utility.yul\":8087:8094   */\n      0x00\n        /* \"#utility.yul\":8116:8121   */\n      dup2\n        /* \"#utility.yul\":8105:8121   */\n      swap1\n      pop\n        /* \"#utility.yul\":8050:8127   */\n      swap2\n      swap1\n      pop\n      jump\t// out\n        /* \"#utility.yul\":8133:8193   */\n    tag_78:\n        /* \"#utility.yul\":8161:8164   */\n      0x00\n        /* \"#utility.yul\":8182:8187   */\n      dup2\n        /* \"#utility.yul\":8175:8187   */\n      swap1\n      pop\n        /* \"#utility.yul\":8133:8193   */\n      swap2\n      swap1\n      pop\n      jump\t// out\n        /* \"#utility.yul\":8199:8341   */\n    tag_79:\n        /* \"#utility.yul\":8249:8258   */\n      0x00\n        /* \"#utility.yul\":8282:8335   */\n      tag_181\n        /* \"#utility.yul\":8300:8334   */\n      tag_182\n        /* \"#utility.yul\":8309:8333   */\n      tag_183\n        /* \"#utility.yul\":8327:8332   */\n      dup5\n        /* \"#utility.yul\":8309:8333   */\n      tag_77\n      jump\t// in\n    tag_183:\n        /* \"#utility.yul\":8300:8334   */\n      tag_78\n      jump\t// in\n    tag_182:\n        /* \"#utility.yul\":8282:8335   */\n      tag_77\n      jump\t// in\n    tag_181:\n        /* \"#utility.yul\":8269:8335   */\n      swap1\n      pop\n        /* \"#utility.yul\":8199:8341   */\n      swap2\n      swap1\n      pop\n      jump\t// out\n        /* \"#utility.yul\":8347:8422   */\n    tag_80:\n        /* \"#utility.yul\":8390:8393   */\n      0x00\n        /* \"#utility.yul\":8411:8416   */\n      dup2\n        /* \"#utility.yul\":8404:8416   */\n      swap1\n      pop\n        /* \"#utility.yul\":8347:8422   */\n      swap2\n      swap1\n      pop\n      jump\t// out\n        /* \"#utility.yul\":8428:8697   */\n    tag_81:\n        /* \"#utility.yul\":8538:8577   */\n      tag_186\n        /* \"#utility.yul\":8569:8576   */\n      dup4\n        /* \"#utility.yul\":8538:8577   */\n      tag_79\n      jump\t// in\n    tag_186:\n        /* \"#utility.yul\":8599:8690   */\n      tag_187\n        /* \"#utility.yul\":8648:8689   */\n      tag_188\n        /* \"#utility.yul\":8672:8688   */\n      dup3\n        /* \"#utility.yul\":8648:8689   */\n      tag_80\n      jump\t// in\n    tag_188:\n        /* \"#utility.yul\":8640:8646   */\n      dup5\n        /* \"#utility.yul\":8633:8637   */\n      dup5\n        /* \"#utility.yul\":8627:8638   */\n      sload\n        /* \"#utility.yul\":8599:8690   */\n      tag_76\n      jump\t// in\n    tag_187:\n        /* \"#utility.yul\":8593:8597   */\n      dup3\n        /* \"#utility.yul\":8586:8691   */\n      sstore\n        /* \"#utility.yul\":8504:8697   */\n      pop\n        /* \"#utility.yul\":8428:8697   */\n      pop\n      pop\n      pop\n      jump\t// out\n        /* \"#utility.yul\":8703:8776   */\n    tag_82:\n        /* \"#utility.yul\":8748:8751   */\n      0x00\n        /* \"#utility.yul\":8769:8770   */\n      0x00\n        /* \"#utility.yul\":8762:8770   */\n      swap1\n      pop\n        /* \"#utility.yul\":8703:8776   */\n      swap1\n      jump\t// out\n        /* \"#utility.yul\":8782:8971   */\n    tag_83:\n        /* \"#utility.yul\":8859:8891   */\n      tag_191\n      tag_82\n      jump\t// in\n    tag_191:\n        /* \"#utility.yul\":8900:8965   */\n      tag_192\n        /* \"#utility.yul\":8958:8964   */\n      dup2\n        /* \"#utility.yul\":8950:8956   */\n      dup5\n        /* \"#utility.yul\":8944:8948   */\n      dup5\n        /* \"#utility.yul\":8900:8965   */\n      tag_81\n      jump\t// in\n    tag_192:\n        /* \"#utility.yul\":8835:8971   */\n      pop\n        /* \"#utility.yul\":8782:8971   */\n      pop\n      pop\n      jump\t// out\n        /* \"#utility.yul\":8977:9191   */\n    tag_84:\n        /* \"#utility.yul\":9062:9063   */\n      0x00\n        /* \"#utility.yul\":9047:9185   */\n    tag_194:\n        /* \"#utility.yul\":9072:9081   */\n      dup3\n        /* \"#utility.yul\":9069:9070   */\n      dup2\n        /* \"#utility.yul\":9066:9082   */\n      lt\n        /* \"#utility.yul\":9047:9185   */\n      iszero\n      tag_196\n      jumpi\n        /* \"#utility.yul\":9124:9175   */\n      tag_197\n        /* \"#utility.yul\":9173:9174   */\n      0x00\n        /* \"#utility.yul\":9169:9170   */\n      dup3\n        /* \"#utility.yul\":9158:9167   */\n      dup5\n        /* \"#utility.yul\":9154:9171   */\n      add\n        /* \"#utility.yul\":9124:9175   */\n      tag_83\n      jump\t// in\n    tag_197:\n        /* \"#utility.yul\":9097:9098   */\n      0x01\n        /* \"#utility.yul\":9094:9095   */\n      dup2\n        /* \"#utility.yul\":9090:9099   */\n      add\n        /* \"#utility.yul\":9085:9099   */\n      swap1\n      pop\n        /* \"#utility.yul\":9047:9185   */\n      jump(tag_194)\n    tag_196:\n        /* \"#utility.yul\":9051:9065   */\n      pop\n        /* \"#utility.yul\":8977:9191   */\n      pop\n      pop\n      jump\t// out\n        /* \"#utility.yul\":9197:9941   */\n    tag_85:\n        /* \"#utility.yul\":9297:9299   */\n      0x1f\n        /* \"#utility.yul\":9292:9295   */\n      dup3\n        /* \"#utility.yul\":9289:9300   */\n      gt\n        /* \"#utility.yul\":9286:9934   */\n      iszero\n      tag_199\n      jumpi\n        /* \"#utility.yul\":9326:9336   */\n      dup3\n        /* \"#utility.yul\":9321:9324   */\n      dup3\n        /* \"#utility.yul\":9318:9337   */\n      gt\n        /* \"#utility.yul\":9315:9924   */\n      iszero\n      tag_200\n      jumpi\n        /* \"#utility.yul\":9372:9409   */\n      tag_201\n        /* \"#utility.yul\":9403:9408   */\n      dup2\n        /* \"#utility.yul\":9372:9409   */\n      tag_73\n      jump\t// in\n    tag_201:\n        /* \"#utility.yul\":9446:9468   */\n      tag_202\n        /* \"#utility.yul\":9464:9467   */\n      dup4\n        /* \"#utility.yul\":9446:9468   */\n      tag_74\n      jump\t// in\n    tag_202:\n        /* \"#utility.yul\":9505:9534   */\n      tag_203\n        /* \"#utility.yul\":9523:9533   */\n      dup6\n        /* \"#utility.yul\":9505:9534   */\n      tag_74\n      jump\t// in\n    tag_203:\n        /* \"#utility.yul\":9695:9697   */\n      0x20\n        /* \"#utility.yul\":9683:9693   */\n      dup7\n        /* \"#utility.yul\":9680:9698   */\n      lt\n        /* \"#utility.yul\":9677:9756   */\n      iszero\n      tag_204\n      jumpi\n        /* \"#utility.yul\":9737:9738   */\n      0x00\n        /* \"#utility.yul\":9721:9738   */\n      swap1\n      pop\n        /* \"#utility.yul\":9677:9756   */\n    tag_204:\n        /* \"#utility.yul\":9806:9818   */\n      dup1\n        /* \"#utility.yul\":9796:9804   */\n      dup4\n        /* \"#utility.yul\":9792:9819   */\n      add\n        /* \"#utility.yul\":9836:9910   */\n      tag_205\n        /* \"#utility.yul\":9896:9908   */\n      dup3\n        /* \"#utility.yul\":9882:9894   */\n      dup5\n        /* \"#utility.yul\":9878:9909   */\n      sub\n        /* \"#utility.yul\":9865:9876   */\n      dup3\n        /* \"#utility.yul\":9836:9910   */\n      tag_84\n      jump\t// in\n    tag_205:\n        /* \"#utility.yul\":9338:9924   */\n      pop\n      pop\n      pop\n      pop\n        /* \"#utility.yul\":9315:9924   */\n    tag_200:\n        /* \"#utility.yul\":9286:9934   */\n    tag_199:\n        /* \"#utility.yul\":9197:9941   */\n      pop\n      pop\n      pop\n      jump\t// out\n        /* \"#utility.yul\":9947:10064   */\n    tag_86:\n        /* \"#utility.yul\":10001:10009   */\n      0x00\n        /* \"#utility.yul\":10051:10056   */\n      dup3\n        /* \"#utility.yul\":10045:10049   */\n      dup3\n        /* \"#utility.yul\":10041:10057   */\n      shr\n        /* \"#utility.yul\":10020:10057   */\n      swap1\n      pop\n        /* \"#utility.yul\":9947:10064   */\n      swap3\n      swap2\n      pop\n      pop\n      jump\t// out\n        /* \"#utility.yul\":10070:10239   */\n    tag_87:\n        /* \"#utility.yul\":10114:10120   */\n      0x00\n        /* \"#utility.yul\":10147:10198   */\n      tag_208\n        /* \"#utility.yul\":10195:10196   */\n      0x00\n        /* \"#utility.yul\":10191:10197   */\n      not\n        /* \"#utility.yul\":10183:10188   */\n      dup5\n        /* \"#utility.yul\":10180:10181   */\n      0x08\n        /* \"#utility.yul\":10176:10189   */\n      mul\n        /* \"#utility.yul\":10147:10198   */\n      tag_86\n      jump\t// in\n    tag_208:\n        /* \"#utility.yul\":10143:10199   */\n      not\n        /* \"#utility.yul\":10228:10232   */\n      dup1\n        /* \"#utility.yul\":10222:10226   */\n      dup4\n        /* \"#utility.yul\":10218:10233   */\n      and\n        /* \"#utility.yul\":10208:10233   */\n      swap2\n      pop\n        /* \"#utility.yul\":10121:10239   */\n      pop\n        /* \"#utility.yul\":10070:10239   */\n      swap3\n      swap2\n      pop\n      pop\n      jump\t// out\n        /* \"#utility.yul\":10244:10539   */\n    tag_88:\n        /* \"#utility.yul\":10320:10324   */\n      0x00\n        /* \"#utility.yul\":10466:10495   */\n      tag_210\n        /* \"#utility.yul\":10491:10494   */\n      dup4\n        /* \"#utility.yul\":10485:10489   */\n      dup4\n        /* \"#utility.yul\":10466:10495   */\n      tag_87\n      jump\t// in\n    tag_210:\n        /* \"#utility.yul\":10458:10495   */\n      swap2\n      pop\n        /* \"#utility.yul\":10528:10531   */\n      dup3\n        /* \"#utility.yul\":10525:10526   */\n      0x02\n        /* \"#utility.yul\":10521:10532   */\n      mul\n        /* \"#utility.yul\":10515:10519   */\n      dup3\n        /* \"#utility.yul\":10512:10533   */\n      or\n        /* \"#utility.yul\":10504:10533   */\n      swap1\n      pop\n        /* \"#utility.yul\":10244:10539   */\n      swap3\n      swap2\n      pop\n      pop\n      jump\t// out\n        /* \"#utility.yul\":10544:11934   */\n    tag_36:\n        /* \"#utility.yul\":10659:10695   */\n      tag_212\n        /* \"#utility.yul\":10691:10694   */\n      dup3\n        /* \"#utility.yul\":10659:10695   */\n      tag_69\n      jump\t// in\n    tag_212:\n        /* \"#utility.yul\":10760:10778   */\n      0xffffffffffffffff\n        /* \"#utility.yul\":10752:10758   */\n      dup2\n        /* \"#utility.yul\":10749:10779   */\n      gt\n        /* \"#utility.yul\":10746:10802   */\n      iszero\n      tag_213\n      jumpi\n        /* \"#utility.yul\":10782:10800   */\n      tag_214\n      tag_59\n      jump\t// in\n    tag_214:\n        /* \"#utility.yul\":10746:10802   */\n    tag_213:\n        /* \"#utility.yul\":10826:10864   */\n      tag_215\n        /* \"#utility.yul\":10858:10862   */\n      dup3\n        /* \"#utility.yul\":10852:10863   */\n      sload\n        /* \"#utility.yul\":10826:10864   */\n      tag_29\n      jump\t// in\n    tag_215:\n        /* \"#utility.yul\":10911:10977   */\n      tag_216\n        /* \"#utility.yul\":10970:10976   */\n      dup3\n        /* \"#utility.yul\":10962:10968   */\n      dup3\n        /* \"#utility.yul\":10956:10960   */\n      dup6\n        /* \"#utility.yul\":10911:10977   */\n      tag_85\n      jump\t// in\n    tag_216:\n        /* \"#utility.yul\":11004:11005   */\n      0x00\n        /* \"#utility.yul\":11028:11032   */\n      0x20\n        /* \"#utility.yul\":11015:11032   */\n      swap1\n      pop\n        /* \"#utility.yul\":11060:11062   */\n      0x1f\n        /* \"#utility.yul\":11052:11058   */\n      dup4\n        /* \"#utility.yul\":11049:11063   */\n      gt\n        /* \"#utility.yul\":11077:11078   */\n      0x01\n        /* \"#utility.yul\":11072:11689   */\n      dup2\n      eq\n      tag_218\n      jumpi\n        /* \"#utility.yul\":11733:11734   */\n      0x00\n        /* \"#utility.yul\":11750:11756   */\n      dup5\n        /* \"#utility.yul\":11747:11824   */\n      iszero\n      tag_219\n      jumpi\n        /* \"#utility.yul\":11799:11808   */\n      dup3\n        /* \"#utility.yul\":11794:11797   */\n      dup8\n        /* \"#utility.yul\":11790:11809   */\n      add\n        /* \"#utility.yul\":11784:11810   */\n      mload\n        /* \"#utility.yul\":11775:11810   */\n      swap1\n      pop\n        /* \"#utility.yul\":11747:11824   */\n    tag_219:\n        /* \"#utility.yul\":11850:11917   */\n      tag_220\n        /* \"#utility.yul\":11910:11916   */\n      dup6\n        /* \"#utility.yul\":11903:11908   */\n      dup3\n        /* \"#utility.yul\":11850:11917   */\n      tag_88\n      jump\t// in\n    tag_220:\n        /* \"#utility.yul\":11844:11848   */\n      dup7\n        /* \"#utility.yul\":11837:11918   */\n      sstore\n        /* \"#utility.yul\":11706:11928   */\n      pop\n        /* \"#utility.yul\":11042:11928   */\n      jump(tag_217)\n        /* \"#utility.yul\":11072:11689   */\n    tag_218:\n        /* \"#utility.yul\":11124:11128   */\n      0x1f\n        /* \"#utility.yul\":11120:11129   */\n      not\n        /* \"#utility.yul\":11112:11118   */\n      dup5\n        /* \"#utility.yul\":11108:11130   */\n      and\n        /* \"#utility.yul\":11158:11194   */\n      tag_221\n        /* \"#utility.yul\":11189:11193   */\n      dup7\n        /* \"#utility.yul\":11158:11194   */\n      tag_73\n      jump\t// in\n    tag_221:\n        /* \"#utility.yul\":11216:11217   */\n      0x00\n        /* \"#utility.yul\":11230:11438   */\n    tag_222:\n        /* \"#utility.yul\":11244:11251   */\n      dup3\n        /* \"#utility.yul\":11241:11242   */\n      dup2\n        /* \"#utility.yul\":11238:11252   */\n      lt\n        /* \"#utility.yul\":11230:11438   */\n      iszero\n      tag_224\n      jumpi\n        /* \"#utility.yul\":11323:11332   */\n      dup5\n        /* \"#utility.yul\":11318:11321   */\n      dup10\n        /* \"#utility.yul\":11314:11333   */\n      add\n        /* \"#utility.yul\":11308:11334   */\n      mload\n        /* \"#utility.yul\":11300:11306   */\n      dup3\n        /* \"#utility.yul\":11293:11335   */\n      sstore\n        /* \"#utility.yul\":11374:11375   */\n      0x01\n        /* \"#utility.yul\":11366:11372   */\n      dup3\n        /* \"#utility.yul\":11362:11376   */\n      add\n        /* \"#utility.yul\":11352:11376   */\n      swap2\n      pop\n        /* \"#utility.yul\":11421:11423   */\n      0x20\n        /* \"#utility.yul\":11410:11419   */\n      dup6\n        /* \"#utility.yul\":11406:11424   */\n      add\n        /* \"#utility.yul\":11393:11424   */\n      swap5\n      pop\n        /* \"#utility.yul\":11267:11271   */\n      0x20\n        /* \"#utility.yul\":11264:11265   */\n      dup2\n        /* \"#utility.yul\":11260:11272   */\n      add\n        /* \"#utility.yul\":11255:11272   */\n      swap1\n      pop\n        /* \"#utility.yul\":11230:11438   */\n      jump(tag_222)\n    tag_224:\n        /* \"#utility.yul\":11466:11472   */\n      dup7\n        /* \"#utility.yul\":11457:11464   */\n      dup4\n        /* \"#utility.yul\":11454:11473   */\n      lt\n        /* \"#utility.yul\":11451:11630   */\n      iszero\n      tag_225\n      jumpi\n        /* \"#utility.yul\":11524:11533   */\n      dup5\n        /* \"#utility.yul\":11519:11522   */\n      dup10\n        /* \"#utility.yul\":11515:11534   */\n      add\n        /* \"#utility.yul\":11509:11535   */\n      mload\n        /* \"#utility.yul\":11567:11615   */\n      tag_226\n        /* \"#utility.yul\":11609:11613   */\n      0x1f\n        /* \"#utility.yul\":11601:11607   */\n      dup10\n        /* \"#utility.yul\":11597:11614   */\n      and\n        /* \"#utility.yul\":11586:11595   */\n      dup3\n        /* \"#utility.yul\":11567:11615   */\n      tag_87\n      jump\t// in\n    tag_226:\n        /* \"#utility.yul\":11559:11565   */\n      dup4\n        /* \"#utility.yul\":11552:11616   */\n      sstore\n        /* \"#utility.yul\":11474:11630   */\n      pop\n        /* \"#utility.yul\":11451:11630   */\n    tag_225:\n        /* \"#utility.yul\":11676:11677   */\n      0x01\n        /* \"#utility.yul\":11672:11673   */\n      0x02\n        /* \"#utility.yul\":11664:11670   */\n      dup9\n        /* \"#utility.yul\":11660:11674   */\n      mul\n        /* \"#utility.yul\":11656:11678   */\n      add\n        /* \"#utility.yul\":11650:11654   */\n      dup9\n        /* \"#utility.yul\":11643:11679   */\n      sstore\n        /* \"#utility.yul\":11079:11689   */\n      pop\n      pop\n      pop\n        /* \"#utility.yul\":11042:11928   */\n    tag_217:\n      pop\n        /* \"#utility.yul\":10634:11934   */\n      pop\n      pop\n      pop\n        /* \"#utility.yul\":10544:11934   */\n      pop\n      pop\n      jump\t// out\n        /* \"#utility.yul\":11940:12087   */\n    tag_89:\n        /* \"#utility.yul\":12041:12052   */\n      0x00\n        /* \"#utility.yul\":12078:12081   */\n      dup2\n        /* \"#utility.yul\":12063:12081   */\n      swap1\n      pop\n        /* \"#utility.yul\":11940:12087   */\n      swap3\n      swap2\n      pop\n      pop\n      jump\t// out\n        /* \"#utility.yul\":12115:12985   */\n    tag_90:\n        /* \"#utility.yul\":12216:12219   */\n      0x00\n        /* \"#utility.yul\":12253:12258   */\n      dup2\n        /* \"#utility.yul\":12247:12259   */\n      sload\n        /* \"#utility.yul\":12282:12318   */\n      tag_229\n        /* \"#utility.yul\":12308:12317   */\n      dup2\n        /* \"#utility.yul\":12282:12318   */\n      tag_29\n      jump\t// in\n    tag_229:\n        /* \"#utility.yul\":12334:12422   */\n      tag_230\n        /* \"#utility.yul\":12415:12421   */\n      dup2\n        /* \"#utility.yul\":12410:12413   */\n      dup7\n        /* \"#utility.yul\":12334:12422   */\n      tag_89\n      jump\t// in\n    tag_230:\n        /* \"#utility.yul\":12327:12422   */\n      swap5\n      pop\n        /* \"#utility.yul\":12453:12454   */\n      0x01\n        /* \"#utility.yul\":12442:12451   */\n      dup3\n        /* \"#utility.yul\":12438:12455   */\n      and\n        /* \"#utility.yul\":12469:12470   */\n      0x00\n        /* \"#utility.yul\":12464:12630   */\n      dup2\n      eq\n      tag_232\n      jumpi\n        /* \"#utility.yul\":12644:12645   */\n      0x01\n        /* \"#utility.yul\":12639:12979   */\n      dup2\n      eq\n      tag_233\n      jumpi\n        /* \"#utility.yul\":12431:12979   */\n      jump(tag_231)\n        /* \"#utility.yul\":12464:12630   */\n    tag_232:\n        /* \"#utility.yul\":12548:12552   */\n      0xff\n        /* \"#utility.yul\":12544:12553   */\n      not\n        /* \"#utility.yul\":12533:12542   */\n      dup4\n        /* \"#utility.yul\":12529:12554   */\n      and\n        /* \"#utility.yul\":12524:12527   */\n      dup7\n        /* \"#utility.yul\":12517:12555   */\n      mstore\n        /* \"#utility.yul\":12610:12616   */\n      dup2\n        /* \"#utility.yul\":12603:12617   */\n      iszero\n        /* \"#utility.yul\":12596:12618   */\n      iszero\n        /* \"#utility.yul\":12588:12594   */\n      dup3\n        /* \"#utility.yul\":12584:12619   */\n      mul\n        /* \"#utility.yul\":12579:12582   */\n      dup7\n        /* \"#utility.yul\":12575:12620   */\n      add\n        /* \"#utility.yul\":12568:12620   */\n      swap4\n      pop\n        /* \"#utility.yul\":12464:12630   */\n      jump(tag_231)\n        /* \"#utility.yul\":12639:12979   */\n    tag_233:\n        /* \"#utility.yul\":12706:12743   */\n      tag_234\n        /* \"#utility.yul\":12737:12742   */\n      dup6\n        /* \"#utility.yul\":12706:12743   */\n      tag_73\n      jump\t// in\n    tag_234:\n        /* \"#utility.yul\":12765:12766   */\n      0x00\n        /* \"#utility.yul\":12779:12933   */\n    tag_235:\n        /* \"#utility.yul\":12793:12799   */\n      dup4\n        /* \"#utility.yul\":12790:12791   */\n      dup2\n        /* \"#utility.yul\":12787:12800   */\n      lt\n        /* \"#utility.yul\":12779:12933   */\n      iszero\n      tag_237\n      jumpi\n        /* \"#utility.yul\":12867:12874   */\n      dup2\n        /* \"#utility.yul\":12861:12875   */\n      sload\n        /* \"#utility.yul\":12857:12858   */\n      dup2\n        /* \"#utility.yul\":12852:12855   */\n      dup10\n        /* \"#utility.yul\":12848:12859   */\n      add\n        /* \"#utility.yul\":12841:12876   */\n      mstore\n        /* \"#utility.yul\":12917:12918   */\n      0x01\n        /* \"#utility.yul\":12908:12915   */\n      dup3\n        /* \"#utility.yul\":12904:12919   */\n      add\n        /* \"#utility.yul\":12893:12919   */\n      swap2\n      pop\n        /* \"#utility.yul\":12815:12819   */\n      0x20\n        /* \"#utility.yul\":12812:12813   */\n      dup2\n        /* \"#utility.yul\":12808:12820   */\n      add\n        /* \"#utility.yul\":12803:12820   */\n      swap1\n      pop\n        /* \"#utility.yul\":12779:12933   */\n      jump(tag_235)\n    tag_237:\n        /* \"#utility.yul\":12962:12968   */\n      dup4\n        /* \"#utility.yul\":12957:12960   */\n      dup9\n        /* \"#utility.yul\":12953:12969   */\n      add\n        /* \"#utility.yul\":12946:12969   */\n      swap6\n      pop\n        /* \"#utility.yul\":12646:12979   */\n      pop\n      pop\n        /* \"#utility.yul\":12431:12979   */\n    tag_231:\n      pop\n        /* \"#utility.yul\":12220:12985   */\n      pop\n      pop\n        /* \"#utility.yul\":12115:12985   */\n      swap3\n      swap2\n      pop\n      pop\n      jump\t// out\n        /* \"#utility.yul\":12991:13377   */\n    tag_91:\n        /* \"#utility.yul\":13095:13098   */\n      0x00\n        /* \"#utility.yul\":13123:13161   */\n      tag_239\n        /* \"#utility.yul\":13155:13160   */\n      dup3\n        /* \"#utility.yul\":13123:13161   */\n      tag_69\n      jump\t// in\n    tag_239:\n        /* \"#utility.yul\":13177:13265   */\n      tag_240\n        /* \"#utility.yul\":13258:13264   */\n      dup2\n        /* \"#utility.yul\":13253:13256   */\n      dup6\n        /* \"#utility.yul\":13177:13265   */\n      tag_89\n      jump\t// in\n    tag_240:\n        /* \"#utility.yul\":13170:13265   */\n      swap4\n      pop\n        /* \"#utility.yul\":13274:13339   */\n      tag_241\n        /* \"#utility.yul\":13332:13338   */\n      dup2\n        /* \"#utility.yul\":13327:13330   */\n      dup6\n        /* \"#utility.yul\":13320:13324   */\n      0x20\n        /* \"#utility.yul\":13313:13318   */\n      dup7\n        /* \"#utility.yul\":13309:13325   */\n      add\n        /* \"#utility.yul\":13274:13339   */\n      tag_51\n      jump\t// in\n    tag_241:\n        /* \"#utility.yul\":13364:13370   */\n      dup1\n        /* \"#utility.yul\":13359:13362   */\n      dup5\n        /* \"#utility.yul\":13355:13371   */\n      add\n        /* \"#utility.yul\":13348:13371   */\n      swap2\n      pop\n        /* \"#utility.yul\":13099:13377   */\n      pop\n        /* \"#utility.yul\":12991:13377   */\n      swap3\n      swap2\n      pop\n      pop\n      jump\t// out\n        /* \"#utility.yul\":13383:13804   */\n    tag_39:\n        /* \"#utility.yul\":13556:13559   */\n      0x00\n        /* \"#utility.yul\":13578:13668   */\n      tag_243\n        /* \"#utility.yul\":13664:13667   */\n      dup3\n        /* \"#utility.yul\":13655:13661   */\n      dup6\n        /* \"#utility.yul\":13578:13668   */\n      tag_90\n      jump\t// in\n    tag_243:\n        /* \"#utility.yul\":13571:13668   */\n      swap2\n      pop\n        /* \"#utility.yul\":13685:13778   */\n      tag_244\n        /* \"#utility.yul\":13774:13777   */\n      dup3\n        /* \"#utility.yul\":13765:13771   */\n      dup5\n        /* \"#utility.yul\":13685:13778   */\n      tag_91\n      jump\t// in\n    tag_244:\n        /* \"#utility.yul\":13678:13778   */\n      swap2\n      pop\n        /* \"#utility.yul\":13795:13798   */\n      dup2\n        /* \"#utility.yul\":13788:13798   */\n      swap1\n      pop\n        /* \"#utility.yul\":13383:13804   */\n      swap4\n      swap3\n      pop\n      pop\n      pop\n      jump\t// out\n\n    auxdata: 0xa26469706673582212204e757117d2f456f94a7858e08caeed3c7601bd3116e7c6f74c13fe62bff8e70064736f6c63430008220033\n}\n",
				"bytecode": {
					"linkReferences": {},
					"object": "6080604052348015600e575f5ffd5b506109c28061001c5f395ff3fe608060405234801561000f575f5ffd5b5060043610610055575f3560e01c806327687e16146100595780633982a723146100775780635cbc89f4146100935780637bf4fdd0146100af578063e2025590146100cd575b5f5ffd5b6100616100e9565b60405161006e91906102ce565b60405180910390f35b610091600480360381019061008c919061042b565b610178565b005b6100ad60048036038101906100a89190610510565b61018a565b005b6100b76101bd565b6040516100c491906105a9565b60405180910390f35b6100e760048036038101906100e29190610510565b61024c565b005b60605f80546100f7906105f6565b80601f0160208091040260200160405190810160405280929190818152602001828054610123906105f6565b801561016e5780601f106101455761010080835404028352916020019161016e565b820191905f5260205f20905b81548152906001019060200180831161015157829003601f168201915b5050505050905090565b805f908161018691906107e0565b5050565b5f8160405160200161019d929190610969565b6040516020818303038152906040525f90816101b991906107e0565b5050565b60605f80546101cb906105f6565b80601f01602080910402602001604051908101604052809291908181526020018280546101f7906105f6565b80156102425780601f1061021957610100808354040283529160200191610242565b820191905f5260205f20905b81548152906001019060200180831161022557829003601f168201915b5050505050905090565b805f908161025a91906107e0565b5050565b5f81519050919050565b5f82825260208201905092915050565b8281835e5f83830152505050565b5f601f19601f8301169050919050565b5f6102a08261025e565b6102aa8185610268565b93506102ba818560208601610278565b6102c381610286565b840191505092915050565b5f6020820190508181035f8301526102e68184610296565b905092915050565b5f604051905090565b5f5ffd5b5f5ffd5b5f5ffd5b5f5ffd5b7f4e487b71000000000000000000000000000000000000000000000000000000005f52604160045260245ffd5b61033d82610286565b810181811067ffffffffffffffff8211171561035c5761035b610307565b5b80604052505050565b5f61036e6102ee565b905061037a8282610334565b919050565b5f67ffffffffffffffff82111561039957610398610307565b5b6103a282610286565b9050602081019050919050565b828183375f83830152505050565b5f6103cf6103ca8461037f565b610365565b9050828152602081018484840111156103eb576103ea610303565b5b6103f68482856103af565b509392505050565b5f82601f830112610412576104116102ff565b5b81356104228482602086016103bd565b91505092915050565b5f602082840312156104405761043f6102f7565b5b5f82013567ffffffffffffffff81111561045d5761045c6102fb565b5b610469848285016103fe565b91505092915050565b5f67ffffffffffffffff82111561048c5761048b610307565b5b61049582610286565b9050602081019050919050565b5f6104b46104af84610472565b610365565b9050828152602081018484840111156104d0576104cf610303565b5b6104db8482856103af565b509392505050565b5f82601f8301126104f7576104f66102ff565b5b81356105078482602086016104a2565b91505092915050565b5f60208284031215610525576105246102f7565b5b5f82013567ffffffffffffffff811115610542576105416102fb565b5b61054e848285016104e3565b91505092915050565b5f81519050919050565b5f82825260208201905092915050565b5f61057b82610557565b6105858185610561565b9350610595818560208601610278565b61059e81610286565b840191505092915050565b5f6020820190508181035f8301526105c18184610571565b905092915050565b7f4e487b71000000000000000000000000000000000000000000000000000000005f52602260045260245ffd5b5f600282049050600182168061060d57607f821691505b6020821081036106205761061f6105c9565b5b50919050565b5f819050815f5260205f209050919050565b5f6020601f8301049050919050565b5f82821b905092915050565b5f600883026106827fffffffffffffffffffffffffffffffffffffffffffffffffffffffffffffffff82610647565b61068c8683610647565b95508019841693508086168417925050509392505050565b5f819050919050565b5f819050919050565b5f6106d06106cb6106c6846106a4565b6106ad565b6106a4565b9050919050565b5f819050919050565b6106e9836106b6565b6106fd6106f5826106d7565b848454610653565b825550505050565b5f5f905090565b610714610705565b61071f8184846106e0565b505050565b5f5b828110156107455761073a5f82840161070c565b600181019050610726565b505050565b601f82111561079857828211156107975761076481610626565b61076d83610638565b61077685610638565b6020861015610783575f90505b80830161079282840382610724565b505050505b5b505050565b5f82821c905092915050565b5f6107b85f198460080261079d565b1980831691505092915050565b5f6107d083836107a9565b9150826002028217905092915050565b6107e982610557565b67ffffffffffffffff81111561080257610801610307565b5b61080c82546105f6565b61081782828561074a565b5f60209050601f831160018114610848575f8415610836578287015190505b61084085826107c5565b8655506108a7565b601f19841661085686610626565b5f5b8281101561087d57848901518255600182019150602085019450602081019050610858565b8683101561089a5784890151610896601f8916826107a9565b8355505b6001600288020188555050505b505050505050565b5f81905092915050565b5f81546108c5816105f6565b6108cf81866108af565b9450600182165f81146108e957600181146108fe57610930565b60ff1983168652811515820286019350610930565b61090785610626565b5f5b8381101561092857815481890152600182019150602081019050610909565b838801955050505b50505092915050565b5f61094382610557565b61094d81856108af565b935061095d818560208601610278565b80840191505092915050565b5f61097482856108b9565b91506109808284610939565b9150819050939250505056fea26469706673582212204e757117d2f456f94a7858e08caeed3c7601bd3116e7c6f74c13fe62bff8e70064736f6c63430008220033",
					"opcodes": "PUSH1 0x80 PUSH1 0x40 MSTORE CALLVALUE DUP1 ISZERO PUSH1 0xE JUMPI PUSH0 PUSH0 REVERT JUMPDEST POP PUSH2 0x9C2 DUP1 PUSH2 0x1C PUSH0 CODECOPY PUSH0 RETURN INVALID PUSH1 0x80 PUSH1 0x40 MSTORE CALLVALUE DUP1 ISZERO PUSH2 0xF JUMPI PUSH0 PUSH0 REVERT JUMPDEST POP PUSH1 0x4 CALLDATASIZE LT PUSH2 0x55 JUMPI PUSH0 CALLDATALOAD PUSH1 0xE0 SHR DUP1 PUSH4 0x27687E16 EQ PUSH2 0x59 JUMPI DUP1 PUSH4 0x3982A723 EQ PUSH2 0x77 JUMPI DUP1 PUSH4 0x5CBC89F4 EQ PUSH2 0x93 JUMPI DUP1 PUSH4 0x7BF4FDD0 EQ PUSH2 0xAF JUMPI DUP1 PUSH4 0xE2025590 EQ PUSH2 0xCD JUMPI JUMPDEST PUSH0 PUSH0 REVERT JUMPDEST PUSH2 0x61 PUSH2 0xE9 JUMP JUMPDEST PUSH1 0x40 MLOAD PUSH2 0x6E SWAP2 SWAP1 PUSH2 0x2CE JUMP JUMPDEST PUSH1 0x40 MLOAD DUP1 SWAP2 SUB SWAP1 RETURN JUMPDEST PUSH2 0x91 PUSH1 0x4 DUP1 CALLDATASIZE SUB DUP2 ADD SWAP1 PUSH2 0x8C SWAP2 SWAP1 PUSH2 0x42B JUMP JUMPDEST PUSH2 0x178 JUMP JUMPDEST STOP JUMPDEST PUSH2 0xAD PUSH1 0x4 DUP1 CALLDATASIZE SUB DUP2 ADD SWAP1 PUSH2 0xA8 SWAP2 SWAP1 PUSH2 0x510 JUMP JUMPDEST PUSH2 0x18A JUMP JUMPDEST STOP JUMPDEST PUSH2 0xB7 PUSH2 0x1BD JUMP JUMPDEST PUSH1 0x40 MLOAD PUSH2 0xC4 SWAP2 SWAP1 PUSH2 0x5A9 JUMP JUMPDEST PUSH1 0x40 MLOAD DUP1 SWAP2 SUB SWAP1 RETURN JUMPDEST PUSH2 0xE7 PUSH1 0x4 DUP1 CALLDATASIZE SUB DUP2 ADD SWAP1 PUSH2 0xE2 SWAP2 SWAP1 PUSH2 0x510 JUMP JUMPDEST PUSH2 0x24C JUMP JUMPDEST STOP JUMPDEST PUSH1 0x60 PUSH0 DUP1 SLOAD PUSH2 0xF7 SWAP1 PUSH2 0x5F6 JUMP JUMPDEST DUP1 PUSH1 0x1F ADD PUSH1 0x20 DUP1 SWAP2 DIV MUL PUSH1 0x20 ADD PUSH1 0x40 MLOAD SWAP1 DUP2 ADD PUSH1 0x40 MSTORE DUP1 SWAP3 SWAP2 SWAP1 DUP2 DUP2 MSTORE PUSH1 0x20 ADD DUP3 DUP1 SLOAD PUSH2 0x123 SWAP1 PUSH2 0x5F6 JUMP JUMPDEST DUP1 ISZERO PUSH2 0x16E JUMPI DUP1 PUSH1 0x1F LT PUSH2 0x145 JUMPI PUSH2 0x100 DUP1 DUP4 SLOAD DIV MUL DUP4 MSTORE SWAP2 PUSH1 0x20 ADD SWAP2 PUSH2 0x16E JUMP JUMPDEST DUP3 ADD SWAP2 SWAP1 PUSH0 MSTORE PUSH1 0x20 PUSH0 KECCAK256 SWAP1 JUMPDEST DUP2 SLOAD DUP2 MSTORE SWAP1 PUSH1 0x1 ADD SWAP1 PUSH1 0x20 ADD DUP1 DUP4 GT PUSH2 0x151 JUMPI DUP3 SWAP1 SUB PUSH1 0x1F AND DUP3 ADD SWAP2 JUMPDEST POP POP POP POP POP SWAP1 POP SWAP1 JUMP JUMPDEST DUP1 PUSH0 SWAP1 DUP2 PUSH2 0x186 SWAP2 SWAP1 PUSH2 0x7E0 JUMP JUMPDEST POP POP JUMP JUMPDEST PUSH0 DUP2 PUSH1 0x40 MLOAD PUSH1 0x20 ADD PUSH2 0x19D SWAP3 SWAP2 SWAP1 PUSH2 0x969 JUMP JUMPDEST PUSH1 0x40 MLOAD PUSH1 0x20 DUP2 DUP4 SUB SUB DUP2 MSTORE SWAP1 PUSH1 0x40 MSTORE PUSH0 SWAP1 DUP2 PUSH2 0x1B9 SWAP2 SWAP1 PUSH2 0x7E0 JUMP JUMPDEST POP POP JUMP JUMPDEST PUSH1 0x60 PUSH0 DUP1 SLOAD PUSH2 0x1CB SWAP1 PUSH2 0x5F6 JUMP JUMPDEST DUP1 PUSH1 0x1F ADD PUSH1 0x20 DUP1 SWAP2 DIV MUL PUSH1 0x20 ADD PUSH1 0x40 MLOAD SWAP1 DUP2 ADD PUSH1 0x40 MSTORE DUP1 SWAP3 SWAP2 SWAP1 DUP2 DUP2 MSTORE PUSH1 0x20 ADD DUP3 DUP1 SLOAD PUSH2 0x1F7 SWAP1 PUSH2 0x5F6 JUMP JUMPDEST DUP1 ISZERO PUSH2 0x242 JUMPI DUP1 PUSH1 0x1F LT PUSH2 0x219 JUMPI PUSH2 0x100 DUP1 DUP4 SLOAD DIV MUL DUP4 MSTORE SWAP2 PUSH1 0x20 ADD SWAP2 PUSH2 0x242 JUMP JUMPDEST DUP3 ADD SWAP2 SWAP1 PUSH0 MSTORE PUSH1 0x20 PUSH0 KECCAK256 SWAP1 JUMPDEST DUP2 SLOAD DUP2 MSTORE SWAP1 PUSH1 0x1 ADD SWAP1 PUSH1 0x20 ADD DUP1 DUP4 GT PUSH2 0x225 JUMPI DUP3 SWAP1 SUB PUSH1 0x1F AND DUP3 ADD SWAP2 JUMPDEST POP POP POP POP POP SWAP1 POP SWAP1 JUMP JUMPDEST DUP1 PUSH0 SWAP1 DUP2 PUSH2 0x25A SWAP2 SWAP1 PUSH2 0x7E0 JUMP JUMPDEST POP POP JUMP JUMPDEST PUSH0 DUP2 MLOAD SWAP1 POP SWAP2 SWAP1 POP JUMP JUMPDEST PUSH0 DUP3 DUP3 MSTORE PUSH1 0x20 DUP3 ADD SWAP1 POP SWAP3 SWAP2 POP POP JUMP JUMPDEST DUP3 DUP2 DUP4 MCOPY PUSH0 DUP4 DUP4 ADD MSTORE POP POP POP JUMP JUMPDEST PUSH0 PUSH1 0x1F NOT PUSH1 0x1F DUP4 ADD AND SWAP1 POP SWAP2 SWAP1 POP JUMP JUMPDEST PUSH0 PUSH2 0x2A0 DUP3 PUSH2 0x25E JUMP JUMPDEST PUSH2 0x2AA DUP2 DUP6 PUSH2 0x268 JUMP JUMPDEST SWAP4 POP PUSH2 0x2BA DUP2 DUP6 PUSH1 0x20 DUP7 ADD PUSH2 0x278 JUMP JUMPDEST PUSH2 0x2C3 DUP2 PUSH2 0x286 JUMP JUMPDEST DUP5 ADD SWAP2 POP POP SWAP3 SWAP2 POP POP JUMP JUMPDEST PUSH0 PUSH1 0x20 DUP3 ADD SWAP1 POP DUP2 DUP2 SUB PUSH0 DUP4 ADD MSTORE PUSH2 0x2E6 DUP2 DUP5 PUSH2 0x296 JUMP JUMPDEST SWAP1 POP SWAP3 SWAP2 POP POP JUMP JUMPDEST PUSH0 PUSH1 0x40 MLOAD SWAP1 POP SWAP1 JUMP JUMPDEST PUSH0 PUSH0 REVERT JUMPDEST PUSH0 PUSH0 REVERT JUMPDEST PUSH0 PUSH0 REVERT JUMPDEST PUSH0 PUSH0 REVERT JUMPDEST PUSH32 0x4E487B7100000000000000000000000000000000000000000000000000000000 PUSH0 MSTORE PUSH1 0x41 PUSH1 0x4 MSTORE PUSH1 0x24 PUSH0 REVERT JUMPDEST PUSH2 0x33D DUP3 PUSH2 0x286 JUMP JUMPDEST DUP2 ADD DUP2 DUP2 LT PUSH8 0xFFFFFFFFFFFFFFFF DUP3 GT OR ISZERO PUSH2 0x35C JUMPI PUSH2 0x35B PUSH2 0x307 JUMP JUMPDEST JUMPDEST DUP1 PUSH1 0x40 MSTORE POP POP POP JUMP JUMPDEST PUSH0 PUSH2 0x36E PUSH2 0x2EE JUMP JUMPDEST SWAP1 POP PUSH2 0x37A DUP3 DUP3 PUSH2 0x334 JUMP JUMPDEST SWAP2 SWAP1 POP JUMP JUMPDEST PUSH0 PUSH8 0xFFFFFFFFFFFFFFFF DUP3 GT ISZERO PUSH2 0x399 JUMPI PUSH2 0x398 PUSH2 0x307 JUMP JUMPDEST JUMPDEST PUSH2 0x3A2 DUP3 PUSH2 0x286 JUMP JUMPDEST SWAP1 POP PUSH1 0x20 DUP2 ADD SWAP1 POP SWAP2 SWAP1 POP JUMP JUMPDEST DUP3 DUP2 DUP4 CALLDATACOPY PUSH0 DUP4 DUP4 ADD MSTORE POP POP POP JUMP JUMPDEST PUSH0 PUSH2 0x3CF PUSH2 0x3CA DUP5 PUSH2 0x37F JUMP JUMPDEST PUSH2 0x365 JUMP JUMPDEST SWAP1 POP DUP3 DUP2 MSTORE PUSH1 0x20 DUP2 ADD DUP5 DUP5 DUP5 ADD GT ISZERO PUSH2 0x3EB JUMPI PUSH2 0x3EA PUSH2 0x303 JUMP JUMPDEST JUMPDEST PUSH2 0x3F6 DUP5 DUP3 DUP6 PUSH2 0x3AF JUMP JUMPDEST POP SWAP4 SWAP3 POP POP POP JUMP JUMPDEST PUSH0 DUP3 PUSH1 0x1F DUP4 ADD SLT PUSH2 0x412 JUMPI PUSH2 0x411 PUSH2 0x2FF JUMP JUMPDEST JUMPDEST DUP2 CALLDATALOAD PUSH2 0x422 DUP5 DUP3 PUSH1 0x20 DUP7 ADD PUSH2 0x3BD JUMP JUMPDEST SWAP2 POP POP SWAP3 SWAP2 POP POP JUMP JUMPDEST PUSH0 PUSH1 0x20 DUP3 DUP5 SUB SLT ISZERO PUSH2 0x440 JUMPI PUSH2 0x43F PUSH2 0x2F7 JUMP JUMPDEST JUMPDEST PUSH0 DUP3 ADD CALLDATALOAD PUSH8 0xFFFFFFFFFFFFFFFF DUP2 GT ISZERO PUSH2 0x45D JUMPI PUSH2 0x45C PUSH2 0x2FB JUMP JUMPDEST JUMPDEST PUSH2 0x469 DUP5 DUP3 DUP6 ADD PUSH2 0x3FE JUMP JUMPDEST SWAP2 POP POP SWAP3 SWAP2 POP POP JUMP JUMPDEST PUSH0 PUSH8 0xFFFFFFFFFFFFFFFF DUP3 GT ISZERO PUSH2 0x48C JUMPI PUSH2 0x48B PUSH2 0x307 JUMP JUMPDEST JUMPDEST PUSH2 0x495 DUP3 PUSH2 0x286 JUMP JUMPDEST SWAP1 POP PUSH1 0x20 DUP2 ADD SWAP1 POP SWAP2 SWAP1 POP JUMP JUMPDEST PUSH0 PUSH2 0x4B4 PUSH2 0x4AF DUP5 PUSH2 0x472 JUMP JUMPDEST PUSH2 0x365 JUMP JUMPDEST SWAP1 POP DUP3 DUP2 MSTORE PUSH1 0x20 DUP2 ADD DUP5 DUP5 DUP5 ADD GT ISZERO PUSH2 0x4D0 JUMPI PUSH2 0x4CF PUSH2 0x303 JUMP JUMPDEST JUMPDEST PUSH2 0x4DB DUP5 DUP3 DUP6 PUSH2 0x3AF JUMP JUMPDEST POP SWAP4 SWAP3 POP POP POP JUMP JUMPDEST PUSH0 DUP3 PUSH1 0x1F DUP4 ADD SLT PUSH2 0x4F7 JUMPI PUSH2 0x4F6 PUSH2 0x2FF JUMP JUMPDEST JUMPDEST DUP2 CALLDATALOAD PUSH2 0x507 DUP5 DUP3 PUSH1 0x20 DUP7 ADD PUSH2 0x4A2 JUMP JUMPDEST SWAP2 POP POP SWAP3 SWAP2 POP POP JUMP JUMPDEST PUSH0 PUSH1 0x20 DUP3 DUP5 SUB SLT ISZERO PUSH2 0x525 JUMPI PUSH2 0x524 PUSH2 0x2F7 JUMP JUMPDEST JUMPDEST PUSH0 DUP3 ADD CALLDATALOAD PUSH8 0xFFFFFFFFFFFFFFFF DUP2 GT ISZERO PUSH2 0x542 JUMPI PUSH2 0x541 PUSH2 0x2FB JUMP JUMPDEST JUMPDEST PUSH2 0x54E DUP5 DUP3 DUP6 ADD PUSH2 0x4E3 JUMP JUMPDEST SWAP2 POP POP SWAP3 SWAP2 POP POP JUMP JUMPDEST PUSH0 DUP2 MLOAD SWAP1 POP SWAP2 SWAP1 POP JUMP JUMPDEST PUSH0 DUP3 DUP3 MSTORE PUSH1 0x20 DUP3 ADD SWAP1 POP SWAP3 SWAP2 POP POP JUMP JUMPDEST PUSH0 PUSH2 0x57B DUP3 PUSH2 0x557 JUMP JUMPDEST PUSH2 0x585 DUP2 DUP6 PUSH2 0x561 JUMP JUMPDEST SWAP4 POP PUSH2 0x595 DUP2 DUP6 PUSH1 0x20 DUP7 ADD PUSH2 0x278 JUMP JUMPDEST PUSH2 0x59E DUP2 PUSH2 0x286 JUMP JUMPDEST DUP5 ADD SWAP2 POP POP SWAP3 SWAP2 POP POP JUMP JUMPDEST PUSH0 PUSH1 0x20 DUP3 ADD SWAP1 POP DUP2 DUP2 SUB PUSH0 DUP4 ADD MSTORE PUSH2 0x5C1 DUP2 DUP5 PUSH2 0x571 JUMP JUMPDEST SWAP1 POP SWAP3 SWAP2 POP POP JUMP JUMPDEST PUSH32 0x4E487B7100000000000000000000000000000000000000000000000000000000 PUSH0 MSTORE PUSH1 0x22 PUSH1 0x4 MSTORE PUSH1 0x24 PUSH0 REVERT JUMPDEST PUSH0 PUSH1 0x2 DUP3 DIV SWAP1 POP PUSH1 0x1 DUP3 AND DUP1 PUSH2 0x60D JUMPI PUSH1 0x7F DUP3 AND SWAP2 POP JUMPDEST PUSH1 0x20 DUP3 LT DUP2 SUB PUSH2 0x620 JUMPI PUSH2 0x61F PUSH2 0x5C9 JUMP JUMPDEST JUMPDEST POP SWAP2 SWAP1 POP JUMP JUMPDEST PUSH0 DUP2 SWAP1 POP DUP2 PUSH0 MSTORE PUSH1 0x20 PUSH0 KECCAK256 SWAP1 POP SWAP2 SWAP1 POP JUMP JUMPDEST PUSH0 PUSH1 0x20 PUSH1 0x1F DUP4 ADD DIV SWAP1 POP SWAP2 SWAP1 POP JUMP JUMPDEST PUSH0 DUP3 DUP3 SHL SWAP1 POP SWAP3 SWAP2 POP POP JUMP JUMPDEST PUSH0 PUSH1 0x8 DUP4 MUL PUSH2 0x682 PUSH32 0xFFFFFFFFFFFFFFFFFFFFFFFFFFFFFFFFFFFFFFFFFFFFFFFFFFFFFFFFFFFFFFFF DUP3 PUSH2 0x647 JUMP JUMPDEST PUSH2 0x68C DUP7 DUP4 PUSH2 0x647 JUMP JUMPDEST SWAP6 POP DUP1 NOT DUP5 AND SWAP4 POP DUP1 DUP7 AND DUP5 OR SWAP3 POP POP POP SWAP4 SWAP3 POP POP POP JUMP JUMPDEST PUSH0 DUP2 SWAP1 POP SWAP2 SWAP1 POP JUMP JUMPDEST PUSH0 DUP2 SWAP1 POP SWAP2 SWAP1 POP JUMP JUMPDEST PUSH0 PUSH2 0x6D0 PUSH2 0x6CB PUSH2 0x6C6 DUP5 PUSH2 0x6A4 JUMP JUMPDEST PUSH2 0x6AD JUMP JUMPDEST PUSH2 0x6A4 JUMP JUMPDEST SWAP1 POP SWAP2 SWAP1 POP JUMP JUMPDEST PUSH0 DUP2 SWAP1 POP SWAP2 SWAP1 POP JUMP JUMPDEST PUSH2 0x6E9 DUP4 PUSH2 0x6B6 JUMP JUMPDEST PUSH2 0x6FD PUSH2 0x6F5 DUP3 PUSH2 0x6D7 JUMP JUMPDEST DUP5 DUP5 SLOAD PUSH2 0x653 JUMP JUMPDEST DUP3 SSTORE POP POP POP POP JUMP JUMPDEST PUSH0 PUSH0 SWAP1 POP SWAP1 JUMP JUMPDEST PUSH2 0x714 PUSH2 0x705 JUMP JUMPDEST PUSH2 0x71F DUP2 DUP5 DUP5 PUSH2 0x6E0 JUMP JUMPDEST POP POP POP JUMP JUMPDEST PUSH0 JUMPDEST DUP3 DUP2 LT ISZERO PUSH2 0x745 JUMPI PUSH2 0x73A PUSH0 DUP3 DUP5 ADD PUSH2 0x70C JUMP JUMPDEST PUSH1 0x1 DUP2 ADD SWAP1 POP PUSH2 0x726 JUMP JUMPDEST POP POP POP JUMP JUMPDEST PUSH1 0x1F DUP3 GT ISZERO PUSH2 0x798 JUMPI DUP3 DUP3 GT ISZERO PUSH2 0x797 JUMPI PUSH2 0x764 DUP2 PUSH2 0x626 JUMP JUMPDEST PUSH2 0x76D DUP4 PUSH2 0x638 JUMP JUMPDEST PUSH2 0x776 DUP6 PUSH2 0x638 JUMP JUMPDEST PUSH1 0x20 DUP7 LT ISZERO PUSH2 0x783 JUMPI PUSH0 SWAP1 POP JUMPDEST DUP1 DUP4 ADD PUSH2 0x792 DUP3 DUP5 SUB DUP3 PUSH2 0x724 JUMP JUMPDEST POP POP POP POP JUMPDEST JUMPDEST POP POP POP JUMP JUMPDEST PUSH0 DUP3 DUP3 SHR SWAP1 POP SWAP3 SWAP2 POP POP JUMP JUMPDEST PUSH0 PUSH2 0x7B8 PUSH0 NOT DUP5 PUSH1 0x8 MUL PUSH2 0x79D JUMP JUMPDEST NOT DUP1 DUP4 AND SWAP2 POP POP SWAP3 SWAP2 POP POP JUMP JUMPDEST PUSH0 PUSH2 0x7D0 DUP4 DUP4 PUSH2 0x7A9 JUMP JUMPDEST SWAP2 POP DUP3 PUSH1 0x2 MUL DUP3 OR SWAP1 POP SWAP3 SWAP2 POP POP JUMP JUMPDEST PUSH2 0x7E9 DUP3 PUSH2 0x557 JUMP JUMPDEST PUSH8 0xFFFFFFFFFFFFFFFF DUP2 GT ISZERO PUSH2 0x802 JUMPI PUSH2 0x801 PUSH2 0x307 JUMP JUMPDEST JUMPDEST PUSH2 0x80C DUP3 SLOAD PUSH2 0x5F6 JUMP JUMPDEST PUSH2 0x817 DUP3 DUP3 DUP6 PUSH2 0x74A JUMP JUMPDEST PUSH0 PUSH1 0x20 SWAP1 POP PUSH1 0x1F DUP4 GT PUSH1 0x1 DUP2 EQ PUSH2 0x848 JUMPI PUSH0 DUP5 ISZERO PUSH2 0x836 JUMPI DUP3 DUP8 ADD MLOAD SWAP1 POP JUMPDEST PUSH2 0x840 DUP6 DUP3 PUSH2 0x7C5 JUMP JUMPDEST DUP7 SSTORE POP PUSH2 0x8A7 JUMP JUMPDEST PUSH1 0x1F NOT DUP5 AND PUSH2 0x856 DUP7 PUSH2 0x626 JUMP JUMPDEST PUSH0 JUMPDEST DUP3 DUP2 LT ISZERO PUSH2 0x87D JUMPI DUP5 DUP10 ADD MLOAD DUP3 SSTORE PUSH1 0x1 DUP3 ADD SWAP2 POP PUSH1 0x20 DUP6 ADD SWAP5 POP PUSH1 0x20 DUP2 ADD SWAP1 POP PUSH2 0x858 JUMP JUMPDEST DUP7 DUP4 LT ISZERO PUSH2 0x89A JUMPI DUP5 DUP10 ADD MLOAD PUSH2 0x896 PUSH1 0x1F DUP10 AND DUP3 PUSH2 0x7A9 JUMP JUMPDEST DUP4 SSTORE POP JUMPDEST PUSH1 0x1 PUSH1 0x2 DUP9 MUL ADD DUP9 SSTORE POP POP POP JUMPDEST POP POP POP POP POP POP JUMP JUMPDEST PUSH0 DUP2 SWAP1 POP SWAP3 SWAP2 POP POP JUMP JUMPDEST PUSH0 DUP2 SLOAD PUSH2 0x8C5 DUP2 PUSH2 0x5F6 JUMP JUMPDEST PUSH2 0x8CF DUP2 DUP7 PUSH2 0x8AF JUMP JUMPDEST SWAP5 POP PUSH1 0x1 DUP3 AND PUSH0 DUP2 EQ PUSH2 0x8E9 JUMPI PUSH1 0x1 DUP2 EQ PUSH2 0x8FE JUMPI PUSH2 0x930 JUMP JUMPDEST PUSH1 0xFF NOT DUP4 AND DUP7 MSTORE DUP2 ISZERO ISZERO DUP3 MUL DUP7 ADD SWAP4 POP PUSH2 0x930 JUMP JUMPDEST PUSH2 0x907 DUP6 PUSH2 0x626 JUMP JUMPDEST PUSH0 JUMPDEST DUP4 DUP2 LT ISZERO PUSH2 0x928 JUMPI DUP2 SLOAD DUP2 DUP10 ADD MSTORE PUSH1 0x1 DUP3 ADD SWAP2 POP PUSH1 0x20 DUP2 ADD SWAP1 POP PUSH2 0x909 JUMP JUMPDEST DUP4 DUP9 ADD SWAP6 POP POP POP JUMPDEST POP POP POP SWAP3 SWAP2 POP POP JUMP JUMPDEST PUSH0 PUSH2 0x943 DUP3 PUSH2 0x557 JUMP JUMPDEST PUSH2 0x94D DUP2 DUP6 PUSH2 0x8AF JUMP JUMPDEST SWAP4 POP PUSH2 0x95D DUP2 DUP6 PUSH1 0x20 DUP7 ADD PUSH2 0x278 JUMP JUMPDEST DUP1 DUP5 ADD SWAP2 POP POP SWAP3 SWAP2 POP POP JUMP JUMPDEST PUSH0 PUSH2 0x974 DUP3 DUP6 PUSH2 0x8B9 JUMP JUMPDEST SWAP2 POP PUSH2 0x980 DUP3 DUP5 PUSH2 0x939 JUMP JUMPDEST SWAP2 POP DUP2 SWAP1 POP SWAP4 SWAP3 POP POP POP JUMP INVALID LOG2 PUSH5 0x6970667358 0x22 SLT KECCAK256 0x4E PUSH22 0x7117D2F456F94A7858E08CAEED3C7601BD3116E7C6F7 0x4C SGT INVALID PUSH3 0xBFF8E7 STOP PUSH5 0x736F6C6343 STOP ADDMOD 0x22 STOP CALLER "
				},
				"gasEstimates": {
					"creation": {
						"codeDepositCost": "499600",
						"executionCost": "535",
						"totalCost": "500135"
					},
					"external": {
						"agregarDatos(bytes)": "infinite",
						"guardarDatos(bytes)": "infinite",
						"guardarDatosDesdeTexto(string)": "infinite",
						"obtenerDatos()": "infinite",
						"obtenerDatosComoString()": "infinite"
					}
				},
				"methodIdentifiers": {
					"agregarDatos(bytes)": "5cbc89f4",
					"guardarDatos(bytes)": "e2025590",
					"guardarDatosDesdeTexto(string)": "3982a723",
					"obtenerDatos()": "7bf4fdd0",
					"obtenerDatosComoString()": "27687e16"
				}
			},
			"storageLayout": {
				"storage": [
					{
						"astId": 3,
						"contract": "contracts/12_Comp_Bytes.sol:CompBytes",
						"label": "datos",
						"offset": 0,
						"slot": "0",
						"type": "t_bytes_storage"
					}
				],
				"types": {
					"t_bytes_storage": {
						"encoding": "bytes",
						"label": "bytes",
						"numberOfBytes": "32"
					}
				}
			},
			"userdoc": {
				"kind": "user",
				"methods": {},
				"version": 1
			}
		}
	}
}