{
	"contracts/14_Comp_Mapping.sol": {
		"CompMapping": {
			"abi": [
				{
					"inputs": [
						{
							"internalType": "uint256",
							"name": "id",
							"type": "uint256"
						},
						{
							"internalType": "string",
							"name": "_nombre",
							"type": "string"
						},
						{
							"internalType": "uint256",
							"name": "_edad",
							"type": "uint256"
						}
					],
					"name": "addEmpleado",
					"outputs": [],
					"stateMutability": "nonpayable",
					"type": "function"
				},
				{
					"inputs": [
						{
							"internalType": "string",
							"name": "_nombre",
							"type": "string"
						},
						{
							"internalType": "uint256",
							"name": "_edad",
							"type": "uint256"
						}
					],
					"name": "addEmpleadoSecuencial",
					"outputs": [],
					"stateMutability": "nonpayable",
					"type": "function"
				},
				{
					"inputs": [
						{
							"internalType": "uint256",
							"name": "",
							"type": "uint256"
						}
					],
					"name": "empleados",
					"outputs": [
						{
							"internalType": "string",
							"name": "nombre",
							"type": "string"
						},
						{
							"internalType": "uint256",
							"name": "edad",
							"type": "uint256"
						}
					],
					"stateMutability": "view",
					"type": "function"
				},
				{
					"inputs": [
						{
							"internalType": "uint256",
							"name": "_id",
							"type": "uint256"
						}
					],
					"name": "getEmpleado",
					"outputs": [
						{
							"internalType": "string",
							"name": "_nombre",
							"type": "string"
						},
						{
							"internalType": "uint256",
							"name": "_edad",
							"type": "uint256"
						}
					],
					"stateMutability": "view",
					"type": "function"
				}
			],
			"devdoc": {
				"kind": "dev",
				"methods": {},
				"version": 1
			},
			"evm": {
				"assembly": "    /* \"contracts/14_Comp_Mapping.sol\":72:892  contract CompMapping {... */\n  mstore(0x40, 0x80)\n    /* \"contracts/14_Comp_Mapping.sol\":123:126  100 */\n  0x64\n    /* \"contracts/14_Comp_Mapping.sol\":102:126  uint256 secuencial = 100 */\n  0x00\n  sstore\n    /* \"contracts/14_Comp_Mapping.sol\":72:892  contract CompMapping {... */\n  callvalue\n  dup1\n  iszero\n  tag_1\n  jumpi\n  revert(0x00, 0x00)\ntag_1:\n  pop\n  dataSize(sub_0)\n  dup1\n  dataOffset(sub_0)\n  0x00\n  codecopy\n  0x00\n  return\nstop\n\nsub_0: assembly {\n        /* \"contracts/14_Comp_Mapping.sol\":72:892  contract CompMapping {... */\n      mstore(0x40, 0x80)\n      callvalue\n      dup1\n      iszero\n      tag_1\n      jumpi\n      revert(0x00, 0x00)\n    tag_1:\n      pop\n      jumpi(tag_2, lt(calldatasize, 0x04))\n      shr(0xe0, calldataload(0x00))\n      dup1\n      0x0532cde1\n      eq\n      tag_3\n      jumpi\n      dup1\n      0x1fcea3fa\n      eq\n      tag_4\n      jumpi\n      dup1\n      0x6f1a8c84\n      eq\n      tag_5\n      jumpi\n      dup1\n      0xf150bd44\n      eq\n      tag_6\n      jumpi\n    tag_2:\n      revert(0x00, 0x00)\n        /* \"contracts/14_Comp_Mapping.sol\":328:370  mapping(uint => Empleado) public empleados */\n    tag_3:\n      tag_7\n      0x04\n      dup1\n      calldatasize\n      sub\n      dup2\n      add\n      swap1\n      tag_8\n      swap2\n      swap1\n      tag_9\n      jump\t// in\n    tag_8:\n      tag_10\n      jump\t// in\n    tag_7:\n      mload(0x40)\n      tag_11\n      swap3\n      swap2\n      swap1\n      tag_12\n      jump\t// in\n    tag_11:\n      mload(0x40)\n      dup1\n      swap2\n      sub\n      swap1\n      return\n        /* \"contracts/14_Comp_Mapping.sol\":709:889  function getEmpleado(uint _id)public view returns (string memory _nombre, uint _edad){... */\n    tag_4:\n      tag_13\n      0x04\n      dup1\n      calldatasize\n      sub\n      dup2\n      add\n      swap1\n      tag_14\n      swap2\n      swap1\n      tag_9\n      jump\t// in\n    tag_14:\n      tag_15\n      jump\t// in\n    tag_13:\n      mload(0x40)\n      tag_16\n      swap3\n      swap2\n      swap1\n      tag_12\n      jump\t// in\n    tag_16:\n      mload(0x40)\n      dup1\n      swap2\n      sub\n      swap1\n      return\n        /* \"contracts/14_Comp_Mapping.sol\":379:514  function addEmpleado(uint256 id, string memory _nombre, uint _edad) public { ... */\n    tag_5:\n      tag_17\n      0x04\n      dup1\n      calldatasize\n      sub\n      dup2\n      add\n      swap1\n      tag_18\n      swap2\n      swap1\n      tag_19\n      jump\t// in\n    tag_18:\n      tag_20\n      jump\t// in\n    tag_17:\n      stop\n        /* \"contracts/14_Comp_Mapping.sol\":522:701  function addEmpleadoSecuencial(string memory _nombre, uint _edad) public { ... */\n    tag_6:\n      tag_21\n      0x04\n      dup1\n      calldatasize\n      sub\n      dup2\n      add\n      swap1\n      tag_22\n      swap2\n      swap1\n      tag_23\n      jump\t// in\n    tag_22:\n      tag_24\n      jump\t// in\n    tag_21:\n      stop\n        /* \"contracts/14_Comp_Mapping.sol\":328:370  mapping(uint => Empleado) public empleados */\n    tag_10:\n      mstore(0x20, 0x01)\n      dup1\n      0x00\n      mstore\n      keccak256(0x00, 0x40)\n      0x00\n      swap2\n      pop\n      swap1\n      pop\n      dup1\n      0x00\n      add\n      dup1\n      sload\n      tag_25\n      swap1\n      tag_26\n      jump\t// in\n    tag_25:\n      dup1\n      0x1f\n      add\n      0x20\n      dup1\n      swap2\n      div\n      mul\n      0x20\n      add\n      mload(0x40)\n      swap1\n      dup2\n      add\n      0x40\n      mstore\n      dup1\n      swap3\n      swap2\n      swap1\n      dup2\n      dup2\n      mstore\n      0x20\n      add\n      dup3\n      dup1\n      sload\n      tag_27\n      swap1\n      tag_26\n      jump\t// in\n    tag_27:\n      dup1\n      iszero\n      tag_28\n      jumpi\n      dup1\n      0x1f\n      lt\n      tag_29\n      jumpi\n      0x0100\n      dup1\n      dup4\n      sload\n      div\n      mul\n      dup4\n      mstore\n      swap2\n      0x20\n      add\n      swap2\n      jump(tag_28)\n    tag_29:\n      dup3\n      add\n      swap2\n      swap1\n      0x00\n      mstore\n      keccak256(0x00, 0x20)\n      swap1\n    tag_30:\n      dup2\n      sload\n      dup2\n      mstore\n      swap1\n      0x01\n      add\n      swap1\n      0x20\n      add\n      dup1\n      dup4\n      gt\n      tag_30\n      jumpi\n      dup3\n      swap1\n      sub\n      0x1f\n      and\n      dup3\n      add\n      swap2\n    tag_28:\n      pop\n      pop\n      pop\n      pop\n      pop\n      swap1\n      dup1\n      0x01\n      add\n      sload\n      swap1\n      pop\n      dup3\n      jump\t// out\n        /* \"contracts/14_Comp_Mapping.sol\":709:889  function getEmpleado(uint _id)public view returns (string memory _nombre, uint _edad){... */\n    tag_15:\n        /* \"contracts/14_Comp_Mapping.sol\":760:781  string memory _nombre */\n      0x60\n        /* \"contracts/14_Comp_Mapping.sol\":783:793  uint _edad */\n      0x00\n        /* \"contracts/14_Comp_Mapping.sol\":805:824  Empleado memory emp */\n      0x00\n        /* \"contracts/14_Comp_Mapping.sol\":827:836  empleados */\n      0x01\n        /* \"contracts/14_Comp_Mapping.sol\":827:841  empleados[_id] */\n      0x00\n        /* \"contracts/14_Comp_Mapping.sol\":837:840  _id */\n      dup6\n        /* \"contracts/14_Comp_Mapping.sol\":827:841  empleados[_id] */\n      dup2\n      mstore\n      0x20\n      add\n      swap1\n      dup2\n      mstore\n      0x20\n      add\n      0x00\n      keccak256\n        /* \"contracts/14_Comp_Mapping.sol\":805:841  Empleado memory emp = empleados[_id] */\n      mload(0x40)\n      dup1\n      0x40\n      add\n      0x40\n      mstore\n      swap1\n      dup2\n      0x00\n      dup3\n      add\n      dup1\n      sload\n      tag_32\n      swap1\n      tag_26\n      jump\t// in\n    tag_32:\n      dup1\n      0x1f\n      add\n      0x20\n      dup1\n      swap2\n      div\n      mul\n      0x20\n      add\n      mload(0x40)\n      swap1\n      dup2\n      add\n      0x40\n      mstore\n      dup1\n      swap3\n      swap2\n      swap1\n      dup2\n      dup2\n      mstore\n      0x20\n      add\n      dup3\n      dup1\n      sload\n      tag_33\n      swap1\n      tag_26\n      jump\t// in\n    tag_33:\n      dup1\n      iszero\n      tag_34\n      jumpi\n      dup1\n      0x1f\n      lt\n      tag_35\n      jumpi\n      0x0100\n      dup1\n      dup4\n      sload\n      div\n      mul\n      dup4\n      mstore\n      swap2\n      0x20\n      add\n      swap2\n      jump(tag_34)\n    tag_35:\n      dup3\n      add\n      swap2\n      swap1\n      0x00\n      mstore\n      keccak256(0x00, 0x20)\n      swap1\n    tag_36:\n      dup2\n      sload\n      dup2\n      mstore\n      swap1\n      0x01\n      add\n      swap1\n      0x20\n      add\n      dup1\n      dup4\n      gt\n      tag_36\n      jumpi\n      dup3\n      swap1\n      sub\n      0x1f\n      and\n      dup3\n      add\n      swap2\n    tag_34:\n      pop\n      pop\n      pop\n      pop\n      pop\n      dup2\n      mstore\n      0x20\n      add\n      0x01\n      dup3\n      add\n      sload\n      dup2\n      mstore\n      pop\n      pop\n      swap1\n      pop\n        /* \"contracts/14_Comp_Mapping.sol\":860:863  emp */\n      dup1\n        /* \"contracts/14_Comp_Mapping.sol\":860:870  emp.nombre */\n      0x00\n      add\n      mload\n        /* \"contracts/14_Comp_Mapping.sol\":872:875  emp */\n      dup2\n        /* \"contracts/14_Comp_Mapping.sol\":872:880  emp.edad */\n      0x20\n      add\n      mload\n        /* \"contracts/14_Comp_Mapping.sol\":852:881  return (emp.nombre, emp.edad) */\n      swap3\n      pop\n      swap3\n      pop\n      pop\n        /* \"contracts/14_Comp_Mapping.sol\":709:889  function getEmpleado(uint _id)public view returns (string memory _nombre, uint _edad){... */\n      swap2\n      pop\n      swap2\n      jump\t// out\n        /* \"contracts/14_Comp_Mapping.sol\":379:514  function addEmpleado(uint256 id, string memory _nombre, uint _edad) public { ... */\n    tag_20:\n        /* \"contracts/14_Comp_Mapping.sol\":482:506  Empleado(_nombre, _edad) */\n      mload(0x40)\n      dup1\n      0x40\n      add\n      0x40\n      mstore\n      dup1\n        /* \"contracts/14_Comp_Mapping.sol\":491:498  _nombre */\n      dup4\n        /* \"contracts/14_Comp_Mapping.sol\":482:506  Empleado(_nombre, _edad) */\n      dup2\n      mstore\n      0x20\n      add\n        /* \"contracts/14_Comp_Mapping.sol\":500:505  _edad */\n      dup3\n        /* \"contracts/14_Comp_Mapping.sol\":482:506  Empleado(_nombre, _edad) */\n      dup2\n      mstore\n      pop\n        /* \"contracts/14_Comp_Mapping.sol\":466:475  empleados */\n      0x01\n        /* \"contracts/14_Comp_Mapping.sol\":466:479  empleados[id] */\n      0x00\n        /* \"contracts/14_Comp_Mapping.sol\":476:478  id */\n      dup6\n        /* \"contracts/14_Comp_Mapping.sol\":466:479  empleados[id] */\n      dup2\n      mstore\n      0x20\n      add\n      swap1\n      dup2\n      mstore\n      0x20\n      add\n      0x00\n      keccak256\n        /* \"contracts/14_Comp_Mapping.sol\":466:506  empleados[id] = Empleado(_nombre, _edad) */\n      0x00\n      dup3\n      add\n      mload\n      dup2\n      0x00\n      add\n      swap1\n      dup2\n      tag_38\n      swap2\n      swap1\n      tag_39\n      jump\t// in\n    tag_38:\n      pop\n      0x20\n      dup3\n      add\n      mload\n      dup2\n      0x01\n      add\n      sstore\n      swap1\n      pop\n      pop\n        /* \"contracts/14_Comp_Mapping.sol\":379:514  function addEmpleado(uint256 id, string memory _nombre, uint _edad) public { ... */\n      pop\n      pop\n      pop\n      jump\t// out\n        /* \"contracts/14_Comp_Mapping.sol\":522:701  function addEmpleadoSecuencial(string memory _nombre, uint _edad) public { ... */\n    tag_24:\n        /* \"contracts/14_Comp_Mapping.sol\":631:655  Empleado(_nombre, _edad) */\n      mload(0x40)\n      dup1\n      0x40\n      add\n      0x40\n      mstore\n      dup1\n        /* \"contracts/14_Comp_Mapping.sol\":640:647  _nombre */\n      dup4\n        /* \"contracts/14_Comp_Mapping.sol\":631:655  Empleado(_nombre, _edad) */\n      dup2\n      mstore\n      0x20\n      add\n        /* \"contracts/14_Comp_Mapping.sol\":649:654  _edad */\n      dup3\n        /* \"contracts/14_Comp_Mapping.sol\":631:655  Empleado(_nombre, _edad) */\n      dup2\n      mstore\n      pop\n        /* \"contracts/14_Comp_Mapping.sol\":607:616  empleados */\n      0x01\n        /* \"contracts/14_Comp_Mapping.sol\":607:628  empleados[secuencial] */\n      0x00\n        /* \"contracts/14_Comp_Mapping.sol\":617:627  secuencial */\n      sload(0x00)\n        /* \"contracts/14_Comp_Mapping.sol\":607:628  empleados[secuencial] */\n      dup2\n      mstore\n      0x20\n      add\n      swap1\n      dup2\n      mstore\n      0x20\n      add\n      0x00\n      keccak256\n        /* \"contracts/14_Comp_Mapping.sol\":607:655  empleados[secuencial] = Empleado(_nombre, _edad) */\n      0x00\n      dup3\n      add\n      mload\n      dup2\n      0x00\n      add\n      swap1\n      dup2\n      tag_41\n      swap2\n      swap1\n      tag_39\n      jump\t// in\n    tag_41:\n      pop\n      0x20\n      dup3\n      add\n      mload\n      dup2\n      0x01\n      add\n      sstore\n      swap1\n      pop\n      pop\n        /* \"contracts/14_Comp_Mapping.sol\":692:693  1 */\n      0x01\n        /* \"contracts/14_Comp_Mapping.sol\":679:689  secuencial */\n      sload(0x00)\n        /* \"contracts/14_Comp_Mapping.sol\":679:693  secuencial + 1 */\n      tag_42\n      swap2\n      swap1\n      tag_43\n      jump\t// in\n    tag_42:\n        /* \"contracts/14_Comp_Mapping.sol\":666:676  secuencial */\n      0x00\n        /* \"contracts/14_Comp_Mapping.sol\":666:693  secuencial = secuencial + 1 */\n      dup2\n      swap1\n      sstore\n      pop\n        /* \"contracts/14_Comp_Mapping.sol\":522:701  function addEmpleadoSecuencial(string memory _nombre, uint _edad) public { ... */\n      pop\n      pop\n      jump\t// out\n        /* \"#utility.yul\":7:82   */\n    tag_44:\n        /* \"#utility.yul\":40:46   */\n      0x00\n        /* \"#utility.yul\":73:75   */\n      0x40\n        /* \"#utility.yul\":67:76   */\n      mload\n        /* \"#utility.yul\":57:76   */\n      swap1\n      pop\n        /* \"#utility.yul\":7:82   */\n      swap1\n      jump\t// out\n        /* \"#utility.yul\":88:205   */\n    tag_45:\n        /* \"#utility.yul\":197:198   */\n      0x00\n        /* \"#utility.yul\":194:195   */\n      0x00\n        /* \"#utility.yul\":187:199   */\n      revert\n        /* \"#utility.yul\":211:328   */\n    tag_46:\n        /* \"#utility.yul\":320:321   */\n      0x00\n        /* \"#utility.yul\":317:318   */\n      0x00\n        /* \"#utility.yul\":310:322   */\n      revert\n        /* \"#utility.yul\":334:411   */\n    tag_47:\n        /* \"#utility.yul\":371:378   */\n      0x00\n        /* \"#utility.yul\":400:405   */\n      dup2\n        /* \"#utility.yul\":389:405   */\n      swap1\n      pop\n        /* \"#utility.yul\":334:411   */\n      swap2\n      swap1\n      pop\n      jump\t// out\n        /* \"#utility.yul\":417:539   */\n    tag_48:\n        /* \"#utility.yul\":490:514   */\n      tag_88\n        /* \"#utility.yul\":508:513   */\n      dup2\n        /* \"#utility.yul\":490:514   */\n      tag_47\n      jump\t// in\n    tag_88:\n        /* \"#utility.yul\":483:488   */\n      dup2\n        /* \"#utility.yul\":480:515   */\n      eq\n        /* \"#utility.yul\":470:533   */\n      tag_89\n      jumpi\n        /* \"#utility.yul\":529:530   */\n      0x00\n        /* \"#utility.yul\":526:527   */\n      0x00\n        /* \"#utility.yul\":519:531   */\n      revert\n        /* \"#utility.yul\":470:533   */\n    tag_89:\n        /* \"#utility.yul\":417:539   */\n      pop\n      jump\t// out\n        /* \"#utility.yul\":545:684   */\n    tag_49:\n        /* \"#utility.yul\":591:596   */\n      0x00\n        /* \"#utility.yul\":629:635   */\n      dup2\n        /* \"#utility.yul\":616:636   */\n      calldataload\n        /* \"#utility.yul\":607:636   */\n      swap1\n      pop\n        /* \"#utility.yul\":645:678   */\n      tag_91\n        /* \"#utility.yul\":672:677   */\n      dup2\n        /* \"#utility.yul\":645:678   */\n      tag_48\n      jump\t// in\n    tag_91:\n        /* \"#utility.yul\":545:684   */\n      swap3\n      swap2\n      pop\n      pop\n      jump\t// out\n        /* \"#utility.yul\":690:1019   */\n    tag_9:\n        /* \"#utility.yul\":749:755   */\n      0x00\n        /* \"#utility.yul\":798:800   */\n      0x20\n        /* \"#utility.yul\":786:795   */\n      dup3\n        /* \"#utility.yul\":777:784   */\n      dup5\n        /* \"#utility.yul\":773:796   */\n      sub\n        /* \"#utility.yul\":769:801   */\n      slt\n        /* \"#utility.yul\":766:885   */\n      iszero\n      tag_93\n      jumpi\n        /* \"#utility.yul\":804:883   */\n      tag_94\n      tag_45\n      jump\t// in\n    tag_94:\n        /* \"#utility.yul\":766:885   */\n    tag_93:\n        /* \"#utility.yul\":924:925   */\n      0x00\n        /* \"#utility.yul\":949:1002   */\n      tag_95\n        /* \"#utility.yul\":994:1001   */\n      dup5\n        /* \"#utility.yul\":985:991   */\n      dup3\n        /* \"#utility.yul\":974:983   */\n      dup6\n        /* \"#utility.yul\":970:992   */\n      add\n        /* \"#utility.yul\":949:1002   */\n      tag_49\n      jump\t// in\n    tag_95:\n        /* \"#utility.yul\":939:1002   */\n      swap2\n      pop\n        /* \"#utility.yul\":895:1012   */\n      pop\n        /* \"#utility.yul\":690:1019   */\n      swap3\n      swap2\n      pop\n      pop\n      jump\t// out\n        /* \"#utility.yul\":1025:1124   */\n    tag_50:\n        /* \"#utility.yul\":1077:1083   */\n      0x00\n        /* \"#utility.yul\":1111:1116   */\n      dup2\n        /* \"#utility.yul\":1105:1117   */\n      mload\n        /* \"#utility.yul\":1095:1117   */\n      swap1\n      pop\n        /* \"#utility.yul\":1025:1124   */\n      swap2\n      swap1\n      pop\n      jump\t// out\n        /* \"#utility.yul\":1130:1299   */\n    tag_51:\n        /* \"#utility.yul\":1214:1225   */\n      0x00\n        /* \"#utility.yul\":1248:1254   */\n      dup3\n        /* \"#utility.yul\":1243:1246   */\n      dup3\n        /* \"#utility.yul\":1236:1255   */\n      mstore\n        /* \"#utility.yul\":1288:1292   */\n      0x20\n        /* \"#utility.yul\":1283:1286   */\n      dup3\n        /* \"#utility.yul\":1279:1293   */\n      add\n        /* \"#utility.yul\":1264:1293   */\n      swap1\n      pop\n        /* \"#utility.yul\":1130:1299   */\n      swap3\n      swap2\n      pop\n      pop\n      jump\t// out\n        /* \"#utility.yul\":1305:1444   */\n    tag_52:\n        /* \"#utility.yul\":1394:1400   */\n      dup3\n        /* \"#utility.yul\":1389:1392   */\n      dup2\n        /* \"#utility.yul\":1384:1387   */\n      dup4\n        /* \"#utility.yul\":1378:1401   */\n      mcopy\n        /* \"#utility.yul\":1435:1436   */\n      0x00\n        /* \"#utility.yul\":1426:1432   */\n      dup4\n        /* \"#utility.yul\":1421:1424   */\n      dup4\n        /* \"#utility.yul\":1417:1433   */\n      add\n        /* \"#utility.yul\":1410:1437   */\n      mstore\n        /* \"#utility.yul\":1305:1444   */\n      pop\n      pop\n      pop\n      jump\t// out\n        /* \"#utility.yul\":1450:1552   */\n    tag_53:\n        /* \"#utility.yul\":1491:1497   */\n      0x00\n        /* \"#utility.yul\":1542:1544   */\n      0x1f\n        /* \"#utility.yul\":1538:1545   */\n      not\n        /* \"#utility.yul\":1533:1535   */\n      0x1f\n        /* \"#utility.yul\":1526:1531   */\n      dup4\n        /* \"#utility.yul\":1522:1536   */\n      add\n        /* \"#utility.yul\":1518:1546   */\n      and\n        /* \"#utility.yul\":1508:1546   */\n      swap1\n      pop\n        /* \"#utility.yul\":1450:1552   */\n      swap2\n      swap1\n      pop\n      jump\t// out\n        /* \"#utility.yul\":1558:1935   */\n    tag_54:\n        /* \"#utility.yul\":1646:1649   */\n      0x00\n        /* \"#utility.yul\":1674:1713   */\n      tag_101\n        /* \"#utility.yul\":1707:1712   */\n      dup3\n        /* \"#utility.yul\":1674:1713   */\n      tag_50\n      jump\t// in\n    tag_101:\n        /* \"#utility.yul\":1729:1800   */\n      tag_102\n        /* \"#utility.yul\":1793:1799   */\n      dup2\n        /* \"#utility.yul\":1788:1791   */\n      dup6\n        /* \"#utility.yul\":1729:1800   */\n      tag_51\n      jump\t// in\n    tag_102:\n        /* \"#utility.yul\":1722:1800   */\n      swap4\n      pop\n        /* \"#utility.yul\":1809:1874   */\n      tag_103\n        /* \"#utility.yul\":1867:1873   */\n      dup2\n        /* \"#utility.yul\":1862:1865   */\n      dup6\n        /* \"#utility.yul\":1855:1859   */\n      0x20\n        /* \"#utility.yul\":1848:1853   */\n      dup7\n        /* \"#utility.yul\":1844:1860   */\n      add\n        /* \"#utility.yul\":1809:1874   */\n      tag_52\n      jump\t// in\n    tag_103:\n        /* \"#utility.yul\":1899:1928   */\n      tag_104\n        /* \"#utility.yul\":1921:1927   */\n      dup2\n        /* \"#utility.yul\":1899:1928   */\n      tag_53\n      jump\t// in\n    tag_104:\n        /* \"#utility.yul\":1894:1897   */\n      dup5\n        /* \"#utility.yul\":1890:1929   */\n      add\n        /* \"#utility.yul\":1883:1929   */\n      swap2\n      pop\n        /* \"#utility.yul\":1650:1935   */\n      pop\n        /* \"#utility.yul\":1558:1935   */\n      swap3\n      swap2\n      pop\n      pop\n      jump\t// out\n        /* \"#utility.yul\":1941:2059   */\n    tag_55:\n        /* \"#utility.yul\":2028:2052   */\n      tag_106\n        /* \"#utility.yul\":2046:2051   */\n      dup2\n        /* \"#utility.yul\":2028:2052   */\n      tag_47\n      jump\t// in\n    tag_106:\n        /* \"#utility.yul\":2023:2026   */\n      dup3\n        /* \"#utility.yul\":2016:2053   */\n      mstore\n        /* \"#utility.yul\":1941:2059   */\n      pop\n      pop\n      jump\t// out\n        /* \"#utility.yul\":2065:2488   */\n    tag_12:\n        /* \"#utility.yul\":2206:2210   */\n      0x00\n        /* \"#utility.yul\":2244:2246   */\n      0x40\n        /* \"#utility.yul\":2233:2242   */\n      dup3\n        /* \"#utility.yul\":2229:2247   */\n      add\n        /* \"#utility.yul\":2221:2247   */\n      swap1\n      pop\n        /* \"#utility.yul\":2293:2302   */\n      dup2\n        /* \"#utility.yul\":2287:2291   */\n      dup2\n        /* \"#utility.yul\":2283:2303   */\n      sub\n        /* \"#utility.yul\":2279:2280   */\n      0x00\n        /* \"#utility.yul\":2268:2277   */\n      dup4\n        /* \"#utility.yul\":2264:2281   */\n      add\n        /* \"#utility.yul\":2257:2304   */\n      mstore\n        /* \"#utility.yul\":2321:2399   */\n      tag_108\n        /* \"#utility.yul\":2394:2398   */\n      dup2\n        /* \"#utility.yul\":2385:2391   */\n      dup6\n        /* \"#utility.yul\":2321:2399   */\n      tag_54\n      jump\t// in\n    tag_108:\n        /* \"#utility.yul\":2313:2399   */\n      swap1\n      pop\n        /* \"#utility.yul\":2409:2481   */\n      tag_109\n        /* \"#utility.yul\":2477:2479   */\n      0x20\n        /* \"#utility.yul\":2466:2475   */\n      dup4\n        /* \"#utility.yul\":2462:2480   */\n      add\n        /* \"#utility.yul\":2453:2459   */\n      dup5\n        /* \"#utility.yul\":2409:2481   */\n      tag_55\n      jump\t// in\n    tag_109:\n        /* \"#utility.yul\":2065:2488   */\n      swap4\n      swap3\n      pop\n      pop\n      pop\n      jump\t// out\n        /* \"#utility.yul\":2494:2611   */\n    tag_56:\n        /* \"#utility.yul\":2603:2604   */\n      0x00\n        /* \"#utility.yul\":2600:2601   */\n      0x00\n        /* \"#utility.yul\":2593:2605   */\n      revert\n        /* \"#utility.yul\":2617:2734   */\n    tag_57:\n        /* \"#utility.yul\":2726:2727   */\n      0x00\n        /* \"#utility.yul\":2723:2724   */\n      0x00\n        /* \"#utility.yul\":2716:2728   */\n      revert\n        /* \"#utility.yul\":2740:2920   */\n    tag_58:\n        /* \"#utility.yul\":2788:2865   */\n      0x4e487b7100000000000000000000000000000000000000000000000000000000\n        /* \"#utility.yul\":2785:2786   */\n      0x00\n        /* \"#utility.yul\":2778:2866   */\n      mstore\n        /* \"#utility.yul\":2885:2889   */\n      0x41\n        /* \"#utility.yul\":2882:2883   */\n      0x04\n        /* \"#utility.yul\":2875:2890   */\n      mstore\n        /* \"#utility.yul\":2909:2913   */\n      0x24\n        /* \"#utility.yul\":2906:2907   */\n      0x00\n        /* \"#utility.yul\":2899:2914   */\n      revert\n        /* \"#utility.yul\":2926:3207   */\n    tag_59:\n        /* \"#utility.yul\":3009:3036   */\n      tag_114\n        /* \"#utility.yul\":3031:3035   */\n      dup3\n        /* \"#utility.yul\":3009:3036   */\n      tag_53\n      jump\t// in\n    tag_114:\n        /* \"#utility.yul\":3001:3007   */\n      dup2\n        /* \"#utility.yul\":2997:3037   */\n      add\n        /* \"#utility.yul\":3139:3145   */\n      dup2\n        /* \"#utility.yul\":3127:3137   */\n      dup2\n        /* \"#utility.yul\":3124:3146   */\n      lt\n        /* \"#utility.yul\":3103:3121   */\n      0xffffffffffffffff\n        /* \"#utility.yul\":3091:3101   */\n      dup3\n        /* \"#utility.yul\":3088:3122   */\n      gt\n        /* \"#utility.yul\":3085:3147   */\n      or\n        /* \"#utility.yul\":3082:3170   */\n      iszero\n      tag_115\n      jumpi\n        /* \"#utility.yul\":3150:3168   */\n      tag_116\n      tag_58\n      jump\t// in\n    tag_116:\n        /* \"#utility.yul\":3082:3170   */\n    tag_115:\n        /* \"#utility.yul\":3190:3200   */\n      dup1\n        /* \"#utility.yul\":3186:3188   */\n      0x40\n        /* \"#utility.yul\":3179:3201   */\n      mstore\n        /* \"#utility.yul\":2969:3207   */\n      pop\n        /* \"#utility.yul\":2926:3207   */\n      pop\n      pop\n      jump\t// out\n        /* \"#utility.yul\":3213:3342   */\n    tag_60:\n        /* \"#utility.yul\":3247:3253   */\n      0x00\n        /* \"#utility.yul\":3274:3294   */\n      tag_118\n      tag_44\n      jump\t// in\n    tag_118:\n        /* \"#utility.yul\":3264:3294   */\n      swap1\n      pop\n        /* \"#utility.yul\":3303:3336   */\n      tag_119\n        /* \"#utility.yul\":3331:3335   */\n      dup3\n        /* \"#utility.yul\":3323:3329   */\n      dup3\n        /* \"#utility.yul\":3303:3336   */\n      tag_59\n      jump\t// in\n    tag_119:\n        /* \"#utility.yul\":3213:3342   */\n      swap2\n      swap1\n      pop\n      jump\t// out\n        /* \"#utility.yul\":3348:3656   */\n    tag_61:\n        /* \"#utility.yul\":3410:3414   */\n      0x00\n        /* \"#utility.yul\":3500:3518   */\n      0xffffffffffffffff\n        /* \"#utility.yul\":3492:3498   */\n      dup3\n        /* \"#utility.yul\":3489:3519   */\n      gt\n        /* \"#utility.yul\":3486:3542   */\n      iszero\n      tag_121\n      jumpi\n        /* \"#utility.yul\":3522:3540   */\n      tag_122\n      tag_58\n      jump\t// in\n    tag_122:\n        /* \"#utility.yul\":3486:3542   */\n    tag_121:\n        /* \"#utility.yul\":3560:3589   */\n      tag_123\n        /* \"#utility.yul\":3582:3588   */\n      dup3\n        /* \"#utility.yul\":3560:3589   */\n      tag_53\n      jump\t// in\n    tag_123:\n        /* \"#utility.yul\":3552:3589   */\n      swap1\n      pop\n        /* \"#utility.yul\":3644:3648   */\n      0x20\n        /* \"#utility.yul\":3638:3642   */\n      dup2\n        /* \"#utility.yul\":3634:3649   */\n      add\n        /* \"#utility.yul\":3626:3649   */\n      swap1\n      pop\n        /* \"#utility.yul\":3348:3656   */\n      swap2\n      swap1\n      pop\n      jump\t// out\n        /* \"#utility.yul\":3662:3810   */\n    tag_62:\n        /* \"#utility.yul\":3760:3766   */\n      dup3\n        /* \"#utility.yul\":3755:3758   */\n      dup2\n        /* \"#utility.yul\":3750:3753   */\n      dup4\n        /* \"#utility.yul\":3737:3767   */\n      calldatacopy\n        /* \"#utility.yul\":3801:3802   */\n      0x00\n        /* \"#utility.yul\":3792:3798   */\n      dup4\n        /* \"#utility.yul\":3787:3790   */\n      dup4\n        /* \"#utility.yul\":3783:3799   */\n      add\n        /* \"#utility.yul\":3776:3803   */\n      mstore\n        /* \"#utility.yul\":3662:3810   */\n      pop\n      pop\n      pop\n      jump\t// out\n        /* \"#utility.yul\":3816:4241   */\n    tag_63:\n        /* \"#utility.yul\":3894:3899   */\n      0x00\n        /* \"#utility.yul\":3919:3985   */\n      tag_126\n        /* \"#utility.yul\":3935:3984   */\n      tag_127\n        /* \"#utility.yul\":3977:3983   */\n      dup5\n        /* \"#utility.yul\":3935:3984   */\n      tag_61\n      jump\t// in\n    tag_127:\n        /* \"#utility.yul\":3919:3985   */\n      tag_60\n      jump\t// in\n    tag_126:\n        /* \"#utility.yul\":3910:3985   */\n      swap1\n      pop\n        /* \"#utility.yul\":4008:4014   */\n      dup3\n        /* \"#utility.yul\":4001:4006   */\n      dup2\n        /* \"#utility.yul\":3994:4015   */\n      mstore\n        /* \"#utility.yul\":4046:4050   */\n      0x20\n        /* \"#utility.yul\":4039:4044   */\n      dup2\n        /* \"#utility.yul\":4035:4051   */\n      add\n        /* \"#utility.yul\":4084:4087   */\n      dup5\n        /* \"#utility.yul\":4075:4081   */\n      dup5\n        /* \"#utility.yul\":4070:4073   */\n      dup5\n        /* \"#utility.yul\":4066:4082   */\n      add\n        /* \"#utility.yul\":4063:4088   */\n      gt\n        /* \"#utility.yul\":4060:4172   */\n      iszero\n      tag_128\n      jumpi\n        /* \"#utility.yul\":4091:4170   */\n      tag_129\n      tag_57\n      jump\t// in\n    tag_129:\n        /* \"#utility.yul\":4060:4172   */\n    tag_128:\n        /* \"#utility.yul\":4181:4235   */\n      tag_130\n        /* \"#utility.yul\":4228:4234   */\n      dup5\n        /* \"#utility.yul\":4223:4226   */\n      dup3\n        /* \"#utility.yul\":4218:4221   */\n      dup6\n        /* \"#utility.yul\":4181:4235   */\n      tag_62\n      jump\t// in\n    tag_130:\n        /* \"#utility.yul\":3900:4241   */\n      pop\n        /* \"#utility.yul\":3816:4241   */\n      swap4\n      swap3\n      pop\n      pop\n      pop\n      jump\t// out\n        /* \"#utility.yul\":4261:4601   */\n    tag_64:\n        /* \"#utility.yul\":4317:4322   */\n      0x00\n        /* \"#utility.yul\":4366:4369   */\n      dup3\n        /* \"#utility.yul\":4359:4363   */\n      0x1f\n        /* \"#utility.yul\":4351:4357   */\n      dup4\n        /* \"#utility.yul\":4347:4364   */\n      add\n        /* \"#utility.yul\":4343:4370   */\n      slt\n        /* \"#utility.yul\":4333:4455   */\n      tag_132\n      jumpi\n        /* \"#utility.yul\":4374:4453   */\n      tag_133\n      tag_56\n      jump\t// in\n    tag_133:\n        /* \"#utility.yul\":4333:4455   */\n    tag_132:\n        /* \"#utility.yul\":4491:4497   */\n      dup2\n        /* \"#utility.yul\":4478:4498   */\n      calldataload\n        /* \"#utility.yul\":4516:4595   */\n      tag_134\n        /* \"#utility.yul\":4591:4594   */\n      dup5\n        /* \"#utility.yul\":4583:4589   */\n      dup3\n        /* \"#utility.yul\":4576:4580   */\n      0x20\n        /* \"#utility.yul\":4568:4574   */\n      dup7\n        /* \"#utility.yul\":4564:4581   */\n      add\n        /* \"#utility.yul\":4516:4595   */\n      tag_63\n      jump\t// in\n    tag_134:\n        /* \"#utility.yul\":4507:4595   */\n      swap2\n      pop\n        /* \"#utility.yul\":4323:4601   */\n      pop\n        /* \"#utility.yul\":4261:4601   */\n      swap3\n      swap2\n      pop\n      pop\n      jump\t// out\n        /* \"#utility.yul\":4607:5406   */\n    tag_19:\n        /* \"#utility.yul\":4694:4700   */\n      0x00\n        /* \"#utility.yul\":4702:4708   */\n      0x00\n        /* \"#utility.yul\":4710:4716   */\n      0x00\n        /* \"#utility.yul\":4759:4761   */\n      0x60\n        /* \"#utility.yul\":4747:4756   */\n      dup5\n        /* \"#utility.yul\":4738:4745   */\n      dup7\n        /* \"#utility.yul\":4734:4757   */\n      sub\n        /* \"#utility.yul\":4730:4762   */\n      slt\n        /* \"#utility.yul\":4727:4846   */\n      iszero\n      tag_136\n      jumpi\n        /* \"#utility.yul\":4765:4844   */\n      tag_137\n      tag_45\n      jump\t// in\n    tag_137:\n        /* \"#utility.yul\":4727:4846   */\n    tag_136:\n        /* \"#utility.yul\":4885:4886   */\n      0x00\n        /* \"#utility.yul\":4910:4963   */\n      tag_138\n        /* \"#utility.yul\":4955:4962   */\n      dup7\n        /* \"#utility.yul\":4946:4952   */\n      dup3\n        /* \"#utility.yul\":4935:4944   */\n      dup8\n        /* \"#utility.yul\":4931:4953   */\n      add\n        /* \"#utility.yul\":4910:4963   */\n      tag_49\n      jump\t// in\n    tag_138:\n        /* \"#utility.yul\":4900:4963   */\n      swap4\n      pop\n        /* \"#utility.yul\":4856:4973   */\n      pop\n        /* \"#utility.yul\":5040:5042   */\n      0x20\n        /* \"#utility.yul\":5029:5038   */\n      dup5\n        /* \"#utility.yul\":5025:5043   */\n      add\n        /* \"#utility.yul\":5012:5044   */\n      calldataload\n        /* \"#utility.yul\":5071:5089   */\n      0xffffffffffffffff\n        /* \"#utility.yul\":5063:5069   */\n      dup2\n        /* \"#utility.yul\":5060:5090   */\n      gt\n        /* \"#utility.yul\":5057:5174   */\n      iszero\n      tag_139\n      jumpi\n        /* \"#utility.yul\":5093:5172   */\n      tag_140\n      tag_46\n      jump\t// in\n    tag_140:\n        /* \"#utility.yul\":5057:5174   */\n    tag_139:\n        /* \"#utility.yul\":5198:5261   */\n      tag_141\n        /* \"#utility.yul\":5253:5260   */\n      dup7\n        /* \"#utility.yul\":5244:5250   */\n      dup3\n        /* \"#utility.yul\":5233:5242   */\n      dup8\n        /* \"#utility.yul\":5229:5251   */\n      add\n        /* \"#utility.yul\":5198:5261   */\n      tag_64\n      jump\t// in\n    tag_141:\n        /* \"#utility.yul\":5188:5261   */\n      swap3\n      pop\n        /* \"#utility.yul\":4983:5271   */\n      pop\n        /* \"#utility.yul\":5310:5312   */\n      0x40\n        /* \"#utility.yul\":5336:5389   */\n      tag_142\n        /* \"#utility.yul\":5381:5388   */\n      dup7\n        /* \"#utility.yul\":5372:5378   */\n      dup3\n        /* \"#utility.yul\":5361:5370   */\n      dup8\n        /* \"#utility.yul\":5357:5379   */\n      add\n        /* \"#utility.yul\":5336:5389   */\n      tag_49\n      jump\t// in\n    tag_142:\n        /* \"#utility.yul\":5326:5389   */\n      swap2\n      pop\n        /* \"#utility.yul\":5281:5399   */\n      pop\n        /* \"#utility.yul\":4607:5406   */\n      swap3\n      pop\n      swap3\n      pop\n      swap3\n      jump\t// out\n        /* \"#utility.yul\":5412:6066   */\n    tag_23:\n        /* \"#utility.yul\":5490:5496   */\n      0x00\n        /* \"#utility.yul\":5498:5504   */\n      0x00\n        /* \"#utility.yul\":5547:5549   */\n      0x40\n        /* \"#utility.yul\":5535:5544   */\n      dup4\n        /* \"#utility.yul\":5526:5533   */\n      dup6\n        /* \"#utility.yul\":5522:5545   */\n      sub\n        /* \"#utility.yul\":5518:5550   */\n      slt\n        /* \"#utility.yul\":5515:5634   */\n      iszero\n      tag_144\n      jumpi\n        /* \"#utility.yul\":5553:5632   */\n      tag_145\n      tag_45\n      jump\t// in\n    tag_145:\n        /* \"#utility.yul\":5515:5634   */\n    tag_144:\n        /* \"#utility.yul\":5701:5702   */\n      0x00\n        /* \"#utility.yul\":5690:5699   */\n      dup4\n        /* \"#utility.yul\":5686:5703   */\n      add\n        /* \"#utility.yul\":5673:5704   */\n      calldataload\n        /* \"#utility.yul\":5731:5749   */\n      0xffffffffffffffff\n        /* \"#utility.yul\":5723:5729   */\n      dup2\n        /* \"#utility.yul\":5720:5750   */\n      gt\n        /* \"#utility.yul\":5717:5834   */\n      iszero\n      tag_146\n      jumpi\n        /* \"#utility.yul\":5753:5832   */\n      tag_147\n      tag_46\n      jump\t// in\n    tag_147:\n        /* \"#utility.yul\":5717:5834   */\n    tag_146:\n        /* \"#utility.yul\":5858:5921   */\n      tag_148\n        /* \"#utility.yul\":5913:5920   */\n      dup6\n        /* \"#utility.yul\":5904:5910   */\n      dup3\n        /* \"#utility.yul\":5893:5902   */\n      dup7\n        /* \"#utility.yul\":5889:5911   */\n      add\n        /* \"#utility.yul\":5858:5921   */\n      tag_64\n      jump\t// in\n    tag_148:\n        /* \"#utility.yul\":5848:5921   */\n      swap3\n      pop\n        /* \"#utility.yul\":5644:5931   */\n      pop\n        /* \"#utility.yul\":5970:5972   */\n      0x20\n        /* \"#utility.yul\":5996:6049   */\n      tag_149\n        /* \"#utility.yul\":6041:6048   */\n      dup6\n        /* \"#utility.yul\":6032:6038   */\n      dup3\n        /* \"#utility.yul\":6021:6030   */\n      dup7\n        /* \"#utility.yul\":6017:6039   */\n      add\n        /* \"#utility.yul\":5996:6049   */\n      tag_49\n      jump\t// in\n    tag_149:\n        /* \"#utility.yul\":5986:6049   */\n      swap2\n      pop\n        /* \"#utility.yul\":5941:6059   */\n      pop\n        /* \"#utility.yul\":5412:6066   */\n      swap3\n      pop\n      swap3\n      swap1\n      pop\n      jump\t// out\n        /* \"#utility.yul\":6072:6252   */\n    tag_65:\n        /* \"#utility.yul\":6120:6197   */\n      0x4e487b7100000000000000000000000000000000000000000000000000000000\n        /* \"#utility.yul\":6117:6118   */\n      0x00\n        /* \"#utility.yul\":6110:6198   */\n      mstore\n        /* \"#utility.yul\":6217:6221   */\n      0x22\n        /* \"#utility.yul\":6214:6215   */\n      0x04\n        /* \"#utility.yul\":6207:6222   */\n      mstore\n        /* \"#utility.yul\":6241:6245   */\n      0x24\n        /* \"#utility.yul\":6238:6239   */\n      0x00\n        /* \"#utility.yul\":6231:6246   */\n      revert\n        /* \"#utility.yul\":6258:6578   */\n    tag_26:\n        /* \"#utility.yul\":6302:6308   */\n      0x00\n        /* \"#utility.yul\":6339:6340   */\n      0x02\n        /* \"#utility.yul\":6333:6337   */\n      dup3\n        /* \"#utility.yul\":6329:6341   */\n      div\n        /* \"#utility.yul\":6319:6341   */\n      swap1\n      pop\n        /* \"#utility.yul\":6386:6387   */\n      0x01\n        /* \"#utility.yul\":6380:6384   */\n      dup3\n        /* \"#utility.yul\":6376:6388   */\n      and\n        /* \"#utility.yul\":6407:6425   */\n      dup1\n        /* \"#utility.yul\":6397:6478   */\n      tag_152\n      jumpi\n        /* \"#utility.yul\":6463:6467   */\n      0x7f\n        /* \"#utility.yul\":6455:6461   */\n      dup3\n        /* \"#utility.yul\":6451:6468   */\n      and\n        /* \"#utility.yul\":6441:6468   */\n      swap2\n      pop\n        /* \"#utility.yul\":6397:6478   */\n    tag_152:\n        /* \"#utility.yul\":6525:6527   */\n      0x20\n        /* \"#utility.yul\":6517:6523   */\n      dup3\n        /* \"#utility.yul\":6514:6528   */\n      lt\n        /* \"#utility.yul\":6494:6512   */\n      dup2\n        /* \"#utility.yul\":6491:6529   */\n      sub\n        /* \"#utility.yul\":6488:6572   */\n      tag_153\n      jumpi\n        /* \"#utility.yul\":6544:6562   */\n      tag_154\n      tag_65\n      jump\t// in\n    tag_154:\n        /* \"#utility.yul\":6488:6572   */\n    tag_153:\n        /* \"#utility.yul\":6309:6578   */\n      pop\n        /* \"#utility.yul\":6258:6578   */\n      swap2\n      swap1\n      pop\n      jump\t// out\n        /* \"#utility.yul\":6584:6725   */\n    tag_66:\n        /* \"#utility.yul\":6633:6637   */\n      0x00\n        /* \"#utility.yul\":6656:6659   */\n      dup2\n        /* \"#utility.yul\":6648:6659   */\n      swap1\n      pop\n        /* \"#utility.yul\":6679:6682   */\n      dup2\n        /* \"#utility.yul\":6676:6677   */\n      0x00\n        /* \"#utility.yul\":6669:6683   */\n      mstore\n        /* \"#utility.yul\":6713:6717   */\n      0x20\n        /* \"#utility.yul\":6710:6711   */\n      0x00\n        /* \"#utility.yul\":6700:6718   */\n      keccak256\n        /* \"#utility.yul\":6692:6718   */\n      swap1\n      pop\n        /* \"#utility.yul\":6584:6725   */\n      swap2\n      swap1\n      pop\n      jump\t// out\n        /* \"#utility.yul\":6731:6824   */\n    tag_67:\n        /* \"#utility.yul\":6768:6774   */\n      0x00\n        /* \"#utility.yul\":6815:6817   */\n      0x20\n        /* \"#utility.yul\":6810:6812   */\n      0x1f\n        /* \"#utility.yul\":6803:6808   */\n      dup4\n        /* \"#utility.yul\":6799:6813   */\n      add\n        /* \"#utility.yul\":6795:6818   */\n      div\n        /* \"#utility.yul\":6785:6818   */\n      swap1\n      pop\n        /* \"#utility.yul\":6731:6824   */\n      swap2\n      swap1\n      pop\n      jump\t// out\n        /* \"#utility.yul\":6830:6937   */\n    tag_68:\n        /* \"#utility.yul\":6874:6882   */\n      0x00\n        /* \"#utility.yul\":6924:6929   */\n      dup3\n        /* \"#utility.yul\":6918:6922   */\n      dup3\n        /* \"#utility.yul\":6914:6930   */\n      shl\n        /* \"#utility.yul\":6893:6930   */\n      swap1\n      pop\n        /* \"#utility.yul\":6830:6937   */\n      swap3\n      swap2\n      pop\n      pop\n      jump\t// out\n        /* \"#utility.yul\":6943:7336   */\n    tag_69:\n        /* \"#utility.yul\":7012:7018   */\n      0x00\n        /* \"#utility.yul\":7062:7063   */\n      0x08\n        /* \"#utility.yul\":7050:7060   */\n      dup4\n        /* \"#utility.yul\":7046:7064   */\n      mul\n        /* \"#utility.yul\":7085:7182   */\n      tag_159\n        /* \"#utility.yul\":7115:7181   */\n      0xffffffffffffffffffffffffffffffffffffffffffffffffffffffffffffffff\n        /* \"#utility.yul\":7104:7113   */\n      dup3\n        /* \"#utility.yul\":7085:7182   */\n      tag_68\n      jump\t// in\n    tag_159:\n        /* \"#utility.yul\":7203:7242   */\n      tag_160\n        /* \"#utility.yul\":7233:7241   */\n      dup7\n        /* \"#utility.yul\":7222:7231   */\n      dup4\n        /* \"#utility.yul\":7203:7242   */\n      tag_68\n      jump\t// in\n    tag_160:\n        /* \"#utility.yul\":7191:7242   */\n      swap6\n      pop\n        /* \"#utility.yul\":7275:7279   */\n      dup1\n        /* \"#utility.yul\":7271:7280   */\n      not\n        /* \"#utility.yul\":7264:7269   */\n      dup5\n        /* \"#utility.yul\":7260:7281   */\n      and\n        /* \"#utility.yul\":7251:7281   */\n      swap4\n      pop\n        /* \"#utility.yul\":7324:7328   */\n      dup1\n        /* \"#utility.yul\":7314:7322   */\n      dup7\n        /* \"#utility.yul\":7310:7329   */\n      and\n        /* \"#utility.yul\":7303:7308   */\n      dup5\n        /* \"#utility.yul\":7300:7330   */\n      or\n        /* \"#utility.yul\":7290:7330   */\n      swap3\n      pop\n        /* \"#utility.yul\":7019:7336   */\n      pop\n      pop\n        /* \"#utility.yul\":6943:7336   */\n      swap4\n      swap3\n      pop\n      pop\n      pop\n      jump\t// out\n        /* \"#utility.yul\":7342:7402   */\n    tag_70:\n        /* \"#utility.yul\":7370:7373   */\n      0x00\n        /* \"#utility.yul\":7391:7396   */\n      dup2\n        /* \"#utility.yul\":7384:7396   */\n      swap1\n      pop\n        /* \"#utility.yul\":7342:7402   */\n      swap2\n      swap1\n      pop\n      jump\t// out\n        /* \"#utility.yul\":7408:7550   */\n    tag_71:\n        /* \"#utility.yul\":7458:7467   */\n      0x00\n        /* \"#utility.yul\":7491:7544   */\n      tag_163\n        /* \"#utility.yul\":7509:7543   */\n      tag_164\n        /* \"#utility.yul\":7518:7542   */\n      tag_165\n        /* \"#utility.yul\":7536:7541   */\n      dup5\n        /* \"#utility.yul\":7518:7542   */\n      tag_47\n      jump\t// in\n    tag_165:\n        /* \"#utility.yul\":7509:7543   */\n      tag_70\n      jump\t// in\n    tag_164:\n        /* \"#utility.yul\":7491:7544   */\n      tag_47\n      jump\t// in\n    tag_163:\n        /* \"#utility.yul\":7478:7544   */\n      swap1\n      pop\n        /* \"#utility.yul\":7408:7550   */\n      swap2\n      swap1\n      pop\n      jump\t// out\n        /* \"#utility.yul\":7556:7631   */\n    tag_72:\n        /* \"#utility.yul\":7599:7602   */\n      0x00\n        /* \"#utility.yul\":7620:7625   */\n      dup2\n        /* \"#utility.yul\":7613:7625   */\n      swap1\n      pop\n        /* \"#utility.yul\":7556:7631   */\n      swap2\n      swap1\n      pop\n      jump\t// out\n        /* \"#utility.yul\":7637:7906   */\n    tag_73:\n        /* \"#utility.yul\":7747:7786   */\n      tag_168\n        /* \"#utility.yul\":7778:7785   */\n      dup4\n        /* \"#utility.yul\":7747:7786   */\n      tag_71\n      jump\t// in\n    tag_168:\n        /* \"#utility.yul\":7808:7899   */\n      tag_169\n        /* \"#utility.yul\":7857:7898   */\n      tag_170\n        /* \"#utility.yul\":7881:7897   */\n      dup3\n        /* \"#utility.yul\":7857:7898   */\n      tag_72\n      jump\t// in\n    tag_170:\n        /* \"#utility.yul\":7849:7855   */\n      dup5\n        /* \"#utility.yul\":7842:7846   */\n      dup5\n        /* \"#utility.yul\":7836:7847   */\n      sload\n        /* \"#utility.yul\":7808:7899   */\n      tag_69\n      jump\t// in\n    tag_169:\n        /* \"#utility.yul\":7802:7806   */\n      dup3\n        /* \"#utility.yul\":7795:7900   */\n      sstore\n        /* \"#utility.yul\":7713:7906   */\n      pop\n        /* \"#utility.yul\":7637:7906   */\n      pop\n      pop\n      pop\n      jump\t// out\n        /* \"#utility.yul\":7912:7985   */\n    tag_74:\n        /* \"#utility.yul\":7957:7960   */\n      0x00\n        /* \"#utility.yul\":7978:7979   */\n      0x00\n        /* \"#utility.yul\":7971:7979   */\n      swap1\n      pop\n        /* \"#utility.yul\":7912:7985   */\n      swap1\n      jump\t// out\n        /* \"#utility.yul\":7991:8180   */\n    tag_75:\n        /* \"#utility.yul\":8068:8100   */\n      tag_173\n      tag_74\n      jump\t// in\n    tag_173:\n        /* \"#utility.yul\":8109:8174   */\n      tag_174\n        /* \"#utility.yul\":8167:8173   */\n      dup2\n        /* \"#utility.yul\":8159:8165   */\n      dup5\n        /* \"#utility.yul\":8153:8157   */\n      dup5\n        /* \"#utility.yul\":8109:8174   */\n      tag_73\n      jump\t// in\n    tag_174:\n        /* \"#utility.yul\":8044:8180   */\n      pop\n        /* \"#utility.yul\":7991:8180   */\n      pop\n      pop\n      jump\t// out\n        /* \"#utility.yul\":8186:8400   */\n    tag_76:\n        /* \"#utility.yul\":8271:8272   */\n      0x00\n        /* \"#utility.yul\":8256:8394   */\n    tag_176:\n        /* \"#utility.yul\":8281:8290   */\n      dup3\n        /* \"#utility.yul\":8278:8279   */\n      dup2\n        /* \"#utility.yul\":8275:8291   */\n      lt\n        /* \"#utility.yul\":8256:8394   */\n      iszero\n      tag_178\n      jumpi\n        /* \"#utility.yul\":8333:8384   */\n      tag_179\n        /* \"#utility.yul\":8382:8383   */\n      0x00\n        /* \"#utility.yul\":8378:8379   */\n      dup3\n        /* \"#utility.yul\":8367:8376   */\n      dup5\n        /* \"#utility.yul\":8363:8380   */\n      add\n        /* \"#utility.yul\":8333:8384   */\n      tag_75\n      jump\t// in\n    tag_179:\n        /* \"#utility.yul\":8306:8307   */\n      0x01\n        /* \"#utility.yul\":8303:8304   */\n      dup2\n        /* \"#utility.yul\":8299:8308   */\n      add\n        /* \"#utility.yul\":8294:8308   */\n      swap1\n      pop\n        /* \"#utility.yul\":8256:8394   */\n      jump(tag_176)\n    tag_178:\n        /* \"#utility.yul\":8260:8274   */\n      pop\n        /* \"#utility.yul\":8186:8400   */\n      pop\n      pop\n      jump\t// out\n        /* \"#utility.yul\":8406:9152   */\n    tag_77:\n        /* \"#utility.yul\":8507:8509   */\n      0x1f\n        /* \"#utility.yul\":8502:8505   */\n      dup3\n        /* \"#utility.yul\":8499:8510   */\n      gt\n        /* \"#utility.yul\":8496:9145   */\n      iszero\n      tag_181\n      jumpi\n        /* \"#utility.yul\":8536:8546   */\n      dup3\n        /* \"#utility.yul\":8531:8534   */\n      dup3\n        /* \"#utility.yul\":8528:8547   */\n      gt\n        /* \"#utility.yul\":8525:9135   */\n      iszero\n      tag_182\n      jumpi\n        /* \"#utility.yul\":8582:8620   */\n      tag_183\n        /* \"#utility.yul\":8614:8619   */\n      dup2\n        /* \"#utility.yul\":8582:8620   */\n      tag_66\n      jump\t// in\n    tag_183:\n        /* \"#utility.yul\":8657:8679   */\n      tag_184\n        /* \"#utility.yul\":8675:8678   */\n      dup4\n        /* \"#utility.yul\":8657:8679   */\n      tag_67\n      jump\t// in\n    tag_184:\n        /* \"#utility.yul\":8716:8745   */\n      tag_185\n        /* \"#utility.yul\":8734:8744   */\n      dup6\n        /* \"#utility.yul\":8716:8745   */\n      tag_67\n      jump\t// in\n    tag_185:\n        /* \"#utility.yul\":8906:8908   */\n      0x20\n        /* \"#utility.yul\":8894:8904   */\n      dup7\n        /* \"#utility.yul\":8891:8909   */\n      lt\n        /* \"#utility.yul\":8888:8967   */\n      iszero\n      tag_186\n      jumpi\n        /* \"#utility.yul\":8948:8949   */\n      0x00\n        /* \"#utility.yul\":8932:8949   */\n      swap1\n      pop\n        /* \"#utility.yul\":8888:8967   */\n    tag_186:\n        /* \"#utility.yul\":9017:9029   */\n      dup1\n        /* \"#utility.yul\":9007:9015   */\n      dup4\n        /* \"#utility.yul\":9003:9030   */\n      add\n        /* \"#utility.yul\":9047:9121   */\n      tag_187\n        /* \"#utility.yul\":9107:9119   */\n      dup3\n        /* \"#utility.yul\":9093:9105   */\n      dup5\n        /* \"#utility.yul\":9089:9120   */\n      sub\n        /* \"#utility.yul\":9076:9087   */\n      dup3\n        /* \"#utility.yul\":9047:9121   */\n      tag_76\n      jump\t// in\n    tag_187:\n        /* \"#utility.yul\":8548:9135   */\n      pop\n      pop\n      pop\n      pop\n        /* \"#utility.yul\":8525:9135   */\n    tag_182:\n        /* \"#utility.yul\":8496:9145   */\n    tag_181:\n        /* \"#utility.yul\":8406:9152   */\n      pop\n      pop\n      pop\n      jump\t// out\n        /* \"#utility.yul\":9158:9275   */\n    tag_78:\n        /* \"#utility.yul\":9212:9220   */\n      0x00\n        /* \"#utility.yul\":9262:9267   */\n      dup3\n        /* \"#utility.yul\":9256:9260   */\n      dup3\n        /* \"#utility.yul\":9252:9268   */\n      shr\n        /* \"#utility.yul\":9231:9268   */\n      swap1\n      pop\n        /* \"#utility.yul\":9158:9275   */\n      swap3\n      swap2\n      pop\n      pop\n      jump\t// out\n        /* \"#utility.yul\":9281:9450   */\n    tag_79:\n        /* \"#utility.yul\":9325:9331   */\n      0x00\n        /* \"#utility.yul\":9358:9409   */\n      tag_190\n        /* \"#utility.yul\":9406:9407   */\n      0x00\n        /* \"#utility.yul\":9402:9408   */\n      not\n        /* \"#utility.yul\":9394:9399   */\n      dup5\n        /* \"#utility.yul\":9391:9392   */\n      0x08\n        /* \"#utility.yul\":9387:9400   */\n      mul\n        /* \"#utility.yul\":9358:9409   */\n      tag_78\n      jump\t// in\n    tag_190:\n        /* \"#utility.yul\":9354:9410   */\n      not\n        /* \"#utility.yul\":9439:9443   */\n      dup1\n        /* \"#utility.yul\":9433:9437   */\n      dup4\n        /* \"#utility.yul\":9429:9444   */\n      and\n        /* \"#utility.yul\":9419:9444   */\n      swap2\n      pop\n        /* \"#utility.yul\":9332:9450   */\n      pop\n        /* \"#utility.yul\":9281:9450   */\n      swap3\n      swap2\n      pop\n      pop\n      jump\t// out\n        /* \"#utility.yul\":9455:9750   */\n    tag_80:\n        /* \"#utility.yul\":9531:9535   */\n      0x00\n        /* \"#utility.yul\":9677:9706   */\n      tag_192\n        /* \"#utility.yul\":9702:9705   */\n      dup4\n        /* \"#utility.yul\":9696:9700   */\n      dup4\n        /* \"#utility.yul\":9677:9706   */\n      tag_79\n      jump\t// in\n    tag_192:\n        /* \"#utility.yul\":9669:9706   */\n      swap2\n      pop\n        /* \"#utility.yul\":9739:9742   */\n      dup3\n        /* \"#utility.yul\":9736:9737   */\n      0x02\n        /* \"#utility.yul\":9732:9743   */\n      mul\n        /* \"#utility.yul\":9726:9730   */\n      dup3\n        /* \"#utility.yul\":9723:9744   */\n      or\n        /* \"#utility.yul\":9715:9744   */\n      swap1\n      pop\n        /* \"#utility.yul\":9455:9750   */\n      swap3\n      swap2\n      pop\n      pop\n      jump\t// out\n        /* \"#utility.yul\":9755:11150   */\n    tag_39:\n        /* \"#utility.yul\":9872:9909   */\n      tag_194\n        /* \"#utility.yul\":9905:9908   */\n      dup3\n        /* \"#utility.yul\":9872:9909   */\n      tag_50\n      jump\t// in\n    tag_194:\n        /* \"#utility.yul\":9974:9992   */\n      0xffffffffffffffff\n        /* \"#utility.yul\":9966:9972   */\n      dup2\n        /* \"#utility.yul\":9963:9993   */\n      gt\n        /* \"#utility.yul\":9960:10016   */\n      iszero\n      tag_195\n      jumpi\n        /* \"#utility.yul\":9996:10014   */\n      tag_196\n      tag_58\n      jump\t// in\n    tag_196:\n        /* \"#utility.yul\":9960:10016   */\n    tag_195:\n        /* \"#utility.yul\":10040:10078   */\n      tag_197\n        /* \"#utility.yul\":10072:10076   */\n      dup3\n        /* \"#utility.yul\":10066:10077   */\n      sload\n        /* \"#utility.yul\":10040:10078   */\n      tag_26\n      jump\t// in\n    tag_197:\n        /* \"#utility.yul\":10125:10192   */\n      tag_198\n        /* \"#utility.yul\":10185:10191   */\n      dup3\n        /* \"#utility.yul\":10177:10183   */\n      dup3\n        /* \"#utility.yul\":10171:10175   */\n      dup6\n        /* \"#utility.yul\":10125:10192   */\n      tag_77\n      jump\t// in\n    tag_198:\n        /* \"#utility.yul\":10219:10220   */\n      0x00\n        /* \"#utility.yul\":10243:10247   */\n      0x20\n        /* \"#utility.yul\":10230:10247   */\n      swap1\n      pop\n        /* \"#utility.yul\":10275:10277   */\n      0x1f\n        /* \"#utility.yul\":10267:10273   */\n      dup4\n        /* \"#utility.yul\":10264:10278   */\n      gt\n        /* \"#utility.yul\":10292:10293   */\n      0x01\n        /* \"#utility.yul\":10287:10905   */\n      dup2\n      eq\n      tag_200\n      jumpi\n        /* \"#utility.yul\":10949:10950   */\n      0x00\n        /* \"#utility.yul\":10966:10972   */\n      dup5\n        /* \"#utility.yul\":10963:11040   */\n      iszero\n      tag_201\n      jumpi\n        /* \"#utility.yul\":11015:11024   */\n      dup3\n        /* \"#utility.yul\":11010:11013   */\n      dup8\n        /* \"#utility.yul\":11006:11025   */\n      add\n        /* \"#utility.yul\":11000:11026   */\n      mload\n        /* \"#utility.yul\":10991:11026   */\n      swap1\n      pop\n        /* \"#utility.yul\":10963:11040   */\n    tag_201:\n        /* \"#utility.yul\":11066:11133   */\n      tag_202\n        /* \"#utility.yul\":11126:11132   */\n      dup6\n        /* \"#utility.yul\":11119:11124   */\n      dup3\n        /* \"#utility.yul\":11066:11133   */\n      tag_80\n      jump\t// in\n    tag_202:\n        /* \"#utility.yul\":11060:11064   */\n      dup7\n        /* \"#utility.yul\":11053:11134   */\n      sstore\n        /* \"#utility.yul\":10922:11144   */\n      pop\n        /* \"#utility.yul\":10257:11144   */\n      jump(tag_199)\n        /* \"#utility.yul\":10287:10905   */\n    tag_200:\n        /* \"#utility.yul\":10339:10343   */\n      0x1f\n        /* \"#utility.yul\":10335:10344   */\n      not\n        /* \"#utility.yul\":10327:10333   */\n      dup5\n        /* \"#utility.yul\":10323:10345   */\n      and\n        /* \"#utility.yul\":10373:10410   */\n      tag_203\n        /* \"#utility.yul\":10405:10409   */\n      dup7\n        /* \"#utility.yul\":10373:10410   */\n      tag_66\n      jump\t// in\n    tag_203:\n        /* \"#utility.yul\":10432:10433   */\n      0x00\n        /* \"#utility.yul\":10446:10654   */\n    tag_204:\n        /* \"#utility.yul\":10460:10467   */\n      dup3\n        /* \"#utility.yul\":10457:10458   */\n      dup2\n        /* \"#utility.yul\":10454:10468   */\n      lt\n        /* \"#utility.yul\":10446:10654   */\n      iszero\n      tag_206\n      jumpi\n        /* \"#utility.yul\":10539:10548   */\n      dup5\n        /* \"#utility.yul\":10534:10537   */\n      dup10\n        /* \"#utility.yul\":10530:10549   */\n      add\n        /* \"#utility.yul\":10524:10550   */\n      mload\n        /* \"#utility.yul\":10516:10522   */\n      dup3\n        /* \"#utility.yul\":10509:10551   */\n      sstore\n        /* \"#utility.yul\":10590:10591   */\n      0x01\n        /* \"#utility.yul\":10582:10588   */\n      dup3\n        /* \"#utility.yul\":10578:10592   */\n      add\n        /* \"#utility.yul\":10568:10592   */\n      swap2\n      pop\n        /* \"#utility.yul\":10637:10639   */\n      0x20\n        /* \"#utility.yul\":10626:10635   */\n      dup6\n        /* \"#utility.yul\":10622:10640   */\n      add\n        /* \"#utility.yul\":10609:10640   */\n      swap5\n      pop\n        /* \"#utility.yul\":10483:10487   */\n      0x20\n        /* \"#utility.yul\":10480:10481   */\n      dup2\n        /* \"#utility.yul\":10476:10488   */\n      add\n        /* \"#utility.yul\":10471:10488   */\n      swap1\n      pop\n        /* \"#utility.yul\":10446:10654   */\n      jump(tag_204)\n    tag_206:\n        /* \"#utility.yul\":10682:10688   */\n      dup7\n        /* \"#utility.yul\":10673:10680   */\n      dup4\n        /* \"#utility.yul\":10670:10689   */\n      lt\n        /* \"#utility.yul\":10667:10846   */\n      iszero\n      tag_207\n      jumpi\n        /* \"#utility.yul\":10740:10749   */\n      dup5\n        /* \"#utility.yul\":10735:10738   */\n      dup10\n        /* \"#utility.yul\":10731:10750   */\n      add\n        /* \"#utility.yul\":10725:10751   */\n      mload\n        /* \"#utility.yul\":10783:10831   */\n      tag_208\n        /* \"#utility.yul\":10825:10829   */\n      0x1f\n        /* \"#utility.yul\":10817:10823   */\n      dup10\n        /* \"#utility.yul\":10813:10830   */\n      and\n        /* \"#utility.yul\":10802:10811   */\n      dup3\n        /* \"#utility.yul\":10783:10831   */\n      tag_79\n      jump\t// in\n    tag_208:\n        /* \"#utility.yul\":10775:10781   */\n      dup4\n        /* \"#utility.yul\":10768:10832   */\n      sstore\n        /* \"#utility.yul\":10690:10846   */\n      pop\n        /* \"#utility.yul\":10667:10846   */\n    tag_207:\n        /* \"#utility.yul\":10892:10893   */\n      0x01\n        /* \"#utility.yul\":10888:10889   */\n      0x02\n        /* \"#utility.yul\":10880:10886   */\n      dup9\n        /* \"#utility.yul\":10876:10890   */\n      mul\n        /* \"#utility.yul\":10872:10894   */\n      add\n        /* \"#utility.yul\":10866:10870   */\n      dup9\n        /* \"#utility.yul\":10859:10895   */\n      sstore\n        /* \"#utility.yul\":10294:10905   */\n      pop\n      pop\n      pop\n        /* \"#utility.yul\":10257:11144   */\n    tag_199:\n      pop\n        /* \"#utility.yul\":9847:11150   */\n      pop\n      pop\n      pop\n        /* \"#utility.yul\":9755:11150   */\n      pop\n      pop\n      jump\t// out\n        /* \"#utility.yul\":11156:11336   */\n    tag_81:\n        /* \"#utility.yul\":11204:11281   */\n      0x4e487b7100000000000000000000000000000000000000000000000000000000\n        /* \"#utility.yul\":11201:11202   */\n      0x00\n        /* \"#utility.yul\":11194:11282   */\n      mstore\n        /* \"#utility.yul\":11301:11305   */\n      0x11\n        /* \"#utility.yul\":11298:11299   */\n      0x04\n        /* \"#utility.yul\":11291:11306   */\n      mstore\n        /* \"#utility.yul\":11325:11329   */\n      0x24\n        /* \"#utility.yul\":11322:11323   */\n      0x00\n        /* \"#utility.yul\":11315:11330   */\n      revert\n        /* \"#utility.yul\":11342:11533   */\n    tag_43:\n        /* \"#utility.yul\":11382:11385   */\n      0x00\n        /* \"#utility.yul\":11401:11421   */\n      tag_211\n        /* \"#utility.yul\":11419:11420   */\n      dup3\n        /* \"#utility.yul\":11401:11421   */\n      tag_47\n      jump\t// in\n    tag_211:\n        /* \"#utility.yul\":11396:11421   */\n      swap2\n      pop\n        /* \"#utility.yul\":11435:11455   */\n      tag_212\n        /* \"#utility.yul\":11453:11454   */\n      dup4\n        /* \"#utility.yul\":11435:11455   */\n      tag_47\n      jump\t// in\n    tag_212:\n        /* \"#utility.yul\":11430:11455   */\n      swap3\n      pop\n        /* \"#utility.yul\":11478:11479   */\n      dup3\n        /* \"#utility.yul\":11475:11476   */\n      dup3\n        /* \"#utility.yul\":11471:11480   */\n      add\n        /* \"#utility.yul\":11464:11480   */\n      swap1\n      pop\n        /* \"#utility.yul\":11499:11502   */\n      dup1\n        /* \"#utility.yul\":11496:11497   */\n      dup3\n        /* \"#utility.yul\":11493:11503   */\n      gt\n        /* \"#utility.yul\":11490:11526   */\n      iszero\n      tag_213\n      jumpi\n        /* \"#utility.yul\":11506:11524   */\n      tag_214\n      tag_81\n      jump\t// in\n    tag_214:\n        /* \"#utility.yul\":11490:11526   */\n    tag_213:\n        /* \"#utility.yul\":11342:11533   */\n      swap3\n      swap2\n      pop\n      pop\n      jump\t// out\n\n    auxdata: 0xa264697066735822122058b6a8f69dacfcd8e05a5e288199d3016d1a71942b12e5ded757e073bee73b8964736f6c63430008220033\n}\n",
				"bytecode": {
					"linkReferences": {},
					"object": "608060405260645f553480156012575f5ffd5b50610988806100205f395ff3fe608060405234801561000f575f5ffd5b506004361061004a575f3560e01c80630532cde11461004e5780631fcea3fa1461007f5780636f1a8c84146100b0578063f150bd44146100cc575b5f5ffd5b6100686004803603810190610063919061034b565b6100e8565b6040516100769291906103f5565b60405180910390f35b6100996004803603810190610094919061034b565b61018e565b6040516100a79291906103f5565b60405180910390f35b6100ca60048036038101906100c5919061054f565b61025c565b005b6100e660048036038101906100e191906105bb565b6102a8565b005b6001602052805f5260405f205f91509050805f01805461010790610642565b80601f016020809104026020016040519081016040528092919081815260200182805461013390610642565b801561017e5780601f106101555761010080835404028352916020019161017e565b820191905f5260205f20905b81548152906001019060200180831161016157829003601f168201915b5050505050908060010154905082565b60605f5f60015f8581526020019081526020015f206040518060400160405290815f820180546101bd90610642565b80601f01602080910402602001604051908101604052809291908181526020018280546101e990610642565b80156102345780601f1061020b57610100808354040283529160200191610234565b820191905f5260205f20905b81548152906001019060200180831161021757829003601f168201915b505050505081526020016001820154815250509050805f015181602001519250925050915091565b60405180604001604052808381526020018281525060015f8581526020019081526020015f205f820151815f0190816102959190610823565b5060208201518160010155905050505050565b60405180604001604052808381526020018281525060015f5f5481526020019081526020015f205f820151815f0190816102e29190610823565b506020820151816001015590505060015f546102fe919061091f565b5f819055505050565b5f604051905090565b5f5ffd5b5f5ffd5b5f819050919050565b61032a81610318565b8114610334575f5ffd5b50565b5f8135905061034581610321565b92915050565b5f602082840312156103605761035f610310565b5b5f61036d84828501610337565b91505092915050565b5f81519050919050565b5f82825260208201905092915050565b8281835e5f83830152505050565b5f601f19601f8301169050919050565b5f6103b882610376565b6103c28185610380565b93506103d2818560208601610390565b6103db8161039e565b840191505092915050565b6103ef81610318565b82525050565b5f6040820190508181035f83015261040d81856103ae565b905061041c60208301846103e6565b9392505050565b5f5ffd5b5f5ffd5b7f4e487b71000000000000000000000000000000000000000000000000000000005f52604160045260245ffd5b6104618261039e565b810181811067ffffffffffffffff821117156104805761047f61042b565b5b80604052505050565b5f610492610307565b905061049e8282610458565b919050565b5f67ffffffffffffffff8211156104bd576104bc61042b565b5b6104c68261039e565b9050602081019050919050565b828183375f83830152505050565b5f6104f36104ee846104a3565b610489565b90508281526020810184848401111561050f5761050e610427565b5b61051a8482856104d3565b509392505050565b5f82601f83011261053657610535610423565b5b81356105468482602086016104e1565b91505092915050565b5f5f5f6060848603121561056657610565610310565b5b5f61057386828701610337565b935050602084013567ffffffffffffffff81111561059457610593610314565b5b6105a086828701610522565b92505060406105b186828701610337565b9150509250925092565b5f5f604083850312156105d1576105d0610310565b5b5f83013567ffffffffffffffff8111156105ee576105ed610314565b5b6105fa85828601610522565b925050602061060b85828601610337565b9150509250929050565b7f4e487b71000000000000000000000000000000000000000000000000000000005f52602260045260245ffd5b5f600282049050600182168061065957607f821691505b60208210810361066c5761066b610615565b5b50919050565b5f819050815f5260205f209050919050565b5f6020601f8301049050919050565b5f82821b905092915050565b5f600883026106ce7fffffffffffffffffffffffffffffffffffffffffffffffffffffffffffffffff82610693565b6106d88683610693565b95508019841693508086168417925050509392505050565b5f819050919050565b5f61071361070e61070984610318565b6106f0565b610318565b9050919050565b5f819050919050565b61072c836106f9565b6107406107388261071a565b84845461069f565b825550505050565b5f5f905090565b610757610748565b610762818484610723565b505050565b5f5b828110156107885761077d5f82840161074f565b600181019050610769565b505050565b601f8211156107db57828211156107da576107a781610672565b6107b083610684565b6107b985610684565b60208610156107c6575f90505b8083016107d582840382610767565b505050505b5b505050565b5f82821c905092915050565b5f6107fb5f19846008026107e0565b1980831691505092915050565b5f61081383836107ec565b9150826002028217905092915050565b61082c82610376565b67ffffffffffffffff8111156108455761084461042b565b5b61084f8254610642565b61085a82828561078d565b5f60209050601f83116001811461088b575f8415610879578287015190505b6108838582610808565b8655506108ea565b601f19841661089986610672565b5f5b828110156108c05784890151825560018201915060208501945060208101905061089b565b868310156108dd57848901516108d9601f8916826107ec565b8355505b6001600288020188555050505b505050505050565b7f4e487b71000000000000000000000000000000000000000000000000000000005f52601160045260245ffd5b5f61092982610318565b915061093483610318565b925082820190508082111561094c5761094b6108f2565b5b9291505056fea264697066735822122058b6a8f69dacfcd8e05a5e288199d3016d1a71942b12e5ded757e073bee73b8964736f6c63430008220033",
					"opcodes": "PUSH1 0x80 PUSH1 0x40 MSTORE PUSH1 0x64 PUSH0 SSTORE CALLVALUE DUP1 ISZERO PUSH1 0x12 JUMPI PUSH0 PUSH0 REVERT JUMPDEST POP PUSH2 0x988 DUP1 PUSH2 0x20 PUSH0 CODECOPY PUSH0 RETURN INVALID PUSH1 0x80 PUSH1 0x40 MSTORE CALLVALUE DUP1 ISZERO PUSH2 0xF JUMPI PUSH0 PUSH0 REVERT JUMPDEST POP PUSH1 0x4 CALLDATASIZE LT PUSH2 0x4A JUMPI PUSH0 CALLDATALOAD PUSH1 0xE0 SHR DUP1 PUSH4 0x532CDE1 EQ PUSH2 0x4E JUMPI DUP1 PUSH4 0x1FCEA3FA EQ PUSH2 0x7F JUMPI DUP1 PUSH4 0x6F1A8C84 EQ PUSH2 0xB0 JUMPI DUP1 PUSH4 0xF150BD44 EQ PUSH2 0xCC JUMPI JUMPDEST PUSH0 PUSH0 REVERT JUMPDEST PUSH2 0x68 PUSH1 0x4 DUP1 CALLDATASIZE SUB DUP2 ADD SWAP1 PUSH2 0x63 SWAP2 SWAP1 PUSH2 0x34B JUMP JUMPDEST PUSH2 0xE8 JUMP JUMPDEST PUSH1 0x40 MLOAD PUSH2 0x76 SWAP3 SWAP2 SWAP1 PUSH2 0x3F5 JUMP JUMPDEST PUSH1 0x40 MLOAD DUP1 SWAP2 SUB SWAP1 RETURN JUMPDEST PUSH2 0x99 PUSH1 0x4 DUP1 CALLDATASIZE SUB DUP2 ADD SWAP1 PUSH2 0x94 SWAP2 SWAP1 PUSH2 0x34B JUMP JUMPDEST PUSH2 0x18E JUMP JUMPDEST PUSH1 0x40 MLOAD PUSH2 0xA7 SWAP3 SWAP2 SWAP1 PUSH2 0x3F5 JUMP JUMPDEST PUSH1 0x40 MLOAD DUP1 SWAP2 SUB SWAP1 RETURN JUMPDEST PUSH2 0xCA PUSH1 0x4 DUP1 CALLDATASIZE SUB DUP2 ADD SWAP1 PUSH2 0xC5 SWAP2 SWAP1 PUSH2 0x54F JUMP JUMPDEST PUSH2 0x25C JUMP JUMPDEST STOP JUMPDEST PUSH2 0xE6 PUSH1 0x4 DUP1 CALLDATASIZE SUB DUP2 ADD SWAP1 PUSH2 0xE1 SWAP2 SWAP1 PUSH2 0x5BB JUMP JUMPDEST PUSH2 0x2A8 JUMP JUMPDEST STOP JUMPDEST PUSH1 0x1 PUSH1 0x20 MSTORE DUP1 PUSH0 MSTORE PUSH1 0x40 PUSH0 KECCAK256 PUSH0 SWAP2 POP SWAP1 POP DUP1 PUSH0 ADD DUP1 SLOAD PUSH2 0x107 SWAP1 PUSH2 0x642 JUMP JUMPDEST DUP1 PUSH1 0x1F ADD PUSH1 0x20 DUP1 SWAP2 DIV MUL PUSH1 0x20 ADD PUSH1 0x40 MLOAD SWAP1 DUP2 ADD PUSH1 0x40 MSTORE DUP1 SWAP3 SWAP2 SWAP1 DUP2 DUP2 MSTORE PUSH1 0x20 ADD DUP3 DUP1 SLOAD PUSH2 0x133 SWAP1 PUSH2 0x642 JUMP JUMPDEST DUP1 ISZERO PUSH2 0x17E JUMPI DUP1 PUSH1 0x1F LT PUSH2 0x155 JUMPI PUSH2 0x100 DUP1 DUP4 SLOAD DIV MUL DUP4 MSTORE SWAP2 PUSH1 0x20 ADD SWAP2 PUSH2 0x17E JUMP JUMPDEST DUP3 ADD SWAP2 SWAP1 PUSH0 MSTORE PUSH1 0x20 PUSH0 KECCAK256 SWAP1 JUMPDEST DUP2 SLOAD DUP2 MSTORE SWAP1 PUSH1 0x1 ADD SWAP1 PUSH1 0x20 ADD DUP1 DUP4 GT PUSH2 0x161 JUMPI DUP3 SWAP1 SUB PUSH1 0x1F AND DUP3 ADD SWAP2 JUMPDEST POP POP POP POP POP SWAP1 DUP1 PUSH1 0x1 ADD SLOAD SWAP1 POP DUP3 JUMP JUMPDEST PUSH1 0x60 PUSH0 PUSH0 PUSH1 0x1 PUSH0 DUP6 DUP2 MSTORE PUSH1 0x20 ADD SWAP1 DUP2 MSTORE PUSH1 0x20 ADD PUSH0 KECCAK256 PUSH1 0x40 MLOAD DUP1 PUSH1 0x40 ADD PUSH1 0x40 MSTORE SWAP1 DUP2 PUSH0 DUP3 ADD DUP1 SLOAD PUSH2 0x1BD SWAP1 PUSH2 0x642 JUMP JUMPDEST DUP1 PUSH1 0x1F ADD PUSH1 0x20 DUP1 SWAP2 DIV MUL PUSH1 0x20 ADD PUSH1 0x40 MLOAD SWAP1 DUP2 ADD PUSH1 0x40 MSTORE DUP1 SWAP3 SWAP2 SWAP1 DUP2 DUP2 MSTORE PUSH1 0x20 ADD DUP3 DUP1 SLOAD PUSH2 0x1E9 SWAP1 PUSH2 0x642 JUMP JUMPDEST DUP1 ISZERO PUSH2 0x234 JUMPI DUP1 PUSH1 0x1F LT PUSH2 0x20B JUMPI PUSH2 0x100 DUP1 DUP4 SLOAD DIV MUL DUP4 MSTORE SWAP2 PUSH1 0x20 ADD SWAP2 PUSH2 0x234 JUMP JUMPDEST DUP3 ADD SWAP2 SWAP1 PUSH0 MSTORE PUSH1 0x20 PUSH0 KECCAK256 SWAP1 JUMPDEST DUP2 SLOAD DUP2 MSTORE SWAP1 PUSH1 0x1 ADD SWAP1 PUSH1 0x20 ADD DUP1 DUP4 GT PUSH2 0x217 JUMPI DUP3 SWAP1 SUB PUSH1 0x1F AND DUP3 ADD SWAP2 JUMPDEST POP POP POP POP POP DUP2 MSTORE PUSH1 0x20 ADD PUSH1 0x1 DUP3 ADD SLOAD DUP2 MSTORE POP POP SWAP1 POP DUP1 PUSH0 ADD MLOAD DUP2 PUSH1 0x20 ADD MLOAD SWAP3 POP SWAP3 POP POP SWAP2 POP SWAP2 JUMP JUMPDEST PUSH1 0x40 MLOAD DUP1 PUSH1 0x40 ADD PUSH1 0x40 MSTORE DUP1 DUP4 DUP2 MSTORE PUSH1 0x20 ADD DUP3 DUP2 MSTORE POP PUSH1 0x1 PUSH0 DUP6 DUP2 MSTORE PUSH1 0x20 ADD SWAP1 DUP2 MSTORE PUSH1 0x20 ADD PUSH0 KECCAK256 PUSH0 DUP3 ADD MLOAD DUP2 PUSH0 ADD SWAP1 DUP2 PUSH2 0x295 SWAP2 SWAP1 PUSH2 0x823 JUMP JUMPDEST POP PUSH1 0x20 DUP3 ADD MLOAD DUP2 PUSH1 0x1 ADD SSTORE SWAP1 POP POP POP POP POP JUMP JUMPDEST PUSH1 0x40 MLOAD DUP1 PUSH1 0x40 ADD PUSH1 0x40 MSTORE DUP1 DUP4 DUP2 MSTORE PUSH1 0x20 ADD DUP3 DUP2 MSTORE POP PUSH1 0x1 PUSH0 PUSH0 SLOAD DUP2 MSTORE PUSH1 0x20 ADD SWAP1 DUP2 MSTORE PUSH1 0x20 ADD PUSH0 KECCAK256 PUSH0 DUP3 ADD MLOAD DUP2 PUSH0 ADD SWAP1 DUP2 PUSH2 0x2E2 SWAP2 SWAP1 PUSH2 0x823 JUMP JUMPDEST POP PUSH1 0x20 DUP3 ADD MLOAD DUP2 PUSH1 0x1 ADD SSTORE SWAP1 POP POP PUSH1 0x1 PUSH0 SLOAD PUSH2 0x2FE SWAP2 SWAP1 PUSH2 0x91F JUMP JUMPDEST PUSH0 DUP2 SWAP1 SSTORE POP POP POP JUMP JUMPDEST PUSH0 PUSH1 0x40 MLOAD SWAP1 POP SWAP1 JUMP JUMPDEST PUSH0 PUSH0 REVERT JUMPDEST PUSH0 PUSH0 REVERT JUMPDEST PUSH0 DUP2 SWAP1 POP SWAP2 SWAP1 POP JUMP JUMPDEST PUSH2 0x32A DUP2 PUSH2 0x318 JUMP JUMPDEST DUP2 EQ PUSH2 0x334 JUMPI PUSH0 PUSH0 REVERT JUMPDEST POP JUMP JUMPDEST PUSH0 DUP2 CALLDATALOAD SWAP1 POP PUSH2 0x345 DUP2 PUSH2 0x321 JUMP JUMPDEST SWAP3 SWAP2 POP POP JUMP JUMPDEST PUSH0 PUSH1 0x20 DUP3 DUP5 SUB SLT ISZERO PUSH2 0x360 JUMPI PUSH2 0x35F PUSH2 0x310 JUMP JUMPDEST JUMPDEST PUSH0 PUSH2 0x36D DUP5 DUP3 DUP6 ADD PUSH2 0x337 JUMP JUMPDEST SWAP2 POP POP SWAP3 SWAP2 POP POP JUMP JUMPDEST PUSH0 DUP2 MLOAD SWAP1 POP SWAP2 SWAP1 POP JUMP JUMPDEST PUSH0 DUP3 DUP3 MSTORE PUSH1 0x20 DUP3 ADD SWAP1 POP SWAP3 SWAP2 POP POP JUMP JUMPDEST DUP3 DUP2 DUP4 MCOPY PUSH0 DUP4 DUP4 ADD MSTORE POP POP POP JUMP JUMPDEST PUSH0 PUSH1 0x1F NOT PUSH1 0x1F DUP4 ADD AND SWAP1 POP SWAP2 SWAP1 POP JUMP JUMPDEST PUSH0 PUSH2 0x3B8 DUP3 PUSH2 0x376 JUMP JUMPDEST PUSH2 0x3C2 DUP2 DUP6 PUSH2 0x380 JUMP JUMPDEST SWAP4 POP PUSH2 0x3D2 DUP2 DUP6 PUSH1 0x20 DUP7 ADD PUSH2 0x390 JUMP JUMPDEST PUSH2 0x3DB DUP2 PUSH2 0x39E JUMP JUMPDEST DUP5 ADD SWAP2 POP POP SWAP3 SWAP2 POP POP JUMP JUMPDEST PUSH2 0x3EF DUP2 PUSH2 0x318 JUMP JUMPDEST DUP3 MSTORE POP POP JUMP JUMPDEST PUSH0 PUSH1 0x40 DUP3 ADD SWAP1 POP DUP2 DUP2 SUB PUSH0 DUP4 ADD MSTORE PUSH2 0x40D DUP2 DUP6 PUSH2 0x3AE JUMP JUMPDEST SWAP1 POP PUSH2 0x41C PUSH1 0x20 DUP4 ADD DUP5 PUSH2 0x3E6 JUMP JUMPDEST SWAP4 SWAP3 POP POP POP JUMP JUMPDEST PUSH0 PUSH0 REVERT JUMPDEST PUSH0 PUSH0 REVERT JUMPDEST PUSH32 0x4E487B7100000000000000000000000000000000000000000000000000000000 PUSH0 MSTORE PUSH1 0x41 PUSH1 0x4 MSTORE PUSH1 0x24 PUSH0 REVERT JUMPDEST PUSH2 0x461 DUP3 PUSH2 0x39E JUMP JUMPDEST DUP2 ADD DUP2 DUP2 LT PUSH8 0xFFFFFFFFFFFFFFFF DUP3 GT OR ISZERO PUSH2 0x480 JUMPI PUSH2 0x47F PUSH2 0x42B JUMP JUMPDEST JUMPDEST DUP1 PUSH1 0x40 MSTORE POP POP POP JUMP JUMPDEST PUSH0 PUSH2 0x492 PUSH2 0x307 JUMP JUMPDEST SWAP1 POP PUSH2 0x49E DUP3 DUP3 PUSH2 0x458 JUMP JUMPDEST SWAP2 SWAP1 POP JUMP JUMPDEST PUSH0 PUSH8 0xFFFFFFFFFFFFFFFF DUP3 GT ISZERO PUSH2 0x4BD JUMPI PUSH2 0x4BC PUSH2 0x42B JUMP JUMPDEST JUMPDEST PUSH2 0x4C6 DUP3 PUSH2 0x39E JUMP JUMPDEST SWAP1 POP PUSH1 0x20 DUP2 ADD SWAP1 POP SWAP2 SWAP1 POP JUMP JUMPDEST DUP3 DUP2 DUP4 CALLDATACOPY PUSH0 DUP4 DUP4 ADD MSTORE POP POP POP JUMP JUMPDEST PUSH0 PUSH2 0x4F3 PUSH2 0x4EE DUP5 PUSH2 0x4A3 JUMP JUMPDEST PUSH2 0x489 JUMP JUMPDEST SWAP1 POP DUP3 DUP2 MSTORE PUSH1 0x20 DUP2 ADD DUP5 DUP5 DUP5 ADD GT ISZERO PUSH2 0x50F JUMPI PUSH2 0x50E PUSH2 0x427 JUMP JUMPDEST JUMPDEST PUSH2 0x51A DUP5 DUP3 DUP6 PUSH2 0x4D3 JUMP JUMPDEST POP SWAP4 SWAP3 POP POP POP JUMP JUMPDEST PUSH0 DUP3 PUSH1 0x1F DUP4 ADD SLT PUSH2 0x536 JUMPI PUSH2 0x535 PUSH2 0x423 JUMP JUMPDEST JUMPDEST DUP2 CALLDATALOAD PUSH2 0x546 DUP5 DUP3 PUSH1 0x20 DUP7 ADD PUSH2 0x4E1 JUMP JUMPDEST SWAP2 POP POP SWAP3 SWAP2 POP POP JUMP JUMPDEST PUSH0 PUSH0 PUSH0 PUSH1 0x60 DUP5 DUP7 SUB SLT ISZERO PUSH2 0x566 JUMPI PUSH2 0x565 PUSH2 0x310 JUMP JUMPDEST JUMPDEST PUSH0 PUSH2 0x573 DUP7 DUP3 DUP8 ADD PUSH2 0x337 JUMP JUMPDEST SWAP4 POP POP PUSH1 0x20 DUP5 ADD CALLDATALOAD PUSH8 0xFFFFFFFFFFFFFFFF DUP2 GT ISZERO PUSH2 0x594 JUMPI PUSH2 0x593 PUSH2 0x314 JUMP JUMPDEST JUMPDEST PUSH2 0x5A0 DUP7 DUP3 DUP8 ADD PUSH2 0x522 JUMP JUMPDEST SWAP3 POP POP PUSH1 0x40 PUSH2 0x5B1 DUP7 DUP3 DUP8 ADD PUSH2 0x337 JUMP JUMPDEST SWAP2 POP POP SWAP3 POP SWAP3 POP SWAP3 JUMP JUMPDEST PUSH0 PUSH0 PUSH1 0x40 DUP4 DUP6 SUB SLT ISZERO PUSH2 0x5D1 JUMPI PUSH2 0x5D0 PUSH2 0x310 JUMP JUMPDEST JUMPDEST PUSH0 DUP4 ADD CALLDATALOAD PUSH8 0xFFFFFFFFFFFFFFFF DUP2 GT ISZERO PUSH2 0x5EE JUMPI PUSH2 0x5ED PUSH2 0x314 JUMP JUMPDEST JUMPDEST PUSH2 0x5FA DUP6 DUP3 DUP7 ADD PUSH2 0x522 JUMP JUMPDEST SWAP3 POP POP PUSH1 0x20 PUSH2 0x60B DUP6 DUP3 DUP7 ADD PUSH2 0x337 JUMP JUMPDEST SWAP2 POP POP SWAP3 POP SWAP3 SWAP1 POP JUMP JUMPDEST PUSH32 0x4E487B7100000000000000000000000000000000000000000000000000000000 PUSH0 MSTORE PUSH1 0x22 PUSH1 0x4 MSTORE PUSH1 0x24 PUSH0 REVERT JUMPDEST PUSH0 PUSH1 0x2 DUP3 DIV SWAP1 POP PUSH1 0x1 DUP3 AND DUP1 PUSH2 0x659 JUMPI PUSH1 0x7F DUP3 AND SWAP2 POP JUMPDEST PUSH1 0x20 DUP3 LT DUP2 SUB PUSH2 0x66C JUMPI PUSH2 0x66B PUSH2 0x615 JUMP JUMPDEST JUMPDEST POP SWAP2 SWAP1 POP JUMP JUMPDEST PUSH0 DUP2 SWAP1 POP DUP2 PUSH0 MSTORE PUSH1 0x20 PUSH0 KECCAK256 SWAP1 POP SWAP2 SWAP1 POP JUMP JUMPDEST PUSH0 PUSH1 0x20 PUSH1 0x1F DUP4 ADD DIV SWAP1 POP SWAP2 SWAP1 POP JUMP JUMPDEST PUSH0 DUP3 DUP3 SHL SWAP1 POP SWAP3 SWAP2 POP POP JUMP JUMPDEST PUSH0 PUSH1 0x8 DUP4 MUL PUSH2 0x6CE PUSH32 0xFFFFFFFFFFFFFFFFFFFFFFFFFFFFFFFFFFFFFFFFFFFFFFFFFFFFFFFFFFFFFFFF DUP3 PUSH2 0x693 JUMP JUMPDEST PUSH2 0x6D8 DUP7 DUP4 PUSH2 0x693 JUMP JUMPDEST SWAP6 POP DUP1 NOT DUP5 AND SWAP4 POP DUP1 DUP7 AND DUP5 OR SWAP3 POP POP POP SWAP4 SWAP3 POP POP POP JUMP JUMPDEST PUSH0 DUP2 SWAP1 POP SWAP2 SWAP1 POP JUMP JUMPDEST PUSH0 PUSH2 0x713 PUSH2 0x70E PUSH2 0x709 DUP5 PUSH2 0x318 JUMP JUMPDEST PUSH2 0x6F0 JUMP JUMPDEST PUSH2 0x318 JUMP JUMPDEST SWAP1 POP SWAP2 SWAP1 POP JUMP JUMPDEST PUSH0 DUP2 SWAP1 POP SWAP2 SWAP1 POP JUMP JUMPDEST PUSH2 0x72C DUP4 PUSH2 0x6F9 JUMP JUMPDEST PUSH2 0x740 PUSH2 0x738 DUP3 PUSH2 0x71A JUMP JUMPDEST DUP5 DUP5 SLOAD PUSH2 0x69F JUMP JUMPDEST DUP3 SSTORE POP POP POP POP JUMP JUMPDEST PUSH0 PUSH0 SWAP1 POP SWAP1 JUMP JUMPDEST PUSH2 0x757 PUSH2 0x748 JUMP JUMPDEST PUSH2 0x762 DUP2 DUP5 DUP5 PUSH2 0x723 JUMP JUMPDEST POP POP POP JUMP JUMPDEST PUSH0 JUMPDEST DUP3 DUP2 LT ISZERO PUSH2 0x788 JUMPI PUSH2 0x77D PUSH0 DUP3 DUP5 ADD PUSH2 0x74F JUMP JUMPDEST PUSH1 0x1 DUP2 ADD SWAP1 POP PUSH2 0x769 JUMP JUMPDEST POP POP POP JUMP JUMPDEST PUSH1 0x1F DUP3 GT ISZERO PUSH2 0x7DB JUMPI DUP3 DUP3 GT ISZERO PUSH2 0x7DA JUMPI PUSH2 0x7A7 DUP2 PUSH2 0x672 JUMP JUMPDEST PUSH2 0x7B0 DUP4 PUSH2 0x684 JUMP JUMPDEST PUSH2 0x7B9 DUP6 PUSH2 0x684 JUMP JUMPDEST PUSH1 0x20 DUP7 LT ISZERO PUSH2 0x7C6 JUMPI PUSH0 SWAP1 POP JUMPDEST DUP1 DUP4 ADD PUSH2 0x7D5 DUP3 DUP5 SUB DUP3 PUSH2 0x767 JUMP JUMPDEST POP POP POP POP JUMPDEST JUMPDEST POP POP POP JUMP JUMPDEST PUSH0 DUP3 DUP3 SHR SWAP1 POP SWAP3 SWAP2 POP POP JUMP JUMPDEST PUSH0 PUSH2 0x7FB PUSH0 NOT DUP5 PUSH1 0x8 MUL PUSH2 0x7E0 JUMP JUMPDEST NOT DUP1 DUP4 AND SWAP2 POP POP SWAP3 SWAP2 POP POP JUMP JUMPDEST PUSH0 PUSH2 0x813 DUP4 DUP4 PUSH2 0x7EC JUMP JUMPDEST SWAP2 POP DUP3 PUSH1 0x2 MUL DUP3 OR SWAP1 POP SWAP3 SWAP2 POP POP JUMP JUMPDEST PUSH2 0x82C DUP3 PUSH2 0x376 JUMP JUMPDEST PUSH8 0xFFFFFFFFFFFFFFFF DUP2 GT ISZERO PUSH2 0x845 JUMPI PUSH2 0x844 PUSH2 0x42B JUMP JUMPDEST JUMPDEST PUSH2 0x84F DUP3 SLOAD PUSH2 0x642 JUMP JUMPDEST PUSH2 0x85A DUP3 DUP3 DUP6 PUSH2 0x78D JUMP JUMPDEST PUSH0 PUSH1 0x20 SWAP1 POP PUSH1 0x1F DUP4 GT PUSH1 0x1 DUP2 EQ PUSH2 0x88B JUMPI PUSH0 DUP5 ISZERO PUSH2 0x879 JUMPI DUP3 DUP8 ADD MLOAD SWAP1 POP JUMPDEST PUSH2 0x883 DUP6 DUP3 PUSH2 0x808 JUMP JUMPDEST DUP7 SSTORE POP PUSH2 0x8EA JUMP JUMPDEST PUSH1 0x1F NOT DUP5 AND PUSH2 0x899 DUP7 PUSH2 0x672 JUMP JUMPDEST PUSH0 JUMPDEST DUP3 DUP2 LT ISZERO PUSH2 0x8C0 JUMPI DUP5 DUP10 ADD MLOAD DUP3 SSTORE PUSH1 0x1 DUP3 ADD SWAP2 POP PUSH1 0x20 DUP6 ADD SWAP5 POP PUSH1 0x20 DUP2 ADD SWAP1 POP PUSH2 0x89B JUMP JUMPDEST DUP7 DUP4 LT ISZERO PUSH2 0x8DD JUMPI DUP5 DUP10 ADD MLOAD PUSH2 0x8D9 PUSH1 0x1F DUP10 AND DUP3 PUSH2 0x7EC JUMP JUMPDEST DUP4 SSTORE POP JUMPDEST PUSH1 0x1 PUSH1 0x2 DUP9 MUL ADD DUP9 SSTORE POP POP POP JUMPDEST POP POP POP POP POP POP JUMP JUMPDEST PUSH32 0x4E487B7100000000000000000000000000000000000000000000000000000000 PUSH0 MSTORE PUSH1 0x11 PUSH1 0x4 MSTORE PUSH1 0x24 PUSH0 REVERT JUMPDEST PUSH0 PUSH2 0x929 DUP3 PUSH2 0x318 JUMP JUMPDEST SWAP2 POP PUSH2 0x934 DUP4 PUSH2 0x318 JUMP JUMPDEST SWAP3 POP DUP3 DUP3 ADD SWAP1 POP DUP1 DUP3 GT ISZERO PUSH2 0x94C JUMPI PUSH2 0x94B PUSH2 0x8F2 JUMP JUMPDEST JUMPDEST SWAP3 SWAP2 POP POP JUMP INVALID LOG2 PUSH5 0x6970667358 0x22 SLT KECCAK256 PC 0xB6 0xA8 0xF6 SWAP14 0xAC 0xFC 0xD8 RJUMP 0x5A5E 0x28 DUP2 SWAP10 0xD3 ADD PUSH14 0x1A71942B12E5DED757E073BEE73B DUP10 PUSH5 0x736F6C6343 STOP ADDMOD 0x22 STOP CALLER "
				},
				"gasEstimates": {
					"creation": {
						"codeDepositCost": "488000",
						"executionCost": "22627",
						"totalCost": "510627"
					},
					"external": {
						"addEmpleado(uint256,string,uint256)": "infinite",
						"addEmpleadoSecuencial(string,uint256)": "infinite",
						"empleados(uint256)": "infinite",
						"getEmpleado(uint256)": "infinite"
					}
				},
				"methodIdentifiers": {
					"addEmpleado(uint256,string,uint256)": "6f1a8c84",
					"addEmpleadoSecuencial(string,uint256)": "f150bd44",
					"empleados(uint256)": "0532cde1",
					"getEmpleado(uint256)": "1fcea3fa"
				}
			},
			"storageLayout": {
				"storage": [
					{
						"astId": 4,
						"contract": "contracts/14_Comp_Mapping.sol:CompMapping",
						"label": "secuencial",
						"offset": 0,
						"slot": "0",
						"type": "t_uint256"
					},
					{
						"astId": 14,
						"contract": "contracts/14_Comp_Mapping.sol:CompMapping",
						"label": "empleados",
						"offset": 0,
						"slot": "1",
						"type": "t_mapping(t_uint256,t_struct(Empleado)9_storage)"
					}
				],
				"types": {
					"t_mapping(t_uint256,t_struct(Empleado)9_storage)": {
						"encoding": "mapping",
						"key": "t_uint256",
						"label": "mapping(uint256 => struct CompMapping.Empleado)",
						"numberOfBytes": "32",
						"value": "t_struct(Empleado)9_storage"
					},
					"t_string_storage": {
						"encoding": "bytes",
						"label": "string",
						"numberOfBytes": "32"
					},
					"t_struct(Empleado)9_storage": {
						"encoding": "inplace",
						"label": "struct CompMapping.Empleado",
						"members": [
							{
								"astId": 6,
								"contract": "contracts/14_Comp_Mapping.sol:CompMapping",
								"label": "nombre",
								"offset": 0,
								"slot": "0",
								"type": "t_string_storage"
							},
							{
								"astId": 8,
								"contract": "contracts/14_Comp_Mapping.sol:CompMapping",
								"label": "edad",
								"offset": 0,
								"slot": "1",
								"type": "t_uint256"
							}
						],
						"numberOfBytes": "64"
					},
					"t_uint256": {
						"encoding": "inplace",
						"label": "uint256",
						"numberOfBytes": "32"
					}
				}
			},
			"userdoc": {
				"kind": "user",
				"methods": {},
				"version": 1
			}
		}
	}
}