{
	"contracts/16_Herencia.sol": {
		"PetStore": {
			"abi": [
				{
					"inputs": [],
					"name": "agregarGato",
					"outputs": [],
					"stateMutability": "nonpayable",
					"type": "function"
				},
				{
					"inputs": [
						{
							"internalType": "address",
							"name": "_direccion",
							"type": "address"
						}
					],
					"name": "agregarPerro",
					"outputs": [],
					"stateMutability": "nonpayable",
					"type": "function"
				},
				{
					"inputs": [
						{
							"internalType": "uint256",
							"name": "",
							"type": "uint256"
						}
					],
					"name": "animales",
					"outputs": [
						{
							"internalType": "contract Animal",
							"name": "",
							"type": "address"
						}
					],
					"stateMutability": "view",
					"type": "function"
				},
				{
					"inputs": [],
					"name": "getCantidadAnimales",
					"outputs": [
						{
							"internalType": "uint256",
							"name": "",
							"type": "uint256"
						}
					],
					"stateMutability": "view",
					"type": "function"
				},
				{
					"inputs": [
						{
							"internalType": "uint256",
							"name": "indice",
							"type": "uint256"
						}
					],
					"name": "infoAnimal",
					"outputs": [
						{
							"internalType": "string",
							"name": "",
							"type": "string"
						}
					],
					"stateMutability": "view",
					"type": "function"
				},
				{
					"inputs": [
						{
							"internalType": "uint256",
							"name": "indice",
							"type": "uint256"
						}
					],
					"name": "sonidoAnimal",
					"outputs": [
						{
							"internalType": "string",
							"name": "",
							"type": "string"
						}
					],
					"stateMutability": "view",
					"type": "function"
				}
			],
			"devdoc": {
				"kind": "dev",
				"methods": {},
				"version": 1
			},
			"evm": {
				"assembly": "    /* \"contracts/16_Herencia.sol\":911:1586  contract PetStore {... */\n  mstore(0x40, 0x80)\n  callvalue\n  dup1\n  iszero\n  tag_1\n  jumpi\n  revert(0x00, 0x00)\ntag_1:\n  pop\n  dataSize(sub_0)\n  dup1\n  dataOffset(sub_0)\n  0x00\n  codecopy\n  0x00\n  return\nstop\n\nsub_0: assembly {\n        /* \"contracts/16_Herencia.sol\":911:1586  contract PetStore {... */\n      mstore(0x40, 0x80)\n      callvalue\n      dup1\n      iszero\n      tag_1\n      jumpi\n      revert(0x00, 0x00)\n    tag_1:\n      pop\n      jumpi(tag_2, lt(calldatasize, 0x04))\n      shr(0xe0, calldataload(0x00))\n      dup1\n      0x316906f3\n      eq\n      tag_3\n      jumpi\n      dup1\n      0x3af5444c\n      eq\n      tag_4\n      jumpi\n      dup1\n      0x5b4becd6\n      eq\n      tag_5\n      jumpi\n      dup1\n      0x98149ced\n      eq\n      tag_6\n      jumpi\n      dup1\n      0xac6131b6\n      eq\n      tag_7\n      jumpi\n      dup1\n      0xc37f2132\n      eq\n      tag_8\n      jumpi\n    tag_2:\n      revert(0x00, 0x00)\n        /* \"contracts/16_Herencia.sol\":1216:1315  function getCantidadAnimales() public view returns(uint) { ... */\n    tag_3:\n      tag_9\n      tag_10\n      jump\t// in\n    tag_9:\n      mload(0x40)\n      tag_11\n      swap2\n      swap1\n      tag_12\n      jump\t// in\n    tag_11:\n      mload(0x40)\n      dup1\n      swap2\n      sub\n      swap1\n      return\n        /* \"contracts/16_Herencia.sol\":1458:1583  function infoAnimal(uint indice) public view returns(string memory) { ... */\n    tag_4:\n      tag_13\n      0x04\n      dup1\n      calldatasize\n      sub\n      dup2\n      add\n      swap1\n      tag_14\n      swap2\n      swap1\n      tag_15\n      jump\t// in\n    tag_14:\n      tag_16\n      jump\t// in\n    tag_13:\n      mload(0x40)\n      tag_17\n      swap2\n      swap1\n      tag_18\n      jump\t// in\n    tag_17:\n      mload(0x40)\n      dup1\n      swap2\n      sub\n      swap1\n      return\n        /* \"contracts/16_Herencia.sol\":1323:1450  function sonidoAnimal(uint indice) public view returns(string memory) { ... */\n    tag_5:\n      tag_19\n      0x04\n      dup1\n      calldatasize\n      sub\n      dup2\n      add\n      swap1\n      tag_20\n      swap2\n      swap1\n      tag_15\n      jump\t// in\n    tag_20:\n      tag_21\n      jump\t// in\n    tag_19:\n      mload(0x40)\n      tag_22\n      swap2\n      swap1\n      tag_18\n      jump\t// in\n    tag_22:\n      mload(0x40)\n      dup1\n      swap2\n      sub\n      swap1\n      return\n        /* \"contracts/16_Herencia.sol\":969:1104  function agregarPerro(address _direccion) public { ... */\n    tag_6:\n      tag_23\n      0x04\n      dup1\n      calldatasize\n      sub\n      dup2\n      add\n      swap1\n      tag_24\n      swap2\n      swap1\n      tag_25\n      jump\t// in\n    tag_24:\n      tag_26\n      jump\t// in\n    tag_23:\n      stop\n        /* \"contracts/16_Herencia.sol\":936:960  Animal[] public animales */\n    tag_7:\n      tag_27\n      0x04\n      dup1\n      calldatasize\n      sub\n      dup2\n      add\n      swap1\n      tag_28\n      swap2\n      swap1\n      tag_15\n      jump\t// in\n    tag_28:\n      tag_29\n      jump\t// in\n    tag_27:\n      mload(0x40)\n      tag_30\n      swap2\n      swap1\n      tag_31\n      jump\t// in\n    tag_30:\n      mload(0x40)\n      dup1\n      swap2\n      sub\n      swap1\n      return\n        /* \"contracts/16_Herencia.sol\":1112:1208  function agregarGato() public { ... */\n    tag_8:\n      tag_32\n      tag_33\n      jump\t// in\n    tag_32:\n      stop\n        /* \"contracts/16_Herencia.sol\":1216:1315  function getCantidadAnimales() public view returns(uint) { ... */\n    tag_10:\n        /* \"contracts/16_Herencia.sol\":1267:1271  uint */\n      0x00\n        /* \"contracts/16_Herencia.sol\":1292:1300  animales */\n      0x00\n        /* \"contracts/16_Herencia.sol\":1292:1307  animales.length */\n      dup1\n      sload\n      swap1\n      pop\n        /* \"contracts/16_Herencia.sol\":1285:1307  return animales.length */\n      swap1\n      pop\n        /* \"contracts/16_Herencia.sol\":1216:1315  function getCantidadAnimales() public view returns(uint) { ... */\n      swap1\n      jump\t// out\n        /* \"contracts/16_Herencia.sol\":1458:1583  function infoAnimal(uint indice) public view returns(string memory) { ... */\n    tag_16:\n        /* \"contracts/16_Herencia.sol\":1511:1524  string memory */\n      0x60\n        /* \"contracts/16_Herencia.sol\":1545:1553  animales */\n      0x00\n        /* \"contracts/16_Herencia.sol\":1554:1560  indice */\n      dup3\n        /* \"contracts/16_Herencia.sol\":1545:1561  animales[indice] */\n      dup2\n      sload\n      dup2\n      lt\n      tag_36\n      jumpi\n      tag_37\n      tag_38\n      jump\t// in\n    tag_37:\n    tag_36:\n      swap1\n      0x00\n      mstore\n      keccak256(0x00, 0x20)\n      add\n      0x00\n      swap1\n      sload\n      swap1\n      0x0100\n      exp\n      swap1\n      div\n      0xffffffffffffffffffffffffffffffffffffffff\n      and\n        /* \"contracts/16_Herencia.sol\":1545:1573  animales[indice].obtenerInfo */\n      0xffffffffffffffffffffffffffffffffffffffff\n      and\n      0xf12ac8ad\n        /* \"contracts/16_Herencia.sol\":1545:1575  animales[indice].obtenerInfo() */\n      mload(0x40)\n      dup2\n      0xffffffff\n      and\n      0xe0\n      shl\n      dup2\n      mstore\n      0x04\n      add\n      0x00\n      mload(0x40)\n      dup1\n      dup4\n      sub\n      dup2\n      dup7\n      gas\n      staticcall\n      iszero\n      dup1\n      iszero\n      tag_41\n      jumpi\n      returndatacopy(0x00, 0x00, returndatasize)\n      revert(0x00, returndatasize)\n    tag_41:\n      pop\n      pop\n      pop\n      pop\n      mload(0x40)\n      returndatasize\n      0x00\n      dup3\n      returndatacopy\n      returndatasize\n      not(0x1f)\n      0x1f\n      dup3\n      add\n      and\n      dup3\n      add\n      dup1\n      0x40\n      mstore\n      pop\n      dup2\n      add\n      swap1\n      tag_42\n      swap2\n      swap1\n      tag_43\n      jump\t// in\n    tag_42:\n        /* \"contracts/16_Herencia.sol\":1538:1575  return animales[indice].obtenerInfo() */\n      swap1\n      pop\n        /* \"contracts/16_Herencia.sol\":1458:1583  function infoAnimal(uint indice) public view returns(string memory) { ... */\n      swap2\n      swap1\n      pop\n      jump\t// out\n        /* \"contracts/16_Herencia.sol\":1323:1450  function sonidoAnimal(uint indice) public view returns(string memory) { ... */\n    tag_21:\n        /* \"contracts/16_Herencia.sol\":1378:1391  string memory */\n      0x60\n        /* \"contracts/16_Herencia.sol\":1412:1420  animales */\n      0x00\n        /* \"contracts/16_Herencia.sol\":1421:1427  indice */\n      dup3\n        /* \"contracts/16_Herencia.sol\":1412:1428  animales[indice] */\n      dup2\n      sload\n      dup2\n      lt\n      tag_45\n      jumpi\n      tag_46\n      tag_38\n      jump\t// in\n    tag_46:\n    tag_45:\n      swap1\n      0x00\n      mstore\n      keccak256(0x00, 0x20)\n      add\n      0x00\n      swap1\n      sload\n      swap1\n      0x0100\n      exp\n      swap1\n      div\n      0xffffffffffffffffffffffffffffffffffffffff\n      and\n        /* \"contracts/16_Herencia.sol\":1412:1440  animales[indice].hacerSonido */\n      0xffffffffffffffffffffffffffffffffffffffff\n      and\n      0x5f8c9a0a\n        /* \"contracts/16_Herencia.sol\":1412:1442  animales[indice].hacerSonido() */\n      mload(0x40)\n      dup2\n      0xffffffff\n      and\n      0xe0\n      shl\n      dup2\n      mstore\n      0x04\n      add\n      0x00\n      mload(0x40)\n      dup1\n      dup4\n      sub\n      dup2\n      dup7\n      gas\n      staticcall\n      iszero\n      dup1\n      iszero\n      tag_49\n      jumpi\n      returndatacopy(0x00, 0x00, returndatasize)\n      revert(0x00, returndatasize)\n    tag_49:\n      pop\n      pop\n      pop\n      pop\n      mload(0x40)\n      returndatasize\n      0x00\n      dup3\n      returndatacopy\n      returndatasize\n      not(0x1f)\n      0x1f\n      dup3\n      add\n      and\n      dup3\n      add\n      dup1\n      0x40\n      mstore\n      pop\n      dup2\n      add\n      swap1\n      tag_50\n      swap2\n      swap1\n      tag_43\n      jump\t// in\n    tag_50:\n        /* \"contracts/16_Herencia.sol\":1405:1442  return animales[indice].hacerSonido() */\n      swap1\n      pop\n        /* \"contracts/16_Herencia.sol\":1323:1450  function sonidoAnimal(uint indice) public view returns(string memory) { ... */\n      swap2\n      swap1\n      pop\n      jump\t// out\n        /* \"contracts/16_Herencia.sol\":969:1104  function agregarPerro(address _direccion) public { ... */\n    tag_26:\n        /* \"contracts/16_Herencia.sol\":1064:1072  animales */\n      0x00\n        /* \"contracts/16_Herencia.sol\":1084:1094  _direccion */\n      dup2\n        /* \"contracts/16_Herencia.sol\":1064:1096  animales.push(Perro(_direccion)) */\n      swap1\n      dup1\n      0x01\n      dup2\n      sload\n      add\n      dup1\n      dup3\n      sstore\n      dup1\n      swap2\n      pop\n      pop\n      0x01\n      swap1\n      sub\n      swap1\n      0x00\n      mstore\n      keccak256(0x00, 0x20)\n      add\n      0x00\n      swap1\n      swap2\n      swap1\n      swap2\n      swap1\n      swap2\n      0x0100\n      exp\n      dup2\n      sload\n      dup2\n      0xffffffffffffffffffffffffffffffffffffffff\n      mul\n      not\n      and\n      swap1\n      dup4\n      0xffffffffffffffffffffffffffffffffffffffff\n      and\n      mul\n      or\n      swap1\n      sstore\n      pop\n        /* \"contracts/16_Herencia.sol\":969:1104  function agregarPerro(address _direccion) public { ... */\n      pop\n      jump\t// out\n        /* \"contracts/16_Herencia.sol\":936:960  Animal[] public animales */\n    tag_29:\n      0x00\n      dup2\n      dup2\n      sload\n      dup2\n      lt\n      tag_53\n      jumpi\n      0x00\n      dup1\n      revert\n    tag_53:\n      swap1\n      0x00\n      mstore\n      keccak256(0x00, 0x20)\n      add\n      0x00\n      swap2\n      pop\n      sload\n      swap1\n      0x0100\n      exp\n      swap1\n      div\n      0xffffffffffffffffffffffffffffffffffffffff\n      and\n      dup2\n      jump\t// out\n        /* \"contracts/16_Herencia.sol\":1112:1208  function agregarGato() public { ... */\n    tag_33:\n        /* \"contracts/16_Herencia.sol\":1154:1160  Gato g */\n      0x00\n        /* \"contracts/16_Herencia.sol\":1163:1173  new Gato() */\n      mload(0x40)\n      tag_56\n      swap1\n      tag_57\n      jump\t// in\n    tag_56:\n      mload(0x40)\n      dup1\n      swap2\n      sub\n      swap1\n      0x00\n      create\n      dup1\n      iszero\n      dup1\n      iszero\n      tag_58\n      jumpi\n      returndatacopy(0x00, 0x00, returndatasize)\n      revert(0x00, returndatasize)\n    tag_58:\n      pop\n        /* \"contracts/16_Herencia.sol\":1154:1173  Gato g = new Gato() */\n      swap1\n      pop\n        /* \"contracts/16_Herencia.sol\":1184:1192  animales */\n      0x00\n        /* \"contracts/16_Herencia.sol\":1198:1199  g */\n      dup2\n        /* \"contracts/16_Herencia.sol\":1184:1200  animales.push(g) */\n      swap1\n      dup1\n      0x01\n      dup2\n      sload\n      add\n      dup1\n      dup3\n      sstore\n      dup1\n      swap2\n      pop\n      pop\n      0x01\n      swap1\n      sub\n      swap1\n      0x00\n      mstore\n      keccak256(0x00, 0x20)\n      add\n      0x00\n      swap1\n      swap2\n      swap1\n      swap2\n      swap1\n      swap2\n      0x0100\n      exp\n      dup2\n      sload\n      dup2\n      0xffffffffffffffffffffffffffffffffffffffff\n      mul\n      not\n      and\n      swap1\n      dup4\n      0xffffffffffffffffffffffffffffffffffffffff\n      and\n      mul\n      or\n      swap1\n      sstore\n      pop\n        /* \"contracts/16_Herencia.sol\":1142:1208  { ... */\n      pop\n        /* \"contracts/16_Herencia.sol\":1112:1208  function agregarGato() public { ... */\n      jump\t// out\n    tag_57:\n      dataSize(sub_0)\n      dup1\n      dataOffset(sub_0)\n      dup4\n      codecopy\n      add\n      swap1\n      jump\t// out\n        /* \"#utility.yul\":7:84   */\n    tag_60:\n        /* \"#utility.yul\":44:51   */\n      0x00\n        /* \"#utility.yul\":73:78   */\n      dup2\n        /* \"#utility.yul\":62:78   */\n      swap1\n      pop\n        /* \"#utility.yul\":7:84   */\n      swap2\n      swap1\n      pop\n      jump\t// out\n        /* \"#utility.yul\":90:208   */\n    tag_61:\n        /* \"#utility.yul\":177:201   */\n      tag_92\n        /* \"#utility.yul\":195:200   */\n      dup2\n        /* \"#utility.yul\":177:201   */\n      tag_60\n      jump\t// in\n    tag_92:\n        /* \"#utility.yul\":172:175   */\n      dup3\n        /* \"#utility.yul\":165:202   */\n      mstore\n        /* \"#utility.yul\":90:208   */\n      pop\n      pop\n      jump\t// out\n        /* \"#utility.yul\":214:436   */\n    tag_12:\n        /* \"#utility.yul\":307:311   */\n      0x00\n        /* \"#utility.yul\":345:347   */\n      0x20\n        /* \"#utility.yul\":334:343   */\n      dup3\n        /* \"#utility.yul\":330:348   */\n      add\n        /* \"#utility.yul\":322:348   */\n      swap1\n      pop\n        /* \"#utility.yul\":358:429   */\n      tag_94\n        /* \"#utility.yul\":426:427   */\n      0x00\n        /* \"#utility.yul\":415:424   */\n      dup4\n        /* \"#utility.yul\":411:428   */\n      add\n        /* \"#utility.yul\":402:408   */\n      dup5\n        /* \"#utility.yul\":358:429   */\n      tag_61\n      jump\t// in\n    tag_94:\n        /* \"#utility.yul\":214:436   */\n      swap3\n      swap2\n      pop\n      pop\n      jump\t// out\n        /* \"#utility.yul\":442:517   */\n    tag_62:\n        /* \"#utility.yul\":475:481   */\n      0x00\n        /* \"#utility.yul\":508:510   */\n      0x40\n        /* \"#utility.yul\":502:511   */\n      mload\n        /* \"#utility.yul\":492:511   */\n      swap1\n      pop\n        /* \"#utility.yul\":442:517   */\n      swap1\n      jump\t// out\n        /* \"#utility.yul\":523:640   */\n    tag_63:\n        /* \"#utility.yul\":632:633   */\n      0x00\n        /* \"#utility.yul\":629:630   */\n      0x00\n        /* \"#utility.yul\":622:634   */\n      revert\n        /* \"#utility.yul\":646:763   */\n    tag_64:\n        /* \"#utility.yul\":755:756   */\n      0x00\n        /* \"#utility.yul\":752:753   */\n      0x00\n        /* \"#utility.yul\":745:757   */\n      revert\n        /* \"#utility.yul\":769:891   */\n    tag_65:\n        /* \"#utility.yul\":842:866   */\n      tag_99\n        /* \"#utility.yul\":860:865   */\n      dup2\n        /* \"#utility.yul\":842:866   */\n      tag_60\n      jump\t// in\n    tag_99:\n        /* \"#utility.yul\":835:840   */\n      dup2\n        /* \"#utility.yul\":832:867   */\n      eq\n        /* \"#utility.yul\":822:885   */\n      tag_100\n      jumpi\n        /* \"#utility.yul\":881:882   */\n      0x00\n        /* \"#utility.yul\":878:879   */\n      0x00\n        /* \"#utility.yul\":871:883   */\n      revert\n        /* \"#utility.yul\":822:885   */\n    tag_100:\n        /* \"#utility.yul\":769:891   */\n      pop\n      jump\t// out\n        /* \"#utility.yul\":897:1036   */\n    tag_66:\n        /* \"#utility.yul\":943:948   */\n      0x00\n        /* \"#utility.yul\":981:987   */\n      dup2\n        /* \"#utility.yul\":968:988   */\n      calldataload\n        /* \"#utility.yul\":959:988   */\n      swap1\n      pop\n        /* \"#utility.yul\":997:1030   */\n      tag_102\n        /* \"#utility.yul\":1024:1029   */\n      dup2\n        /* \"#utility.yul\":997:1030   */\n      tag_65\n      jump\t// in\n    tag_102:\n        /* \"#utility.yul\":897:1036   */\n      swap3\n      swap2\n      pop\n      pop\n      jump\t// out\n        /* \"#utility.yul\":1042:1371   */\n    tag_15:\n        /* \"#utility.yul\":1101:1107   */\n      0x00\n        /* \"#utility.yul\":1150:1152   */\n      0x20\n        /* \"#utility.yul\":1138:1147   */\n      dup3\n        /* \"#utility.yul\":1129:1136   */\n      dup5\n        /* \"#utility.yul\":1125:1148   */\n      sub\n        /* \"#utility.yul\":1121:1153   */\n      slt\n        /* \"#utility.yul\":1118:1237   */\n      iszero\n      tag_104\n      jumpi\n        /* \"#utility.yul\":1156:1235   */\n      tag_105\n      tag_63\n      jump\t// in\n    tag_105:\n        /* \"#utility.yul\":1118:1237   */\n    tag_104:\n        /* \"#utility.yul\":1276:1277   */\n      0x00\n        /* \"#utility.yul\":1301:1354   */\n      tag_106\n        /* \"#utility.yul\":1346:1353   */\n      dup5\n        /* \"#utility.yul\":1337:1343   */\n      dup3\n        /* \"#utility.yul\":1326:1335   */\n      dup6\n        /* \"#utility.yul\":1322:1344   */\n      add\n        /* \"#utility.yul\":1301:1354   */\n      tag_66\n      jump\t// in\n    tag_106:\n        /* \"#utility.yul\":1291:1354   */\n      swap2\n      pop\n        /* \"#utility.yul\":1247:1364   */\n      pop\n        /* \"#utility.yul\":1042:1371   */\n      swap3\n      swap2\n      pop\n      pop\n      jump\t// out\n        /* \"#utility.yul\":1377:1476   */\n    tag_67:\n        /* \"#utility.yul\":1429:1435   */\n      0x00\n        /* \"#utility.yul\":1463:1468   */\n      dup2\n        /* \"#utility.yul\":1457:1469   */\n      mload\n        /* \"#utility.yul\":1447:1469   */\n      swap1\n      pop\n        /* \"#utility.yul\":1377:1476   */\n      swap2\n      swap1\n      pop\n      jump\t// out\n        /* \"#utility.yul\":1482:1651   */\n    tag_68:\n        /* \"#utility.yul\":1566:1577   */\n      0x00\n        /* \"#utility.yul\":1600:1606   */\n      dup3\n        /* \"#utility.yul\":1595:1598   */\n      dup3\n        /* \"#utility.yul\":1588:1607   */\n      mstore\n        /* \"#utility.yul\":1640:1644   */\n      0x20\n        /* \"#utility.yul\":1635:1638   */\n      dup3\n        /* \"#utility.yul\":1631:1645   */\n      add\n        /* \"#utility.yul\":1616:1645   */\n      swap1\n      pop\n        /* \"#utility.yul\":1482:1651   */\n      swap3\n      swap2\n      pop\n      pop\n      jump\t// out\n        /* \"#utility.yul\":1657:1796   */\n    tag_69:\n        /* \"#utility.yul\":1746:1752   */\n      dup3\n        /* \"#utility.yul\":1741:1744   */\n      dup2\n        /* \"#utility.yul\":1736:1739   */\n      dup4\n        /* \"#utility.yul\":1730:1753   */\n      mcopy\n        /* \"#utility.yul\":1787:1788   */\n      0x00\n        /* \"#utility.yul\":1778:1784   */\n      dup4\n        /* \"#utility.yul\":1773:1776   */\n      dup4\n        /* \"#utility.yul\":1769:1785   */\n      add\n        /* \"#utility.yul\":1762:1789   */\n      mstore\n        /* \"#utility.yul\":1657:1796   */\n      pop\n      pop\n      pop\n      jump\t// out\n        /* \"#utility.yul\":1802:1904   */\n    tag_70:\n        /* \"#utility.yul\":1843:1849   */\n      0x00\n        /* \"#utility.yul\":1894:1896   */\n      0x1f\n        /* \"#utility.yul\":1890:1897   */\n      not\n        /* \"#utility.yul\":1885:1887   */\n      0x1f\n        /* \"#utility.yul\":1878:1883   */\n      dup4\n        /* \"#utility.yul\":1874:1888   */\n      add\n        /* \"#utility.yul\":1870:1898   */\n      and\n        /* \"#utility.yul\":1860:1898   */\n      swap1\n      pop\n        /* \"#utility.yul\":1802:1904   */\n      swap2\n      swap1\n      pop\n      jump\t// out\n        /* \"#utility.yul\":1910:2287   */\n    tag_71:\n        /* \"#utility.yul\":1998:2001   */\n      0x00\n        /* \"#utility.yul\":2026:2065   */\n      tag_112\n        /* \"#utility.yul\":2059:2064   */\n      dup3\n        /* \"#utility.yul\":2026:2065   */\n      tag_67\n      jump\t// in\n    tag_112:\n        /* \"#utility.yul\":2081:2152   */\n      tag_113\n        /* \"#utility.yul\":2145:2151   */\n      dup2\n        /* \"#utility.yul\":2140:2143   */\n      dup6\n        /* \"#utility.yul\":2081:2152   */\n      tag_68\n      jump\t// in\n    tag_113:\n        /* \"#utility.yul\":2074:2152   */\n      swap4\n      pop\n        /* \"#utility.yul\":2161:2226   */\n      tag_114\n        /* \"#utility.yul\":2219:2225   */\n      dup2\n        /* \"#utility.yul\":2214:2217   */\n      dup6\n        /* \"#utility.yul\":2207:2211   */\n      0x20\n        /* \"#utility.yul\":2200:2205   */\n      dup7\n        /* \"#utility.yul\":2196:2212   */\n      add\n        /* \"#utility.yul\":2161:2226   */\n      tag_69\n      jump\t// in\n    tag_114:\n        /* \"#utility.yul\":2251:2280   */\n      tag_115\n        /* \"#utility.yul\":2273:2279   */\n      dup2\n        /* \"#utility.yul\":2251:2280   */\n      tag_70\n      jump\t// in\n    tag_115:\n        /* \"#utility.yul\":2246:2249   */\n      dup5\n        /* \"#utility.yul\":2242:2281   */\n      add\n        /* \"#utility.yul\":2235:2281   */\n      swap2\n      pop\n        /* \"#utility.yul\":2002:2287   */\n      pop\n        /* \"#utility.yul\":1910:2287   */\n      swap3\n      swap2\n      pop\n      pop\n      jump\t// out\n        /* \"#utility.yul\":2293:2606   */\n    tag_18:\n        /* \"#utility.yul\":2406:2410   */\n      0x00\n        /* \"#utility.yul\":2444:2446   */\n      0x20\n        /* \"#utility.yul\":2433:2442   */\n      dup3\n        /* \"#utility.yul\":2429:2447   */\n      add\n        /* \"#utility.yul\":2421:2447   */\n      swap1\n      pop\n        /* \"#utility.yul\":2493:2502   */\n      dup2\n        /* \"#utility.yul\":2487:2491   */\n      dup2\n        /* \"#utility.yul\":2483:2503   */\n      sub\n        /* \"#utility.yul\":2479:2480   */\n      0x00\n        /* \"#utility.yul\":2468:2477   */\n      dup4\n        /* \"#utility.yul\":2464:2481   */\n      add\n        /* \"#utility.yul\":2457:2504   */\n      mstore\n        /* \"#utility.yul\":2521:2599   */\n      tag_117\n        /* \"#utility.yul\":2594:2598   */\n      dup2\n        /* \"#utility.yul\":2585:2591   */\n      dup5\n        /* \"#utility.yul\":2521:2599   */\n      tag_71\n      jump\t// in\n    tag_117:\n        /* \"#utility.yul\":2513:2599   */\n      swap1\n      pop\n        /* \"#utility.yul\":2293:2606   */\n      swap3\n      swap2\n      pop\n      pop\n      jump\t// out\n        /* \"#utility.yul\":2612:2738   */\n    tag_72:\n        /* \"#utility.yul\":2649:2656   */\n      0x00\n        /* \"#utility.yul\":2689:2731   */\n      0xffffffffffffffffffffffffffffffffffffffff\n        /* \"#utility.yul\":2682:2687   */\n      dup3\n        /* \"#utility.yul\":2678:2732   */\n      and\n        /* \"#utility.yul\":2667:2732   */\n      swap1\n      pop\n        /* \"#utility.yul\":2612:2738   */\n      swap2\n      swap1\n      pop\n      jump\t// out\n        /* \"#utility.yul\":2744:2840   */\n    tag_73:\n        /* \"#utility.yul\":2781:2788   */\n      0x00\n        /* \"#utility.yul\":2810:2834   */\n      tag_120\n        /* \"#utility.yul\":2828:2833   */\n      dup3\n        /* \"#utility.yul\":2810:2834   */\n      tag_72\n      jump\t// in\n    tag_120:\n        /* \"#utility.yul\":2799:2834   */\n      swap1\n      pop\n        /* \"#utility.yul\":2744:2840   */\n      swap2\n      swap1\n      pop\n      jump\t// out\n        /* \"#utility.yul\":2846:2968   */\n    tag_74:\n        /* \"#utility.yul\":2919:2943   */\n      tag_122\n        /* \"#utility.yul\":2937:2942   */\n      dup2\n        /* \"#utility.yul\":2919:2943   */\n      tag_73\n      jump\t// in\n    tag_122:\n        /* \"#utility.yul\":2912:2917   */\n      dup2\n        /* \"#utility.yul\":2909:2944   */\n      eq\n        /* \"#utility.yul\":2899:2962   */\n      tag_123\n      jumpi\n        /* \"#utility.yul\":2958:2959   */\n      0x00\n        /* \"#utility.yul\":2955:2956   */\n      0x00\n        /* \"#utility.yul\":2948:2960   */\n      revert\n        /* \"#utility.yul\":2899:2962   */\n    tag_123:\n        /* \"#utility.yul\":2846:2968   */\n      pop\n      jump\t// out\n        /* \"#utility.yul\":2974:3113   */\n    tag_75:\n        /* \"#utility.yul\":3020:3025   */\n      0x00\n        /* \"#utility.yul\":3058:3064   */\n      dup2\n        /* \"#utility.yul\":3045:3065   */\n      calldataload\n        /* \"#utility.yul\":3036:3065   */\n      swap1\n      pop\n        /* \"#utility.yul\":3074:3107   */\n      tag_125\n        /* \"#utility.yul\":3101:3106   */\n      dup2\n        /* \"#utility.yul\":3074:3107   */\n      tag_74\n      jump\t// in\n    tag_125:\n        /* \"#utility.yul\":2974:3113   */\n      swap3\n      swap2\n      pop\n      pop\n      jump\t// out\n        /* \"#utility.yul\":3119:3448   */\n    tag_25:\n        /* \"#utility.yul\":3178:3184   */\n      0x00\n        /* \"#utility.yul\":3227:3229   */\n      0x20\n        /* \"#utility.yul\":3215:3224   */\n      dup3\n        /* \"#utility.yul\":3206:3213   */\n      dup5\n        /* \"#utility.yul\":3202:3225   */\n      sub\n        /* \"#utility.yul\":3198:3230   */\n      slt\n        /* \"#utility.yul\":3195:3314   */\n      iszero\n      tag_127\n      jumpi\n        /* \"#utility.yul\":3233:3312   */\n      tag_128\n      tag_63\n      jump\t// in\n    tag_128:\n        /* \"#utility.yul\":3195:3314   */\n    tag_127:\n        /* \"#utility.yul\":3353:3354   */\n      0x00\n        /* \"#utility.yul\":3378:3431   */\n      tag_129\n        /* \"#utility.yul\":3423:3430   */\n      dup5\n        /* \"#utility.yul\":3414:3420   */\n      dup3\n        /* \"#utility.yul\":3403:3412   */\n      dup6\n        /* \"#utility.yul\":3399:3421   */\n      add\n        /* \"#utility.yul\":3378:3431   */\n      tag_75\n      jump\t// in\n    tag_129:\n        /* \"#utility.yul\":3368:3431   */\n      swap2\n      pop\n        /* \"#utility.yul\":3324:3441   */\n      pop\n        /* \"#utility.yul\":3119:3448   */\n      swap3\n      swap2\n      pop\n      pop\n      jump\t// out\n        /* \"#utility.yul\":3454:3514   */\n    tag_76:\n        /* \"#utility.yul\":3482:3485   */\n      0x00\n        /* \"#utility.yul\":3503:3508   */\n      dup2\n        /* \"#utility.yul\":3496:3508   */\n      swap1\n      pop\n        /* \"#utility.yul\":3454:3514   */\n      swap2\n      swap1\n      pop\n      jump\t// out\n        /* \"#utility.yul\":3520:3662   */\n    tag_77:\n        /* \"#utility.yul\":3570:3579   */\n      0x00\n        /* \"#utility.yul\":3603:3656   */\n      tag_132\n        /* \"#utility.yul\":3621:3655   */\n      tag_133\n        /* \"#utility.yul\":3630:3654   */\n      tag_134\n        /* \"#utility.yul\":3648:3653   */\n      dup5\n        /* \"#utility.yul\":3630:3654   */\n      tag_72\n      jump\t// in\n    tag_134:\n        /* \"#utility.yul\":3621:3655   */\n      tag_76\n      jump\t// in\n    tag_133:\n        /* \"#utility.yul\":3603:3656   */\n      tag_72\n      jump\t// in\n    tag_132:\n        /* \"#utility.yul\":3590:3656   */\n      swap1\n      pop\n        /* \"#utility.yul\":3520:3662   */\n      swap2\n      swap1\n      pop\n      jump\t// out\n        /* \"#utility.yul\":3668:3794   */\n    tag_78:\n        /* \"#utility.yul\":3718:3727   */\n      0x00\n        /* \"#utility.yul\":3751:3788   */\n      tag_136\n        /* \"#utility.yul\":3782:3787   */\n      dup3\n        /* \"#utility.yul\":3751:3788   */\n      tag_77\n      jump\t// in\n    tag_136:\n        /* \"#utility.yul\":3738:3788   */\n      swap1\n      pop\n        /* \"#utility.yul\":3668:3794   */\n      swap2\n      swap1\n      pop\n      jump\t// out\n        /* \"#utility.yul\":3800:3939   */\n    tag_79:\n        /* \"#utility.yul\":3863:3872   */\n      0x00\n        /* \"#utility.yul\":3896:3933   */\n      tag_138\n        /* \"#utility.yul\":3927:3932   */\n      dup3\n        /* \"#utility.yul\":3896:3933   */\n      tag_78\n      jump\t// in\n    tag_138:\n        /* \"#utility.yul\":3883:3933   */\n      swap1\n      pop\n        /* \"#utility.yul\":3800:3939   */\n      swap2\n      swap1\n      pop\n      jump\t// out\n        /* \"#utility.yul\":3945:4102   */\n    tag_80:\n        /* \"#utility.yul\":4045:4095   */\n      tag_140\n        /* \"#utility.yul\":4089:4094   */\n      dup2\n        /* \"#utility.yul\":4045:4095   */\n      tag_79\n      jump\t// in\n    tag_140:\n        /* \"#utility.yul\":4040:4043   */\n      dup3\n        /* \"#utility.yul\":4033:4096   */\n      mstore\n        /* \"#utility.yul\":3945:4102   */\n      pop\n      pop\n      jump\t// out\n        /* \"#utility.yul\":4108:4356   */\n    tag_31:\n        /* \"#utility.yul\":4214:4218   */\n      0x00\n        /* \"#utility.yul\":4252:4254   */\n      0x20\n        /* \"#utility.yul\":4241:4250   */\n      dup3\n        /* \"#utility.yul\":4237:4255   */\n      add\n        /* \"#utility.yul\":4229:4255   */\n      swap1\n      pop\n        /* \"#utility.yul\":4265:4349   */\n      tag_142\n        /* \"#utility.yul\":4346:4347   */\n      0x00\n        /* \"#utility.yul\":4335:4344   */\n      dup4\n        /* \"#utility.yul\":4331:4348   */\n      add\n        /* \"#utility.yul\":4322:4328   */\n      dup5\n        /* \"#utility.yul\":4265:4349   */\n      tag_80\n      jump\t// in\n    tag_142:\n        /* \"#utility.yul\":4108:4356   */\n      swap3\n      swap2\n      pop\n      pop\n      jump\t// out\n        /* \"#utility.yul\":4362:4542   */\n    tag_38:\n        /* \"#utility.yul\":4410:4487   */\n      0x4e487b7100000000000000000000000000000000000000000000000000000000\n        /* \"#utility.yul\":4407:4408   */\n      0x00\n        /* \"#utility.yul\":4400:4488   */\n      mstore\n        /* \"#utility.yul\":4507:4511   */\n      0x32\n        /* \"#utility.yul\":4504:4505   */\n      0x04\n        /* \"#utility.yul\":4497:4512   */\n      mstore\n        /* \"#utility.yul\":4531:4535   */\n      0x24\n        /* \"#utility.yul\":4528:4529   */\n      0x00\n        /* \"#utility.yul\":4521:4536   */\n      revert\n        /* \"#utility.yul\":4548:4665   */\n    tag_81:\n        /* \"#utility.yul\":4657:4658   */\n      0x00\n        /* \"#utility.yul\":4654:4655   */\n      0x00\n        /* \"#utility.yul\":4647:4659   */\n      revert\n        /* \"#utility.yul\":4671:4788   */\n    tag_82:\n        /* \"#utility.yul\":4780:4781   */\n      0x00\n        /* \"#utility.yul\":4777:4778   */\n      0x00\n        /* \"#utility.yul\":4770:4782   */\n      revert\n        /* \"#utility.yul\":4794:4974   */\n    tag_83:\n        /* \"#utility.yul\":4842:4919   */\n      0x4e487b7100000000000000000000000000000000000000000000000000000000\n        /* \"#utility.yul\":4839:4840   */\n      0x00\n        /* \"#utility.yul\":4832:4920   */\n      mstore\n        /* \"#utility.yul\":4939:4943   */\n      0x41\n        /* \"#utility.yul\":4936:4937   */\n      0x04\n        /* \"#utility.yul\":4929:4944   */\n      mstore\n        /* \"#utility.yul\":4963:4967   */\n      0x24\n        /* \"#utility.yul\":4960:4961   */\n      0x00\n        /* \"#utility.yul\":4953:4968   */\n      revert\n        /* \"#utility.yul\":4980:5261   */\n    tag_84:\n        /* \"#utility.yul\":5063:5090   */\n      tag_148\n        /* \"#utility.yul\":5085:5089   */\n      dup3\n        /* \"#utility.yul\":5063:5090   */\n      tag_70\n      jump\t// in\n    tag_148:\n        /* \"#utility.yul\":5055:5061   */\n      dup2\n        /* \"#utility.yul\":5051:5091   */\n      add\n        /* \"#utility.yul\":5193:5199   */\n      dup2\n        /* \"#utility.yul\":5181:5191   */\n      dup2\n        /* \"#utility.yul\":5178:5200   */\n      lt\n        /* \"#utility.yul\":5157:5175   */\n      0xffffffffffffffff\n        /* \"#utility.yul\":5145:5155   */\n      dup3\n        /* \"#utility.yul\":5142:5176   */\n      gt\n        /* \"#utility.yul\":5139:5201   */\n      or\n        /* \"#utility.yul\":5136:5224   */\n      iszero\n      tag_149\n      jumpi\n        /* \"#utility.yul\":5204:5222   */\n      tag_150\n      tag_83\n      jump\t// in\n    tag_150:\n        /* \"#utility.yul\":5136:5224   */\n    tag_149:\n        /* \"#utility.yul\":5244:5254   */\n      dup1\n        /* \"#utility.yul\":5240:5242   */\n      0x40\n        /* \"#utility.yul\":5233:5255   */\n      mstore\n        /* \"#utility.yul\":5023:5261   */\n      pop\n        /* \"#utility.yul\":4980:5261   */\n      pop\n      pop\n      jump\t// out\n        /* \"#utility.yul\":5267:5396   */\n    tag_85:\n        /* \"#utility.yul\":5301:5307   */\n      0x00\n        /* \"#utility.yul\":5328:5348   */\n      tag_152\n      tag_62\n      jump\t// in\n    tag_152:\n        /* \"#utility.yul\":5318:5348   */\n      swap1\n      pop\n        /* \"#utility.yul\":5357:5390   */\n      tag_153\n        /* \"#utility.yul\":5385:5389   */\n      dup3\n        /* \"#utility.yul\":5377:5383   */\n      dup3\n        /* \"#utility.yul\":5357:5390   */\n      tag_84\n      jump\t// in\n    tag_153:\n        /* \"#utility.yul\":5267:5396   */\n      swap2\n      swap1\n      pop\n      jump\t// out\n        /* \"#utility.yul\":5402:5710   */\n    tag_86:\n        /* \"#utility.yul\":5464:5468   */\n      0x00\n        /* \"#utility.yul\":5554:5572   */\n      0xffffffffffffffff\n        /* \"#utility.yul\":5546:5552   */\n      dup3\n        /* \"#utility.yul\":5543:5573   */\n      gt\n        /* \"#utility.yul\":5540:5596   */\n      iszero\n      tag_155\n      jumpi\n        /* \"#utility.yul\":5576:5594   */\n      tag_156\n      tag_83\n      jump\t// in\n    tag_156:\n        /* \"#utility.yul\":5540:5596   */\n    tag_155:\n        /* \"#utility.yul\":5614:5643   */\n      tag_157\n        /* \"#utility.yul\":5636:5642   */\n      dup3\n        /* \"#utility.yul\":5614:5643   */\n      tag_70\n      jump\t// in\n    tag_157:\n        /* \"#utility.yul\":5606:5643   */\n      swap1\n      pop\n        /* \"#utility.yul\":5698:5702   */\n      0x20\n        /* \"#utility.yul\":5692:5696   */\n      dup2\n        /* \"#utility.yul\":5688:5703   */\n      add\n        /* \"#utility.yul\":5680:5703   */\n      swap1\n      pop\n        /* \"#utility.yul\":5402:5710   */\n      swap2\n      swap1\n      pop\n      jump\t// out\n        /* \"#utility.yul\":5716:6150   */\n    tag_87:\n        /* \"#utility.yul\":5805:5810   */\n      0x00\n        /* \"#utility.yul\":5830:5896   */\n      tag_159\n        /* \"#utility.yul\":5846:5895   */\n      tag_160\n        /* \"#utility.yul\":5888:5894   */\n      dup5\n        /* \"#utility.yul\":5846:5895   */\n      tag_86\n      jump\t// in\n    tag_160:\n        /* \"#utility.yul\":5830:5896   */\n      tag_85\n      jump\t// in\n    tag_159:\n        /* \"#utility.yul\":5821:5896   */\n      swap1\n      pop\n        /* \"#utility.yul\":5919:5925   */\n      dup3\n        /* \"#utility.yul\":5912:5917   */\n      dup2\n        /* \"#utility.yul\":5905:5926   */\n      mstore\n        /* \"#utility.yul\":5957:5961   */\n      0x20\n        /* \"#utility.yul\":5950:5955   */\n      dup2\n        /* \"#utility.yul\":5946:5962   */\n      add\n        /* \"#utility.yul\":5995:5998   */\n      dup5\n        /* \"#utility.yul\":5986:5992   */\n      dup5\n        /* \"#utility.yul\":5981:5984   */\n      dup5\n        /* \"#utility.yul\":5977:5993   */\n      add\n        /* \"#utility.yul\":5974:5999   */\n      gt\n        /* \"#utility.yul\":5971:6083   */\n      iszero\n      tag_161\n      jumpi\n        /* \"#utility.yul\":6002:6081   */\n      tag_162\n      tag_82\n      jump\t// in\n    tag_162:\n        /* \"#utility.yul\":5971:6083   */\n    tag_161:\n        /* \"#utility.yul\":6092:6144   */\n      tag_163\n        /* \"#utility.yul\":6137:6143   */\n      dup5\n        /* \"#utility.yul\":6132:6135   */\n      dup3\n        /* \"#utility.yul\":6127:6130   */\n      dup6\n        /* \"#utility.yul\":6092:6144   */\n      tag_69\n      jump\t// in\n    tag_163:\n        /* \"#utility.yul\":5811:6150   */\n      pop\n        /* \"#utility.yul\":5716:6150   */\n      swap4\n      swap3\n      pop\n      pop\n      pop\n      jump\t// out\n        /* \"#utility.yul\":6170:6525   */\n    tag_88:\n        /* \"#utility.yul\":6237:6242   */\n      0x00\n        /* \"#utility.yul\":6286:6289   */\n      dup3\n        /* \"#utility.yul\":6279:6283   */\n      0x1f\n        /* \"#utility.yul\":6271:6277   */\n      dup4\n        /* \"#utility.yul\":6267:6284   */\n      add\n        /* \"#utility.yul\":6263:6290   */\n      slt\n        /* \"#utility.yul\":6253:6375   */\n      tag_165\n      jumpi\n        /* \"#utility.yul\":6294:6373   */\n      tag_166\n      tag_81\n      jump\t// in\n    tag_166:\n        /* \"#utility.yul\":6253:6375   */\n    tag_165:\n        /* \"#utility.yul\":6404:6410   */\n      dup2\n        /* \"#utility.yul\":6398:6411   */\n      mload\n        /* \"#utility.yul\":6429:6519   */\n      tag_167\n        /* \"#utility.yul\":6515:6518   */\n      dup5\n        /* \"#utility.yul\":6507:6513   */\n      dup3\n        /* \"#utility.yul\":6500:6504   */\n      0x20\n        /* \"#utility.yul\":6492:6498   */\n      dup7\n        /* \"#utility.yul\":6488:6505   */\n      add\n        /* \"#utility.yul\":6429:6519   */\n      tag_87\n      jump\t// in\n    tag_167:\n        /* \"#utility.yul\":6420:6519   */\n      swap2\n      pop\n        /* \"#utility.yul\":6243:6525   */\n      pop\n        /* \"#utility.yul\":6170:6525   */\n      swap3\n      swap2\n      pop\n      pop\n      jump\t// out\n        /* \"#utility.yul\":6531:7055   */\n    tag_43:\n        /* \"#utility.yul\":6611:6617   */\n      0x00\n        /* \"#utility.yul\":6660:6662   */\n      0x20\n        /* \"#utility.yul\":6648:6657   */\n      dup3\n        /* \"#utility.yul\":6639:6646   */\n      dup5\n        /* \"#utility.yul\":6635:6658   */\n      sub\n        /* \"#utility.yul\":6631:6663   */\n      slt\n        /* \"#utility.yul\":6628:6747   */\n      iszero\n      tag_169\n      jumpi\n        /* \"#utility.yul\":6666:6745   */\n      tag_170\n      tag_63\n      jump\t// in\n    tag_170:\n        /* \"#utility.yul\":6628:6747   */\n    tag_169:\n        /* \"#utility.yul\":6807:6808   */\n      0x00\n        /* \"#utility.yul\":6796:6805   */\n      dup3\n        /* \"#utility.yul\":6792:6809   */\n      add\n        /* \"#utility.yul\":6786:6810   */\n      mload\n        /* \"#utility.yul\":6837:6855   */\n      0xffffffffffffffff\n        /* \"#utility.yul\":6829:6835   */\n      dup2\n        /* \"#utility.yul\":6826:6856   */\n      gt\n        /* \"#utility.yul\":6823:6940   */\n      iszero\n      tag_171\n      jumpi\n        /* \"#utility.yul\":6859:6938   */\n      tag_172\n      tag_64\n      jump\t// in\n    tag_172:\n        /* \"#utility.yul\":6823:6940   */\n    tag_171:\n        /* \"#utility.yul\":6964:7038   */\n      tag_173\n        /* \"#utility.yul\":7030:7037   */\n      dup5\n        /* \"#utility.yul\":7021:7027   */\n      dup3\n        /* \"#utility.yul\":7010:7019   */\n      dup6\n        /* \"#utility.yul\":7006:7028   */\n      add\n        /* \"#utility.yul\":6964:7038   */\n      tag_88\n      jump\t// in\n    tag_173:\n        /* \"#utility.yul\":6954:7038   */\n      swap2\n      pop\n        /* \"#utility.yul\":6757:7048   */\n      pop\n        /* \"#utility.yul\":6531:7055   */\n      swap3\n      swap2\n      pop\n      pop\n      jump\t// out\n    stop\n\n    sub_0: assembly {\n            /* \"contracts/16_Herencia.sol\":626:907  contract Gato is Animal {... */\n          mstore(0x40, 0x80)\n            /* \"contracts/16_Herencia.sol\":657:697  constructor() Animal(\"Gato\") { ... */\n          callvalue\n          dup1\n          iszero\n          tag_1\n          jumpi\n          revert(0x00, 0x00)\n        tag_1:\n          pop\n            /* \"contracts/16_Herencia.sol\":125:199  constructor(string memory _especie) { ... */\n          mload(0x40)\n          dup1\n          0x40\n          add\n          0x40\n          mstore\n          dup1\n          0x04\n          dup2\n          mstore\n          0x20\n          add\n          0x4761746f00000000000000000000000000000000000000000000000000000000\n          dup2\n          mstore\n          pop\n            /* \"contracts/16_Herencia.sol\":183:191  _especie */\n          dup1\n            /* \"contracts/16_Herencia.sol\":173:180  especie */\n          0x00\n            /* \"contracts/16_Herencia.sol\":173:191  especie = _especie */\n          swap1\n          dup2\n          tag_5\n          swap2\n          swap1\n          tag_6\n          jump\t// in\n        tag_5:\n          pop\n            /* \"contracts/16_Herencia.sol\":125:199  constructor(string memory _especie) { ... */\n          pop\n            /* \"contracts/16_Herencia.sol\":626:907  contract Gato is Animal {... */\n          jump(tag_8)\n            /* \"#utility.yul\":7:106   */\n        tag_9:\n            /* \"#utility.yul\":59:65   */\n          0x00\n            /* \"#utility.yul\":93:98   */\n          dup2\n            /* \"#utility.yul\":87:99   */\n          mload\n            /* \"#utility.yul\":77:99   */\n          swap1\n          pop\n            /* \"#utility.yul\":7:106   */\n          swap2\n          swap1\n          pop\n          jump\t// out\n            /* \"#utility.yul\":112:292   */\n        tag_10:\n            /* \"#utility.yul\":160:237   */\n          0x4e487b7100000000000000000000000000000000000000000000000000000000\n            /* \"#utility.yul\":157:158   */\n          0x00\n            /* \"#utility.yul\":150:238   */\n          mstore\n            /* \"#utility.yul\":257:261   */\n          0x41\n            /* \"#utility.yul\":254:255   */\n          0x04\n            /* \"#utility.yul\":247:262   */\n          mstore\n            /* \"#utility.yul\":281:285   */\n          0x24\n            /* \"#utility.yul\":278:279   */\n          0x00\n            /* \"#utility.yul\":271:286   */\n          revert\n            /* \"#utility.yul\":298:478   */\n        tag_11:\n            /* \"#utility.yul\":346:423   */\n          0x4e487b7100000000000000000000000000000000000000000000000000000000\n            /* \"#utility.yul\":343:344   */\n          0x00\n            /* \"#utility.yul\":336:424   */\n          mstore\n            /* \"#utility.yul\":443:447   */\n          0x22\n            /* \"#utility.yul\":440:441   */\n          0x04\n            /* \"#utility.yul\":433:448   */\n          mstore\n            /* \"#utility.yul\":467:471   */\n          0x24\n            /* \"#utility.yul\":464:465   */\n          0x00\n            /* \"#utility.yul\":457:472   */\n          revert\n            /* \"#utility.yul\":484:804   */\n        tag_12:\n            /* \"#utility.yul\":528:534   */\n          0x00\n            /* \"#utility.yul\":565:566   */\n          0x02\n            /* \"#utility.yul\":559:563   */\n          dup3\n            /* \"#utility.yul\":555:567   */\n          div\n            /* \"#utility.yul\":545:567   */\n          swap1\n          pop\n            /* \"#utility.yul\":612:613   */\n          0x01\n            /* \"#utility.yul\":606:610   */\n          dup3\n            /* \"#utility.yul\":602:614   */\n          and\n            /* \"#utility.yul\":633:651   */\n          dup1\n            /* \"#utility.yul\":623:704   */\n          tag_34\n          jumpi\n            /* \"#utility.yul\":689:693   */\n          0x7f\n            /* \"#utility.yul\":681:687   */\n          dup3\n            /* \"#utility.yul\":677:694   */\n          and\n            /* \"#utility.yul\":667:694   */\n          swap2\n          pop\n            /* \"#utility.yul\":623:704   */\n        tag_34:\n            /* \"#utility.yul\":751:753   */\n          0x20\n            /* \"#utility.yul\":743:749   */\n          dup3\n            /* \"#utility.yul\":740:754   */\n          lt\n            /* \"#utility.yul\":720:738   */\n          dup2\n            /* \"#utility.yul\":717:755   */\n          sub\n            /* \"#utility.yul\":714:798   */\n          tag_35\n          jumpi\n            /* \"#utility.yul\":770:788   */\n          tag_36\n          tag_11\n          jump\t// in\n        tag_36:\n            /* \"#utility.yul\":714:798   */\n        tag_35:\n            /* \"#utility.yul\":535:804   */\n          pop\n            /* \"#utility.yul\":484:804   */\n          swap2\n          swap1\n          pop\n          jump\t// out\n            /* \"#utility.yul\":810:951   */\n        tag_13:\n            /* \"#utility.yul\":859:863   */\n          0x00\n            /* \"#utility.yul\":882:885   */\n          dup2\n            /* \"#utility.yul\":874:885   */\n          swap1\n          pop\n            /* \"#utility.yul\":905:908   */\n          dup2\n            /* \"#utility.yul\":902:903   */\n          0x00\n            /* \"#utility.yul\":895:909   */\n          mstore\n            /* \"#utility.yul\":939:943   */\n          0x20\n            /* \"#utility.yul\":936:937   */\n          0x00\n            /* \"#utility.yul\":926:944   */\n          keccak256\n            /* \"#utility.yul\":918:944   */\n          swap1\n          pop\n            /* \"#utility.yul\":810:951   */\n          swap2\n          swap1\n          pop\n          jump\t// out\n            /* \"#utility.yul\":957:1050   */\n        tag_14:\n            /* \"#utility.yul\":994:1000   */\n          0x00\n            /* \"#utility.yul\":1041:1043   */\n          0x20\n            /* \"#utility.yul\":1036:1038   */\n          0x1f\n            /* \"#utility.yul\":1029:1034   */\n          dup4\n            /* \"#utility.yul\":1025:1039   */\n          add\n            /* \"#utility.yul\":1021:1044   */\n          div\n            /* \"#utility.yul\":1011:1044   */\n          swap1\n          pop\n            /* \"#utility.yul\":957:1050   */\n          swap2\n          swap1\n          pop\n          jump\t// out\n            /* \"#utility.yul\":1056:1163   */\n        tag_15:\n            /* \"#utility.yul\":1100:1108   */\n          0x00\n            /* \"#utility.yul\":1150:1155   */\n          dup3\n            /* \"#utility.yul\":1144:1148   */\n          dup3\n            /* \"#utility.yul\":1140:1156   */\n          shl\n            /* \"#utility.yul\":1119:1156   */\n          swap1\n          pop\n            /* \"#utility.yul\":1056:1163   */\n          swap3\n          swap2\n          pop\n          pop\n          jump\t// out\n            /* \"#utility.yul\":1169:1562   */\n        tag_16:\n            /* \"#utility.yul\":1238:1244   */\n          0x00\n            /* \"#utility.yul\":1288:1289   */\n          0x08\n            /* \"#utility.yul\":1276:1286   */\n          dup4\n            /* \"#utility.yul\":1272:1290   */\n          mul\n            /* \"#utility.yul\":1311:1408   */\n          tag_41\n            /* \"#utility.yul\":1341:1407   */\n          0xffffffffffffffffffffffffffffffffffffffffffffffffffffffffffffffff\n            /* \"#utility.yul\":1330:1339   */\n          dup3\n            /* \"#utility.yul\":1311:1408   */\n          tag_15\n          jump\t// in\n        tag_41:\n            /* \"#utility.yul\":1429:1468   */\n          tag_42\n            /* \"#utility.yul\":1459:1467   */\n          dup7\n            /* \"#utility.yul\":1448:1457   */\n          dup4\n            /* \"#utility.yul\":1429:1468   */\n          tag_15\n          jump\t// in\n        tag_42:\n            /* \"#utility.yul\":1417:1468   */\n          swap6\n          pop\n            /* \"#utility.yul\":1501:1505   */\n          dup1\n            /* \"#utility.yul\":1497:1506   */\n          not\n            /* \"#utility.yul\":1490:1495   */\n          dup5\n            /* \"#utility.yul\":1486:1507   */\n          and\n            /* \"#utility.yul\":1477:1507   */\n          swap4\n          pop\n            /* \"#utility.yul\":1550:1554   */\n          dup1\n            /* \"#utility.yul\":1540:1548   */\n          dup7\n            /* \"#utility.yul\":1536:1555   */\n          and\n            /* \"#utility.yul\":1529:1534   */\n          dup5\n            /* \"#utility.yul\":1526:1556   */\n          or\n            /* \"#utility.yul\":1516:1556   */\n          swap3\n          pop\n            /* \"#utility.yul\":1245:1562   */\n          pop\n          pop\n            /* \"#utility.yul\":1169:1562   */\n          swap4\n          swap3\n          pop\n          pop\n          pop\n          jump\t// out\n            /* \"#utility.yul\":1568:1645   */\n        tag_17:\n            /* \"#utility.yul\":1605:1612   */\n          0x00\n            /* \"#utility.yul\":1634:1639   */\n          dup2\n            /* \"#utility.yul\":1623:1639   */\n          swap1\n          pop\n            /* \"#utility.yul\":1568:1645   */\n          swap2\n          swap1\n          pop\n          jump\t// out\n            /* \"#utility.yul\":1651:1711   */\n        tag_18:\n            /* \"#utility.yul\":1679:1682   */\n          0x00\n            /* \"#utility.yul\":1700:1705   */\n          dup2\n            /* \"#utility.yul\":1693:1705   */\n          swap1\n          pop\n            /* \"#utility.yul\":1651:1711   */\n          swap2\n          swap1\n          pop\n          jump\t// out\n            /* \"#utility.yul\":1717:1859   */\n        tag_19:\n            /* \"#utility.yul\":1767:1776   */\n          0x00\n            /* \"#utility.yul\":1800:1853   */\n          tag_46\n            /* \"#utility.yul\":1818:1852   */\n          tag_47\n            /* \"#utility.yul\":1827:1851   */\n          tag_48\n            /* \"#utility.yul\":1845:1850   */\n          dup5\n            /* \"#utility.yul\":1827:1851   */\n          tag_17\n          jump\t// in\n        tag_48:\n            /* \"#utility.yul\":1818:1852   */\n          tag_18\n          jump\t// in\n        tag_47:\n            /* \"#utility.yul\":1800:1853   */\n          tag_17\n          jump\t// in\n        tag_46:\n            /* \"#utility.yul\":1787:1853   */\n          swap1\n          pop\n            /* \"#utility.yul\":1717:1859   */\n          swap2\n          swap1\n          pop\n          jump\t// out\n            /* \"#utility.yul\":1865:1940   */\n        tag_20:\n            /* \"#utility.yul\":1908:1911   */\n          0x00\n            /* \"#utility.yul\":1929:1934   */\n          dup2\n            /* \"#utility.yul\":1922:1934   */\n          swap1\n          pop\n            /* \"#utility.yul\":1865:1940   */\n          swap2\n          swap1\n          pop\n          jump\t// out\n            /* \"#utility.yul\":1946:2215   */\n        tag_21:\n            /* \"#utility.yul\":2056:2095   */\n          tag_51\n            /* \"#utility.yul\":2087:2094   */\n          dup4\n            /* \"#utility.yul\":2056:2095   */\n          tag_19\n          jump\t// in\n        tag_51:\n            /* \"#utility.yul\":2117:2208   */\n          tag_52\n            /* \"#utility.yul\":2166:2207   */\n          tag_53\n            /* \"#utility.yul\":2190:2206   */\n          dup3\n            /* \"#utility.yul\":2166:2207   */\n          tag_20\n          jump\t// in\n        tag_53:\n            /* \"#utility.yul\":2158:2164   */\n          dup5\n            /* \"#utility.yul\":2151:2155   */\n          dup5\n            /* \"#utility.yul\":2145:2156   */\n          sload\n            /* \"#utility.yul\":2117:2208   */\n          tag_16\n          jump\t// in\n        tag_52:\n            /* \"#utility.yul\":2111:2115   */\n          dup3\n            /* \"#utility.yul\":2104:2209   */\n          sstore\n            /* \"#utility.yul\":2022:2215   */\n          pop\n            /* \"#utility.yul\":1946:2215   */\n          pop\n          pop\n          pop\n          jump\t// out\n            /* \"#utility.yul\":2221:2294   */\n        tag_22:\n            /* \"#utility.yul\":2266:2269   */\n          0x00\n            /* \"#utility.yul\":2287:2288   */\n          0x00\n            /* \"#utility.yul\":2280:2288   */\n          swap1\n          pop\n            /* \"#utility.yul\":2221:2294   */\n          swap1\n          jump\t// out\n            /* \"#utility.yul\":2300:2489   */\n        tag_23:\n            /* \"#utility.yul\":2377:2409   */\n          tag_56\n          tag_22\n          jump\t// in\n        tag_56:\n            /* \"#utility.yul\":2418:2483   */\n          tag_57\n            /* \"#utility.yul\":2476:2482   */\n          dup2\n            /* \"#utility.yul\":2468:2474   */\n          dup5\n            /* \"#utility.yul\":2462:2466   */\n          dup5\n            /* \"#utility.yul\":2418:2483   */\n          tag_21\n          jump\t// in\n        tag_57:\n            /* \"#utility.yul\":2353:2489   */\n          pop\n            /* \"#utility.yul\":2300:2489   */\n          pop\n          pop\n          jump\t// out\n            /* \"#utility.yul\":2495:2709   */\n        tag_24:\n            /* \"#utility.yul\":2580:2581   */\n          0x00\n            /* \"#utility.yul\":2565:2703   */\n        tag_59:\n            /* \"#utility.yul\":2590:2599   */\n          dup3\n            /* \"#utility.yul\":2587:2588   */\n          dup2\n            /* \"#utility.yul\":2584:2600   */\n          lt\n            /* \"#utility.yul\":2565:2703   */\n          iszero\n          tag_61\n          jumpi\n            /* \"#utility.yul\":2642:2693   */\n          tag_62\n            /* \"#utility.yul\":2691:2692   */\n          0x00\n            /* \"#utility.yul\":2687:2688   */\n          dup3\n            /* \"#utility.yul\":2676:2685   */\n          dup5\n            /* \"#utility.yul\":2672:2689   */\n          add\n            /* \"#utility.yul\":2642:2693   */\n          tag_23\n          jump\t// in\n        tag_62:\n            /* \"#utility.yul\":2615:2616   */\n          0x01\n            /* \"#utility.yul\":2612:2613   */\n          dup2\n            /* \"#utility.yul\":2608:2617   */\n          add\n            /* \"#utility.yul\":2603:2617   */\n          swap1\n          pop\n            /* \"#utility.yul\":2565:2703   */\n          jump(tag_59)\n        tag_61:\n            /* \"#utility.yul\":2569:2583   */\n          pop\n            /* \"#utility.yul\":2495:2709   */\n          pop\n          pop\n          jump\t// out\n            /* \"#utility.yul\":2715:3461   */\n        tag_25:\n            /* \"#utility.yul\":2816:2818   */\n          0x1f\n            /* \"#utility.yul\":2811:2814   */\n          dup3\n            /* \"#utility.yul\":2808:2819   */\n          gt\n            /* \"#utility.yul\":2805:3454   */\n          iszero\n          tag_64\n          jumpi\n            /* \"#utility.yul\":2845:2855   */\n          dup3\n            /* \"#utility.yul\":2840:2843   */\n          dup3\n            /* \"#utility.yul\":2837:2856   */\n          gt\n            /* \"#utility.yul\":2834:3444   */\n          iszero\n          tag_65\n          jumpi\n            /* \"#utility.yul\":2891:2929   */\n          tag_66\n            /* \"#utility.yul\":2923:2928   */\n          dup2\n            /* \"#utility.yul\":2891:2929   */\n          tag_13\n          jump\t// in\n        tag_66:\n            /* \"#utility.yul\":2966:2988   */\n          tag_67\n            /* \"#utility.yul\":2984:2987   */\n          dup4\n            /* \"#utility.yul\":2966:2988   */\n          tag_14\n          jump\t// in\n        tag_67:\n            /* \"#utility.yul\":3025:3054   */\n          tag_68\n            /* \"#utility.yul\":3043:3053   */\n          dup6\n            /* \"#utility.yul\":3025:3054   */\n          tag_14\n          jump\t// in\n        tag_68:\n            /* \"#utility.yul\":3215:3217   */\n          0x20\n            /* \"#utility.yul\":3203:3213   */\n          dup7\n            /* \"#utility.yul\":3200:3218   */\n          lt\n            /* \"#utility.yul\":3197:3276   */\n          iszero\n          tag_69\n          jumpi\n            /* \"#utility.yul\":3257:3258   */\n          0x00\n            /* \"#utility.yul\":3241:3258   */\n          swap1\n          pop\n            /* \"#utility.yul\":3197:3276   */\n        tag_69:\n            /* \"#utility.yul\":3326:3338   */\n          dup1\n            /* \"#utility.yul\":3316:3324   */\n          dup4\n            /* \"#utility.yul\":3312:3339   */\n          add\n            /* \"#utility.yul\":3356:3430   */\n          tag_70\n            /* \"#utility.yul\":3416:3428   */\n          dup3\n            /* \"#utility.yul\":3402:3414   */\n          dup5\n            /* \"#utility.yul\":3398:3429   */\n          sub\n            /* \"#utility.yul\":3385:3396   */\n          dup3\n            /* \"#utility.yul\":3356:3430   */\n          tag_24\n          jump\t// in\n        tag_70:\n            /* \"#utility.yul\":2857:3444   */\n          pop\n          pop\n          pop\n          pop\n            /* \"#utility.yul\":2834:3444   */\n        tag_65:\n            /* \"#utility.yul\":2805:3454   */\n        tag_64:\n            /* \"#utility.yul\":2715:3461   */\n          pop\n          pop\n          pop\n          jump\t// out\n            /* \"#utility.yul\":3467:3584   */\n        tag_26:\n            /* \"#utility.yul\":3521:3529   */\n          0x00\n            /* \"#utility.yul\":3571:3576   */\n          dup3\n            /* \"#utility.yul\":3565:3569   */\n          dup3\n            /* \"#utility.yul\":3561:3577   */\n          shr\n            /* \"#utility.yul\":3540:3577   */\n          swap1\n          pop\n            /* \"#utility.yul\":3467:3584   */\n          swap3\n          swap2\n          pop\n          pop\n          jump\t// out\n            /* \"#utility.yul\":3590:3759   */\n        tag_27:\n            /* \"#utility.yul\":3634:3640   */\n          0x00\n            /* \"#utility.yul\":3667:3718   */\n          tag_73\n            /* \"#utility.yul\":3715:3716   */\n          0x00\n            /* \"#utility.yul\":3711:3717   */\n          not\n            /* \"#utility.yul\":3703:3708   */\n          dup5\n            /* \"#utility.yul\":3700:3701   */\n          0x08\n            /* \"#utility.yul\":3696:3709   */\n          mul\n            /* \"#utility.yul\":3667:3718   */\n          tag_26\n          jump\t// in\n        tag_73:\n            /* \"#utility.yul\":3663:3719   */\n          not\n            /* \"#utility.yul\":3748:3752   */\n          dup1\n            /* \"#utility.yul\":3742:3746   */\n          dup4\n            /* \"#utility.yul\":3738:3753   */\n          and\n            /* \"#utility.yul\":3728:3753   */\n          swap2\n          pop\n            /* \"#utility.yul\":3641:3759   */\n          pop\n            /* \"#utility.yul\":3590:3759   */\n          swap3\n          swap2\n          pop\n          pop\n          jump\t// out\n            /* \"#utility.yul\":3764:4059   */\n        tag_28:\n            /* \"#utility.yul\":3840:3844   */\n          0x00\n            /* \"#utility.yul\":3986:4015   */\n          tag_75\n            /* \"#utility.yul\":4011:4014   */\n          dup4\n            /* \"#utility.yul\":4005:4009   */\n          dup4\n            /* \"#utility.yul\":3986:4015   */\n          tag_27\n          jump\t// in\n        tag_75:\n            /* \"#utility.yul\":3978:4015   */\n          swap2\n          pop\n            /* \"#utility.yul\":4048:4051   */\n          dup3\n            /* \"#utility.yul\":4045:4046   */\n          0x02\n            /* \"#utility.yul\":4041:4052   */\n          mul\n            /* \"#utility.yul\":4035:4039   */\n          dup3\n            /* \"#utility.yul\":4032:4053   */\n          or\n            /* \"#utility.yul\":4024:4053   */\n          swap1\n          pop\n            /* \"#utility.yul\":3764:4059   */\n          swap3\n          swap2\n          pop\n          pop\n          jump\t// out\n            /* \"#utility.yul\":4064:5459   */\n        tag_6:\n            /* \"#utility.yul\":4181:4218   */\n          tag_77\n            /* \"#utility.yul\":4214:4217   */\n          dup3\n            /* \"#utility.yul\":4181:4218   */\n          tag_9\n          jump\t// in\n        tag_77:\n            /* \"#utility.yul\":4283:4301   */\n          0xffffffffffffffff\n            /* \"#utility.yul\":4275:4281   */\n          dup2\n            /* \"#utility.yul\":4272:4302   */\n          gt\n            /* \"#utility.yul\":4269:4325   */\n          iszero\n          tag_78\n          jumpi\n            /* \"#utility.yul\":4305:4323   */\n          tag_79\n          tag_10\n          jump\t// in\n        tag_79:\n            /* \"#utility.yul\":4269:4325   */\n        tag_78:\n            /* \"#utility.yul\":4349:4387   */\n          tag_80\n            /* \"#utility.yul\":4381:4385   */\n          dup3\n            /* \"#utility.yul\":4375:4386   */\n          sload\n            /* \"#utility.yul\":4349:4387   */\n          tag_12\n          jump\t// in\n        tag_80:\n            /* \"#utility.yul\":4434:4501   */\n          tag_81\n            /* \"#utility.yul\":4494:4500   */\n          dup3\n            /* \"#utility.yul\":4486:4492   */\n          dup3\n            /* \"#utility.yul\":4480:4484   */\n          dup6\n            /* \"#utility.yul\":4434:4501   */\n          tag_25\n          jump\t// in\n        tag_81:\n            /* \"#utility.yul\":4528:4529   */\n          0x00\n            /* \"#utility.yul\":4552:4556   */\n          0x20\n            /* \"#utility.yul\":4539:4556   */\n          swap1\n          pop\n            /* \"#utility.yul\":4584:4586   */\n          0x1f\n            /* \"#utility.yul\":4576:4582   */\n          dup4\n            /* \"#utility.yul\":4573:4587   */\n          gt\n            /* \"#utility.yul\":4601:4602   */\n          0x01\n            /* \"#utility.yul\":4596:5214   */\n          dup2\n          eq\n          tag_83\n          jumpi\n            /* \"#utility.yul\":5258:5259   */\n          0x00\n            /* \"#utility.yul\":5275:5281   */\n          dup5\n            /* \"#utility.yul\":5272:5349   */\n          iszero\n          tag_84\n          jumpi\n            /* \"#utility.yul\":5324:5333   */\n          dup3\n            /* \"#utility.yul\":5319:5322   */\n          dup8\n            /* \"#utility.yul\":5315:5334   */\n          add\n            /* \"#utility.yul\":5309:5335   */\n          mload\n            /* \"#utility.yul\":5300:5335   */\n          swap1\n          pop\n            /* \"#utility.yul\":5272:5349   */\n        tag_84:\n            /* \"#utility.yul\":5375:5442   */\n          tag_85\n            /* \"#utility.yul\":5435:5441   */\n          dup6\n            /* \"#utility.yul\":5428:5433   */\n          dup3\n            /* \"#utility.yul\":5375:5442   */\n          tag_28\n          jump\t// in\n        tag_85:\n            /* \"#utility.yul\":5369:5373   */\n          dup7\n            /* \"#utility.yul\":5362:5443   */\n          sstore\n            /* \"#utility.yul\":5231:5453   */\n          pop\n            /* \"#utility.yul\":4566:5453   */\n          jump(tag_82)\n            /* \"#utility.yul\":4596:5214   */\n        tag_83:\n            /* \"#utility.yul\":4648:4652   */\n          0x1f\n            /* \"#utility.yul\":4644:4653   */\n          not\n            /* \"#utility.yul\":4636:4642   */\n          dup5\n            /* \"#utility.yul\":4632:4654   */\n          and\n            /* \"#utility.yul\":4682:4719   */\n          tag_86\n            /* \"#utility.yul\":4714:4718   */\n          dup7\n            /* \"#utility.yul\":4682:4719   */\n          tag_13\n          jump\t// in\n        tag_86:\n            /* \"#utility.yul\":4741:4742   */\n          0x00\n            /* \"#utility.yul\":4755:4963   */\n        tag_87:\n            /* \"#utility.yul\":4769:4776   */\n          dup3\n            /* \"#utility.yul\":4766:4767   */\n          dup2\n            /* \"#utility.yul\":4763:4777   */\n          lt\n            /* \"#utility.yul\":4755:4963   */\n          iszero\n          tag_89\n          jumpi\n            /* \"#utility.yul\":4848:4857   */\n          dup5\n            /* \"#utility.yul\":4843:4846   */\n          dup10\n            /* \"#utility.yul\":4839:4858   */\n          add\n            /* \"#utility.yul\":4833:4859   */\n          mload\n            /* \"#utility.yul\":4825:4831   */\n          dup3\n            /* \"#utility.yul\":4818:4860   */\n          sstore\n            /* \"#utility.yul\":4899:4900   */\n          0x01\n            /* \"#utility.yul\":4891:4897   */\n          dup3\n            /* \"#utility.yul\":4887:4901   */\n          add\n            /* \"#utility.yul\":4877:4901   */\n          swap2\n          pop\n            /* \"#utility.yul\":4946:4948   */\n          0x20\n            /* \"#utility.yul\":4935:4944   */\n          dup6\n            /* \"#utility.yul\":4931:4949   */\n          add\n            /* \"#utility.yul\":4918:4949   */\n          swap5\n          pop\n            /* \"#utility.yul\":4792:4796   */\n          0x20\n            /* \"#utility.yul\":4789:4790   */\n          dup2\n            /* \"#utility.yul\":4785:4797   */\n          add\n            /* \"#utility.yul\":4780:4797   */\n          swap1\n          pop\n            /* \"#utility.yul\":4755:4963   */\n          jump(tag_87)\n        tag_89:\n            /* \"#utility.yul\":4991:4997   */\n          dup7\n            /* \"#utility.yul\":4982:4989   */\n          dup4\n            /* \"#utility.yul\":4979:4998   */\n          lt\n            /* \"#utility.yul\":4976:5155   */\n          iszero\n          tag_90\n          jumpi\n            /* \"#utility.yul\":5049:5058   */\n          dup5\n            /* \"#utility.yul\":5044:5047   */\n          dup10\n            /* \"#utility.yul\":5040:5059   */\n          add\n            /* \"#utility.yul\":5034:5060   */\n          mload\n            /* \"#utility.yul\":5092:5140   */\n          tag_91\n            /* \"#utility.yul\":5134:5138   */\n          0x1f\n            /* \"#utility.yul\":5126:5132   */\n          dup10\n            /* \"#utility.yul\":5122:5139   */\n          and\n            /* \"#utility.yul\":5111:5120   */\n          dup3\n            /* \"#utility.yul\":5092:5140   */\n          tag_27\n          jump\t// in\n        tag_91:\n            /* \"#utility.yul\":5084:5090   */\n          dup4\n            /* \"#utility.yul\":5077:5141   */\n          sstore\n            /* \"#utility.yul\":4999:5155   */\n          pop\n            /* \"#utility.yul\":4976:5155   */\n        tag_90:\n            /* \"#utility.yul\":5201:5202   */\n          0x01\n            /* \"#utility.yul\":5197:5198   */\n          0x02\n            /* \"#utility.yul\":5189:5195   */\n          dup9\n            /* \"#utility.yul\":5185:5199   */\n          mul\n            /* \"#utility.yul\":5181:5203   */\n          add\n            /* \"#utility.yul\":5175:5179   */\n          dup9\n            /* \"#utility.yul\":5168:5204   */\n          sstore\n            /* \"#utility.yul\":4603:5214   */\n          pop\n          pop\n          pop\n            /* \"#utility.yul\":4566:5453   */\n        tag_82:\n          pop\n            /* \"#utility.yul\":4156:5459   */\n          pop\n          pop\n          pop\n            /* \"#utility.yul\":4064:5459   */\n          pop\n          pop\n          jump\t// out\n            /* \"contracts/16_Herencia.sol\":626:907  contract Gato is Animal {... */\n        tag_8:\n          dataSize(sub_0)\n          dup1\n          dataOffset(sub_0)\n          0x00\n          codecopy\n          0x00\n          return\n        stop\n\n        sub_0: assembly {\n                /* \"contracts/16_Herencia.sol\":626:907  contract Gato is Animal {... */\n              mstore(0x40, 0x80)\n              callvalue\n              dup1\n              iszero\n              tag_1\n              jumpi\n              revert(0x00, 0x00)\n            tag_1:\n              pop\n              jumpi(tag_2, lt(calldatasize, 0x04))\n              shr(0xe0, calldataload(0x00))\n              dup1\n              0x2d26bb8b\n              eq\n              tag_3\n              jumpi\n              dup1\n              0x5f8c9a0a\n              eq\n              tag_4\n              jumpi\n              dup1\n              0xe7491011\n              eq\n              tag_5\n              jumpi\n              dup1\n              0xf12ac8ad\n              eq\n              tag_6\n              jumpi\n            tag_2:\n              revert(0x00, 0x00)\n                /* \"contracts/16_Herencia.sol\":813:904  function ronronear() public pure returns (string memory) { ... */\n            tag_3:\n              tag_7\n              tag_8\n              jump\t// in\n            tag_7:\n              mload(0x40)\n              tag_9\n              swap2\n              swap1\n              tag_10\n              jump\t// in\n            tag_9:\n              mload(0x40)\n              dup1\n              swap2\n              sub\n              swap1\n              return\n                /* \"contracts/16_Herencia.sol\":705:805  function hacerSonido() public pure override returns(string memory) { ... */\n            tag_4:\n              tag_11\n              tag_12\n              jump\t// in\n            tag_11:\n              mload(0x40)\n              tag_13\n              swap2\n              swap1\n              tag_10\n              jump\t// in\n            tag_13:\n              mload(0x40)\n              dup1\n              swap2\n              sub\n              swap1\n              return\n                /* \"contracts/16_Herencia.sol\":95:116  string public especie */\n            tag_5:\n              tag_14\n              tag_15\n              jump\t// in\n            tag_14:\n              mload(0x40)\n              tag_16\n              swap2\n              swap1\n              tag_10\n              jump\t// in\n            tag_16:\n              mload(0x40)\n              dup1\n              swap2\n              sub\n              swap1\n              return\n                /* \"contracts/16_Herencia.sol\":313:431  function obtenerInfo() public view returns(string memory) { ... */\n            tag_6:\n              tag_17\n              tag_18\n              jump\t// in\n            tag_17:\n              mload(0x40)\n              tag_19\n              swap2\n              swap1\n              tag_10\n              jump\t// in\n            tag_19:\n              mload(0x40)\n              dup1\n              swap2\n              sub\n              swap1\n              return\n                /* \"contracts/16_Herencia.sol\":813:904  function ronronear() public pure returns (string memory) { ... */\n            tag_8:\n                /* \"contracts/16_Herencia.sol\":855:868  string memory */\n              0x60\n                /* \"contracts/16_Herencia.sol\":882:896  return \"rrrrr\" */\n              mload(0x40)\n              dup1\n              0x40\n              add\n              0x40\n              mstore\n              dup1\n              0x05\n              dup2\n              mstore\n              0x20\n              add\n              0x7272727272000000000000000000000000000000000000000000000000000000\n              dup2\n              mstore\n              pop\n              swap1\n              pop\n                /* \"contracts/16_Herencia.sol\":813:904  function ronronear() public pure returns (string memory) { ... */\n              swap1\n              jump\t// out\n                /* \"contracts/16_Herencia.sol\":705:805  function hacerSonido() public pure override returns(string memory) { ... */\n            tag_12:\n                /* \"contracts/16_Herencia.sol\":757:770  string memory */\n              0x60\n                /* \"contracts/16_Herencia.sol\":784:797  return \"miau\" */\n              mload(0x40)\n              dup1\n              0x40\n              add\n              0x40\n              mstore\n              dup1\n              0x04\n              dup2\n              mstore\n              0x20\n              add\n              0x6d69617500000000000000000000000000000000000000000000000000000000\n              dup2\n              mstore\n              pop\n              swap1\n              pop\n                /* \"contracts/16_Herencia.sol\":705:805  function hacerSonido() public pure override returns(string memory) { ... */\n              swap1\n              jump\t// out\n                /* \"contracts/16_Herencia.sol\":95:116  string public especie */\n            tag_15:\n              0x00\n              dup1\n              sload\n              tag_22\n              swap1\n              tag_23\n              jump\t// in\n            tag_22:\n              dup1\n              0x1f\n              add\n              0x20\n              dup1\n              swap2\n              div\n              mul\n              0x20\n              add\n              mload(0x40)\n              swap1\n              dup2\n              add\n              0x40\n              mstore\n              dup1\n              swap3\n              swap2\n              swap1\n              dup2\n              dup2\n              mstore\n              0x20\n              add\n              dup3\n              dup1\n              sload\n              tag_24\n              swap1\n              tag_23\n              jump\t// in\n            tag_24:\n              dup1\n              iszero\n              tag_25\n              jumpi\n              dup1\n              0x1f\n              lt\n              tag_26\n              jumpi\n              0x0100\n              dup1\n              dup4\n              sload\n              div\n              mul\n              dup4\n              mstore\n              swap2\n              0x20\n              add\n              swap2\n              jump(tag_25)\n            tag_26:\n              dup3\n              add\n              swap2\n              swap1\n              0x00\n              mstore\n              keccak256(0x00, 0x20)\n              swap1\n            tag_27:\n              dup2\n              sload\n              dup2\n              mstore\n              swap1\n              0x01\n              add\n              swap1\n              0x20\n              add\n              dup1\n              dup4\n              gt\n              tag_27\n              jumpi\n              dup3\n              swap1\n              sub\n              0x1f\n              and\n              dup3\n              add\n              swap2\n            tag_25:\n              pop\n              pop\n              pop\n              pop\n              pop\n              dup2\n              jump\t// out\n                /* \"contracts/16_Herencia.sol\":313:431  function obtenerInfo() public view returns(string memory) { ... */\n            tag_18:\n                /* \"contracts/16_Herencia.sol\":356:369  string memory */\n              0x60\n                /* \"contracts/16_Herencia.sol\":415:422  especie */\n              0x00\n                /* \"contracts/16_Herencia.sol\":390:423  string.concat(\"Soy un \", especie) */\n              add(0x20, mload(0x40))\n              tag_29\n              swap2\n              swap1\n              tag_30\n              jump\t// in\n            tag_29:\n              mload(0x40)\n              0x20\n              dup2\n              dup4\n              sub\n              sub\n              dup2\n              mstore\n              swap1\n              0x40\n              mstore\n                /* \"contracts/16_Herencia.sol\":383:423  return string.concat(\"Soy un \", especie) */\n              swap1\n              pop\n                /* \"contracts/16_Herencia.sol\":313:431  function obtenerInfo() public view returns(string memory) { ... */\n              swap1\n              jump\t// out\n                /* \"#utility.yul\":7:106   */\n            tag_31:\n                /* \"#utility.yul\":59:65   */\n              0x00\n                /* \"#utility.yul\":93:98   */\n              dup2\n                /* \"#utility.yul\":87:99   */\n              mload\n                /* \"#utility.yul\":77:99   */\n              swap1\n              pop\n                /* \"#utility.yul\":7:106   */\n              swap2\n              swap1\n              pop\n              jump\t// out\n                /* \"#utility.yul\":112:281   */\n            tag_32:\n                /* \"#utility.yul\":196:207   */\n              0x00\n                /* \"#utility.yul\":230:236   */\n              dup3\n                /* \"#utility.yul\":225:228   */\n              dup3\n                /* \"#utility.yul\":218:237   */\n              mstore\n                /* \"#utility.yul\":270:274   */\n              0x20\n                /* \"#utility.yul\":265:268   */\n              dup3\n                /* \"#utility.yul\":261:275   */\n              add\n                /* \"#utility.yul\":246:275   */\n              swap1\n              pop\n                /* \"#utility.yul\":112:281   */\n              swap3\n              swap2\n              pop\n              pop\n              jump\t// out\n                /* \"#utility.yul\":287:426   */\n            tag_33:\n                /* \"#utility.yul\":376:382   */\n              dup3\n                /* \"#utility.yul\":371:374   */\n              dup2\n                /* \"#utility.yul\":366:369   */\n              dup4\n                /* \"#utility.yul\":360:383   */\n              mcopy\n                /* \"#utility.yul\":417:418   */\n              0x00\n                /* \"#utility.yul\":408:414   */\n              dup4\n                /* \"#utility.yul\":403:406   */\n              dup4\n                /* \"#utility.yul\":399:415   */\n              add\n                /* \"#utility.yul\":392:419   */\n              mstore\n                /* \"#utility.yul\":287:426   */\n              pop\n              pop\n              pop\n              jump\t// out\n                /* \"#utility.yul\":432:534   */\n            tag_34:\n                /* \"#utility.yul\":473:479   */\n              0x00\n                /* \"#utility.yul\":524:526   */\n              0x1f\n                /* \"#utility.yul\":520:527   */\n              not\n                /* \"#utility.yul\":515:517   */\n              0x1f\n                /* \"#utility.yul\":508:513   */\n              dup4\n                /* \"#utility.yul\":504:518   */\n              add\n                /* \"#utility.yul\":500:528   */\n              and\n                /* \"#utility.yul\":490:528   */\n              swap1\n              pop\n                /* \"#utility.yul\":432:534   */\n              swap2\n              swap1\n              pop\n              jump\t// out\n                /* \"#utility.yul\":540:917   */\n            tag_35:\n                /* \"#utility.yul\":628:631   */\n              0x00\n                /* \"#utility.yul\":656:695   */\n              tag_47\n                /* \"#utility.yul\":689:694   */\n              dup3\n                /* \"#utility.yul\":656:695   */\n              tag_31\n              jump\t// in\n            tag_47:\n                /* \"#utility.yul\":711:782   */\n              tag_48\n                /* \"#utility.yul\":775:781   */\n              dup2\n                /* \"#utility.yul\":770:773   */\n              dup6\n                /* \"#utility.yul\":711:782   */\n              tag_32\n              jump\t// in\n            tag_48:\n                /* \"#utility.yul\":704:782   */\n              swap4\n              pop\n                /* \"#utility.yul\":791:856   */\n              tag_49\n                /* \"#utility.yul\":849:855   */\n              dup2\n                /* \"#utility.yul\":844:847   */\n              dup6\n                /* \"#utility.yul\":837:841   */\n              0x20\n                /* \"#utility.yul\":830:835   */\n              dup7\n                /* \"#utility.yul\":826:842   */\n              add\n                /* \"#utility.yul\":791:856   */\n              tag_33\n              jump\t// in\n            tag_49:\n                /* \"#utility.yul\":881:910   */\n              tag_50\n                /* \"#utility.yul\":903:909   */\n              dup2\n                /* \"#utility.yul\":881:910   */\n              tag_34\n              jump\t// in\n            tag_50:\n                /* \"#utility.yul\":876:879   */\n              dup5\n                /* \"#utility.yul\":872:911   */\n              add\n                /* \"#utility.yul\":865:911   */\n              swap2\n              pop\n                /* \"#utility.yul\":632:917   */\n              pop\n                /* \"#utility.yul\":540:917   */\n              swap3\n              swap2\n              pop\n              pop\n              jump\t// out\n                /* \"#utility.yul\":923:1236   */\n            tag_10:\n                /* \"#utility.yul\":1036:1040   */\n              0x00\n                /* \"#utility.yul\":1074:1076   */\n              0x20\n                /* \"#utility.yul\":1063:1072   */\n              dup3\n                /* \"#utility.yul\":1059:1077   */\n              add\n                /* \"#utility.yul\":1051:1077   */\n              swap1\n              pop\n                /* \"#utility.yul\":1123:1132   */\n              dup2\n                /* \"#utility.yul\":1117:1121   */\n              dup2\n                /* \"#utility.yul\":1113:1133   */\n              sub\n                /* \"#utility.yul\":1109:1110   */\n              0x00\n                /* \"#utility.yul\":1098:1107   */\n              dup4\n                /* \"#utility.yul\":1094:1111   */\n              add\n                /* \"#utility.yul\":1087:1134   */\n              mstore\n                /* \"#utility.yul\":1151:1229   */\n              tag_52\n                /* \"#utility.yul\":1224:1228   */\n              dup2\n                /* \"#utility.yul\":1215:1221   */\n              dup5\n                /* \"#utility.yul\":1151:1229   */\n              tag_35\n              jump\t// in\n            tag_52:\n                /* \"#utility.yul\":1143:1229   */\n              swap1\n              pop\n                /* \"#utility.yul\":923:1236   */\n              swap3\n              swap2\n              pop\n              pop\n              jump\t// out\n                /* \"#utility.yul\":1242:1422   */\n            tag_36:\n                /* \"#utility.yul\":1290:1367   */\n              0x4e487b7100000000000000000000000000000000000000000000000000000000\n                /* \"#utility.yul\":1287:1288   */\n              0x00\n                /* \"#utility.yul\":1280:1368   */\n              mstore\n                /* \"#utility.yul\":1387:1391   */\n              0x22\n                /* \"#utility.yul\":1384:1385   */\n              0x04\n                /* \"#utility.yul\":1377:1392   */\n              mstore\n                /* \"#utility.yul\":1411:1415   */\n              0x24\n                /* \"#utility.yul\":1408:1409   */\n              0x00\n                /* \"#utility.yul\":1401:1416   */\n              revert\n                /* \"#utility.yul\":1428:1748   */\n            tag_23:\n                /* \"#utility.yul\":1472:1478   */\n              0x00\n                /* \"#utility.yul\":1509:1510   */\n              0x02\n                /* \"#utility.yul\":1503:1507   */\n              dup3\n                /* \"#utility.yul\":1499:1511   */\n              div\n                /* \"#utility.yul\":1489:1511   */\n              swap1\n              pop\n                /* \"#utility.yul\":1556:1557   */\n              0x01\n                /* \"#utility.yul\":1550:1554   */\n              dup3\n                /* \"#utility.yul\":1546:1558   */\n              and\n                /* \"#utility.yul\":1577:1595   */\n              dup1\n                /* \"#utility.yul\":1567:1648   */\n              tag_55\n              jumpi\n                /* \"#utility.yul\":1633:1637   */\n              0x7f\n                /* \"#utility.yul\":1625:1631   */\n              dup3\n                /* \"#utility.yul\":1621:1638   */\n              and\n                /* \"#utility.yul\":1611:1638   */\n              swap2\n              pop\n                /* \"#utility.yul\":1567:1648   */\n            tag_55:\n                /* \"#utility.yul\":1695:1697   */\n              0x20\n                /* \"#utility.yul\":1687:1693   */\n              dup3\n                /* \"#utility.yul\":1684:1698   */\n              lt\n                /* \"#utility.yul\":1664:1682   */\n              dup2\n                /* \"#utility.yul\":1661:1699   */\n              sub\n                /* \"#utility.yul\":1658:1742   */\n              tag_56\n              jumpi\n                /* \"#utility.yul\":1714:1732   */\n              tag_57\n              tag_36\n              jump\t// in\n            tag_57:\n                /* \"#utility.yul\":1658:1742   */\n            tag_56:\n                /* \"#utility.yul\":1479:1748   */\n              pop\n                /* \"#utility.yul\":1428:1748   */\n              swap2\n              swap1\n              pop\n              jump\t// out\n                /* \"#utility.yul\":1754:1938   */\n            tag_37:\n                /* \"#utility.yul\":1922:1931   */\n              0x536f7920756e2000000000000000000000000000000000000000000000000000\n                /* \"#utility.yul\":1917:1920   */\n              dup2\n                /* \"#utility.yul\":1910:1932   */\n              mstore\n                /* \"#utility.yul\":1754:1938   */\n              pop\n              jump\t// out\n                /* \"#utility.yul\":1944:2092   */\n            tag_38:\n                /* \"#utility.yul\":2046:2057   */\n              0x00\n                /* \"#utility.yul\":2083:2086   */\n              dup2\n                /* \"#utility.yul\":2068:2086   */\n              swap1\n              pop\n                /* \"#utility.yul\":1944:2092   */\n              swap3\n              swap2\n              pop\n              pop\n              jump\t// out\n                /* \"#utility.yul\":2098:2239   */\n            tag_39:\n                /* \"#utility.yul\":2147:2151   */\n              0x00\n                /* \"#utility.yul\":2170:2173   */\n              dup2\n                /* \"#utility.yul\":2162:2173   */\n              swap1\n              pop\n                /* \"#utility.yul\":2193:2196   */\n              dup2\n                /* \"#utility.yul\":2190:2191   */\n              0x00\n                /* \"#utility.yul\":2183:2197   */\n              mstore\n                /* \"#utility.yul\":2227:2231   */\n              0x20\n                /* \"#utility.yul\":2224:2225   */\n              0x00\n                /* \"#utility.yul\":2214:2232   */\n              keccak256\n                /* \"#utility.yul\":2206:2232   */\n              swap1\n              pop\n                /* \"#utility.yul\":2098:2239   */\n              swap2\n              swap1\n              pop\n              jump\t// out\n                /* \"#utility.yul\":2269:3143   */\n            tag_40:\n                /* \"#utility.yul\":2372:2375   */\n              0x00\n                /* \"#utility.yul\":2409:2414   */\n              dup2\n                /* \"#utility.yul\":2403:2415   */\n              sload\n                /* \"#utility.yul\":2438:2474   */\n              tag_62\n                /* \"#utility.yul\":2464:2473   */\n              dup2\n                /* \"#utility.yul\":2438:2474   */\n              tag_23\n              jump\t// in\n            tag_62:\n                /* \"#utility.yul\":2490:2579   */\n              tag_63\n                /* \"#utility.yul\":2572:2578   */\n              dup2\n                /* \"#utility.yul\":2567:2570   */\n              dup7\n                /* \"#utility.yul\":2490:2579   */\n              tag_38\n              jump\t// in\n            tag_63:\n                /* \"#utility.yul\":2483:2579   */\n              swap5\n              pop\n                /* \"#utility.yul\":2610:2611   */\n              0x01\n                /* \"#utility.yul\":2599:2608   */\n              dup3\n                /* \"#utility.yul\":2595:2612   */\n              and\n                /* \"#utility.yul\":2626:2627   */\n              0x00\n                /* \"#utility.yul\":2621:2787   */\n              dup2\n              eq\n              tag_65\n              jumpi\n                /* \"#utility.yul\":2801:2802   */\n              0x01\n                /* \"#utility.yul\":2796:3137   */\n              dup2\n              eq\n              tag_66\n              jumpi\n                /* \"#utility.yul\":2588:3137   */\n              jump(tag_64)\n                /* \"#utility.yul\":2621:2787   */\n            tag_65:\n                /* \"#utility.yul\":2705:2709   */\n              0xff\n                /* \"#utility.yul\":2701:2710   */\n              not\n                /* \"#utility.yul\":2690:2699   */\n              dup4\n                /* \"#utility.yul\":2686:2711   */\n              and\n                /* \"#utility.yul\":2681:2684   */\n              dup7\n                /* \"#utility.yul\":2674:2712   */\n              mstore\n                /* \"#utility.yul\":2767:2773   */\n              dup2\n                /* \"#utility.yul\":2760:2774   */\n              iszero\n                /* \"#utility.yul\":2753:2775   */\n              iszero\n                /* \"#utility.yul\":2745:2751   */\n              dup3\n                /* \"#utility.yul\":2741:2776   */\n              mul\n                /* \"#utility.yul\":2736:2739   */\n              dup7\n                /* \"#utility.yul\":2732:2777   */\n              add\n                /* \"#utility.yul\":2725:2777   */\n              swap4\n              pop\n                /* \"#utility.yul\":2621:2787   */\n              jump(tag_64)\n                /* \"#utility.yul\":2796:3137   */\n            tag_66:\n                /* \"#utility.yul\":2863:2901   */\n              tag_67\n                /* \"#utility.yul\":2895:2900   */\n              dup6\n                /* \"#utility.yul\":2863:2901   */\n              tag_39\n              jump\t// in\n            tag_67:\n                /* \"#utility.yul\":2923:2924   */\n              0x00\n                /* \"#utility.yul\":2937:3091   */\n            tag_68:\n                /* \"#utility.yul\":2951:2957   */\n              dup4\n                /* \"#utility.yul\":2948:2949   */\n              dup2\n                /* \"#utility.yul\":2945:2958   */\n              lt\n                /* \"#utility.yul\":2937:3091   */\n              iszero\n              tag_70\n              jumpi\n                /* \"#utility.yul\":3025:3032   */\n              dup2\n                /* \"#utility.yul\":3019:3033   */\n              sload\n                /* \"#utility.yul\":3015:3016   */\n              dup2\n                /* \"#utility.yul\":3010:3013   */\n              dup10\n                /* \"#utility.yul\":3006:3017   */\n              add\n                /* \"#utility.yul\":2999:3034   */\n              mstore\n                /* \"#utility.yul\":3075:3076   */\n              0x01\n                /* \"#utility.yul\":3066:3073   */\n              dup3\n                /* \"#utility.yul\":3062:3077   */\n              add\n                /* \"#utility.yul\":3051:3077   */\n              swap2\n              pop\n                /* \"#utility.yul\":2973:2977   */\n              0x20\n                /* \"#utility.yul\":2970:2971   */\n              dup2\n                /* \"#utility.yul\":2966:2978   */\n              add\n                /* \"#utility.yul\":2961:2978   */\n              swap1\n              pop\n                /* \"#utility.yul\":2937:3091   */\n              jump(tag_68)\n            tag_70:\n                /* \"#utility.yul\":3120:3126   */\n              dup4\n                /* \"#utility.yul\":3115:3118   */\n              dup9\n                /* \"#utility.yul\":3111:3127   */\n              add\n                /* \"#utility.yul\":3104:3127   */\n              swap6\n              pop\n                /* \"#utility.yul\":2803:3137   */\n              pop\n              pop\n                /* \"#utility.yul\":2588:3137   */\n            tag_64:\n              pop\n                /* \"#utility.yul\":2376:3143   */\n              pop\n              pop\n                /* \"#utility.yul\":2269:3143   */\n              swap3\n              swap2\n              pop\n              pop\n              jump\t// out\n                /* \"#utility.yul\":3149:3682   */\n            tag_30:\n                /* \"#utility.yul\":3368:3371   */\n              0x00\n                /* \"#utility.yul\":3383:3520   */\n              tag_72\n                /* \"#utility.yul\":3516:3519   */\n              dup3\n                /* \"#utility.yul\":3383:3520   */\n              tag_37\n              jump\t// in\n            tag_72:\n                /* \"#utility.yul\":3545:3546   */\n              0x07\n                /* \"#utility.yul\":3540:3543   */\n              dup3\n                /* \"#utility.yul\":3536:3547   */\n              add\n                /* \"#utility.yul\":3529:3547   */\n              swap2\n              pop\n                /* \"#utility.yul\":3564:3656   */\n              tag_73\n                /* \"#utility.yul\":3652:3655   */\n              dup3\n                /* \"#utility.yul\":3643:3649   */\n              dup5\n                /* \"#utility.yul\":3564:3656   */\n              tag_40\n              jump\t// in\n            tag_73:\n                /* \"#utility.yul\":3557:3656   */\n              swap2\n              pop\n                /* \"#utility.yul\":3673:3676   */\n              dup2\n                /* \"#utility.yul\":3666:3676   */\n              swap1\n              pop\n                /* \"#utility.yul\":3149:3682   */\n              swap3\n              swap2\n              pop\n              pop\n              jump\t// out\n\n            auxdata: 0xa264697066735822122018754f49c2871d2481a7934e40b2a9896a877571d5845ed671687627b26aef4164736f6c63430008220033\n        }\n    }\n\n    auxdata: 0xa2646970667358221220ab7d0fd47f36908476d47d817d113298a336c9c13a1038f9d7ccabb2c4bf0fa964736f6c63430008220033\n}\n",
				"bytecode": {
					"linkReferences": {},
					"object": "6080604052348015600e575f5ffd5b50610f468061001c5f395ff3fe608060405234801561000f575f5ffd5b5060043610610060575f3560e01c8063316906f3146100645780633af5444c146100825780635b4becd6146100b257806398149ced146100e2578063ac6131b6146100fe578063c37f21321461012e575b5f5ffd5b61006c610138565b60405161007991906103f5565b60405180910390f35b61009c60048036038101906100979190610449565b610143565b6040516100a991906104e4565b60405180910390f35b6100cc60048036038101906100c79190610449565b6101f6565b6040516100d991906104e4565b60405180910390f35b6100fc60048036038101906100f7919061055e565b6102a9565b005b61011860048036038101906101139190610449565b61030b565b60405161012591906105e4565b60405180910390f35b610136610345565b005b5f5f80549050905090565b60605f8281548110610158576101576105fd565b5b905f5260205f20015f9054906101000a900473ffffffffffffffffffffffffffffffffffffffff1673ffffffffffffffffffffffffffffffffffffffff1663f12ac8ad6040518163ffffffff1660e01b81526004015f60405180830381865afa1580156101c7573d5f5f3e3d5ffd5b505050506040513d5f823e3d601f19601f820116820180604052508101906101ef9190610748565b9050919050565b60605f828154811061020b5761020a6105fd565b5b905f5260205f20015f9054906101000a900473ffffffffffffffffffffffffffffffffffffffff1673ffffffffffffffffffffffffffffffffffffffff16635f8c9a0a6040518163ffffffff1660e01b81526004015f60405180830381865afa15801561027a573d5f5f3e3d5ffd5b505050506040513d5f823e3d601f19601f820116820180604052508101906102a29190610748565b9050919050565b5f81908060018154018082558091505060019003905f5260205f20015f9091909190916101000a81548173ffffffffffffffffffffffffffffffffffffffff021916908373ffffffffffffffffffffffffffffffffffffffff16021790555050565b5f8181548110610319575f80fd5b905f5260205f20015f915054906101000a900473ffffffffffffffffffffffffffffffffffffffff1681565b5f604051610352906103d0565b604051809103905ff08015801561036b573d5f5f3e3d5ffd5b5090505f81908060018154018082558091505060019003905f5260205f20015f9091909190916101000a81548173ffffffffffffffffffffffffffffffffffffffff021916908373ffffffffffffffffffffffffffffffffffffffff16021790555050565b6107818061079083390190565b5f819050919050565b6103ef816103dd565b82525050565b5f6020820190506104085f8301846103e6565b92915050565b5f604051905090565b5f5ffd5b5f5ffd5b610428816103dd565b8114610432575f5ffd5b50565b5f813590506104438161041f565b92915050565b5f6020828403121561045e5761045d610417565b5b5f61046b84828501610435565b91505092915050565b5f81519050919050565b5f82825260208201905092915050565b8281835e5f83830152505050565b5f601f19601f8301169050919050565b5f6104b682610474565b6104c0818561047e565b93506104d081856020860161048e565b6104d98161049c565b840191505092915050565b5f6020820190508181035f8301526104fc81846104ac565b905092915050565b5f73ffffffffffffffffffffffffffffffffffffffff82169050919050565b5f61052d82610504565b9050919050565b61053d81610523565b8114610547575f5ffd5b50565b5f8135905061055881610534565b92915050565b5f6020828403121561057357610572610417565b5b5f6105808482850161054a565b91505092915050565b5f819050919050565b5f6105ac6105a76105a284610504565b610589565b610504565b9050919050565b5f6105bd82610592565b9050919050565b5f6105ce826105b3565b9050919050565b6105de816105c4565b82525050565b5f6020820190506105f75f8301846105d5565b92915050565b7f4e487b71000000000000000000000000000000000000000000000000000000005f52603260045260245ffd5b5f5ffd5b5f5ffd5b7f4e487b71000000000000000000000000000000000000000000000000000000005f52604160045260245ffd5b6106688261049c565b810181811067ffffffffffffffff8211171561068757610686610632565b5b80604052505050565b5f61069961040e565b90506106a5828261065f565b919050565b5f67ffffffffffffffff8211156106c4576106c3610632565b5b6106cd8261049c565b9050602081019050919050565b5f6106ec6106e7846106aa565b610690565b9050828152602081018484840111156107085761070761062e565b5b61071384828561048e565b509392505050565b5f82601f83011261072f5761072e61062a565b5b815161073f8482602086016106da565b91505092915050565b5f6020828403121561075d5761075c610417565b5b5f82015167ffffffffffffffff81111561077a5761077961041b565b5b6107868482850161071b565b9150509291505056fe608060405234801561000f575f5ffd5b506040518060400160405280600481526020017f4761746f00000000000000000000000000000000000000000000000000000000815250805f908161005491906102a9565b5050610378565b5f81519050919050565b7f4e487b71000000000000000000000000000000000000000000000000000000005f52604160045260245ffd5b7f4e487b71000000000000000000000000000000000000000000000000000000005f52602260045260245ffd5b5f60028204905060018216806100d657607f821691505b6020821081036100e9576100e8610092565b5b50919050565b5f819050815f5260205f209050919050565b5f6020601f8301049050919050565b5f82821b905092915050565b5f6008830261014b7fffffffffffffffffffffffffffffffffffffffffffffffffffffffffffffffff82610110565b6101558683610110565b95508019841693508086168417925050509392505050565b5f819050919050565b5f819050919050565b5f61019961019461018f8461016d565b610176565b61016d565b9050919050565b5f819050919050565b6101b28361017f565b6101c66101be826101a0565b84845461011c565b825550505050565b5f5f905090565b6101dd6101ce565b6101e88184846101a9565b505050565b5f5b8281101561020e576102035f8284016101d5565b6001810190506101ef565b505050565b601f82111561026157828211156102605761022d816100ef565b61023683610101565b61023f85610101565b602086101561024c575f90505b80830161025b828403826101ed565b505050505b5b505050565b5f82821c905092915050565b5f6102815f1984600802610266565b1980831691505092915050565b5f6102998383610272565b9150826002028217905092915050565b6102b28261005b565b67ffffffffffffffff8111156102cb576102ca610065565b5b6102d582546100bf565b6102e0828285610213565b5f60209050601f831160018114610311575f84156102ff578287015190505b610309858261028e565b865550610370565b601f19841661031f866100ef565b5f5b8281101561034657848901518255600182019150602085019450602081019050610321565b86831015610363578489015161035f601f891682610272565b8355505b6001600288020188555050505b505050505050565b6103fc806103855f395ff3fe608060405234801561000f575f5ffd5b506004361061004a575f3560e01c80632d26bb8b1461004e5780635f8c9a0a1461006c578063e74910111461008a578063f12ac8ad146100a8575b5f5ffd5b6100566100c6565b6040516100639190610262565b60405180910390f35b610074610103565b6040516100819190610262565b60405180910390f35b610092610140565b60405161009f9190610262565b60405180910390f35b6100b06101cb565b6040516100bd9190610262565b60405180910390f35b60606040518060400160405280600581526020017f7272727272000000000000000000000000000000000000000000000000000000815250905090565b60606040518060400160405280600481526020017f6d69617500000000000000000000000000000000000000000000000000000000815250905090565b5f805461014c906102af565b80601f0160208091040260200160405190810160405280929190818152602001828054610178906102af565b80156101c35780601f1061019a576101008083540402835291602001916101c3565b820191905f5260205f20905b8154815290600101906020018083116101a657829003601f168201915b505050505081565b60605f6040516020016101de91906103a1565b604051602081830303815290604052905090565b5f81519050919050565b5f82825260208201905092915050565b8281835e5f83830152505050565b5f601f19601f8301169050919050565b5f610234826101f2565b61023e81856101fc565b935061024e81856020860161020c565b6102578161021a565b840191505092915050565b5f6020820190508181035f83015261027a818461022a565b905092915050565b7f4e487b71000000000000000000000000000000000000000000000000000000005f52602260045260245ffd5b5f60028204905060018216806102c657607f821691505b6020821081036102d9576102d8610282565b5b50919050565b7f536f7920756e2000000000000000000000000000000000000000000000000000815250565b5f81905092915050565b5f819050815f5260205f209050919050565b5f815461032d816102af565b6103378186610305565b9450600182165f8114610351576001811461036657610398565b60ff1983168652811515820286019350610398565b61036f8561030f565b5f5b8381101561039057815481890152600182019150602081019050610371565b838801955050505b50505092915050565b5f6103ab826102df565b6007820191506103bb8284610321565b91508190509291505056fea264697066735822122018754f49c2871d2481a7934e40b2a9896a877571d5845ed671687627b26aef4164736f6c63430008220033a2646970667358221220ab7d0fd47f36908476d47d817d113298a336c9c13a1038f9d7ccabb2c4bf0fa964736f6c63430008220033",
					"opcodes": "PUSH1 0x80 PUSH1 0x40 MSTORE CALLVALUE DUP1 ISZERO PUSH1 0xE JUMPI PUSH0 PUSH0 REVERT JUMPDEST POP PUSH2 0xF46 DUP1 PUSH2 0x1C PUSH0 CODECOPY PUSH0 RETURN INVALID PUSH1 0x80 PUSH1 0x40 MSTORE CALLVALUE DUP1 ISZERO PUSH2 0xF JUMPI PUSH0 PUSH0 REVERT JUMPDEST POP PUSH1 0x4 CALLDATASIZE LT PUSH2 0x60 JUMPI PUSH0 CALLDATALOAD PUSH1 0xE0 SHR DUP1 PUSH4 0x316906F3 EQ PUSH2 0x64 JUMPI DUP1 PUSH4 0x3AF5444C EQ PUSH2 0x82 JUMPI DUP1 PUSH4 0x5B4BECD6 EQ PUSH2 0xB2 JUMPI DUP1 PUSH4 0x98149CED EQ PUSH2 0xE2 JUMPI DUP1 PUSH4 0xAC6131B6 EQ PUSH2 0xFE JUMPI DUP1 PUSH4 0xC37F2132 EQ PUSH2 0x12E JUMPI JUMPDEST PUSH0 PUSH0 REVERT JUMPDEST PUSH2 0x6C PUSH2 0x138 JUMP JUMPDEST PUSH1 0x40 MLOAD PUSH2 0x79 SWAP2 SWAP1 PUSH2 0x3F5 JUMP JUMPDEST PUSH1 0x40 MLOAD DUP1 SWAP2 SUB SWAP1 RETURN JUMPDEST PUSH2 0x9C PUSH1 0x4 DUP1 CALLDATASIZE SUB DUP2 ADD SWAP1 PUSH2 0x97 SWAP2 SWAP1 PUSH2 0x449 JUMP JUMPDEST PUSH2 0x143 JUMP JUMPDEST PUSH1 0x40 MLOAD PUSH2 0xA9 SWAP2 SWAP1 PUSH2 0x4E4 JUMP JUMPDEST PUSH1 0x40 MLOAD DUP1 SWAP2 SUB SWAP1 RETURN JUMPDEST PUSH2 0xCC PUSH1 0x4 DUP1 CALLDATASIZE SUB DUP2 ADD SWAP1 PUSH2 0xC7 SWAP2 SWAP1 PUSH2 0x449 JUMP JUMPDEST PUSH2 0x1F6 JUMP JUMPDEST PUSH1 0x40 MLOAD PUSH2 0xD9 SWAP2 SWAP1 PUSH2 0x4E4 JUMP JUMPDEST PUSH1 0x40 MLOAD DUP1 SWAP2 SUB SWAP1 RETURN JUMPDEST PUSH2 0xFC PUSH1 0x4 DUP1 CALLDATASIZE SUB DUP2 ADD SWAP1 PUSH2 0xF7 SWAP2 SWAP1 PUSH2 0x55E JUMP JUMPDEST PUSH2 0x2A9 JUMP JUMPDEST STOP JUMPDEST PUSH2 0x118 PUSH1 0x4 DUP1 CALLDATASIZE SUB DUP2 ADD SWAP1 PUSH2 0x113 SWAP2 SWAP1 PUSH2 0x449 JUMP JUMPDEST PUSH2 0x30B JUMP JUMPDEST PUSH1 0x40 MLOAD PUSH2 0x125 SWAP2 SWAP1 PUSH2 0x5E4 JUMP JUMPDEST PUSH1 0x40 MLOAD DUP1 SWAP2 SUB SWAP1 RETURN JUMPDEST PUSH2 0x136 PUSH2 0x345 JUMP JUMPDEST STOP JUMPDEST PUSH0 PUSH0 DUP1 SLOAD SWAP1 POP SWAP1 POP SWAP1 JUMP JUMPDEST PUSH1 0x60 PUSH0 DUP3 DUP2 SLOAD DUP2 LT PUSH2 0x158 JUMPI PUSH2 0x157 PUSH2 0x5FD JUMP JUMPDEST JUMPDEST SWAP1 PUSH0 MSTORE PUSH1 0x20 PUSH0 KECCAK256 ADD PUSH0 SWAP1 SLOAD SWAP1 PUSH2 0x100 EXP SWAP1 DIV PUSH20 0xFFFFFFFFFFFFFFFFFFFFFFFFFFFFFFFFFFFFFFFF AND PUSH20 0xFFFFFFFFFFFFFFFFFFFFFFFFFFFFFFFFFFFFFFFF AND PUSH4 0xF12AC8AD PUSH1 0x40 MLOAD DUP2 PUSH4 0xFFFFFFFF AND PUSH1 0xE0 SHL DUP2 MSTORE PUSH1 0x4 ADD PUSH0 PUSH1 0x40 MLOAD DUP1 DUP4 SUB DUP2 DUP7 GAS STATICCALL ISZERO DUP1 ISZERO PUSH2 0x1C7 JUMPI RETURNDATASIZE PUSH0 PUSH0 RETURNDATACOPY RETURNDATASIZE PUSH0 REVERT JUMPDEST POP POP POP POP PUSH1 0x40 MLOAD RETURNDATASIZE PUSH0 DUP3 RETURNDATACOPY RETURNDATASIZE PUSH1 0x1F NOT PUSH1 0x1F DUP3 ADD AND DUP3 ADD DUP1 PUSH1 0x40 MSTORE POP DUP2 ADD SWAP1 PUSH2 0x1EF SWAP2 SWAP1 PUSH2 0x748 JUMP JUMPDEST SWAP1 POP SWAP2 SWAP1 POP JUMP JUMPDEST PUSH1 0x60 PUSH0 DUP3 DUP2 SLOAD DUP2 LT PUSH2 0x20B JUMPI PUSH2 0x20A PUSH2 0x5FD JUMP JUMPDEST JUMPDEST SWAP1 PUSH0 MSTORE PUSH1 0x20 PUSH0 KECCAK256 ADD PUSH0 SWAP1 SLOAD SWAP1 PUSH2 0x100 EXP SWAP1 DIV PUSH20 0xFFFFFFFFFFFFFFFFFFFFFFFFFFFFFFFFFFFFFFFF AND PUSH20 0xFFFFFFFFFFFFFFFFFFFFFFFFFFFFFFFFFFFFFFFF AND PUSH4 0x5F8C9A0A PUSH1 0x40 MLOAD DUP2 PUSH4 0xFFFFFFFF AND PUSH1 0xE0 SHL DUP2 MSTORE PUSH1 0x4 ADD PUSH0 PUSH1 0x40 MLOAD DUP1 DUP4 SUB DUP2 DUP7 GAS STATICCALL ISZERO DUP1 ISZERO PUSH2 0x27A JUMPI RETURNDATASIZE PUSH0 PUSH0 RETURNDATACOPY RETURNDATASIZE PUSH0 REVERT JUMPDEST POP POP POP POP PUSH1 0x40 MLOAD RETURNDATASIZE PUSH0 DUP3 RETURNDATACOPY RETURNDATASIZE PUSH1 0x1F NOT PUSH1 0x1F DUP3 ADD AND DUP3 ADD DUP1 PUSH1 0x40 MSTORE POP DUP2 ADD SWAP1 PUSH2 0x2A2 SWAP2 SWAP1 PUSH2 0x748 JUMP JUMPDEST SWAP1 POP SWAP2 SWAP1 POP JUMP JUMPDEST PUSH0 DUP2 SWAP1 DUP1 PUSH1 0x1 DUP2 SLOAD ADD DUP1 DUP3 SSTORE DUP1 SWAP2 POP POP PUSH1 0x1 SWAP1 SUB SWAP1 PUSH0 MSTORE PUSH1 0x20 PUSH0 KECCAK256 ADD PUSH0 SWAP1 SWAP2 SWAP1 SWAP2 SWAP1 SWAP2 PUSH2 0x100 EXP DUP2 SLOAD DUP2 PUSH20 0xFFFFFFFFFFFFFFFFFFFFFFFFFFFFFFFFFFFFFFFF MUL NOT AND SWAP1 DUP4 PUSH20 0xFFFFFFFFFFFFFFFFFFFFFFFFFFFFFFFFFFFFFFFF AND MUL OR SWAP1 SSTORE POP POP JUMP JUMPDEST PUSH0 DUP2 DUP2 SLOAD DUP2 LT PUSH2 0x319 JUMPI PUSH0 DUP1 REVERT JUMPDEST SWAP1 PUSH0 MSTORE PUSH1 0x20 PUSH0 KECCAK256 ADD PUSH0 SWAP2 POP SLOAD SWAP1 PUSH2 0x100 EXP SWAP1 DIV PUSH20 0xFFFFFFFFFFFFFFFFFFFFFFFFFFFFFFFFFFFFFFFF AND DUP2 JUMP JUMPDEST PUSH0 PUSH1 0x40 MLOAD PUSH2 0x352 SWAP1 PUSH2 0x3D0 JUMP JUMPDEST PUSH1 0x40 MLOAD DUP1 SWAP2 SUB SWAP1 PUSH0 CREATE DUP1 ISZERO DUP1 ISZERO PUSH2 0x36B JUMPI RETURNDATASIZE PUSH0 PUSH0 RETURNDATACOPY RETURNDATASIZE PUSH0 REVERT JUMPDEST POP SWAP1 POP PUSH0 DUP2 SWAP1 DUP1 PUSH1 0x1 DUP2 SLOAD ADD DUP1 DUP3 SSTORE DUP1 SWAP2 POP POP PUSH1 0x1 SWAP1 SUB SWAP1 PUSH0 MSTORE PUSH1 0x20 PUSH0 KECCAK256 ADD PUSH0 SWAP1 SWAP2 SWAP1 SWAP2 SWAP1 SWAP2 PUSH2 0x100 EXP DUP2 SLOAD DUP2 PUSH20 0xFFFFFFFFFFFFFFFFFFFFFFFFFFFFFFFFFFFFFFFF MUL NOT AND SWAP1 DUP4 PUSH20 0xFFFFFFFFFFFFFFFFFFFFFFFFFFFFFFFFFFFFFFFF AND MUL OR SWAP1 SSTORE POP POP JUMP JUMPDEST PUSH2 0x781 DUP1 PUSH2 0x790 DUP4 CODECOPY ADD SWAP1 JUMP JUMPDEST PUSH0 DUP2 SWAP1 POP SWAP2 SWAP1 POP JUMP JUMPDEST PUSH2 0x3EF DUP2 PUSH2 0x3DD JUMP JUMPDEST DUP3 MSTORE POP POP JUMP JUMPDEST PUSH0 PUSH1 0x20 DUP3 ADD SWAP1 POP PUSH2 0x408 PUSH0 DUP4 ADD DUP5 PUSH2 0x3E6 JUMP JUMPDEST SWAP3 SWAP2 POP POP JUMP JUMPDEST PUSH0 PUSH1 0x40 MLOAD SWAP1 POP SWAP1 JUMP JUMPDEST PUSH0 PUSH0 REVERT JUMPDEST PUSH0 PUSH0 REVERT JUMPDEST PUSH2 0x428 DUP2 PUSH2 0x3DD JUMP JUMPDEST DUP2 EQ PUSH2 0x432 JUMPI PUSH0 PUSH0 REVERT JUMPDEST POP JUMP JUMPDEST PUSH0 DUP2 CALLDATALOAD SWAP1 POP PUSH2 0x443 DUP2 PUSH2 0x41F JUMP JUMPDEST SWAP3 SWAP2 POP POP JUMP JUMPDEST PUSH0 PUSH1 0x20 DUP3 DUP5 SUB SLT ISZERO PUSH2 0x45E JUMPI PUSH2 0x45D PUSH2 0x417 JUMP JUMPDEST JUMPDEST PUSH0 PUSH2 0x46B DUP5 DUP3 DUP6 ADD PUSH2 0x435 JUMP JUMPDEST SWAP2 POP POP SWAP3 SWAP2 POP POP JUMP JUMPDEST PUSH0 DUP2 MLOAD SWAP1 POP SWAP2 SWAP1 POP JUMP JUMPDEST PUSH0 DUP3 DUP3 MSTORE PUSH1 0x20 DUP3 ADD SWAP1 POP SWAP3 SWAP2 POP POP JUMP JUMPDEST DUP3 DUP2 DUP4 MCOPY PUSH0 DUP4 DUP4 ADD MSTORE POP POP POP JUMP JUMPDEST PUSH0 PUSH1 0x1F NOT PUSH1 0x1F DUP4 ADD AND SWAP1 POP SWAP2 SWAP1 POP JUMP JUMPDEST PUSH0 PUSH2 0x4B6 DUP3 PUSH2 0x474 JUMP JUMPDEST PUSH2 0x4C0 DUP2 DUP6 PUSH2 0x47E JUMP JUMPDEST SWAP4 POP PUSH2 0x4D0 DUP2 DUP6 PUSH1 0x20 DUP7 ADD PUSH2 0x48E JUMP JUMPDEST PUSH2 0x4D9 DUP2 PUSH2 0x49C JUMP JUMPDEST DUP5 ADD SWAP2 POP POP SWAP3 SWAP2 POP POP JUMP JUMPDEST PUSH0 PUSH1 0x20 DUP3 ADD SWAP1 POP DUP2 DUP2 SUB PUSH0 DUP4 ADD MSTORE PUSH2 0x4FC DUP2 DUP5 PUSH2 0x4AC JUMP JUMPDEST SWAP1 POP SWAP3 SWAP2 POP POP JUMP JUMPDEST PUSH0 PUSH20 0xFFFFFFFFFFFFFFFFFFFFFFFFFFFFFFFFFFFFFFFF DUP3 AND SWAP1 POP SWAP2 SWAP1 POP JUMP JUMPDEST PUSH0 PUSH2 0x52D DUP3 PUSH2 0x504 JUMP JUMPDEST SWAP1 POP SWAP2 SWAP1 POP JUMP JUMPDEST PUSH2 0x53D DUP2 PUSH2 0x523 JUMP JUMPDEST DUP2 EQ PUSH2 0x547 JUMPI PUSH0 PUSH0 REVERT JUMPDEST POP JUMP JUMPDEST PUSH0 DUP2 CALLDATALOAD SWAP1 POP PUSH2 0x558 DUP2 PUSH2 0x534 JUMP JUMPDEST SWAP3 SWAP2 POP POP JUMP JUMPDEST PUSH0 PUSH1 0x20 DUP3 DUP5 SUB SLT ISZERO PUSH2 0x573 JUMPI PUSH2 0x572 PUSH2 0x417 JUMP JUMPDEST JUMPDEST PUSH0 PUSH2 0x580 DUP5 DUP3 DUP6 ADD PUSH2 0x54A JUMP JUMPDEST SWAP2 POP POP SWAP3 SWAP2 POP POP JUMP JUMPDEST PUSH0 DUP2 SWAP1 POP SWAP2 SWAP1 POP JUMP JUMPDEST PUSH0 PUSH2 0x5AC PUSH2 0x5A7 PUSH2 0x5A2 DUP5 PUSH2 0x504 JUMP JUMPDEST PUSH2 0x589 JUMP JUMPDEST PUSH2 0x504 JUMP JUMPDEST SWAP1 POP SWAP2 SWAP1 POP JUMP JUMPDEST PUSH0 PUSH2 0x5BD DUP3 PUSH2 0x592 JUMP JUMPDEST SWAP1 POP SWAP2 SWAP1 POP JUMP JUMPDEST PUSH0 PUSH2 0x5CE DUP3 PUSH2 0x5B3 JUMP JUMPDEST SWAP1 POP SWAP2 SWAP1 POP JUMP JUMPDEST PUSH2 0x5DE DUP2 PUSH2 0x5C4 JUMP JUMPDEST DUP3 MSTORE POP POP JUMP JUMPDEST PUSH0 PUSH1 0x20 DUP3 ADD SWAP1 POP PUSH2 0x5F7 PUSH0 DUP4 ADD DUP5 PUSH2 0x5D5 JUMP JUMPDEST SWAP3 SWAP2 POP POP JUMP JUMPDEST PUSH32 0x4E487B7100000000000000000000000000000000000000000000000000000000 PUSH0 MSTORE PUSH1 0x32 PUSH1 0x4 MSTORE PUSH1 0x24 PUSH0 REVERT JUMPDEST PUSH0 PUSH0 REVERT JUMPDEST PUSH0 PUSH0 REVERT JUMPDEST PUSH32 0x4E487B7100000000000000000000000000000000000000000000000000000000 PUSH0 MSTORE PUSH1 0x41 PUSH1 0x4 MSTORE PUSH1 0x24 PUSH0 REVERT JUMPDEST PUSH2 0x668 DUP3 PUSH2 0x49C JUMP JUMPDEST DUP2 ADD DUP2 DUP2 LT PUSH8 0xFFFFFFFFFFFFFFFF DUP3 GT OR ISZERO PUSH2 0x687 JUMPI PUSH2 0x686 PUSH2 0x632 JUMP JUMPDEST JUMPDEST DUP1 PUSH1 0x40 MSTORE POP POP POP JUMP JUMPDEST PUSH0 PUSH2 0x699 PUSH2 0x40E JUMP JUMPDEST SWAP1 POP PUSH2 0x6A5 DUP3 DUP3 PUSH2 0x65F JUMP JUMPDEST SWAP2 SWAP1 POP JUMP JUMPDEST PUSH0 PUSH8 0xFFFFFFFFFFFFFFFF DUP3 GT ISZERO PUSH2 0x6C4 JUMPI PUSH2 0x6C3 PUSH2 0x632 JUMP JUMPDEST JUMPDEST PUSH2 0x6CD DUP3 PUSH2 0x49C JUMP JUMPDEST SWAP1 POP PUSH1 0x20 DUP2 ADD SWAP1 POP SWAP2 SWAP1 POP JUMP JUMPDEST PUSH0 PUSH2 0x6EC PUSH2 0x6E7 DUP5 PUSH2 0x6AA JUMP JUMPDEST PUSH2 0x690 JUMP JUMPDEST SWAP1 POP DUP3 DUP2 MSTORE PUSH1 0x20 DUP2 ADD DUP5 DUP5 DUP5 ADD GT ISZERO PUSH2 0x708 JUMPI PUSH2 0x707 PUSH2 0x62E JUMP JUMPDEST JUMPDEST PUSH2 0x713 DUP5 DUP3 DUP6 PUSH2 0x48E JUMP JUMPDEST POP SWAP4 SWAP3 POP POP POP JUMP JUMPDEST PUSH0 DUP3 PUSH1 0x1F DUP4 ADD SLT PUSH2 0x72F JUMPI PUSH2 0x72E PUSH2 0x62A JUMP JUMPDEST JUMPDEST DUP2 MLOAD PUSH2 0x73F DUP5 DUP3 PUSH1 0x20 DUP7 ADD PUSH2 0x6DA JUMP JUMPDEST SWAP2 POP POP SWAP3 SWAP2 POP POP JUMP JUMPDEST PUSH0 PUSH1 0x20 DUP3 DUP5 SUB SLT ISZERO PUSH2 0x75D JUMPI PUSH2 0x75C PUSH2 0x417 JUMP JUMPDEST JUMPDEST PUSH0 DUP3 ADD MLOAD PUSH8 0xFFFFFFFFFFFFFFFF DUP2 GT ISZERO PUSH2 0x77A JUMPI PUSH2 0x779 PUSH2 0x41B JUMP JUMPDEST JUMPDEST PUSH2 0x786 DUP5 DUP3 DUP6 ADD PUSH2 0x71B JUMP JUMPDEST SWAP2 POP POP SWAP3 SWAP2 POP POP JUMP INVALID PUSH1 0x80 PUSH1 0x40 MSTORE CALLVALUE DUP1 ISZERO PUSH2 0xF JUMPI PUSH0 PUSH0 REVERT JUMPDEST POP PUSH1 0x40 MLOAD DUP1 PUSH1 0x40 ADD PUSH1 0x40 MSTORE DUP1 PUSH1 0x4 DUP2 MSTORE PUSH1 0x20 ADD PUSH32 0x4761746F00000000000000000000000000000000000000000000000000000000 DUP2 MSTORE POP DUP1 PUSH0 SWAP1 DUP2 PUSH2 0x54 SWAP2 SWAP1 PUSH2 0x2A9 JUMP JUMPDEST POP POP PUSH2 0x378 JUMP JUMPDEST PUSH0 DUP2 MLOAD SWAP1 POP SWAP2 SWAP1 POP JUMP JUMPDEST PUSH32 0x4E487B7100000000000000000000000000000000000000000000000000000000 PUSH0 MSTORE PUSH1 0x41 PUSH1 0x4 MSTORE PUSH1 0x24 PUSH0 REVERT JUMPDEST PUSH32 0x4E487B7100000000000000000000000000000000000000000000000000000000 PUSH0 MSTORE PUSH1 0x22 PUSH1 0x4 MSTORE PUSH1 0x24 PUSH0 REVERT JUMPDEST PUSH0 PUSH1 0x2 DUP3 DIV SWAP1 POP PUSH1 0x1 DUP3 AND DUP1 PUSH2 0xD6 JUMPI PUSH1 0x7F DUP3 AND SWAP2 POP JUMPDEST PUSH1 0x20 DUP3 LT DUP2 SUB PUSH2 0xE9 JUMPI PUSH2 0xE8 PUSH2 0x92 JUMP JUMPDEST JUMPDEST POP SWAP2 SWAP1 POP JUMP JUMPDEST PUSH0 DUP2 SWAP1 POP DUP2 PUSH0 MSTORE PUSH1 0x20 PUSH0 KECCAK256 SWAP1 POP SWAP2 SWAP1 POP JUMP JUMPDEST PUSH0 PUSH1 0x20 PUSH1 0x1F DUP4 ADD DIV SWAP1 POP SWAP2 SWAP1 POP JUMP JUMPDEST PUSH0 DUP3 DUP3 SHL SWAP1 POP SWAP3 SWAP2 POP POP JUMP JUMPDEST PUSH0 PUSH1 0x8 DUP4 MUL PUSH2 0x14B PUSH32 0xFFFFFFFFFFFFFFFFFFFFFFFFFFFFFFFFFFFFFFFFFFFFFFFFFFFFFFFFFFFFFFFF DUP3 PUSH2 0x110 JUMP JUMPDEST PUSH2 0x155 DUP7 DUP4 PUSH2 0x110 JUMP JUMPDEST SWAP6 POP DUP1 NOT DUP5 AND SWAP4 POP DUP1 DUP7 AND DUP5 OR SWAP3 POP POP POP SWAP4 SWAP3 POP POP POP JUMP JUMPDEST PUSH0 DUP2 SWAP1 POP SWAP2 SWAP1 POP JUMP JUMPDEST PUSH0 DUP2 SWAP1 POP SWAP2 SWAP1 POP JUMP JUMPDEST PUSH0 PUSH2 0x199 PUSH2 0x194 PUSH2 0x18F DUP5 PUSH2 0x16D JUMP JUMPDEST PUSH2 0x176 JUMP JUMPDEST PUSH2 0x16D JUMP JUMPDEST SWAP1 POP SWAP2 SWAP1 POP JUMP JUMPDEST PUSH0 DUP2 SWAP1 POP SWAP2 SWAP1 POP JUMP JUMPDEST PUSH2 0x1B2 DUP4 PUSH2 0x17F JUMP JUMPDEST PUSH2 0x1C6 PUSH2 0x1BE DUP3 PUSH2 0x1A0 JUMP JUMPDEST DUP5 DUP5 SLOAD PUSH2 0x11C JUMP JUMPDEST DUP3 SSTORE POP POP POP POP JUMP JUMPDEST PUSH0 PUSH0 SWAP1 POP SWAP1 JUMP JUMPDEST PUSH2 0x1DD PUSH2 0x1CE JUMP JUMPDEST PUSH2 0x1E8 DUP2 DUP5 DUP5 PUSH2 0x1A9 JUMP JUMPDEST POP POP POP JUMP JUMPDEST PUSH0 JUMPDEST DUP3 DUP2 LT ISZERO PUSH2 0x20E JUMPI PUSH2 0x203 PUSH0 DUP3 DUP5 ADD PUSH2 0x1D5 JUMP JUMPDEST PUSH1 0x1 DUP2 ADD SWAP1 POP PUSH2 0x1EF JUMP JUMPDEST POP POP POP JUMP JUMPDEST PUSH1 0x1F DUP3 GT ISZERO PUSH2 0x261 JUMPI DUP3 DUP3 GT ISZERO PUSH2 0x260 JUMPI PUSH2 0x22D DUP2 PUSH2 0xEF JUMP JUMPDEST PUSH2 0x236 DUP4 PUSH2 0x101 JUMP JUMPDEST PUSH2 0x23F DUP6 PUSH2 0x101 JUMP JUMPDEST PUSH1 0x20 DUP7 LT ISZERO PUSH2 0x24C JUMPI PUSH0 SWAP1 POP JUMPDEST DUP1 DUP4 ADD PUSH2 0x25B DUP3 DUP5 SUB DUP3 PUSH2 0x1ED JUMP JUMPDEST POP POP POP POP JUMPDEST JUMPDEST POP POP POP JUMP JUMPDEST PUSH0 DUP3 DUP3 SHR SWAP1 POP SWAP3 SWAP2 POP POP JUMP JUMPDEST PUSH0 PUSH2 0x281 PUSH0 NOT DUP5 PUSH1 0x8 MUL PUSH2 0x266 JUMP JUMPDEST NOT DUP1 DUP4 AND SWAP2 POP POP SWAP3 SWAP2 POP POP JUMP JUMPDEST PUSH0 PUSH2 0x299 DUP4 DUP4 PUSH2 0x272 JUMP JUMPDEST SWAP2 POP DUP3 PUSH1 0x2 MUL DUP3 OR SWAP1 POP SWAP3 SWAP2 POP POP JUMP JUMPDEST PUSH2 0x2B2 DUP3 PUSH2 0x5B JUMP JUMPDEST PUSH8 0xFFFFFFFFFFFFFFFF DUP2 GT ISZERO PUSH2 0x2CB JUMPI PUSH2 0x2CA PUSH2 0x65 JUMP JUMPDEST JUMPDEST PUSH2 0x2D5 DUP3 SLOAD PUSH2 0xBF JUMP JUMPDEST PUSH2 0x2E0 DUP3 DUP3 DUP6 PUSH2 0x213 JUMP JUMPDEST PUSH0 PUSH1 0x20 SWAP1 POP PUSH1 0x1F DUP4 GT PUSH1 0x1 DUP2 EQ PUSH2 0x311 JUMPI PUSH0 DUP5 ISZERO PUSH2 0x2FF JUMPI DUP3 DUP8 ADD MLOAD SWAP1 POP JUMPDEST PUSH2 0x309 DUP6 DUP3 PUSH2 0x28E JUMP JUMPDEST DUP7 SSTORE POP PUSH2 0x370 JUMP JUMPDEST PUSH1 0x1F NOT DUP5 AND PUSH2 0x31F DUP7 PUSH2 0xEF JUMP JUMPDEST PUSH0 JUMPDEST DUP3 DUP2 LT ISZERO PUSH2 0x346 JUMPI DUP5 DUP10 ADD MLOAD DUP3 SSTORE PUSH1 0x1 DUP3 ADD SWAP2 POP PUSH1 0x20 DUP6 ADD SWAP5 POP PUSH1 0x20 DUP2 ADD SWAP1 POP PUSH2 0x321 JUMP JUMPDEST DUP7 DUP4 LT ISZERO PUSH2 0x363 JUMPI DUP5 DUP10 ADD MLOAD PUSH2 0x35F PUSH1 0x1F DUP10 AND DUP3 PUSH2 0x272 JUMP JUMPDEST DUP4 SSTORE POP JUMPDEST PUSH1 0x1 PUSH1 0x2 DUP9 MUL ADD DUP9 SSTORE POP POP POP JUMPDEST POP POP POP POP POP POP JUMP JUMPDEST PUSH2 0x3FC DUP1 PUSH2 0x385 PUSH0 CODECOPY PUSH0 RETURN INVALID PUSH1 0x80 PUSH1 0x40 MSTORE CALLVALUE DUP1 ISZERO PUSH2 0xF JUMPI PUSH0 PUSH0 REVERT JUMPDEST POP PUSH1 0x4 CALLDATASIZE LT PUSH2 0x4A JUMPI PUSH0 CALLDATALOAD PUSH1 0xE0 SHR DUP1 PUSH4 0x2D26BB8B EQ PUSH2 0x4E JUMPI DUP1 PUSH4 0x5F8C9A0A EQ PUSH2 0x6C JUMPI DUP1 PUSH4 0xE7491011 EQ PUSH2 0x8A JUMPI DUP1 PUSH4 0xF12AC8AD EQ PUSH2 0xA8 JUMPI JUMPDEST PUSH0 PUSH0 REVERT JUMPDEST PUSH2 0x56 PUSH2 0xC6 JUMP JUMPDEST PUSH1 0x40 MLOAD PUSH2 0x63 SWAP2 SWAP1 PUSH2 0x262 JUMP JUMPDEST PUSH1 0x40 MLOAD DUP1 SWAP2 SUB SWAP1 RETURN JUMPDEST PUSH2 0x74 PUSH2 0x103 JUMP JUMPDEST PUSH1 0x40 MLOAD PUSH2 0x81 SWAP2 SWAP1 PUSH2 0x262 JUMP JUMPDEST PUSH1 0x40 MLOAD DUP1 SWAP2 SUB SWAP1 RETURN JUMPDEST PUSH2 0x92 PUSH2 0x140 JUMP JUMPDEST PUSH1 0x40 MLOAD PUSH2 0x9F SWAP2 SWAP1 PUSH2 0x262 JUMP JUMPDEST PUSH1 0x40 MLOAD DUP1 SWAP2 SUB SWAP1 RETURN JUMPDEST PUSH2 0xB0 PUSH2 0x1CB JUMP JUMPDEST PUSH1 0x40 MLOAD PUSH2 0xBD SWAP2 SWAP1 PUSH2 0x262 JUMP JUMPDEST PUSH1 0x40 MLOAD DUP1 SWAP2 SUB SWAP1 RETURN JUMPDEST PUSH1 0x60 PUSH1 0x40 MLOAD DUP1 PUSH1 0x40 ADD PUSH1 0x40 MSTORE DUP1 PUSH1 0x5 DUP2 MSTORE PUSH1 0x20 ADD PUSH32 0x7272727272000000000000000000000000000000000000000000000000000000 DUP2 MSTORE POP SWAP1 POP SWAP1 JUMP JUMPDEST PUSH1 0x60 PUSH1 0x40 MLOAD DUP1 PUSH1 0x40 ADD PUSH1 0x40 MSTORE DUP1 PUSH1 0x4 DUP2 MSTORE PUSH1 0x20 ADD PUSH32 0x6D69617500000000000000000000000000000000000000000000000000000000 DUP2 MSTORE POP SWAP1 POP SWAP1 JUMP JUMPDEST PUSH0 DUP1 SLOAD PUSH2 0x14C SWAP1 PUSH2 0x2AF JUMP JUMPDEST DUP1 PUSH1 0x1F ADD PUSH1 0x20 DUP1 SWAP2 DIV MUL PUSH1 0x20 ADD PUSH1 0x40 MLOAD SWAP1 DUP2 ADD PUSH1 0x40 MSTORE DUP1 SWAP3 SWAP2 SWAP1 DUP2 DUP2 MSTORE PUSH1 0x20 ADD DUP3 DUP1 SLOAD PUSH2 0x178 SWAP1 PUSH2 0x2AF JUMP JUMPDEST DUP1 ISZERO PUSH2 0x1C3 JUMPI DUP1 PUSH1 0x1F LT PUSH2 0x19A JUMPI PUSH2 0x100 DUP1 DUP4 SLOAD DIV MUL DUP4 MSTORE SWAP2 PUSH1 0x20 ADD SWAP2 PUSH2 0x1C3 JUMP JUMPDEST DUP3 ADD SWAP2 SWAP1 PUSH0 MSTORE PUSH1 0x20 PUSH0 KECCAK256 SWAP1 JUMPDEST DUP2 SLOAD DUP2 MSTORE SWAP1 PUSH1 0x1 ADD SWAP1 PUSH1 0x20 ADD DUP1 DUP4 GT PUSH2 0x1A6 JUMPI DUP3 SWAP1 SUB PUSH1 0x1F AND DUP3 ADD SWAP2 JUMPDEST POP POP POP POP POP DUP2 JUMP JUMPDEST PUSH1 0x60 PUSH0 PUSH1 0x40 MLOAD PUSH1 0x20 ADD PUSH2 0x1DE SWAP2 SWAP1 PUSH2 0x3A1 JUMP JUMPDEST PUSH1 0x40 MLOAD PUSH1 0x20 DUP2 DUP4 SUB SUB DUP2 MSTORE SWAP1 PUSH1 0x40 MSTORE SWAP1 POP SWAP1 JUMP JUMPDEST PUSH0 DUP2 MLOAD SWAP1 POP SWAP2 SWAP1 POP JUMP JUMPDEST PUSH0 DUP3 DUP3 MSTORE PUSH1 0x20 DUP3 ADD SWAP1 POP SWAP3 SWAP2 POP POP JUMP JUMPDEST DUP3 DUP2 DUP4 MCOPY PUSH0 DUP4 DUP4 ADD MSTORE POP POP POP JUMP JUMPDEST PUSH0 PUSH1 0x1F NOT PUSH1 0x1F DUP4 ADD AND SWAP1 POP SWAP2 SWAP1 POP JUMP JUMPDEST PUSH0 PUSH2 0x234 DUP3 PUSH2 0x1F2 JUMP JUMPDEST PUSH2 0x23E DUP2 DUP6 PUSH2 0x1FC JUMP JUMPDEST SWAP4 POP PUSH2 0x24E DUP2 DUP6 PUSH1 0x20 DUP7 ADD PUSH2 0x20C JUMP JUMPDEST PUSH2 0x257 DUP2 PUSH2 0x21A JUMP JUMPDEST DUP5 ADD SWAP2 POP POP SWAP3 SWAP2 POP POP JUMP JUMPDEST PUSH0 PUSH1 0x20 DUP3 ADD SWAP1 POP DUP2 DUP2 SUB PUSH0 DUP4 ADD MSTORE PUSH2 0x27A DUP2 DUP5 PUSH2 0x22A JUMP JUMPDEST SWAP1 POP SWAP3 SWAP2 POP POP JUMP JUMPDEST PUSH32 0x4E487B7100000000000000000000000000000000000000000000000000000000 PUSH0 MSTORE PUSH1 0x22 PUSH1 0x4 MSTORE PUSH1 0x24 PUSH0 REVERT JUMPDEST PUSH0 PUSH1 0x2 DUP3 DIV SWAP1 POP PUSH1 0x1 DUP3 AND DUP1 PUSH2 0x2C6 JUMPI PUSH1 0x7F DUP3 AND SWAP2 POP JUMPDEST PUSH1 0x20 DUP3 LT DUP2 SUB PUSH2 0x2D9 JUMPI PUSH2 0x2D8 PUSH2 0x282 JUMP JUMPDEST JUMPDEST POP SWAP2 SWAP1 POP JUMP JUMPDEST PUSH32 0x536F7920756E2000000000000000000000000000000000000000000000000000 DUP2 MSTORE POP JUMP JUMPDEST PUSH0 DUP2 SWAP1 POP SWAP3 SWAP2 POP POP JUMP JUMPDEST PUSH0 DUP2 SWAP1 POP DUP2 PUSH0 MSTORE PUSH1 0x20 PUSH0 KECCAK256 SWAP1 POP SWAP2 SWAP1 POP JUMP JUMPDEST PUSH0 DUP2 SLOAD PUSH2 0x32D DUP2 PUSH2 0x2AF JUMP JUMPDEST PUSH2 0x337 DUP2 DUP7 PUSH2 0x305 JUMP JUMPDEST SWAP5 POP PUSH1 0x1 DUP3 AND PUSH0 DUP2 EQ PUSH2 0x351 JUMPI PUSH1 0x1 DUP2 EQ PUSH2 0x366 JUMPI PUSH2 0x398 JUMP JUMPDEST PUSH1 0xFF NOT DUP4 AND DUP7 MSTORE DUP2 ISZERO ISZERO DUP3 MUL DUP7 ADD SWAP4 POP PUSH2 0x398 JUMP JUMPDEST PUSH2 0x36F DUP6 PUSH2 0x30F JUMP JUMPDEST PUSH0 JUMPDEST DUP4 DUP2 LT ISZERO PUSH2 0x390 JUMPI DUP2 SLOAD DUP2 DUP10 ADD MSTORE PUSH1 0x1 DUP3 ADD SWAP2 POP PUSH1 0x20 DUP2 ADD SWAP1 POP PUSH2 0x371 JUMP JUMPDEST DUP4 DUP9 ADD SWAP6 POP POP POP JUMPDEST POP POP POP SWAP3 SWAP2 POP POP JUMP JUMPDEST PUSH0 PUSH2 0x3AB DUP3 PUSH2 0x2DF JUMP JUMPDEST PUSH1 0x7 DUP3 ADD SWAP2 POP PUSH2 0x3BB DUP3 DUP5 PUSH2 0x321 JUMP JUMPDEST SWAP2 POP DUP2 SWAP1 POP SWAP3 SWAP2 POP POP JUMP INVALID LOG2 PUSH5 0x6970667358 0x22 SLT KECCAK256 XOR PUSH22 0x4F49C2871D2481A7934E40B2A9896A877571D5845ED6 PUSH18 0x687627B26AEF4164736F6C63430008220033 LOG2 PUSH5 0x6970667358 0x22 SLT KECCAK256 0xAB PUSH30 0xFD47F36908476D47D817D113298A336C9C13A1038F9D7CCABB2C4BF0FA9 PUSH5 0x736F6C6343 STOP ADDMOD 0x22 STOP CALLER "
				},
				"gasEstimates": {
					"creation": {
						"codeDepositCost": "782000",
						"executionCost": "816",
						"totalCost": "782816"
					},
					"external": {
						"agregarGato()": "infinite",
						"agregarPerro(address)": "49068",
						"animales(uint256)": "infinite",
						"getCantidadAnimales()": "2417",
						"infoAnimal(uint256)": "infinite",
						"sonidoAnimal(uint256)": "infinite"
					}
				},
				"methodIdentifiers": {
					"agregarGato()": "c37f2132",
					"agregarPerro(address)": "98149ced",
					"animales(uint256)": "ac6131b6",
					"getCantidadAnimales()": "316906f3",
					"infoAnimal(uint256)": "3af5444c",
					"sonidoAnimal(uint256)": "5b4becd6"
				}
			},
			"storageLayout": {
				"storage": [
					{
						"astId": 85,
						"contract": "contracts/16_Herencia.sol:PetStore",
						"label": "animales",
						"offset": 0,
						"slot": "0",
						"type": "t_array(t_contract(Animal)35)dyn_storage"
					}
				],
				"types": {
					"t_array(t_contract(Animal)35)dyn_storage": {
						"base": "t_contract(Animal)35",
						"encoding": "dynamic_array",
						"label": "contract Animal[]",
						"numberOfBytes": "32"
					},
					"t_contract(Animal)35": {
						"encoding": "inplace",
						"label": "contract Animal",
						"numberOfBytes": "20"
					}
				}
			},
			"userdoc": {
				"kind": "user",
				"methods": {},
				"version": 1
			}
		}
	}
}