{
	"contracts/16_Herencia.sol": {
		"Animal": {
			"abi": [
				{
					"inputs": [
						{
							"internalType": "string",
							"name": "_especie",
							"type": "string"
						}
					],
					"stateMutability": "nonpayable",
					"type": "constructor"
				},
				{
					"inputs": [],
					"name": "especie",
					"outputs": [
						{
							"internalType": "string",
							"name": "",
							"type": "string"
						}
					],
					"stateMutability": "view",
					"type": "function"
				},
				{
					"inputs": [],
					"name": "hacerSonido",
					"outputs": [
						{
							"internalType": "string",
							"name": "",
							"type": "string"
						}
					],
					"stateMutability": "pure",
					"type": "function"
				},
				{
					"inputs": [],
					"name": "obtenerInfo",
					"outputs": [
						{
							"internalType": "string",
							"name": "",
							"type": "string"
						}
					],
					"stateMutability": "view",
					"type": "function"
				}
			],
			"devdoc": {
				"kind": "dev",
				"methods": {},
				"version": 1
			},
			"evm": {
				"assembly": "    /* \"contracts/16_Herencia.sol\":72:434  contract Animal {... */\n  mstore(0x40, 0x80)\n    /* \"contracts/16_Herencia.sol\":125:199  constructor(string memory _especie) { ... */\n  callvalue\n  dup1\n  iszero\n  tag_1\n  jumpi\n  revert(0x00, 0x00)\ntag_1:\n  pop\n  mload(0x40)\n  sub(codesize, bytecodeSize)\n  dup1\n  bytecodeSize\n  dup4\n  codecopy\n  dup2\n  dup2\n  add\n  0x40\n  mstore\n  dup2\n  add\n  swap1\n  tag_2\n  swap2\n  swap1\n  tag_3\n  jump\t// in\ntag_2:\n    /* \"contracts/16_Herencia.sol\":183:191  _especie */\n  dup1\n    /* \"contracts/16_Herencia.sol\":173:180  especie */\n  0x00\n    /* \"contracts/16_Herencia.sol\":173:191  especie = _especie */\n  swap1\n  dup2\n  tag_6\n  swap2\n  swap1\n  tag_7\n  jump\t// in\ntag_6:\n  pop\n    /* \"contracts/16_Herencia.sol\":125:199  constructor(string memory _especie) { ... */\n  pop\n    /* \"contracts/16_Herencia.sol\":72:434  contract Animal {... */\n  jump(tag_8)\n    /* \"#utility.yul\":7:82   */\ntag_9:\n    /* \"#utility.yul\":40:46   */\n  0x00\n    /* \"#utility.yul\":73:75   */\n  0x40\n    /* \"#utility.yul\":67:76   */\n  mload\n    /* \"#utility.yul\":57:76   */\n  swap1\n  pop\n    /* \"#utility.yul\":7:82   */\n  swap1\n  jump\t// out\n    /* \"#utility.yul\":88:205   */\ntag_10:\n    /* \"#utility.yul\":197:198   */\n  0x00\n    /* \"#utility.yul\":194:195   */\n  0x00\n    /* \"#utility.yul\":187:199   */\n  revert\n    /* \"#utility.yul\":211:328   */\ntag_11:\n    /* \"#utility.yul\":320:321   */\n  0x00\n    /* \"#utility.yul\":317:318   */\n  0x00\n    /* \"#utility.yul\":310:322   */\n  revert\n    /* \"#utility.yul\":334:451   */\ntag_12:\n    /* \"#utility.yul\":443:444   */\n  0x00\n    /* \"#utility.yul\":440:441   */\n  0x00\n    /* \"#utility.yul\":433:445   */\n  revert\n    /* \"#utility.yul\":457:574   */\ntag_13:\n    /* \"#utility.yul\":566:567   */\n  0x00\n    /* \"#utility.yul\":563:564   */\n  0x00\n    /* \"#utility.yul\":556:568   */\n  revert\n    /* \"#utility.yul\":580:682   */\ntag_14:\n    /* \"#utility.yul\":621:627   */\n  0x00\n    /* \"#utility.yul\":672:674   */\n  0x1f\n    /* \"#utility.yul\":668:675   */\n  not\n    /* \"#utility.yul\":663:665   */\n  0x1f\n    /* \"#utility.yul\":656:661   */\n  dup4\n    /* \"#utility.yul\":652:666   */\n  add\n    /* \"#utility.yul\":648:676   */\n  and\n    /* \"#utility.yul\":638:676   */\n  swap1\n  pop\n    /* \"#utility.yul\":580:682   */\n  swap2\n  swap1\n  pop\n  jump\t// out\n    /* \"#utility.yul\":688:868   */\ntag_15:\n    /* \"#utility.yul\":736:813   */\n  0x4e487b7100000000000000000000000000000000000000000000000000000000\n    /* \"#utility.yul\":733:734   */\n  0x00\n    /* \"#utility.yul\":726:814   */\n  mstore\n    /* \"#utility.yul\":833:837   */\n  0x41\n    /* \"#utility.yul\":830:831   */\n  0x04\n    /* \"#utility.yul\":823:838   */\n  mstore\n    /* \"#utility.yul\":857:861   */\n  0x24\n    /* \"#utility.yul\":854:855   */\n  0x00\n    /* \"#utility.yul\":847:862   */\n  revert\n    /* \"#utility.yul\":874:1155   */\ntag_16:\n    /* \"#utility.yul\":957:984   */\n  tag_50\n    /* \"#utility.yul\":979:983   */\n  dup3\n    /* \"#utility.yul\":957:984   */\n  tag_14\n  jump\t// in\ntag_50:\n    /* \"#utility.yul\":949:955   */\n  dup2\n    /* \"#utility.yul\":945:985   */\n  add\n    /* \"#utility.yul\":1087:1093   */\n  dup2\n    /* \"#utility.yul\":1075:1085   */\n  dup2\n    /* \"#utility.yul\":1072:1094   */\n  lt\n    /* \"#utility.yul\":1051:1069   */\n  0xffffffffffffffff\n    /* \"#utility.yul\":1039:1049   */\n  dup3\n    /* \"#utility.yul\":1036:1070   */\n  gt\n    /* \"#utility.yul\":1033:1095   */\n  or\n    /* \"#utility.yul\":1030:1118   */\n  iszero\n  tag_51\n  jumpi\n    /* \"#utility.yul\":1098:1116   */\n  tag_52\n  tag_15\n  jump\t// in\ntag_52:\n    /* \"#utility.yul\":1030:1118   */\ntag_51:\n    /* \"#utility.yul\":1138:1148   */\n  dup1\n    /* \"#utility.yul\":1134:1136   */\n  0x40\n    /* \"#utility.yul\":1127:1149   */\n  mstore\n    /* \"#utility.yul\":917:1155   */\n  pop\n    /* \"#utility.yul\":874:1155   */\n  pop\n  pop\n  jump\t// out\n    /* \"#utility.yul\":1161:1290   */\ntag_17:\n    /* \"#utility.yul\":1195:1201   */\n  0x00\n    /* \"#utility.yul\":1222:1242   */\n  tag_54\n  tag_9\n  jump\t// in\ntag_54:\n    /* \"#utility.yul\":1212:1242   */\n  swap1\n  pop\n    /* \"#utility.yul\":1251:1284   */\n  tag_55\n    /* \"#utility.yul\":1279:1283   */\n  dup3\n    /* \"#utility.yul\":1271:1277   */\n  dup3\n    /* \"#utility.yul\":1251:1284   */\n  tag_16\n  jump\t// in\ntag_55:\n    /* \"#utility.yul\":1161:1290   */\n  swap2\n  swap1\n  pop\n  jump\t// out\n    /* \"#utility.yul\":1296:1604   */\ntag_18:\n    /* \"#utility.yul\":1358:1362   */\n  0x00\n    /* \"#utility.yul\":1448:1466   */\n  0xffffffffffffffff\n    /* \"#utility.yul\":1440:1446   */\n  dup3\n    /* \"#utility.yul\":1437:1467   */\n  gt\n    /* \"#utility.yul\":1434:1490   */\n  iszero\n  tag_57\n  jumpi\n    /* \"#utility.yul\":1470:1488   */\n  tag_58\n  tag_15\n  jump\t// in\ntag_58:\n    /* \"#utility.yul\":1434:1490   */\ntag_57:\n    /* \"#utility.yul\":1508:1537   */\n  tag_59\n    /* \"#utility.yul\":1530:1536   */\n  dup3\n    /* \"#utility.yul\":1508:1537   */\n  tag_14\n  jump\t// in\ntag_59:\n    /* \"#utility.yul\":1500:1537   */\n  swap1\n  pop\n    /* \"#utility.yul\":1592:1596   */\n  0x20\n    /* \"#utility.yul\":1586:1590   */\n  dup2\n    /* \"#utility.yul\":1582:1597   */\n  add\n    /* \"#utility.yul\":1574:1597   */\n  swap1\n  pop\n    /* \"#utility.yul\":1296:1604   */\n  swap2\n  swap1\n  pop\n  jump\t// out\n    /* \"#utility.yul\":1610:1749   */\ntag_19:\n    /* \"#utility.yul\":1699:1705   */\n  dup3\n    /* \"#utility.yul\":1694:1697   */\n  dup2\n    /* \"#utility.yul\":1689:1692   */\n  dup4\n    /* \"#utility.yul\":1683:1706   */\n  mcopy\n    /* \"#utility.yul\":1740:1741   */\n  0x00\n    /* \"#utility.yul\":1731:1737   */\n  dup4\n    /* \"#utility.yul\":1726:1729   */\n  dup4\n    /* \"#utility.yul\":1722:1738   */\n  add\n    /* \"#utility.yul\":1715:1742   */\n  mstore\n    /* \"#utility.yul\":1610:1749   */\n  pop\n  pop\n  pop\n  jump\t// out\n    /* \"#utility.yul\":1755:2189   */\ntag_20:\n    /* \"#utility.yul\":1844:1849   */\n  0x00\n    /* \"#utility.yul\":1869:1935   */\n  tag_62\n    /* \"#utility.yul\":1885:1934   */\n  tag_63\n    /* \"#utility.yul\":1927:1933   */\n  dup5\n    /* \"#utility.yul\":1885:1934   */\n  tag_18\n  jump\t// in\ntag_63:\n    /* \"#utility.yul\":1869:1935   */\n  tag_17\n  jump\t// in\ntag_62:\n    /* \"#utility.yul\":1860:1935   */\n  swap1\n  pop\n    /* \"#utility.yul\":1958:1964   */\n  dup3\n    /* \"#utility.yul\":1951:1956   */\n  dup2\n    /* \"#utility.yul\":1944:1965   */\n  mstore\n    /* \"#utility.yul\":1996:2000   */\n  0x20\n    /* \"#utility.yul\":1989:1994   */\n  dup2\n    /* \"#utility.yul\":1985:2001   */\n  add\n    /* \"#utility.yul\":2034:2037   */\n  dup5\n    /* \"#utility.yul\":2025:2031   */\n  dup5\n    /* \"#utility.yul\":2020:2023   */\n  dup5\n    /* \"#utility.yul\":2016:2032   */\n  add\n    /* \"#utility.yul\":2013:2038   */\n  gt\n    /* \"#utility.yul\":2010:2122   */\n  iszero\n  tag_64\n  jumpi\n    /* \"#utility.yul\":2041:2120   */\n  tag_65\n  tag_13\n  jump\t// in\ntag_65:\n    /* \"#utility.yul\":2010:2122   */\ntag_64:\n    /* \"#utility.yul\":2131:2183   */\n  tag_66\n    /* \"#utility.yul\":2176:2182   */\n  dup5\n    /* \"#utility.yul\":2171:2174   */\n  dup3\n    /* \"#utility.yul\":2166:2169   */\n  dup6\n    /* \"#utility.yul\":2131:2183   */\n  tag_19\n  jump\t// in\ntag_66:\n    /* \"#utility.yul\":1850:2189   */\n  pop\n    /* \"#utility.yul\":1755:2189   */\n  swap4\n  swap3\n  pop\n  pop\n  pop\n  jump\t// out\n    /* \"#utility.yul\":2209:2564   */\ntag_21:\n    /* \"#utility.yul\":2276:2281   */\n  0x00\n    /* \"#utility.yul\":2325:2328   */\n  dup3\n    /* \"#utility.yul\":2318:2322   */\n  0x1f\n    /* \"#utility.yul\":2310:2316   */\n  dup4\n    /* \"#utility.yul\":2306:2323   */\n  add\n    /* \"#utility.yul\":2302:2329   */\n  slt\n    /* \"#utility.yul\":2292:2414   */\n  tag_68\n  jumpi\n    /* \"#utility.yul\":2333:2412   */\n  tag_69\n  tag_12\n  jump\t// in\ntag_69:\n    /* \"#utility.yul\":2292:2414   */\ntag_68:\n    /* \"#utility.yul\":2443:2449   */\n  dup2\n    /* \"#utility.yul\":2437:2450   */\n  mload\n    /* \"#utility.yul\":2468:2558   */\n  tag_70\n    /* \"#utility.yul\":2554:2557   */\n  dup5\n    /* \"#utility.yul\":2546:2552   */\n  dup3\n    /* \"#utility.yul\":2539:2543   */\n  0x20\n    /* \"#utility.yul\":2531:2537   */\n  dup7\n    /* \"#utility.yul\":2527:2544   */\n  add\n    /* \"#utility.yul\":2468:2558   */\n  tag_20\n  jump\t// in\ntag_70:\n    /* \"#utility.yul\":2459:2558   */\n  swap2\n  pop\n    /* \"#utility.yul\":2282:2564   */\n  pop\n    /* \"#utility.yul\":2209:2564   */\n  swap3\n  swap2\n  pop\n  pop\n  jump\t// out\n    /* \"#utility.yul\":2570:3094   */\ntag_3:\n    /* \"#utility.yul\":2650:2656   */\n  0x00\n    /* \"#utility.yul\":2699:2701   */\n  0x20\n    /* \"#utility.yul\":2687:2696   */\n  dup3\n    /* \"#utility.yul\":2678:2685   */\n  dup5\n    /* \"#utility.yul\":2674:2697   */\n  sub\n    /* \"#utility.yul\":2670:2702   */\n  slt\n    /* \"#utility.yul\":2667:2786   */\n  iszero\n  tag_72\n  jumpi\n    /* \"#utility.yul\":2705:2784   */\n  tag_73\n  tag_10\n  jump\t// in\ntag_73:\n    /* \"#utility.yul\":2667:2786   */\ntag_72:\n    /* \"#utility.yul\":2846:2847   */\n  0x00\n    /* \"#utility.yul\":2835:2844   */\n  dup3\n    /* \"#utility.yul\":2831:2848   */\n  add\n    /* \"#utility.yul\":2825:2849   */\n  mload\n    /* \"#utility.yul\":2876:2894   */\n  0xffffffffffffffff\n    /* \"#utility.yul\":2868:2874   */\n  dup2\n    /* \"#utility.yul\":2865:2895   */\n  gt\n    /* \"#utility.yul\":2862:2979   */\n  iszero\n  tag_74\n  jumpi\n    /* \"#utility.yul\":2898:2977   */\n  tag_75\n  tag_11\n  jump\t// in\ntag_75:\n    /* \"#utility.yul\":2862:2979   */\ntag_74:\n    /* \"#utility.yul\":3003:3077   */\n  tag_76\n    /* \"#utility.yul\":3069:3076   */\n  dup5\n    /* \"#utility.yul\":3060:3066   */\n  dup3\n    /* \"#utility.yul\":3049:3058   */\n  dup6\n    /* \"#utility.yul\":3045:3067   */\n  add\n    /* \"#utility.yul\":3003:3077   */\n  tag_21\n  jump\t// in\ntag_76:\n    /* \"#utility.yul\":2993:3077   */\n  swap2\n  pop\n    /* \"#utility.yul\":2796:3087   */\n  pop\n    /* \"#utility.yul\":2570:3094   */\n  swap3\n  swap2\n  pop\n  pop\n  jump\t// out\n    /* \"#utility.yul\":3100:3199   */\ntag_22:\n    /* \"#utility.yul\":3152:3158   */\n  0x00\n    /* \"#utility.yul\":3186:3191   */\n  dup2\n    /* \"#utility.yul\":3180:3192   */\n  mload\n    /* \"#utility.yul\":3170:3192   */\n  swap1\n  pop\n    /* \"#utility.yul\":3100:3199   */\n  swap2\n  swap1\n  pop\n  jump\t// out\n    /* \"#utility.yul\":3205:3385   */\ntag_23:\n    /* \"#utility.yul\":3253:3330   */\n  0x4e487b7100000000000000000000000000000000000000000000000000000000\n    /* \"#utility.yul\":3250:3251   */\n  0x00\n    /* \"#utility.yul\":3243:3331   */\n  mstore\n    /* \"#utility.yul\":3350:3354   */\n  0x22\n    /* \"#utility.yul\":3347:3348   */\n  0x04\n    /* \"#utility.yul\":3340:3355   */\n  mstore\n    /* \"#utility.yul\":3374:3378   */\n  0x24\n    /* \"#utility.yul\":3371:3372   */\n  0x00\n    /* \"#utility.yul\":3364:3379   */\n  revert\n    /* \"#utility.yul\":3391:3711   */\ntag_24:\n    /* \"#utility.yul\":3435:3441   */\n  0x00\n    /* \"#utility.yul\":3472:3473   */\n  0x02\n    /* \"#utility.yul\":3466:3470   */\n  dup3\n    /* \"#utility.yul\":3462:3474   */\n  div\n    /* \"#utility.yul\":3452:3474   */\n  swap1\n  pop\n    /* \"#utility.yul\":3519:3520   */\n  0x01\n    /* \"#utility.yul\":3513:3517   */\n  dup3\n    /* \"#utility.yul\":3509:3521   */\n  and\n    /* \"#utility.yul\":3540:3558   */\n  dup1\n    /* \"#utility.yul\":3530:3611   */\n  tag_80\n  jumpi\n    /* \"#utility.yul\":3596:3600   */\n  0x7f\n    /* \"#utility.yul\":3588:3594   */\n  dup3\n    /* \"#utility.yul\":3584:3601   */\n  and\n    /* \"#utility.yul\":3574:3601   */\n  swap2\n  pop\n    /* \"#utility.yul\":3530:3611   */\ntag_80:\n    /* \"#utility.yul\":3658:3660   */\n  0x20\n    /* \"#utility.yul\":3650:3656   */\n  dup3\n    /* \"#utility.yul\":3647:3661   */\n  lt\n    /* \"#utility.yul\":3627:3645   */\n  dup2\n    /* \"#utility.yul\":3624:3662   */\n  sub\n    /* \"#utility.yul\":3621:3705   */\n  tag_81\n  jumpi\n    /* \"#utility.yul\":3677:3695   */\n  tag_82\n  tag_23\n  jump\t// in\ntag_82:\n    /* \"#utility.yul\":3621:3705   */\ntag_81:\n    /* \"#utility.yul\":3442:3711   */\n  pop\n    /* \"#utility.yul\":3391:3711   */\n  swap2\n  swap1\n  pop\n  jump\t// out\n    /* \"#utility.yul\":3717:3858   */\ntag_25:\n    /* \"#utility.yul\":3766:3770   */\n  0x00\n    /* \"#utility.yul\":3789:3792   */\n  dup2\n    /* \"#utility.yul\":3781:3792   */\n  swap1\n  pop\n    /* \"#utility.yul\":3812:3815   */\n  dup2\n    /* \"#utility.yul\":3809:3810   */\n  0x00\n    /* \"#utility.yul\":3802:3816   */\n  mstore\n    /* \"#utility.yul\":3846:3850   */\n  0x20\n    /* \"#utility.yul\":3843:3844   */\n  0x00\n    /* \"#utility.yul\":3833:3851   */\n  keccak256\n    /* \"#utility.yul\":3825:3851   */\n  swap1\n  pop\n    /* \"#utility.yul\":3717:3858   */\n  swap2\n  swap1\n  pop\n  jump\t// out\n    /* \"#utility.yul\":3864:3957   */\ntag_26:\n    /* \"#utility.yul\":3901:3907   */\n  0x00\n    /* \"#utility.yul\":3948:3950   */\n  0x20\n    /* \"#utility.yul\":3943:3945   */\n  0x1f\n    /* \"#utility.yul\":3936:3941   */\n  dup4\n    /* \"#utility.yul\":3932:3946   */\n  add\n    /* \"#utility.yul\":3928:3951   */\n  div\n    /* \"#utility.yul\":3918:3951   */\n  swap1\n  pop\n    /* \"#utility.yul\":3864:3957   */\n  swap2\n  swap1\n  pop\n  jump\t// out\n    /* \"#utility.yul\":3963:4070   */\ntag_27:\n    /* \"#utility.yul\":4007:4015   */\n  0x00\n    /* \"#utility.yul\":4057:4062   */\n  dup3\n    /* \"#utility.yul\":4051:4055   */\n  dup3\n    /* \"#utility.yul\":4047:4063   */\n  shl\n    /* \"#utility.yul\":4026:4063   */\n  swap1\n  pop\n    /* \"#utility.yul\":3963:4070   */\n  swap3\n  swap2\n  pop\n  pop\n  jump\t// out\n    /* \"#utility.yul\":4076:4469   */\ntag_28:\n    /* \"#utility.yul\":4145:4151   */\n  0x00\n    /* \"#utility.yul\":4195:4196   */\n  0x08\n    /* \"#utility.yul\":4183:4193   */\n  dup4\n    /* \"#utility.yul\":4179:4197   */\n  mul\n    /* \"#utility.yul\":4218:4315   */\n  tag_87\n    /* \"#utility.yul\":4248:4314   */\n  0xffffffffffffffffffffffffffffffffffffffffffffffffffffffffffffffff\n    /* \"#utility.yul\":4237:4246   */\n  dup3\n    /* \"#utility.yul\":4218:4315   */\n  tag_27\n  jump\t// in\ntag_87:\n    /* \"#utility.yul\":4336:4375   */\n  tag_88\n    /* \"#utility.yul\":4366:4374   */\n  dup7\n    /* \"#utility.yul\":4355:4364   */\n  dup4\n    /* \"#utility.yul\":4336:4375   */\n  tag_27\n  jump\t// in\ntag_88:\n    /* \"#utility.yul\":4324:4375   */\n  swap6\n  pop\n    /* \"#utility.yul\":4408:4412   */\n  dup1\n    /* \"#utility.yul\":4404:4413   */\n  not\n    /* \"#utility.yul\":4397:4402   */\n  dup5\n    /* \"#utility.yul\":4393:4414   */\n  and\n    /* \"#utility.yul\":4384:4414   */\n  swap4\n  pop\n    /* \"#utility.yul\":4457:4461   */\n  dup1\n    /* \"#utility.yul\":4447:4455   */\n  dup7\n    /* \"#utility.yul\":4443:4462   */\n  and\n    /* \"#utility.yul\":4436:4441   */\n  dup5\n    /* \"#utility.yul\":4433:4463   */\n  or\n    /* \"#utility.yul\":4423:4463   */\n  swap3\n  pop\n    /* \"#utility.yul\":4152:4469   */\n  pop\n  pop\n    /* \"#utility.yul\":4076:4469   */\n  swap4\n  swap3\n  pop\n  pop\n  pop\n  jump\t// out\n    /* \"#utility.yul\":4475:4552   */\ntag_29:\n    /* \"#utility.yul\":4512:4519   */\n  0x00\n    /* \"#utility.yul\":4541:4546   */\n  dup2\n    /* \"#utility.yul\":4530:4546   */\n  swap1\n  pop\n    /* \"#utility.yul\":4475:4552   */\n  swap2\n  swap1\n  pop\n  jump\t// out\n    /* \"#utility.yul\":4558:4618   */\ntag_30:\n    /* \"#utility.yul\":4586:4589   */\n  0x00\n    /* \"#utility.yul\":4607:4612   */\n  dup2\n    /* \"#utility.yul\":4600:4612   */\n  swap1\n  pop\n    /* \"#utility.yul\":4558:4618   */\n  swap2\n  swap1\n  pop\n  jump\t// out\n    /* \"#utility.yul\":4624:4766   */\ntag_31:\n    /* \"#utility.yul\":4674:4683   */\n  0x00\n    /* \"#utility.yul\":4707:4760   */\n  tag_92\n    /* \"#utility.yul\":4725:4759   */\n  tag_93\n    /* \"#utility.yul\":4734:4758   */\n  tag_94\n    /* \"#utility.yul\":4752:4757   */\n  dup5\n    /* \"#utility.yul\":4734:4758   */\n  tag_29\n  jump\t// in\ntag_94:\n    /* \"#utility.yul\":4725:4759   */\n  tag_30\n  jump\t// in\ntag_93:\n    /* \"#utility.yul\":4707:4760   */\n  tag_29\n  jump\t// in\ntag_92:\n    /* \"#utility.yul\":4694:4760   */\n  swap1\n  pop\n    /* \"#utility.yul\":4624:4766   */\n  swap2\n  swap1\n  pop\n  jump\t// out\n    /* \"#utility.yul\":4772:4847   */\ntag_32:\n    /* \"#utility.yul\":4815:4818   */\n  0x00\n    /* \"#utility.yul\":4836:4841   */\n  dup2\n    /* \"#utility.yul\":4829:4841   */\n  swap1\n  pop\n    /* \"#utility.yul\":4772:4847   */\n  swap2\n  swap1\n  pop\n  jump\t// out\n    /* \"#utility.yul\":4853:5122   */\ntag_33:\n    /* \"#utility.yul\":4963:5002   */\n  tag_97\n    /* \"#utility.yul\":4994:5001   */\n  dup4\n    /* \"#utility.yul\":4963:5002   */\n  tag_31\n  jump\t// in\ntag_97:\n    /* \"#utility.yul\":5024:5115   */\n  tag_98\n    /* \"#utility.yul\":5073:5114   */\n  tag_99\n    /* \"#utility.yul\":5097:5113   */\n  dup3\n    /* \"#utility.yul\":5073:5114   */\n  tag_32\n  jump\t// in\ntag_99:\n    /* \"#utility.yul\":5065:5071   */\n  dup5\n    /* \"#utility.yul\":5058:5062   */\n  dup5\n    /* \"#utility.yul\":5052:5063   */\n  sload\n    /* \"#utility.yul\":5024:5115   */\n  tag_28\n  jump\t// in\ntag_98:\n    /* \"#utility.yul\":5018:5022   */\n  dup3\n    /* \"#utility.yul\":5011:5116   */\n  sstore\n    /* \"#utility.yul\":4929:5122   */\n  pop\n    /* \"#utility.yul\":4853:5122   */\n  pop\n  pop\n  pop\n  jump\t// out\n    /* \"#utility.yul\":5128:5201   */\ntag_34:\n    /* \"#utility.yul\":5173:5176   */\n  0x00\n    /* \"#utility.yul\":5194:5195   */\n  0x00\n    /* \"#utility.yul\":5187:5195   */\n  swap1\n  pop\n    /* \"#utility.yul\":5128:5201   */\n  swap1\n  jump\t// out\n    /* \"#utility.yul\":5207:5396   */\ntag_35:\n    /* \"#utility.yul\":5284:5316   */\n  tag_102\n  tag_34\n  jump\t// in\ntag_102:\n    /* \"#utility.yul\":5325:5390   */\n  tag_103\n    /* \"#utility.yul\":5383:5389   */\n  dup2\n    /* \"#utility.yul\":5375:5381   */\n  dup5\n    /* \"#utility.yul\":5369:5373   */\n  dup5\n    /* \"#utility.yul\":5325:5390   */\n  tag_33\n  jump\t// in\ntag_103:\n    /* \"#utility.yul\":5260:5396   */\n  pop\n    /* \"#utility.yul\":5207:5396   */\n  pop\n  pop\n  jump\t// out\n    /* \"#utility.yul\":5402:5616   */\ntag_36:\n    /* \"#utility.yul\":5487:5488   */\n  0x00\n    /* \"#utility.yul\":5472:5610   */\ntag_105:\n    /* \"#utility.yul\":5497:5506   */\n  dup3\n    /* \"#utility.yul\":5494:5495   */\n  dup2\n    /* \"#utility.yul\":5491:5507   */\n  lt\n    /* \"#utility.yul\":5472:5610   */\n  iszero\n  tag_107\n  jumpi\n    /* \"#utility.yul\":5549:5600   */\n  tag_108\n    /* \"#utility.yul\":5598:5599   */\n  0x00\n    /* \"#utility.yul\":5594:5595   */\n  dup3\n    /* \"#utility.yul\":5583:5592   */\n  dup5\n    /* \"#utility.yul\":5579:5596   */\n  add\n    /* \"#utility.yul\":5549:5600   */\n  tag_35\n  jump\t// in\ntag_108:\n    /* \"#utility.yul\":5522:5523   */\n  0x01\n    /* \"#utility.yul\":5519:5520   */\n  dup2\n    /* \"#utility.yul\":5515:5524   */\n  add\n    /* \"#utility.yul\":5510:5524   */\n  swap1\n  pop\n    /* \"#utility.yul\":5472:5610   */\n  jump(tag_105)\ntag_107:\n    /* \"#utility.yul\":5476:5490   */\n  pop\n    /* \"#utility.yul\":5402:5616   */\n  pop\n  pop\n  jump\t// out\n    /* \"#utility.yul\":5622:6368   */\ntag_37:\n    /* \"#utility.yul\":5723:5725   */\n  0x1f\n    /* \"#utility.yul\":5718:5721   */\n  dup3\n    /* \"#utility.yul\":5715:5726   */\n  gt\n    /* \"#utility.yul\":5712:6361   */\n  iszero\n  tag_110\n  jumpi\n    /* \"#utility.yul\":5752:5762   */\n  dup3\n    /* \"#utility.yul\":5747:5750   */\n  dup3\n    /* \"#utility.yul\":5744:5763   */\n  gt\n    /* \"#utility.yul\":5741:6351   */\n  iszero\n  tag_111\n  jumpi\n    /* \"#utility.yul\":5798:5836   */\n  tag_112\n    /* \"#utility.yul\":5830:5835   */\n  dup2\n    /* \"#utility.yul\":5798:5836   */\n  tag_25\n  jump\t// in\ntag_112:\n    /* \"#utility.yul\":5873:5895   */\n  tag_113\n    /* \"#utility.yul\":5891:5894   */\n  dup4\n    /* \"#utility.yul\":5873:5895   */\n  tag_26\n  jump\t// in\ntag_113:\n    /* \"#utility.yul\":5932:5961   */\n  tag_114\n    /* \"#utility.yul\":5950:5960   */\n  dup6\n    /* \"#utility.yul\":5932:5961   */\n  tag_26\n  jump\t// in\ntag_114:\n    /* \"#utility.yul\":6122:6124   */\n  0x20\n    /* \"#utility.yul\":6110:6120   */\n  dup7\n    /* \"#utility.yul\":6107:6125   */\n  lt\n    /* \"#utility.yul\":6104:6183   */\n  iszero\n  tag_115\n  jumpi\n    /* \"#utility.yul\":6164:6165   */\n  0x00\n    /* \"#utility.yul\":6148:6165   */\n  swap1\n  pop\n    /* \"#utility.yul\":6104:6183   */\ntag_115:\n    /* \"#utility.yul\":6233:6245   */\n  dup1\n    /* \"#utility.yul\":6223:6231   */\n  dup4\n    /* \"#utility.yul\":6219:6246   */\n  add\n    /* \"#utility.yul\":6263:6337   */\n  tag_116\n    /* \"#utility.yul\":6323:6335   */\n  dup3\n    /* \"#utility.yul\":6309:6321   */\n  dup5\n    /* \"#utility.yul\":6305:6336   */\n  sub\n    /* \"#utility.yul\":6292:6303   */\n  dup3\n    /* \"#utility.yul\":6263:6337   */\n  tag_36\n  jump\t// in\ntag_116:\n    /* \"#utility.yul\":5764:6351   */\n  pop\n  pop\n  pop\n  pop\n    /* \"#utility.yul\":5741:6351   */\ntag_111:\n    /* \"#utility.yul\":5712:6361   */\ntag_110:\n    /* \"#utility.yul\":5622:6368   */\n  pop\n  pop\n  pop\n  jump\t// out\n    /* \"#utility.yul\":6374:6491   */\ntag_38:\n    /* \"#utility.yul\":6428:6436   */\n  0x00\n    /* \"#utility.yul\":6478:6483   */\n  dup3\n    /* \"#utility.yul\":6472:6476   */\n  dup3\n    /* \"#utility.yul\":6468:6484   */\n  shr\n    /* \"#utility.yul\":6447:6484   */\n  swap1\n  pop\n    /* \"#utility.yul\":6374:6491   */\n  swap3\n  swap2\n  pop\n  pop\n  jump\t// out\n    /* \"#utility.yul\":6497:6666   */\ntag_39:\n    /* \"#utility.yul\":6541:6547   */\n  0x00\n    /* \"#utility.yul\":6574:6625   */\n  tag_119\n    /* \"#utility.yul\":6622:6623   */\n  0x00\n    /* \"#utility.yul\":6618:6624   */\n  not\n    /* \"#utility.yul\":6610:6615   */\n  dup5\n    /* \"#utility.yul\":6607:6608   */\n  0x08\n    /* \"#utility.yul\":6603:6616   */\n  mul\n    /* \"#utility.yul\":6574:6625   */\n  tag_38\n  jump\t// in\ntag_119:\n    /* \"#utility.yul\":6570:6626   */\n  not\n    /* \"#utility.yul\":6655:6659   */\n  dup1\n    /* \"#utility.yul\":6649:6653   */\n  dup4\n    /* \"#utility.yul\":6645:6660   */\n  and\n    /* \"#utility.yul\":6635:6660   */\n  swap2\n  pop\n    /* \"#utility.yul\":6548:6666   */\n  pop\n    /* \"#utility.yul\":6497:6666   */\n  swap3\n  swap2\n  pop\n  pop\n  jump\t// out\n    /* \"#utility.yul\":6671:6966   */\ntag_40:\n    /* \"#utility.yul\":6747:6751   */\n  0x00\n    /* \"#utility.yul\":6893:6922   */\n  tag_121\n    /* \"#utility.yul\":6918:6921   */\n  dup4\n    /* \"#utility.yul\":6912:6916   */\n  dup4\n    /* \"#utility.yul\":6893:6922   */\n  tag_39\n  jump\t// in\ntag_121:\n    /* \"#utility.yul\":6885:6922   */\n  swap2\n  pop\n    /* \"#utility.yul\":6955:6958   */\n  dup3\n    /* \"#utility.yul\":6952:6953   */\n  0x02\n    /* \"#utility.yul\":6948:6959   */\n  mul\n    /* \"#utility.yul\":6942:6946   */\n  dup3\n    /* \"#utility.yul\":6939:6960   */\n  or\n    /* \"#utility.yul\":6931:6960   */\n  swap1\n  pop\n    /* \"#utility.yul\":6671:6966   */\n  swap3\n  swap2\n  pop\n  pop\n  jump\t// out\n    /* \"#utility.yul\":6971:8366   */\ntag_7:\n    /* \"#utility.yul\":7088:7125   */\n  tag_123\n    /* \"#utility.yul\":7121:7124   */\n  dup3\n    /* \"#utility.yul\":7088:7125   */\n  tag_22\n  jump\t// in\ntag_123:\n    /* \"#utility.yul\":7190:7208   */\n  0xffffffffffffffff\n    /* \"#utility.yul\":7182:7188   */\n  dup2\n    /* \"#utility.yul\":7179:7209   */\n  gt\n    /* \"#utility.yul\":7176:7232   */\n  iszero\n  tag_124\n  jumpi\n    /* \"#utility.yul\":7212:7230   */\n  tag_125\n  tag_15\n  jump\t// in\ntag_125:\n    /* \"#utility.yul\":7176:7232   */\ntag_124:\n    /* \"#utility.yul\":7256:7294   */\n  tag_126\n    /* \"#utility.yul\":7288:7292   */\n  dup3\n    /* \"#utility.yul\":7282:7293   */\n  sload\n    /* \"#utility.yul\":7256:7294   */\n  tag_24\n  jump\t// in\ntag_126:\n    /* \"#utility.yul\":7341:7408   */\n  tag_127\n    /* \"#utility.yul\":7401:7407   */\n  dup3\n    /* \"#utility.yul\":7393:7399   */\n  dup3\n    /* \"#utility.yul\":7387:7391   */\n  dup6\n    /* \"#utility.yul\":7341:7408   */\n  tag_37\n  jump\t// in\ntag_127:\n    /* \"#utility.yul\":7435:7436   */\n  0x00\n    /* \"#utility.yul\":7459:7463   */\n  0x20\n    /* \"#utility.yul\":7446:7463   */\n  swap1\n  pop\n    /* \"#utility.yul\":7491:7493   */\n  0x1f\n    /* \"#utility.yul\":7483:7489   */\n  dup4\n    /* \"#utility.yul\":7480:7494   */\n  gt\n    /* \"#utility.yul\":7508:7509   */\n  0x01\n    /* \"#utility.yul\":7503:8121   */\n  dup2\n  eq\n  tag_129\n  jumpi\n    /* \"#utility.yul\":8165:8166   */\n  0x00\n    /* \"#utility.yul\":8182:8188   */\n  dup5\n    /* \"#utility.yul\":8179:8256   */\n  iszero\n  tag_130\n  jumpi\n    /* \"#utility.yul\":8231:8240   */\n  dup3\n    /* \"#utility.yul\":8226:8229   */\n  dup8\n    /* \"#utility.yul\":8222:8241   */\n  add\n    /* \"#utility.yul\":8216:8242   */\n  mload\n    /* \"#utility.yul\":8207:8242   */\n  swap1\n  pop\n    /* \"#utility.yul\":8179:8256   */\ntag_130:\n    /* \"#utility.yul\":8282:8349   */\n  tag_131\n    /* \"#utility.yul\":8342:8348   */\n  dup6\n    /* \"#utility.yul\":8335:8340   */\n  dup3\n    /* \"#utility.yul\":8282:8349   */\n  tag_40\n  jump\t// in\ntag_131:\n    /* \"#utility.yul\":8276:8280   */\n  dup7\n    /* \"#utility.yul\":8269:8350   */\n  sstore\n    /* \"#utility.yul\":8138:8360   */\n  pop\n    /* \"#utility.yul\":7473:8360   */\n  jump(tag_128)\n    /* \"#utility.yul\":7503:8121   */\ntag_129:\n    /* \"#utility.yul\":7555:7559   */\n  0x1f\n    /* \"#utility.yul\":7551:7560   */\n  not\n    /* \"#utility.yul\":7543:7549   */\n  dup5\n    /* \"#utility.yul\":7539:7561   */\n  and\n    /* \"#utility.yul\":7589:7626   */\n  tag_132\n    /* \"#utility.yul\":7621:7625   */\n  dup7\n    /* \"#utility.yul\":7589:7626   */\n  tag_25\n  jump\t// in\ntag_132:\n    /* \"#utility.yul\":7648:7649   */\n  0x00\n    /* \"#utility.yul\":7662:7870   */\ntag_133:\n    /* \"#utility.yul\":7676:7683   */\n  dup3\n    /* \"#utility.yul\":7673:7674   */\n  dup2\n    /* \"#utility.yul\":7670:7684   */\n  lt\n    /* \"#utility.yul\":7662:7870   */\n  iszero\n  tag_135\n  jumpi\n    /* \"#utility.yul\":7755:7764   */\n  dup5\n    /* \"#utility.yul\":7750:7753   */\n  dup10\n    /* \"#utility.yul\":7746:7765   */\n  add\n    /* \"#utility.yul\":7740:7766   */\n  mload\n    /* \"#utility.yul\":7732:7738   */\n  dup3\n    /* \"#utility.yul\":7725:7767   */\n  sstore\n    /* \"#utility.yul\":7806:7807   */\n  0x01\n    /* \"#utility.yul\":7798:7804   */\n  dup3\n    /* \"#utility.yul\":7794:7808   */\n  add\n    /* \"#utility.yul\":7784:7808   */\n  swap2\n  pop\n    /* \"#utility.yul\":7853:7855   */\n  0x20\n    /* \"#utility.yul\":7842:7851   */\n  dup6\n    /* \"#utility.yul\":7838:7856   */\n  add\n    /* \"#utility.yul\":7825:7856   */\n  swap5\n  pop\n    /* \"#utility.yul\":7699:7703   */\n  0x20\n    /* \"#utility.yul\":7696:7697   */\n  dup2\n    /* \"#utility.yul\":7692:7704   */\n  add\n    /* \"#utility.yul\":7687:7704   */\n  swap1\n  pop\n    /* \"#utility.yul\":7662:7870   */\n  jump(tag_133)\ntag_135:\n    /* \"#utility.yul\":7898:7904   */\n  dup7\n    /* \"#utility.yul\":7889:7896   */\n  dup4\n    /* \"#utility.yul\":7886:7905   */\n  lt\n    /* \"#utility.yul\":7883:8062   */\n  iszero\n  tag_136\n  jumpi\n    /* \"#utility.yul\":7956:7965   */\n  dup5\n    /* \"#utility.yul\":7951:7954   */\n  dup10\n    /* \"#utility.yul\":7947:7966   */\n  add\n    /* \"#utility.yul\":7941:7967   */\n  mload\n    /* \"#utility.yul\":7999:8047   */\n  tag_137\n    /* \"#utility.yul\":8041:8045   */\n  0x1f\n    /* \"#utility.yul\":8033:8039   */\n  dup10\n    /* \"#utility.yul\":8029:8046   */\n  and\n    /* \"#utility.yul\":8018:8027   */\n  dup3\n    /* \"#utility.yul\":7999:8047   */\n  tag_39\n  jump\t// in\ntag_137:\n    /* \"#utility.yul\":7991:7997   */\n  dup4\n    /* \"#utility.yul\":7984:8048   */\n  sstore\n    /* \"#utility.yul\":7906:8062   */\n  pop\n    /* \"#utility.yul\":7883:8062   */\ntag_136:\n    /* \"#utility.yul\":8108:8109   */\n  0x01\n    /* \"#utility.yul\":8104:8105   */\n  0x02\n    /* \"#utility.yul\":8096:8102   */\n  dup9\n    /* \"#utility.yul\":8092:8106   */\n  mul\n    /* \"#utility.yul\":8088:8110   */\n  add\n    /* \"#utility.yul\":8082:8086   */\n  dup9\n    /* \"#utility.yul\":8075:8111   */\n  sstore\n    /* \"#utility.yul\":7510:8121   */\n  pop\n  pop\n  pop\n    /* \"#utility.yul\":7473:8360   */\ntag_128:\n  pop\n    /* \"#utility.yul\":7063:8366   */\n  pop\n  pop\n  pop\n    /* \"#utility.yul\":6971:8366   */\n  pop\n  pop\n  jump\t// out\n    /* \"contracts/16_Herencia.sol\":72:434  contract Animal {... */\ntag_8:\n  dataSize(sub_0)\n  dup1\n  dataOffset(sub_0)\n  0x00\n  codecopy\n  0x00\n  return\nstop\n\nsub_0: assembly {\n        /* \"contracts/16_Herencia.sol\":72:434  contract Animal {... */\n      mstore(0x40, 0x80)\n      callvalue\n      dup1\n      iszero\n      tag_1\n      jumpi\n      revert(0x00, 0x00)\n    tag_1:\n      pop\n      jumpi(tag_2, lt(calldatasize, 0x04))\n      shr(0xe0, calldataload(0x00))\n      dup1\n      0x5f8c9a0a\n      eq\n      tag_3\n      jumpi\n      dup1\n      0xe7491011\n      eq\n      tag_4\n      jumpi\n      dup1\n      0xf12ac8ad\n      eq\n      tag_5\n      jumpi\n    tag_2:\n      revert(0x00, 0x00)\n        /* \"contracts/16_Herencia.sol\":207:305  function hacerSonido() public pure virtual returns(string memory) { ... */\n    tag_3:\n      tag_6\n      tag_7\n      jump\t// in\n    tag_6:\n      mload(0x40)\n      tag_8\n      swap2\n      swap1\n      tag_9\n      jump\t// in\n    tag_8:\n      mload(0x40)\n      dup1\n      swap2\n      sub\n      swap1\n      return\n        /* \"contracts/16_Herencia.sol\":95:116  string public especie */\n    tag_4:\n      tag_10\n      tag_11\n      jump\t// in\n    tag_10:\n      mload(0x40)\n      tag_12\n      swap2\n      swap1\n      tag_9\n      jump\t// in\n    tag_12:\n      mload(0x40)\n      dup1\n      swap2\n      sub\n      swap1\n      return\n        /* \"contracts/16_Herencia.sol\":313:431  function obtenerInfo() public view returns(string memory) { ... */\n    tag_5:\n      tag_13\n      tag_14\n      jump\t// in\n    tag_13:\n      mload(0x40)\n      tag_15\n      swap2\n      swap1\n      tag_9\n      jump\t// in\n    tag_15:\n      mload(0x40)\n      dup1\n      swap2\n      sub\n      swap1\n      return\n        /* \"contracts/16_Herencia.sol\":207:305  function hacerSonido() public pure virtual returns(string memory) { ... */\n    tag_7:\n        /* \"contracts/16_Herencia.sol\":258:271  string memory */\n      0x60\n        /* \"contracts/16_Herencia.sol\":285:297  return \"aah\" */\n      mload(0x40)\n      dup1\n      0x40\n      add\n      0x40\n      mstore\n      dup1\n      0x03\n      dup2\n      mstore\n      0x20\n      add\n      0x6161680000000000000000000000000000000000000000000000000000000000\n      dup2\n      mstore\n      pop\n      swap1\n      pop\n        /* \"contracts/16_Herencia.sol\":207:305  function hacerSonido() public pure virtual returns(string memory) { ... */\n      swap1\n      jump\t// out\n        /* \"contracts/16_Herencia.sol\":95:116  string public especie */\n    tag_11:\n      0x00\n      dup1\n      sload\n      tag_17\n      swap1\n      tag_18\n      jump\t// in\n    tag_17:\n      dup1\n      0x1f\n      add\n      0x20\n      dup1\n      swap2\n      div\n      mul\n      0x20\n      add\n      mload(0x40)\n      swap1\n      dup2\n      add\n      0x40\n      mstore\n      dup1\n      swap3\n      swap2\n      swap1\n      dup2\n      dup2\n      mstore\n      0x20\n      add\n      dup3\n      dup1\n      sload\n      tag_19\n      swap1\n      tag_18\n      jump\t// in\n    tag_19:\n      dup1\n      iszero\n      tag_20\n      jumpi\n      dup1\n      0x1f\n      lt\n      tag_21\n      jumpi\n      0x0100\n      dup1\n      dup4\n      sload\n      div\n      mul\n      dup4\n      mstore\n      swap2\n      0x20\n      add\n      swap2\n      jump(tag_20)\n    tag_21:\n      dup3\n      add\n      swap2\n      swap1\n      0x00\n      mstore\n      keccak256(0x00, 0x20)\n      swap1\n    tag_22:\n      dup2\n      sload\n      dup2\n      mstore\n      swap1\n      0x01\n      add\n      swap1\n      0x20\n      add\n      dup1\n      dup4\n      gt\n      tag_22\n      jumpi\n      dup3\n      swap1\n      sub\n      0x1f\n      and\n      dup3\n      add\n      swap2\n    tag_20:\n      pop\n      pop\n      pop\n      pop\n      pop\n      dup2\n      jump\t// out\n        /* \"contracts/16_Herencia.sol\":313:431  function obtenerInfo() public view returns(string memory) { ... */\n    tag_14:\n        /* \"contracts/16_Herencia.sol\":356:369  string memory */\n      0x60\n        /* \"contracts/16_Herencia.sol\":415:422  especie */\n      0x00\n        /* \"contracts/16_Herencia.sol\":390:423  string.concat(\"Soy un \", especie) */\n      add(0x20, mload(0x40))\n      tag_24\n      swap2\n      swap1\n      tag_25\n      jump\t// in\n    tag_24:\n      mload(0x40)\n      0x20\n      dup2\n      dup4\n      sub\n      sub\n      dup2\n      mstore\n      swap1\n      0x40\n      mstore\n        /* \"contracts/16_Herencia.sol\":383:423  return string.concat(\"Soy un \", especie) */\n      swap1\n      pop\n        /* \"contracts/16_Herencia.sol\":313:431  function obtenerInfo() public view returns(string memory) { ... */\n      swap1\n      jump\t// out\n        /* \"#utility.yul\":7:106   */\n    tag_26:\n        /* \"#utility.yul\":59:65   */\n      0x00\n        /* \"#utility.yul\":93:98   */\n      dup2\n        /* \"#utility.yul\":87:99   */\n      mload\n        /* \"#utility.yul\":77:99   */\n      swap1\n      pop\n        /* \"#utility.yul\":7:106   */\n      swap2\n      swap1\n      pop\n      jump\t// out\n        /* \"#utility.yul\":112:281   */\n    tag_27:\n        /* \"#utility.yul\":196:207   */\n      0x00\n        /* \"#utility.yul\":230:236   */\n      dup3\n        /* \"#utility.yul\":225:228   */\n      dup3\n        /* \"#utility.yul\":218:237   */\n      mstore\n        /* \"#utility.yul\":270:274   */\n      0x20\n        /* \"#utility.yul\":265:268   */\n      dup3\n        /* \"#utility.yul\":261:275   */\n      add\n        /* \"#utility.yul\":246:275   */\n      swap1\n      pop\n        /* \"#utility.yul\":112:281   */\n      swap3\n      swap2\n      pop\n      pop\n      jump\t// out\n        /* \"#utility.yul\":287:426   */\n    tag_28:\n        /* \"#utility.yul\":376:382   */\n      dup3\n        /* \"#utility.yul\":371:374   */\n      dup2\n        /* \"#utility.yul\":366:369   */\n      dup4\n        /* \"#utility.yul\":360:383   */\n      mcopy\n        /* \"#utility.yul\":417:418   */\n      0x00\n        /* \"#utility.yul\":408:414   */\n      dup4\n        /* \"#utility.yul\":403:406   */\n      dup4\n        /* \"#utility.yul\":399:415   */\n      add\n        /* \"#utility.yul\":392:419   */\n      mstore\n        /* \"#utility.yul\":287:426   */\n      pop\n      pop\n      pop\n      jump\t// out\n        /* \"#utility.yul\":432:534   */\n    tag_29:\n        /* \"#utility.yul\":473:479   */\n      0x00\n        /* \"#utility.yul\":524:526   */\n      0x1f\n        /* \"#utility.yul\":520:527   */\n      not\n        /* \"#utility.yul\":515:517   */\n      0x1f\n        /* \"#utility.yul\":508:513   */\n      dup4\n        /* \"#utility.yul\":504:518   */\n      add\n        /* \"#utility.yul\":500:528   */\n      and\n        /* \"#utility.yul\":490:528   */\n      swap1\n      pop\n        /* \"#utility.yul\":432:534   */\n      swap2\n      swap1\n      pop\n      jump\t// out\n        /* \"#utility.yul\":540:917   */\n    tag_30:\n        /* \"#utility.yul\":628:631   */\n      0x00\n        /* \"#utility.yul\":656:695   */\n      tag_42\n        /* \"#utility.yul\":689:694   */\n      dup3\n        /* \"#utility.yul\":656:695   */\n      tag_26\n      jump\t// in\n    tag_42:\n        /* \"#utility.yul\":711:782   */\n      tag_43\n        /* \"#utility.yul\":775:781   */\n      dup2\n        /* \"#utility.yul\":770:773   */\n      dup6\n        /* \"#utility.yul\":711:782   */\n      tag_27\n      jump\t// in\n    tag_43:\n        /* \"#utility.yul\":704:782   */\n      swap4\n      pop\n        /* \"#utility.yul\":791:856   */\n      tag_44\n        /* \"#utility.yul\":849:855   */\n      dup2\n        /* \"#utility.yul\":844:847   */\n      dup6\n        /* \"#utility.yul\":837:841   */\n      0x20\n        /* \"#utility.yul\":830:835   */\n      dup7\n        /* \"#utility.yul\":826:842   */\n      add\n        /* \"#utility.yul\":791:856   */\n      tag_28\n      jump\t// in\n    tag_44:\n        /* \"#utility.yul\":881:910   */\n      tag_45\n        /* \"#utility.yul\":903:909   */\n      dup2\n        /* \"#utility.yul\":881:910   */\n      tag_29\n      jump\t// in\n    tag_45:\n        /* \"#utility.yul\":876:879   */\n      dup5\n        /* \"#utility.yul\":872:911   */\n      add\n        /* \"#utility.yul\":865:911   */\n      swap2\n      pop\n        /* \"#utility.yul\":632:917   */\n      pop\n        /* \"#utility.yul\":540:917   */\n      swap3\n      swap2\n      pop\n      pop\n      jump\t// out\n        /* \"#utility.yul\":923:1236   */\n    tag_9:\n        /* \"#utility.yul\":1036:1040   */\n      0x00\n        /* \"#utility.yul\":1074:1076   */\n      0x20\n        /* \"#utility.yul\":1063:1072   */\n      dup3\n        /* \"#utility.yul\":1059:1077   */\n      add\n        /* \"#utility.yul\":1051:1077   */\n      swap1\n      pop\n        /* \"#utility.yul\":1123:1132   */\n      dup2\n        /* \"#utility.yul\":1117:1121   */\n      dup2\n        /* \"#utility.yul\":1113:1133   */\n      sub\n        /* \"#utility.yul\":1109:1110   */\n      0x00\n        /* \"#utility.yul\":1098:1107   */\n      dup4\n        /* \"#utility.yul\":1094:1111   */\n      add\n        /* \"#utility.yul\":1087:1134   */\n      mstore\n        /* \"#utility.yul\":1151:1229   */\n      tag_47\n        /* \"#utility.yul\":1224:1228   */\n      dup2\n        /* \"#utility.yul\":1215:1221   */\n      dup5\n        /* \"#utility.yul\":1151:1229   */\n      tag_30\n      jump\t// in\n    tag_47:\n        /* \"#utility.yul\":1143:1229   */\n      swap1\n      pop\n        /* \"#utility.yul\":923:1236   */\n      swap3\n      swap2\n      pop\n      pop\n      jump\t// out\n        /* \"#utility.yul\":1242:1422   */\n    tag_31:\n        /* \"#utility.yul\":1290:1367   */\n      0x4e487b7100000000000000000000000000000000000000000000000000000000\n        /* \"#utility.yul\":1287:1288   */\n      0x00\n        /* \"#utility.yul\":1280:1368   */\n      mstore\n        /* \"#utility.yul\":1387:1391   */\n      0x22\n        /* \"#utility.yul\":1384:1385   */\n      0x04\n        /* \"#utility.yul\":1377:1392   */\n      mstore\n        /* \"#utility.yul\":1411:1415   */\n      0x24\n        /* \"#utility.yul\":1408:1409   */\n      0x00\n        /* \"#utility.yul\":1401:1416   */\n      revert\n        /* \"#utility.yul\":1428:1748   */\n    tag_18:\n        /* \"#utility.yul\":1472:1478   */\n      0x00\n        /* \"#utility.yul\":1509:1510   */\n      0x02\n        /* \"#utility.yul\":1503:1507   */\n      dup3\n        /* \"#utility.yul\":1499:1511   */\n      div\n        /* \"#utility.yul\":1489:1511   */\n      swap1\n      pop\n        /* \"#utility.yul\":1556:1557   */\n      0x01\n        /* \"#utility.yul\":1550:1554   */\n      dup3\n        /* \"#utility.yul\":1546:1558   */\n      and\n        /* \"#utility.yul\":1577:1595   */\n      dup1\n        /* \"#utility.yul\":1567:1648   */\n      tag_50\n      jumpi\n        /* \"#utility.yul\":1633:1637   */\n      0x7f\n        /* \"#utility.yul\":1625:1631   */\n      dup3\n        /* \"#utility.yul\":1621:1638   */\n      and\n        /* \"#utility.yul\":1611:1638   */\n      swap2\n      pop\n        /* \"#utility.yul\":1567:1648   */\n    tag_50:\n        /* \"#utility.yul\":1695:1697   */\n      0x20\n        /* \"#utility.yul\":1687:1693   */\n      dup3\n        /* \"#utility.yul\":1684:1698   */\n      lt\n        /* \"#utility.yul\":1664:1682   */\n      dup2\n        /* \"#utility.yul\":1661:1699   */\n      sub\n        /* \"#utility.yul\":1658:1742   */\n      tag_51\n      jumpi\n        /* \"#utility.yul\":1714:1732   */\n      tag_52\n      tag_31\n      jump\t// in\n    tag_52:\n        /* \"#utility.yul\":1658:1742   */\n    tag_51:\n        /* \"#utility.yul\":1479:1748   */\n      pop\n        /* \"#utility.yul\":1428:1748   */\n      swap2\n      swap1\n      pop\n      jump\t// out\n        /* \"#utility.yul\":1754:1938   */\n    tag_32:\n        /* \"#utility.yul\":1922:1931   */\n      0x536f7920756e2000000000000000000000000000000000000000000000000000\n        /* \"#utility.yul\":1917:1920   */\n      dup2\n        /* \"#utility.yul\":1910:1932   */\n      mstore\n        /* \"#utility.yul\":1754:1938   */\n      pop\n      jump\t// out\n        /* \"#utility.yul\":1944:2092   */\n    tag_33:\n        /* \"#utility.yul\":2046:2057   */\n      0x00\n        /* \"#utility.yul\":2083:2086   */\n      dup2\n        /* \"#utility.yul\":2068:2086   */\n      swap1\n      pop\n        /* \"#utility.yul\":1944:2092   */\n      swap3\n      swap2\n      pop\n      pop\n      jump\t// out\n        /* \"#utility.yul\":2098:2239   */\n    tag_34:\n        /* \"#utility.yul\":2147:2151   */\n      0x00\n        /* \"#utility.yul\":2170:2173   */\n      dup2\n        /* \"#utility.yul\":2162:2173   */\n      swap1\n      pop\n        /* \"#utility.yul\":2193:2196   */\n      dup2\n        /* \"#utility.yul\":2190:2191   */\n      0x00\n        /* \"#utility.yul\":2183:2197   */\n      mstore\n        /* \"#utility.yul\":2227:2231   */\n      0x20\n        /* \"#utility.yul\":2224:2225   */\n      0x00\n        /* \"#utility.yul\":2214:2232   */\n      keccak256\n        /* \"#utility.yul\":2206:2232   */\n      swap1\n      pop\n        /* \"#utility.yul\":2098:2239   */\n      swap2\n      swap1\n      pop\n      jump\t// out\n        /* \"#utility.yul\":2269:3143   */\n    tag_35:\n        /* \"#utility.yul\":2372:2375   */\n      0x00\n        /* \"#utility.yul\":2409:2414   */\n      dup2\n        /* \"#utility.yul\":2403:2415   */\n      sload\n        /* \"#utility.yul\":2438:2474   */\n      tag_57\n        /* \"#utility.yul\":2464:2473   */\n      dup2\n        /* \"#utility.yul\":2438:2474   */\n      tag_18\n      jump\t// in\n    tag_57:\n        /* \"#utility.yul\":2490:2579   */\n      tag_58\n        /* \"#utility.yul\":2572:2578   */\n      dup2\n        /* \"#utility.yul\":2567:2570   */\n      dup7\n        /* \"#utility.yul\":2490:2579   */\n      tag_33\n      jump\t// in\n    tag_58:\n        /* \"#utility.yul\":2483:2579   */\n      swap5\n      pop\n        /* \"#utility.yul\":2610:2611   */\n      0x01\n        /* \"#utility.yul\":2599:2608   */\n      dup3\n        /* \"#utility.yul\":2595:2612   */\n      and\n        /* \"#utility.yul\":2626:2627   */\n      0x00\n        /* \"#utility.yul\":2621:2787   */\n      dup2\n      eq\n      tag_60\n      jumpi\n        /* \"#utility.yul\":2801:2802   */\n      0x01\n        /* \"#utility.yul\":2796:3137   */\n      dup2\n      eq\n      tag_61\n      jumpi\n        /* \"#utility.yul\":2588:3137   */\n      jump(tag_59)\n        /* \"#utility.yul\":2621:2787   */\n    tag_60:\n        /* \"#utility.yul\":2705:2709   */\n      0xff\n        /* \"#utility.yul\":2701:2710   */\n      not\n        /* \"#utility.yul\":2690:2699   */\n      dup4\n        /* \"#utility.yul\":2686:2711   */\n      and\n        /* \"#utility.yul\":2681:2684   */\n      dup7\n        /* \"#utility.yul\":2674:2712   */\n      mstore\n        /* \"#utility.yul\":2767:2773   */\n      dup2\n        /* \"#utility.yul\":2760:2774   */\n      iszero\n        /* \"#utility.yul\":2753:2775   */\n      iszero\n        /* \"#utility.yul\":2745:2751   */\n      dup3\n        /* \"#utility.yul\":2741:2776   */\n      mul\n        /* \"#utility.yul\":2736:2739   */\n      dup7\n        /* \"#utility.yul\":2732:2777   */\n      add\n        /* \"#utility.yul\":2725:2777   */\n      swap4\n      pop\n        /* \"#utility.yul\":2621:2787   */\n      jump(tag_59)\n        /* \"#utility.yul\":2796:3137   */\n    tag_61:\n        /* \"#utility.yul\":2863:2901   */\n      tag_62\n        /* \"#utility.yul\":2895:2900   */\n      dup6\n        /* \"#utility.yul\":2863:2901   */\n      tag_34\n      jump\t// in\n    tag_62:\n        /* \"#utility.yul\":2923:2924   */\n      0x00\n        /* \"#utility.yul\":2937:3091   */\n    tag_63:\n        /* \"#utility.yul\":2951:2957   */\n      dup4\n        /* \"#utility.yul\":2948:2949   */\n      dup2\n        /* \"#utility.yul\":2945:2958   */\n      lt\n        /* \"#utility.yul\":2937:3091   */\n      iszero\n      tag_65\n      jumpi\n        /* \"#utility.yul\":3025:3032   */\n      dup2\n        /* \"#utility.yul\":3019:3033   */\n      sload\n        /* \"#utility.yul\":3015:3016   */\n      dup2\n        /* \"#utility.yul\":3010:3013   */\n      dup10\n        /* \"#utility.yul\":3006:3017   */\n      add\n        /* \"#utility.yul\":2999:3034   */\n      mstore\n        /* \"#utility.yul\":3075:3076   */\n      0x01\n        /* \"#utility.yul\":3066:3073   */\n      dup3\n        /* \"#utility.yul\":3062:3077   */\n      add\n        /* \"#utility.yul\":3051:3077   */\n      swap2\n      pop\n        /* \"#utility.yul\":2973:2977   */\n      0x20\n        /* \"#utility.yul\":2970:2971   */\n      dup2\n        /* \"#utility.yul\":2966:2978   */\n      add\n        /* \"#utility.yul\":2961:2978   */\n      swap1\n      pop\n        /* \"#utility.yul\":2937:3091   */\n      jump(tag_63)\n    tag_65:\n        /* \"#utility.yul\":3120:3126   */\n      dup4\n        /* \"#utility.yul\":3115:3118   */\n      dup9\n        /* \"#utility.yul\":3111:3127   */\n      add\n        /* \"#utility.yul\":3104:3127   */\n      swap6\n      pop\n        /* \"#utility.yul\":2803:3137   */\n      pop\n      pop\n        /* \"#utility.yul\":2588:3137   */\n    tag_59:\n      pop\n        /* \"#utility.yul\":2376:3143   */\n      pop\n      pop\n        /* \"#utility.yul\":2269:3143   */\n      swap3\n      swap2\n      pop\n      pop\n      jump\t// out\n        /* \"#utility.yul\":3149:3682   */\n    tag_25:\n        /* \"#utility.yul\":3368:3371   */\n      0x00\n        /* \"#utility.yul\":3383:3520   */\n      tag_67\n        /* \"#utility.yul\":3516:3519   */\n      dup3\n        /* \"#utility.yul\":3383:3520   */\n      tag_32\n      jump\t// in\n    tag_67:\n        /* \"#utility.yul\":3545:3546   */\n      0x07\n        /* \"#utility.yul\":3540:3543   */\n      dup3\n        /* \"#utility.yul\":3536:3547   */\n      add\n        /* \"#utility.yul\":3529:3547   */\n      swap2\n      pop\n        /* \"#utility.yul\":3564:3656   */\n      tag_68\n        /* \"#utility.yul\":3652:3655   */\n      dup3\n        /* \"#utility.yul\":3643:3649   */\n      dup5\n        /* \"#utility.yul\":3564:3656   */\n      tag_35\n      jump\t// in\n    tag_68:\n        /* \"#utility.yul\":3557:3656   */\n      swap2\n      pop\n        /* \"#utility.yul\":3673:3676   */\n      dup2\n        /* \"#utility.yul\":3666:3676   */\n      swap1\n      pop\n        /* \"#utility.yul\":3149:3682   */\n      swap3\n      swap2\n      pop\n      pop\n      jump\t// out\n\n    auxdata: 0xa2646970667358221220f126b461cea634f1a5673bf6f8efadececed99f3d4dcc3600150ccce17822a6e64736f6c63430008220033\n}\n",
				"bytecode": {
					"linkReferences": {},
					"object": "608060405234801561000f575f5ffd5b5060405161086d38038061086d83398181016040528101906100319190610193565b805f908161003f91906103fb565b50506104ca565b5f604051905090565b5f5ffd5b5f5ffd5b5f5ffd5b5f5ffd5b5f601f19601f8301169050919050565b7f4e487b71000000000000000000000000000000000000000000000000000000005f52604160045260245ffd5b6100a58261005f565b810181811067ffffffffffffffff821117156100c4576100c361006f565b5b80604052505050565b5f6100d6610046565b90506100e2828261009c565b919050565b5f67ffffffffffffffff8211156101015761010061006f565b5b61010a8261005f565b9050602081019050919050565b8281835e5f83830152505050565b5f610137610132846100e7565b6100cd565b9050828152602081018484840111156101535761015261005b565b5b61015e848285610117565b509392505050565b5f82601f83011261017a57610179610057565b5b815161018a848260208601610125565b91505092915050565b5f602082840312156101a8576101a761004f565b5b5f82015167ffffffffffffffff8111156101c5576101c4610053565b5b6101d184828501610166565b91505092915050565b5f81519050919050565b7f4e487b71000000000000000000000000000000000000000000000000000000005f52602260045260245ffd5b5f600282049050600182168061022857607f821691505b60208210810361023b5761023a6101e4565b5b50919050565b5f819050815f5260205f209050919050565b5f6020601f8301049050919050565b5f82821b905092915050565b5f6008830261029d7fffffffffffffffffffffffffffffffffffffffffffffffffffffffffffffffff82610262565b6102a78683610262565b95508019841693508086168417925050509392505050565b5f819050919050565b5f819050919050565b5f6102eb6102e66102e1846102bf565b6102c8565b6102bf565b9050919050565b5f819050919050565b610304836102d1565b610318610310826102f2565b84845461026e565b825550505050565b5f5f905090565b61032f610320565b61033a8184846102fb565b505050565b5f5b82811015610360576103555f828401610327565b600181019050610341565b505050565b601f8211156103b357828211156103b25761037f81610241565b61038883610253565b61039185610253565b602086101561039e575f90505b8083016103ad8284038261033f565b505050505b5b505050565b5f82821c905092915050565b5f6103d35f19846008026103b8565b1980831691505092915050565b5f6103eb83836103c4565b9150826002028217905092915050565b610404826101da565b67ffffffffffffffff81111561041d5761041c61006f565b5b6104278254610211565b610432828285610365565b5f60209050601f831160018114610463575f8415610451578287015190505b61045b85826103e0565b8655506104c2565b601f19841661047186610241565b5f5b8281101561049857848901518255600182019150602085019450602081019050610473565b868310156104b557848901516104b1601f8916826103c4565b8355505b6001600288020188555050505b505050505050565b610396806104d75f395ff3fe608060405234801561000f575f5ffd5b506004361061003f575f3560e01c80635f8c9a0a14610043578063e749101114610061578063f12ac8ad1461007f575b5f5ffd5b61004b61009d565b60405161005891906101fc565b60405180910390f35b6100696100da565b60405161007691906101fc565b60405180910390f35b610087610165565b60405161009491906101fc565b60405180910390f35b60606040518060400160405280600381526020017f6161680000000000000000000000000000000000000000000000000000000000815250905090565b5f80546100e690610249565b80601f016020809104026020016040519081016040528092919081815260200182805461011290610249565b801561015d5780601f106101345761010080835404028352916020019161015d565b820191905f5260205f20905b81548152906001019060200180831161014057829003601f168201915b505050505081565b60605f604051602001610178919061033b565b604051602081830303815290604052905090565b5f81519050919050565b5f82825260208201905092915050565b8281835e5f83830152505050565b5f601f19601f8301169050919050565b5f6101ce8261018c565b6101d88185610196565b93506101e88185602086016101a6565b6101f1816101b4565b840191505092915050565b5f6020820190508181035f83015261021481846101c4565b905092915050565b7f4e487b71000000000000000000000000000000000000000000000000000000005f52602260045260245ffd5b5f600282049050600182168061026057607f821691505b6020821081036102735761027261021c565b5b50919050565b7f536f7920756e2000000000000000000000000000000000000000000000000000815250565b5f81905092915050565b5f819050815f5260205f209050919050565b5f81546102c781610249565b6102d1818661029f565b9450600182165f81146102eb576001811461030057610332565b60ff1983168652811515820286019350610332565b610309856102a9565b5f5b8381101561032a5781548189015260018201915060208101905061030b565b838801955050505b50505092915050565b5f61034582610279565b60078201915061035582846102bb565b91508190509291505056fea2646970667358221220f126b461cea634f1a5673bf6f8efadececed99f3d4dcc3600150ccce17822a6e64736f6c63430008220033",
					"opcodes": "PUSH1 0x80 PUSH1 0x40 MSTORE CALLVALUE DUP1 ISZERO PUSH2 0xF JUMPI PUSH0 PUSH0 REVERT JUMPDEST POP PUSH1 0x40 MLOAD PUSH2 0x86D CODESIZE SUB DUP1 PUSH2 0x86D DUP4 CODECOPY DUP2 DUP2 ADD PUSH1 0x40 MSTORE DUP2 ADD SWAP1 PUSH2 0x31 SWAP2 SWAP1 PUSH2 0x193 JUMP JUMPDEST DUP1 PUSH0 SWAP1 DUP2 PUSH2 0x3F SWAP2 SWAP1 PUSH2 0x3FB JUMP JUMPDEST POP POP PUSH2 0x4CA JUMP JUMPDEST PUSH0 PUSH1 0x40 MLOAD SWAP1 POP SWAP1 JUMP JUMPDEST PUSH0 PUSH0 REVERT JUMPDEST PUSH0 PUSH0 REVERT JUMPDEST PUSH0 PUSH0 REVERT JUMPDEST PUSH0 PUSH0 REVERT JUMPDEST PUSH0 PUSH1 0x1F NOT PUSH1 0x1F DUP4 ADD AND SWAP1 POP SWAP2 SWAP1 POP JUMP JUMPDEST PUSH32 0x4E487B7100000000000000000000000000000000000000000000000000000000 PUSH0 MSTORE PUSH1 0x41 PUSH1 0x4 MSTORE PUSH1 0x24 PUSH0 REVERT JUMPDEST PUSH2 0xA5 DUP3 PUSH2 0x5F JUMP JUMPDEST DUP2 ADD DUP2 DUP2 LT PUSH8 0xFFFFFFFFFFFFFFFF DUP3 GT OR ISZERO PUSH2 0xC4 JUMPI PUSH2 0xC3 PUSH2 0x6F JUMP JUMPDEST JUMPDEST DUP1 PUSH1 0x40 MSTORE POP POP POP JUMP JUMPDEST PUSH0 PUSH2 0xD6 PUSH2 0x46 JUMP JUMPDEST SWAP1 POP PUSH2 0xE2 DUP3 DUP3 PUSH2 0x9C JUMP JUMPDEST SWAP2 SWAP1 POP JUMP JUMPDEST PUSH0 PUSH8 0xFFFFFFFFFFFFFFFF DUP3 GT ISZERO PUSH2 0x101 JUMPI PUSH2 0x100 PUSH2 0x6F JUMP JUMPDEST JUMPDEST PUSH2 0x10A DUP3 PUSH2 0x5F JUMP JUMPDEST SWAP1 POP PUSH1 0x20 DUP2 ADD SWAP1 POP SWAP2 SWAP1 POP JUMP JUMPDEST DUP3 DUP2 DUP4 MCOPY PUSH0 DUP4 DUP4 ADD MSTORE POP POP POP JUMP JUMPDEST PUSH0 PUSH2 0x137 PUSH2 0x132 DUP5 PUSH2 0xE7 JUMP JUMPDEST PUSH2 0xCD JUMP JUMPDEST SWAP1 POP DUP3 DUP2 MSTORE PUSH1 0x20 DUP2 ADD DUP5 DUP5 DUP5 ADD GT ISZERO PUSH2 0x153 JUMPI PUSH2 0x152 PUSH2 0x5B JUMP JUMPDEST JUMPDEST PUSH2 0x15E DUP5 DUP3 DUP6 PUSH2 0x117 JUMP JUMPDEST POP SWAP4 SWAP3 POP POP POP JUMP JUMPDEST PUSH0 DUP3 PUSH1 0x1F DUP4 ADD SLT PUSH2 0x17A JUMPI PUSH2 0x179 PUSH2 0x57 JUMP JUMPDEST JUMPDEST DUP2 MLOAD PUSH2 0x18A DUP5 DUP3 PUSH1 0x20 DUP7 ADD PUSH2 0x125 JUMP JUMPDEST SWAP2 POP POP SWAP3 SWAP2 POP POP JUMP JUMPDEST PUSH0 PUSH1 0x20 DUP3 DUP5 SUB SLT ISZERO PUSH2 0x1A8 JUMPI PUSH2 0x1A7 PUSH2 0x4F JUMP JUMPDEST JUMPDEST PUSH0 DUP3 ADD MLOAD PUSH8 0xFFFFFFFFFFFFFFFF DUP2 GT ISZERO PUSH2 0x1C5 JUMPI PUSH2 0x1C4 PUSH2 0x53 JUMP JUMPDEST JUMPDEST PUSH2 0x1D1 DUP5 DUP3 DUP6 ADD PUSH2 0x166 JUMP JUMPDEST SWAP2 POP POP SWAP3 SWAP2 POP POP JUMP JUMPDEST PUSH0 DUP2 MLOAD SWAP1 POP SWAP2 SWAP1 POP JUMP JUMPDEST PUSH32 0x4E487B7100000000000000000000000000000000000000000000000000000000 PUSH0 MSTORE PUSH1 0x22 PUSH1 0x4 MSTORE PUSH1 0x24 PUSH0 REVERT JUMPDEST PUSH0 PUSH1 0x2 DUP3 DIV SWAP1 POP PUSH1 0x1 DUP3 AND DUP1 PUSH2 0x228 JUMPI PUSH1 0x7F DUP3 AND SWAP2 POP JUMPDEST PUSH1 0x20 DUP3 LT DUP2 SUB PUSH2 0x23B JUMPI PUSH2 0x23A PUSH2 0x1E4 JUMP JUMPDEST JUMPDEST POP SWAP2 SWAP1 POP JUMP JUMPDEST PUSH0 DUP2 SWAP1 POP DUP2 PUSH0 MSTORE PUSH1 0x20 PUSH0 KECCAK256 SWAP1 POP SWAP2 SWAP1 POP JUMP JUMPDEST PUSH0 PUSH1 0x20 PUSH1 0x1F DUP4 ADD DIV SWAP1 POP SWAP2 SWAP1 POP JUMP JUMPDEST PUSH0 DUP3 DUP3 SHL SWAP1 POP SWAP3 SWAP2 POP POP JUMP JUMPDEST PUSH0 PUSH1 0x8 DUP4 MUL PUSH2 0x29D PUSH32 0xFFFFFFFFFFFFFFFFFFFFFFFFFFFFFFFFFFFFFFFFFFFFFFFFFFFFFFFFFFFFFFFF DUP3 PUSH2 0x262 JUMP JUMPDEST PUSH2 0x2A7 DUP7 DUP4 PUSH2 0x262 JUMP JUMPDEST SWAP6 POP DUP1 NOT DUP5 AND SWAP4 POP DUP1 DUP7 AND DUP5 OR SWAP3 POP POP POP SWAP4 SWAP3 POP POP POP JUMP JUMPDEST PUSH0 DUP2 SWAP1 POP SWAP2 SWAP1 POP JUMP JUMPDEST PUSH0 DUP2 SWAP1 POP SWAP2 SWAP1 POP JUMP JUMPDEST PUSH0 PUSH2 0x2EB PUSH2 0x2E6 PUSH2 0x2E1 DUP5 PUSH2 0x2BF JUMP JUMPDEST PUSH2 0x2C8 JUMP JUMPDEST PUSH2 0x2BF JUMP JUMPDEST SWAP1 POP SWAP2 SWAP1 POP JUMP JUMPDEST PUSH0 DUP2 SWAP1 POP SWAP2 SWAP1 POP JUMP JUMPDEST PUSH2 0x304 DUP4 PUSH2 0x2D1 JUMP JUMPDEST PUSH2 0x318 PUSH2 0x310 DUP3 PUSH2 0x2F2 JUMP JUMPDEST DUP5 DUP5 SLOAD PUSH2 0x26E JUMP JUMPDEST DUP3 SSTORE POP POP POP POP JUMP JUMPDEST PUSH0 PUSH0 SWAP1 POP SWAP1 JUMP JUMPDEST PUSH2 0x32F PUSH2 0x320 JUMP JUMPDEST PUSH2 0x33A DUP2 DUP5 DUP5 PUSH2 0x2FB JUMP JUMPDEST POP POP POP JUMP JUMPDEST PUSH0 JUMPDEST DUP3 DUP2 LT ISZERO PUSH2 0x360 JUMPI PUSH2 0x355 PUSH0 DUP3 DUP5 ADD PUSH2 0x327 JUMP JUMPDEST PUSH1 0x1 DUP2 ADD SWAP1 POP PUSH2 0x341 JUMP JUMPDEST POP POP POP JUMP JUMPDEST PUSH1 0x1F DUP3 GT ISZERO PUSH2 0x3B3 JUMPI DUP3 DUP3 GT ISZERO PUSH2 0x3B2 JUMPI PUSH2 0x37F DUP2 PUSH2 0x241 JUMP JUMPDEST PUSH2 0x388 DUP4 PUSH2 0x253 JUMP JUMPDEST PUSH2 0x391 DUP6 PUSH2 0x253 JUMP JUMPDEST PUSH1 0x20 DUP7 LT ISZERO PUSH2 0x39E JUMPI PUSH0 SWAP1 POP JUMPDEST DUP1 DUP4 ADD PUSH2 0x3AD DUP3 DUP5 SUB DUP3 PUSH2 0x33F JUMP JUMPDEST POP POP POP POP JUMPDEST JUMPDEST POP POP POP JUMP JUMPDEST PUSH0 DUP3 DUP3 SHR SWAP1 POP SWAP3 SWAP2 POP POP JUMP JUMPDEST PUSH0 PUSH2 0x3D3 PUSH0 NOT DUP5 PUSH1 0x8 MUL PUSH2 0x3B8 JUMP JUMPDEST NOT DUP1 DUP4 AND SWAP2 POP POP SWAP3 SWAP2 POP POP JUMP JUMPDEST PUSH0 PUSH2 0x3EB DUP4 DUP4 PUSH2 0x3C4 JUMP JUMPDEST SWAP2 POP DUP3 PUSH1 0x2 MUL DUP3 OR SWAP1 POP SWAP3 SWAP2 POP POP JUMP JUMPDEST PUSH2 0x404 DUP3 PUSH2 0x1DA JUMP JUMPDEST PUSH8 0xFFFFFFFFFFFFFFFF DUP2 GT ISZERO PUSH2 0x41D JUMPI PUSH2 0x41C PUSH2 0x6F JUMP JUMPDEST JUMPDEST PUSH2 0x427 DUP3 SLOAD PUSH2 0x211 JUMP JUMPDEST PUSH2 0x432 DUP3 DUP3 DUP6 PUSH2 0x365 JUMP JUMPDEST PUSH0 PUSH1 0x20 SWAP1 POP PUSH1 0x1F DUP4 GT PUSH1 0x1 DUP2 EQ PUSH2 0x463 JUMPI PUSH0 DUP5 ISZERO PUSH2 0x451 JUMPI DUP3 DUP8 ADD MLOAD SWAP1 POP JUMPDEST PUSH2 0x45B DUP6 DUP3 PUSH2 0x3E0 JUMP JUMPDEST DUP7 SSTORE POP PUSH2 0x4C2 JUMP JUMPDEST PUSH1 0x1F NOT DUP5 AND PUSH2 0x471 DUP7 PUSH2 0x241 JUMP JUMPDEST PUSH0 JUMPDEST DUP3 DUP2 LT ISZERO PUSH2 0x498 JUMPI DUP5 DUP10 ADD MLOAD DUP3 SSTORE PUSH1 0x1 DUP3 ADD SWAP2 POP PUSH1 0x20 DUP6 ADD SWAP5 POP PUSH1 0x20 DUP2 ADD SWAP1 POP PUSH2 0x473 JUMP JUMPDEST DUP7 DUP4 LT ISZERO PUSH2 0x4B5 JUMPI DUP5 DUP10 ADD MLOAD PUSH2 0x4B1 PUSH1 0x1F DUP10 AND DUP3 PUSH2 0x3C4 JUMP JUMPDEST DUP4 SSTORE POP JUMPDEST PUSH1 0x1 PUSH1 0x2 DUP9 MUL ADD DUP9 SSTORE POP POP POP JUMPDEST POP POP POP POP POP POP JUMP JUMPDEST PUSH2 0x396 DUP1 PUSH2 0x4D7 PUSH0 CODECOPY PUSH0 RETURN INVALID PUSH1 0x80 PUSH1 0x40 MSTORE CALLVALUE DUP1 ISZERO PUSH2 0xF JUMPI PUSH0 PUSH0 REVERT JUMPDEST POP PUSH1 0x4 CALLDATASIZE LT PUSH2 0x3F JUMPI PUSH0 CALLDATALOAD PUSH1 0xE0 SHR DUP1 PUSH4 0x5F8C9A0A EQ PUSH2 0x43 JUMPI DUP1 PUSH4 0xE7491011 EQ PUSH2 0x61 JUMPI DUP1 PUSH4 0xF12AC8AD EQ PUSH2 0x7F JUMPI JUMPDEST PUSH0 PUSH0 REVERT JUMPDEST PUSH2 0x4B PUSH2 0x9D JUMP JUMPDEST PUSH1 0x40 MLOAD PUSH2 0x58 SWAP2 SWAP1 PUSH2 0x1FC JUMP JUMPDEST PUSH1 0x40 MLOAD DUP1 SWAP2 SUB SWAP1 RETURN JUMPDEST PUSH2 0x69 PUSH2 0xDA JUMP JUMPDEST PUSH1 0x40 MLOAD PUSH2 0x76 SWAP2 SWAP1 PUSH2 0x1FC JUMP JUMPDEST PUSH1 0x40 MLOAD DUP1 SWAP2 SUB SWAP1 RETURN JUMPDEST PUSH2 0x87 PUSH2 0x165 JUMP JUMPDEST PUSH1 0x40 MLOAD PUSH2 0x94 SWAP2 SWAP1 PUSH2 0x1FC JUMP JUMPDEST PUSH1 0x40 MLOAD DUP1 SWAP2 SUB SWAP1 RETURN JUMPDEST PUSH1 0x60 PUSH1 0x40 MLOAD DUP1 PUSH1 0x40 ADD PUSH1 0x40 MSTORE DUP1 PUSH1 0x3 DUP2 MSTORE PUSH1 0x20 ADD PUSH32 0x6161680000000000000000000000000000000000000000000000000000000000 DUP2 MSTORE POP SWAP1 POP SWAP1 JUMP JUMPDEST PUSH0 DUP1 SLOAD PUSH2 0xE6 SWAP1 PUSH2 0x249 JUMP JUMPDEST DUP1 PUSH1 0x1F ADD PUSH1 0x20 DUP1 SWAP2 DIV MUL PUSH1 0x20 ADD PUSH1 0x40 MLOAD SWAP1 DUP2 ADD PUSH1 0x40 MSTORE DUP1 SWAP3 SWAP2 SWAP1 DUP2 DUP2 MSTORE PUSH1 0x20 ADD DUP3 DUP1 SLOAD PUSH2 0x112 SWAP1 PUSH2 0x249 JUMP JUMPDEST DUP1 ISZERO PUSH2 0x15D JUMPI DUP1 PUSH1 0x1F LT PUSH2 0x134 JUMPI PUSH2 0x100 DUP1 DUP4 SLOAD DIV MUL DUP4 MSTORE SWAP2 PUSH1 0x20 ADD SWAP2 PUSH2 0x15D JUMP JUMPDEST DUP3 ADD SWAP2 SWAP1 PUSH0 MSTORE PUSH1 0x20 PUSH0 KECCAK256 SWAP1 JUMPDEST DUP2 SLOAD DUP2 MSTORE SWAP1 PUSH1 0x1 ADD SWAP1 PUSH1 0x20 ADD DUP1 DUP4 GT PUSH2 0x140 JUMPI DUP3 SWAP1 SUB PUSH1 0x1F AND DUP3 ADD SWAP2 JUMPDEST POP POP POP POP POP DUP2 JUMP JUMPDEST PUSH1 0x60 PUSH0 PUSH1 0x40 MLOAD PUSH1 0x20 ADD PUSH2 0x178 SWAP2 SWAP1 PUSH2 0x33B JUMP JUMPDEST PUSH1 0x40 MLOAD PUSH1 0x20 DUP2 DUP4 SUB SUB DUP2 MSTORE SWAP1 PUSH1 0x40 MSTORE SWAP1 POP SWAP1 JUMP JUMPDEST PUSH0 DUP2 MLOAD SWAP1 POP SWAP2 SWAP1 POP JUMP JUMPDEST PUSH0 DUP3 DUP3 MSTORE PUSH1 0x20 DUP3 ADD SWAP1 POP SWAP3 SWAP2 POP POP JUMP JUMPDEST DUP3 DUP2 DUP4 MCOPY PUSH0 DUP4 DUP4 ADD MSTORE POP POP POP JUMP JUMPDEST PUSH0 PUSH1 0x1F NOT PUSH1 0x1F DUP4 ADD AND SWAP1 POP SWAP2 SWAP1 POP JUMP JUMPDEST PUSH0 PUSH2 0x1CE DUP3 PUSH2 0x18C JUMP JUMPDEST PUSH2 0x1D8 DUP2 DUP6 PUSH2 0x196 JUMP JUMPDEST SWAP4 POP PUSH2 0x1E8 DUP2 DUP6 PUSH1 0x20 DUP7 ADD PUSH2 0x1A6 JUMP JUMPDEST PUSH2 0x1F1 DUP2 PUSH2 0x1B4 JUMP JUMPDEST DUP5 ADD SWAP2 POP POP SWAP3 SWAP2 POP POP JUMP JUMPDEST PUSH0 PUSH1 0x20 DUP3 ADD SWAP1 POP DUP2 DUP2 SUB PUSH0 DUP4 ADD MSTORE PUSH2 0x214 DUP2 DUP5 PUSH2 0x1C4 JUMP JUMPDEST SWAP1 POP SWAP3 SWAP2 POP POP JUMP JUMPDEST PUSH32 0x4E487B7100000000000000000000000000000000000000000000000000000000 PUSH0 MSTORE PUSH1 0x22 PUSH1 0x4 MSTORE PUSH1 0x24 PUSH0 REVERT JUMPDEST PUSH0 PUSH1 0x2 DUP3 DIV SWAP1 POP PUSH1 0x1 DUP3 AND DUP1 PUSH2 0x260 JUMPI PUSH1 0x7F DUP3 AND SWAP2 POP JUMPDEST PUSH1 0x20 DUP3 LT DUP2 SUB PUSH2 0x273 JUMPI PUSH2 0x272 PUSH2 0x21C JUMP JUMPDEST JUMPDEST POP SWAP2 SWAP1 POP JUMP JUMPDEST PUSH32 0x536F7920756E2000000000000000000000000000000000000000000000000000 DUP2 MSTORE POP JUMP JUMPDEST PUSH0 DUP2 SWAP1 POP SWAP3 SWAP2 POP POP JUMP JUMPDEST PUSH0 DUP2 SWAP1 POP DUP2 PUSH0 MSTORE PUSH1 0x20 PUSH0 KECCAK256 SWAP1 POP SWAP2 SWAP1 POP JUMP JUMPDEST PUSH0 DUP2 SLOAD PUSH2 0x2C7 DUP2 PUSH2 0x249 JUMP JUMPDEST PUSH2 0x2D1 DUP2 DUP7 PUSH2 0x29F JUMP JUMPDEST SWAP5 POP PUSH1 0x1 DUP3 AND PUSH0 DUP2 EQ PUSH2 0x2EB JUMPI PUSH1 0x1 DUP2 EQ PUSH2 0x300 JUMPI PUSH2 0x332 JUMP JUMPDEST PUSH1 0xFF NOT DUP4 AND DUP7 MSTORE DUP2 ISZERO ISZERO DUP3 MUL DUP7 ADD SWAP4 POP PUSH2 0x332 JUMP JUMPDEST PUSH2 0x309 DUP6 PUSH2 0x2A9 JUMP JUMPDEST PUSH0 JUMPDEST DUP4 DUP2 LT ISZERO PUSH2 0x32A JUMPI DUP2 SLOAD DUP2 DUP10 ADD MSTORE PUSH1 0x1 DUP3 ADD SWAP2 POP PUSH1 0x20 DUP2 ADD SWAP1 POP PUSH2 0x30B JUMP JUMPDEST DUP4 DUP9 ADD SWAP6 POP POP POP JUMPDEST POP POP POP SWAP3 SWAP2 POP POP JUMP JUMPDEST PUSH0 PUSH2 0x345 DUP3 PUSH2 0x279 JUMP JUMPDEST PUSH1 0x7 DUP3 ADD SWAP2 POP PUSH2 0x355 DUP3 DUP5 PUSH2 0x2BB JUMP JUMPDEST SWAP2 POP DUP2 SWAP1 POP SWAP3 SWAP2 POP POP JUMP INVALID LOG2 PUSH5 0x6970667358 0x22 SLT KECCAK256 CALL 0x26 0xB4 PUSH2 0xCEA6 CALLVALUE CALL 0xA5 PUSH8 0x3BF6F8EFADECECED SWAP10 RETURN 0xD4 0xDC 0xC3 PUSH1 0x1 POP 0xCC 0xCE OR DUP3 0x2A PUSH15 0x64736F6C6343000822003300000000 "
				},
				"gasEstimates": {
					"creation": {
						"codeDepositCost": "183600",
						"executionCost": "infinite",
						"totalCost": "infinite"
					},
					"external": {
						"especie()": "infinite",
						"hacerSonido()": "infinite",
						"obtenerInfo()": "infinite"
					}
				},
				"methodIdentifiers": {
					"especie()": "e7491011",
					"hacerSonido()": "5f8c9a0a",
					"obtenerInfo()": "f12ac8ad"
				}
			},
			"storageLayout": {
				"storage": [
					{
						"astId": 3,
						"contract": "contracts/16_Herencia.sol:Animal",
						"label": "especie",
						"offset": 0,
						"slot": "0",
						"type": "t_string_storage"
					}
				],
				"types": {
					"t_string_storage": {
						"encoding": "bytes",
						"label": "string",
						"numberOfBytes": "32"
					}
				}
			},
			"userdoc": {
				"kind": "user",
				"methods": {},
				"version": 1
			}
		}
	}
}