{
	"data": {
		"bytecode": {
			"linkReferences": {},
			"object": "608060405234801561000f575f5ffd5b506040518060400160405280600581526020017f506572726f000000000000000000000000000000000000000000000000000000815250805f908161005491906102a9565b5050610378565b5f81519050919050565b7f4e487b71000000000000000000000000000000000000000000000000000000005f52604160045260245ffd5b7f4e487b71000000000000000000000000000000000000000000000000000000005f52602260045260245ffd5b5f60028204905060018216806100d657607f821691505b6020821081036100e9576100e8610092565b5b50919050565b5f819050815f5260205f209050919050565b5f6020601f8301049050919050565b5f82821b905092915050565b5f6008830261014b7fffffffffffffffffffffffffffffffffffffffffffffffffffffffffffffffff82610110565b6101558683610110565b95508019841693508086168417925050509392505050565b5f819050919050565b5f819050919050565b5f61019961019461018f8461016d565b610176565b61016d565b9050919050565b5f819050919050565b6101b28361017f565b6101c66101be826101a0565b84845461011c565b825550505050565b5f5f905090565b6101dd6101ce565b6101e88184846101a9565b505050565b5f5b8281101561020e576102035f8284016101d5565b6001810190506101ef565b505050565b601f82111561026157828211156102605761022d816100ef565b61023683610101565b61023f85610101565b602086101561024c575f90505b80830161025b828403826101ed565b505050505b5b505050565b5f82821c905092915050565b5f6102815f1984600802610266565b1980831691505092915050565b5f6102998383610272565b9150826002028217905092915050565b6102b28261005b565b67ffffffffffffffff8111156102cb576102ca610065565b5b6102d582546100bf565b6102e0828285610213565b5f60209050601f831160018114610311575f84156102ff578287015190505b610309858261028e565b865550610370565b601f19841661031f866100ef565b5f5b8281101561034657848901518255600182019150602085019450602081019050610321565b86831015610363578489015161035f601f891682610272565b8355505b6001600288020188555050505b505050505050565b610396806103855f395ff3fe608060405234801561000f575f5ffd5b506004361061003f575f3560e01c80635f8c9a0a14610043578063e749101114610061578063f12ac8ad1461007f575b5f5ffd5b61004b61009d565b60405161005891906101fc565b60405180910390f35b6100696100da565b60405161007691906101fc565b60405180910390f35b610087610165565b60405161009491906101fc565b60405180910390f35b60606040518060400160405280600481526020017f6775617500000000000000000000000000000000000000000000000000000000815250905090565b5f80546100e690610249565b80601f016020809104026020016040519081016040528092919081815260200182805461011290610249565b801561015d5780601f106101345761010080835404028352916020019161015d565b820191905f5260205f20905b81548152906001019060200180831161014057829003601f168201915b505050505081565b60605f604051602001610178919061033b565b604051602081830303815290604052905090565b5f81519050919050565b5f82825260208201905092915050565b8281835e5f83830152505050565b5f601f19601f8301169050919050565b5f6101ce8261018c565b6101d88185610196565b93506101e88185602086016101a6565b6101f1816101b4565b840191505092915050565b5f6020820190508181035f83015261021481846101c4565b905092915050565b7f4e487b71000000000000000000000000000000000000000000000000000000005f52602260045260245ffd5b5f600282049050600182168061026057607f821691505b6020821081036102735761027261021c565b5b50919050565b7f536f7920756e2000000000000000000000000000000000000000000000000000815250565b5f81905092915050565b5f819050815f5260205f209050919050565b5f81546102c781610249565b6102d1818661029f565b9450600182165f81146102eb576001811461030057610332565b60ff1983168652811515820286019350610332565b610309856102a9565b5f5b8381101561032a5781548189015260018201915060208101905061030b565b838801955050505b50505092915050565b5f61034582610279565b60078201915061035582846102bb565b91508190509291505056fea26469706673582212206f7cdbf7738796de9602901ac7fbcd43ba84cce311d7a03a62cdfb5f782b139764736f6c63430008220033",
			"opcodes": "PUSH1 0x80 PUSH1 0x40 MSTORE CALLVALUE DUP1 ISZERO PUSH2 0xF JUMPI PUSH0 PUSH0 REVERT JUMPDEST POP PUSH1 0x40 MLOAD DUP1 PUSH1 0x40 ADD PUSH1 0x40 MSTORE DUP1 PUSH1 0x5 DUP2 MSTORE PUSH1 0x20 ADD PUSH32 0x506572726F000000000000000000000000000000000000000000000000000000 DUP2 MSTORE POP DUP1 PUSH0 SWAP1 DUP2 PUSH2 0x54 SWAP2 SWAP1 PUSH2 0x2A9 JUMP JUMPDEST POP POP PUSH2 0x378 JUMP JUMPDEST PUSH0 DUP2 MLOAD SWAP1 POP SWAP2 SWAP1 POP JUMP JUMPDEST PUSH32 0x4E487B7100000000000000000000000000000000000000000000000000000000 PUSH0 MSTORE PUSH1 0x41 PUSH1 0x4 MSTORE PUSH1 0x24 PUSH0 REVERT JUMPDEST PUSH32 0x4E487B7100000000000000000000000000000000000000000000000000000000 PUSH0 MSTORE PUSH1 0x22 PUSH1 0x4 MSTORE PUSH1 0x24 PUSH0 REVERT JUMPDEST PUSH0 PUSH1 0x2 DUP3 DIV SWAP1 POP PUSH1 0x1 DUP3 AND DUP1 PUSH2 0xD6 JUMPI PUSH1 0x7F DUP3 AND SWAP2 POP JUMPDEST PUSH1 0x20 DUP3 LT DUP2 SUB PUSH2 0xE9 JUMPI PUSH2 0xE8 PUSH2 0x92 JUMP JUMPDEST JUMPDEST POP SWAP2 SWAP1 POP JUMP JUMPDEST PUSH0 DUP2 SWAP1 POP DUP2 PUSH0 MSTORE PUSH1 0x20 PUSH0 KECCAK256 SWAP1 POP SWAP2 SWAP1 POP JUMP JUMPDEST PUSH0 PUSH1 0x20 PUSH1 0x1F DUP4 ADD DIV SWAP1 POP SWAP2 SWAP1 POP JUMP JUMPDEST PUSH0 DUP3 DUP3 SHL SWAP1 POP SWAP3 SWAP2 POP POP JUMP JUMPDEST PUSH0 PUSH1 0x8 DUP4 MUL PUSH2 0x14B PUSH32 0xFFFFFFFFFFFFFFFFFFFFFFFFFFFFFFFFFFFFFFFFFFFFFFFFFFFFFFFFFFFFFFFF DUP3 PUSH2 0x110 JUMP JUMPDEST PUSH2 0x155 DUP7 DUP4 PUSH2 0x110 JUMP JUMPDEST SWAP6 POP DUP1 NOT DUP5 AND SWAP4 POP DUP1 DUP7 AND DUP5 OR SWAP3 POP POP POP SWAP4 SWAP3 POP POP POP JUMP JUMPDEST PUSH0 DUP2 SWAP1 POP SWAP2 SWAP1 POP JUMP JUMPDEST PUSH0 DUP2 SWAP1 POP SWAP2 SWAP1 POP JUMP JUMPDEST PUSH0 PUSH2 0x199 PUSH2 0x194 PUSH2 0x18F DUP5 PUSH2 0x16D JUMP JUMPDEST PUSH2 0x176 JUMP JUMPDEST PUSH2 0x16D JUMP JUMPDEST SWAP1 POP SWAP2 SWAP1 POP JUMP JUMPDEST PUSH0 DUP2 SWAP1 POP SWAP2 SWAP1 POP JUMP JUMPDEST PUSH2 0x1B2 DUP4 PUSH2 0x17F JUMP JUMPDEST PUSH2 0x1C6 PUSH2 0x1BE DUP3 PUSH2 0x1A0 JUMP JUMPDEST DUP5 DUP5 SLOAD PUSH2 0x11C JUMP JUMPDEST DUP3 SSTORE POP POP POP POP JUMP JUMPDEST PUSH0 PUSH0 SWAP1 POP SWAP1 JUMP JUMPDEST PUSH2 0x1DD PUSH2 0x1CE JUMP JUMPDEST PUSH2 0x1E8 DUP2 DUP5 DUP5 PUSH2 0x1A9 JUMP JUMPDEST POP POP POP JUMP JUMPDEST PUSH0 JUMPDEST DUP3 DUP2 LT ISZERO PUSH2 0x20E JUMPI PUSH2 0x203 PUSH0 DUP3 DUP5 ADD PUSH2 0x1D5 JUMP JUMPDEST PUSH1 0x1 DUP2 ADD SWAP1 POP PUSH2 0x1EF JUMP JUMPDEST POP POP POP JUMP JUMPDEST PUSH1 0x1F DUP3 GT ISZERO PUSH2 0x261 JUMPI DUP3 DUP3 GT ISZERO PUSH2 0x260 JUMPI PUSH2 0x22D DUP2 PUSH2 0xEF JUMP JUMPDEST PUSH2 0x236 DUP4 PUSH2 0x101 JUMP JUMPDEST PUSH2 0x23F DUP6 PUSH2 0x101 JUMP JUMPDEST PUSH1 0x20 DUP7 LT ISZERO PUSH2 0x24C JUMPI PUSH0 SWAP1 POP JUMPDEST DUP1 DUP4 ADD PUSH2 0x25B DUP3 DUP5 SUB DUP3 PUSH2 0x1ED JUMP JUMPDEST POP POP POP POP JUMPDEST JUMPDEST POP POP POP JUMP JUMPDEST PUSH0 DUP3 DUP3 SHR SWAP1 POP SWAP3 SWAP2 POP POP JUMP JUMPDEST PUSH0 PUSH2 0x281 PUSH0 NOT DUP5 PUSH1 0x8 MUL PUSH2 0x266 JUMP JUMPDEST NOT DUP1 DUP4 AND SWAP2 POP POP SWAP3 SWAP2 POP POP JUMP JUMPDEST PUSH0 PUSH2 0x299 DUP4 DUP4 PUSH2 0x272 JUMP JUMPDEST SWAP2 POP DUP3 PUSH1 0x2 MUL DUP3 OR SWAP1 POP SWAP3 SWAP2 POP POP JUMP JUMPDEST PUSH2 0x2B2 DUP3 PUSH2 0x5B JUMP JUMPDEST PUSH8 0xFFFFFFFFFFFFFFFF DUP2 GT ISZERO PUSH2 0x2CB JUMPI PUSH2 0x2CA PUSH2 0x65 JUMP JUMPDEST JUMPDEST PUSH2 0x2D5 DUP3 SLOAD PUSH2 0xBF JUMP JUMPDEST PUSH2 0x2E0 DUP3 DUP3 DUP6 PUSH2 0x213 JUMP JUMPDEST PUSH0 PUSH1 0x20 SWAP1 POP PUSH1 0x1F DUP4 GT PUSH1 0x1 DUP2 EQ PUSH2 0x311 JUMPI PUSH0 DUP5 ISZERO PUSH2 0x2FF JUMPI DUP3 DUP8 ADD MLOAD SWAP1 POP JUMPDEST PUSH2 0x309 DUP6 DUP3 PUSH2 0x28E JUMP JUMPDEST DUP7 SSTORE POP PUSH2 0x370 JUMP JUMPDEST PUSH1 0x1F NOT DUP5 AND PUSH2 0x31F DUP7 PUSH2 0xEF JUMP JUMPDEST PUSH0 JUMPDEST DUP3 DUP2 LT ISZERO PUSH2 0x346 JUMPI DUP5 DUP10 ADD MLOAD DUP3 SSTORE PUSH1 0x1 DUP3 ADD SWAP2 POP PUSH1 0x20 DUP6 ADD SWAP5 POP PUSH1 0x20 DUP2 ADD SWAP1 POP PUSH2 0x321 JUMP JUMPDEST DUP7 DUP4 LT ISZERO PUSH2 0x363 JUMPI DUP5 DUP10 ADD MLOAD PUSH2 0x35F PUSH1 0x1F DUP10 AND DUP3 PUSH2 0x272 JUMP JUMPDEST DUP4 SSTORE POP JUMPDEST PUSH1 0x1 PUSH1 0x2 DUP9 MUL ADD DUP9 SSTORE POP POP POP JUMPDEST POP POP POP POP POP POP JUMP JUMPDEST PUSH2 0x396 DUP1 PUSH2 0x385 PUSH0 CODECOPY PUSH0 RETURN INVALID PUSH1 0x80 PUSH1 0x40 MSTORE CALLVALUE DUP1 ISZERO PUSH2 0xF JUMPI PUSH0 PUSH0 REVERT JUMPDEST POP PUSH1 0x4 CALLDATASIZE LT PUSH2 0x3F JUMPI PUSH0 CALLDATALOAD PUSH1 0xE0 SHR DUP1 PUSH4 0x5F8C9A0A EQ PUSH2 0x43 JUMPI DUP1 PUSH4 0xE7491011 EQ PUSH2 0x61 JUMPI DUP1 PUSH4 0xF12AC8AD EQ PUSH2 0x7F JUMPI JUMPDEST PUSH0 PUSH0 REVERT JUMPDEST PUSH2 0x4B PUSH2 0x9D JUMP JUMPDEST PUSH1 0x40 MLOAD PUSH2 0x58 SWAP2 SWAP1 PUSH2 0x1FC JUMP JUMPDEST PUSH1 0x40 MLOAD DUP1 SWAP2 SUB SWAP1 RETURN JUMPDEST PUSH2 0x69 PUSH2 0xDA JUMP JUMPDEST PUSH1 0x40 MLOAD PUSH2 0x76 SWAP2 SWAP1 PUSH2 0x1FC JUMP JUMPDEST PUSH1 0x40 MLOAD DUP1 SWAP2 SUB SWAP1 RETURN JUMPDEST PUSH2 0x87 PUSH2 0x165 JUMP JUMPDEST PUSH1 0x40 MLOAD PUSH2 0x94 SWAP2 SWAP1 PUSH2 0x1FC JUMP JUMPDEST PUSH1 0x40 MLOAD DUP1 SWAP2 SUB SWAP1 RETURN JUMPDEST PUSH1 0x60 PUSH1 0x40 MLOAD DUP1 PUSH1 0x40 ADD PUSH1 0x40 MSTORE DUP1 PUSH1 0x4 DUP2 MSTORE PUSH1 0x20 ADD PUSH32 0x6775617500000000000000000000000000000000000000000000000000000000 DUP2 MSTORE POP SWAP1 POP SWAP1 JUMP JUMPDEST PUSH0 DUP1 SLOAD PUSH2 0xE6 SWAP1 PUSH2 0x249 JUMP JUMPDEST DUP1 PUSH1 0x1F ADD PUSH1 0x20 DUP1 SWAP2 DIV MUL PUSH1 0x20 ADD PUSH1 0x40 MLOAD SWAP1 DUP2 ADD PUSH1 0x40 MSTORE DUP1 SWAP3 SWAP2 SWAP1 DUP2 DUP2 MSTORE PUSH1 0x20 ADD DUP3 DUP1 SLOAD PUSH2 0x112 SWAP1 PUSH2 0x249 JUMP JUMPDEST DUP1 ISZERO PUSH2 0x15D JUMPI DUP1 PUSH1 0x1F LT PUSH2 0x134 JUMPI PUSH2 0x100 DUP1 DUP4 SLOAD DIV MUL DUP4 MSTORE SWAP2 PUSH1 0x20 ADD SWAP2 PUSH2 0x15D JUMP JUMPDEST DUP3 ADD SWAP2 SWAP1 PUSH0 MSTORE PUSH1 0x20 PUSH0 KECCAK256 SWAP1 JUMPDEST DUP2 SLOAD DUP2 MSTORE SWAP1 PUSH1 0x1 ADD SWAP1 PUSH1 0x20 ADD DUP1 DUP4 GT PUSH2 0x140 JUMPI DUP3 SWAP1 SUB PUSH1 0x1F AND DUP3 ADD SWAP2 JUMPDEST POP POP POP POP POP DUP2 JUMP JUMPDEST PUSH1 0x60 PUSH0 PUSH1 0x40 MLOAD PUSH1 0x20 ADD PUSH2 0x178 SWAP2 SWAP1 PUSH2 0x33B JUMP JUMPDEST PUSH1 0x40 MLOAD PUSH1 0x20 DUP2 DUP4 SUB SUB DUP2 MSTORE SWAP1 PUSH1 0x40 MSTORE SWAP1 POP SWAP1 JUMP JUMPDEST PUSH0 DUP2 MLOAD SWAP1 POP SWAP2 SWAP1 POP JUMP JUMPDEST PUSH0 DUP3 DUP3 MSTORE PUSH1 0x20 DUP3 ADD SWAP1 POP SWAP3 SWAP2 POP POP JUMP JUMPDEST DUP3 DUP2 DUP4 MCOPY PUSH0 DUP4 DUP4 ADD MSTORE POP POP POP JUMP JUMPDEST PUSH0 PUSH1 0x1F NOT PUSH1 0x1F DUP4 ADD AND SWAP1 POP SWAP2 SWAP1 POP JUMP JUMPDEST PUSH0 PUSH2 0x1CE DUP3 PUSH2 0x18C JUMP JUMPDEST PUSH2 0x1D8 DUP2 DUP6 PUSH2 0x196 JUMP JUMPDEST SWAP4 POP PUSH2 0x1E8 DUP2 DUP6 PUSH1 0x20 DUP7 ADD PUSH2 0x1A6 JUMP JUMPDEST PUSH2 0x1F1 DUP2 PUSH2 0x1B4 JUMP JUMPDEST DUP5 ADD SWAP2 POP POP SWAP3 SWAP2 POP POP JUMP JUMPDEST PUSH0 PUSH1 0x20 DUP3 ADD SWAP1 POP DUP2 DUP2 SUB PUSH0 DUP4 ADD MSTORE PUSH2 0x214 DUP2 DUP5 PUSH2 0x1C4 JUMP JUMPDEST SWAP1 POP SWAP3 SWAP2 POP POP JUMP JUMPDEST PUSH32 0x4E487B7100000000000000000000000000000000000000000000000000000000 PUSH0 MSTORE PUSH1 0x22 PUSH1 0x4 MSTORE PUSH1 0x24 PUSH0 REVERT JUMPDEST PUSH0 PUSH1 0x2 DUP3 DIV SWAP1 POP PUSH1 0x1 DUP3 AND DUP1 PUSH2 0x260 JUMPI PUSH1 0x7F DUP3 AND SWAP2 POP JUMPDEST PUSH1 0x20 DUP3 LT DUP2 SUB PUSH2 0x273 JUMPI PUSH2 0x272 PUSH2 0x21C JUMP JUMPDEST JUMPDEST POP SWAP2 SWAP1 POP JUMP JUMPDEST PUSH32 0x536F7920756E2000000000000000000000000000000000000000000000000000 DUP2 MSTORE POP JUMP JUMPDEST PUSH0 DUP2 SWAP1 POP SWAP3 SWAP2 POP POP JUMP JUMPDEST PUSH0 DUP2 SWAP1 POP DUP2 PUSH0 MSTORE PUSH1 0x20 PUSH0 KECCAK256 SWAP1 POP SWAP2 SWAP1 POP JUMP JUMPDEST PUSH0 DUP2 SLOAD PUSH2 0x2C7 DUP2 PUSH2 0x249 JUMP JUMPDEST PUSH2 0x2D1 DUP2 DUP7 PUSH2 0x29F JUMP JUMPDEST SWAP5 POP PUSH1 0x1 DUP3 AND PUSH0 DUP2 EQ PUSH2 0x2EB JUMPI PUSH1 0x1 DUP2 EQ PUSH2 0x300 JUMPI PUSH2 0x332 JUMP JUMPDEST PUSH1 0xFF NOT DUP4 AND DUP7 MSTORE DUP2 ISZERO ISZERO DUP3 MUL DUP7 ADD SWAP4 POP PUSH2 0x332 JUMP JUMPDEST PUSH2 0x309 DUP6 PUSH2 0x2A9 JUMP JUMPDEST PUSH0 JUMPDEST DUP4 DUP2 LT ISZERO PUSH2 0x32A JUMPI DUP2 SLOAD DUP2 DUP10 ADD MSTORE PUSH1 0x1 DUP3 ADD SWAP2 POP PUSH1 0x20 DUP2 ADD SWAP1 POP PUSH2 0x30B JUMP JUMPDEST DUP4 DUP9 ADD SWAP6 POP POP POP JUMPDEST POP POP POP SWAP3 SWAP2 POP POP JUMP JUMPDEST PUSH0 PUSH2 0x345 DUP3 PUSH2 0x279 JUMP JUMPDEST PUSH1 0x7 DUP3 ADD SWAP2 POP PUSH2 0x355 DUP3 DUP5 PUSH2 0x2BB JUMP JUMPDEST SWAP2 POP DUP2 SWAP1 POP SWAP3 SWAP2 POP POP JUMP INVALID LOG2 PUSH5 0x6970667358 0x22 SLT KECCAK256 PUSH16 0x7CDBF7738796DE9602901AC7FBCD43BA DUP5 0xCC CALLF 0x11D7 LOG0 GASPRICE PUSH3 0xCDFB5F PUSH25 0x2B139764736F6C634300082200330000000000000000000000 "
		},
		"gasEstimates": {
			"creation": {
				"codeDepositCost": "183600",
				"executionCost": "infinite",
				"totalCost": "infinite"
			},
			"external": {
				"especie()": "infinite",
				"hacerSonido()": "infinite",
				"obtenerInfo()": "infinite"
			}
		},
		"methodIdentifiers": {
			"especie()": "e7491011",
			"hacerSonido()": "5f8c9a0a",
			"obtenerInfo()": "f12ac8ad"
		}
	},
	"abi": [
		{
			"inputs": [],
			"stateMutability": "nonpayable",
			"type": "constructor"
		},
		{
			"inputs": [],
			"name": "especie",
			"outputs": [
				{
					"internalType": "string",
					"name": "",
					"type": "string"
				}
			],
			"stateMutability": "view",
			"type": "function"
		},
		{
			"inputs": [],
			"name": "hacerSonido",
			"outputs": [
				{
					"internalType": "string",
					"name": "",
					"type": "string"
				}
			],
			"stateMutability": "pure",
			"type": "function"
		},
		{
			"inputs": [],
			"name": "obtenerInfo",
			"outputs": [
				{
					"internalType": "string",
					"name": "",
					"type": "string"
				}
			],
			"stateMutability": "view",
			"type": "function"
		}
	]
}